:020000040000FA
:04000000803105281E
:100008000900B327A1278A248C248D2480319315D5
:1000180013160C30D6009A31722280310130CE008E
:100028009931FD21803104302100AF00B001B101C8
:10003800B2018130C0009730C100E0302000E000FC
:10004800FF30E100993191218031E030C60007305E
:10005800C70087302100C0009730C10020009931C7
:10006800F6218031FF30C600C7008C302100C00067
:100078009730C10020009931F6218031503021009D
:10008800E200E3012830EA00EB010A302000DA0040
:10009800DB014608E0004708E10053082100EC00B6
:1000A80020009031D320803150302100E200E3015C
:1000B8002830EA00EB010930E400E5012000E00106
:1000C800F830E10093230230F40098310E20983183
:1000D8008F208031A001FF302100AA00AB00AC01C5
:1000E800AD01A001A1010530A400A5019E30A20028
:1000F800A3014F30A600A70120004608E0004708EA
:10010800E10090310020803121302100A000013031
:10011800A4008430A2000730A60020003A08E000BE
:100128003B08E10098311620803123302100AF00D0
:10013800B0010130B100B2019830C0009730C10061
:10014800FF302000E000E1009931912180311E301C
:100158002100AF00B0010930B100B201B030C000D9
:100168009730C100FF302000E000E1009931912173
:10017800803104302100AF00B0011030B100B2016D
:10018800CA30C0009730C1002000E001F830E1001B
:1001980099319121803104302100AF00B00118302D
:1001A800B100B201D330C0009730C1002000E00197
:1001B800F830E10099319121803104302100AF00FD
:1001C800B0012030B100B201DC30C0009730C1006E
:1001D800E0302000E0000730E100993191218031C2
:1001E80004302100AF00B0012830B100B201E33083
:1001F800C0009730C100E0302000E0000730E10087
:1002080099319121813104302100AF00B0013030A3
:10021800B100B201E830C0009730C100E0302000E2
:10022800E0000730E100993191218131043021004B
:10023800AF00B0013830B100B201EF30C0009730E4
:10024800C100E0302000E0000730E1009931912141
:10025800813104302100AF00B0014030B100B2015B
:10026800F430C0009730C100E0302000E0000730D3
:10027800E10099319121813120009A31C4228131E4
:10028800BC30D9009A31A22281310130D9009A318B
:10029800A22281310330D9009A31A2228131D33090
:1002A800D9009A31A2228131C330D9009A31A222D1
:1002B8008131CF30D9009A31A2228131DC30D90086
:1002C8009A31A2229A31C4228131BC30D9009A31A4
:1002D800A22281310130D9009A31A22281310B301A
:1002E800D9009A31A2228131D330D9009A31A22281
:1002F8008131C330D9009A31A2228131CF30D9005F
:100308009A31A2228131DC30D9009A31A2229A3165
:10031800C4228131BC30D9009A31A2228131013006
:10032800D9009A31A22281310530D9009A31A2220E
:100338008131D330D9009A31A2228131C330D9001A
:100348009A31A2228131CF30D9009A31A22281314B
:10035800DC30D9009A31A2229A31C4228131BC30D2
:10036800D9009A31A22281310130D9009A31A222D2
:1003780081310430D9009A31A2229A3199228131EF
:10038800BD30D9009A31A22281310130D700933192
:10039800542381315908B5000130D70093315423D3
:1003A80081315908B4000130D70093315423813189
:1003B8005908B300D7019331542381315908B20049
:1003C8009A31D22281313208F5003308F600210033
:1003D8002A08F9002B08FA00200097316F2781318D
:1003E800F009701C902B64302100AF00B001103070
:1003F800B100B201200035082100E00020009A3148
:100408004C228231DB302100C0002330C1002000A3
:1004180099312821823134082100E00020009A31E6
:100428004C228231DB302100C0002330C100200083
:100438009931F621823133082100E00020009A31F9
:100448004C228231DB302100C0002330C100200063
:100458009931F621823132082100E00020009A31DA
:100468004C228231DB302100C0002330C100200043
:100478009931F621823164302100AF00B001193082
:10048800B100B2012D08E00020009A314C228231DF
:10049800DB302100C0002330C10020009931282121
:1004A800823121002C08E00020009A314C22823150
:1004B800DB302100C0002330C10020009931F62133
:1004C800823121002B08E00020009A314C22823131
:1004D800DB302100C0002330C10020009931F62113
:1004E800823121002A08E00020009A314C22823112
:1004F800DB302100C0002330C10020009931F621F3
:10050800823142302100AF00B0010330B100B201A6
:1005180020009831EC2082312100E001E101200027
:10052800331D982A2100E00A200096319E26823148
:10053800DF302100C0002330C10020009931F621AE
:10054800823142302100AF00B0010430B100B20165
:1005580020009831EC2082312100E001E1012000E7
:10056800B31CB82A2100E00A200096319E26823169
:10057800DF302100C0002330C10020009931F6216E
:10058800823142302100AF00B0010530B100B20124
:1005980020009831EC2082312100E001E1012000A7
:1005A800B31DD82A2100E00A200096319E26823108
:1005B800DF302100C0002330C10020009931F6212E
:1005C800823142302100AF00B0010630B100B201E3
:1005D80020009831EC2082312100E001E101200067
:1005E800321DF82A2100E00A200096319E26823129
:1005F800DF302100C0002330C10020009931F621EE
:10060800833142302100AF00B0010730B100B201A0
:1006180020009831EC2083312100E001E101200025
:10062800B21D182B2100E00A200096319E26833146
:10063800DF302100C0002330C10020009931F621AD
:10064800833142302100AF00B0010830B100B2015F
:1006580020009831EC2083312100E001E1012000E5
:10066800321E382B2100E00A200096319E26833165
:10067800DF302100C0002330C10020009931F6216D
:10068800833142302100AF00B0010930B100B2011E
:1006980020009831EC2083312100E001E1012000A5
:1006A800B21F582B2100E00A200096319E26833184
:1006B800DF302100C0002330C10020009931F6212D
:1006C800833164302100A0004230A4008230A200AF
:1006D8004E30A60020003A08E0003B08E1009831BF
:1006E8001620833164302100AF00B0014230B100E0
:1006F800B20120002008DC00DD01DE01DF019231BB
:10070800B3228331A00A32082100AA00200033084E
:100718002100AB00AC01AD0140296300912B210001
:100728006408013C2000B60000302100D8006508AC
:10073800583B2000B7000130AC00AD01210064082F
:10074800F5006508F600FE30F900FF30FA002000D9
:100758009D31772583317008AE007108AF00B8016C
:10076800210064082000B900210064086A07E80035
:1007780065086B3DE90064086A02E60065086B3BA2
:10078800E7006208A0006308A1006608A4006708E3
:10079800A5006208A2006308A3006808A60069080B
:1007A800A700200093318E238331390838020318BB
:1007B800892C3608F5003708F600F901FA019C3152
:1007C8006A248331F009701CF22BB9030230AE079A
:1007D8000030AF3D2E08B6072F08B73DB80A0230E3
:1007E800AC070030AD3D2C08B6072D08B73D3808DA
:1007F80021006207A0000030633DA10020003908F5
:1008080021006A07A40000306B3DA50020003808CD
:1008180021006207A2000030633DA30020003908D0
:1008280021006A02A60000306B3BA700200093312C
:100838008E238431380821006202A0000030633B17
:10084800A1002000390821006A07A40000306B3D90
:10085800A5002000380821006202A2000030633B96
:10086800A3002000390821006A02A60000306B3B73
:10087800A700200093318E238431390821006207B4
:10088800A0000030633DA1002000380821006A075D
:10089800A40000306B3DA500620820003907210044
:1008A800A200D8016308583DA300200038082100A1
:1008B8006A02A60000306B3BA700200093318E230C
:1008C8008431390821006202A0000030633BA10096
:1008D8002000380821006A07A40000306B3DA500FD
:1008E8002000390821006202A2000030633BA30007
:1008F8002000380821006A02A60000306B3BA700E0
:10090800200093318E238431D92B0800D6010800AA
:100918000800121113119210921292119714963026
:10092800F200F30198310020843197100130F10072
:10093800F001F00B9D2CF10B9C2C8E30F000F00B8D
:10094800A32C000097149630F200F3019831002090
:10095800843101302100B90020009B31FC2384310F
:100968009630F200F30198310020843101302100E3
:10097800B90020009B31FC2384319630F200F3014A
:1009880098310020843111302100B90020009B31BA
:10099800FC2384310130F40098310E208431B130C9
:1009A8002100B90020009B31FC2384310130210053
:1009B800B90020009C31132484312C302100B90067
:1009C80020009C31132484312D302100B9002000EF
:1009D8009C31132484310A30F200F301983100204D
:1009E8008431B2302100B90020009B31FC238431CE
:1009F80001302100B90020009C31132485312C30AE
:100A08002100B90020009C31132485312D302100AC
:100A1800B90020009C31132485310A30F200F3011B
:100A2800983100208531B3302100B90020009B3176
:100A3800FC23853101302100B90020009C311324AA
:100A480085312C302100B90020009C3113248531D8
:100A58002D302100B90020009C311324853101304C
:100A68002100B90020009C31132485312C3021004D
:100A7800B90020009C31132485312D302100B900A4
:100A880020009C31132485310A30F200F30198319B
:100A980000208531B4302100B90020009B31FC23AF
:100AA800853107302100B90020009C31132485319D
:100AB8000A30F200F301983100208531C03021005E
:100AC800B90020009B31FC238531A2302100B900F8
:100AD80020009C311324853102302100B900200008
:100AE8009C311324853184302100B90020009C31C9
:100AF800132485310A30F200F30198310020853142
:100B0800C1302100B90020009B31FC238531C5305C
:100B18002100B90020009C31132485310A30F200ED
:100B2800F301983100208531C2302100B90020003E
:100B38009B31FC2385310A302100B90020009C310B
:100B4800132485312100B90120009C3113248531FB
:100B58000A30F200F301983100208531C3302100BA
:100B6800B90020009B31FC2385318A302100B9006F
:100B780020009C31132485312A302100B90020003F
:100B88009C31132485310A30F200F301983100209A
:100B98008531C4302100B90020009B31FC23853108
:100BA8008A302100B90020009C3113248531EE30B1
:100BB8002100B90020009C31132485310A30F2004D
:100BC800F301983100208531C5302100B90020009B
:100BD8009B31FC2385310E302100B90020009C3167
:100BE800132485310A30F200F30198310020853151
:100BF80020302100B90020009B31FC2386310A30C7
:100C0800F200F30198310020863136302100B90016
:100C180020009B31FC238631C8302100B900200018
:100C28009C31132486311430F200F30198310020EE
:100C380086313A302100B90020009B31FC238631EF
:100C480005302100B90020009C31132486312A3058
:100C58002100B90020009B31FC2386312100B90115
:100C680020009C31132486312100B90120009C31D9
:100C7800132486312100B90120009C3113248631C8
:100C88004F302100B90020009C31132486311430E4
:100C9800F200F3019831002086312B302100B90091
:100CA80020009B31FC2386312100B90120009C31B2
:100CB800132486312100B90120009C311324863188
:100CC8002100B90120009C31132486319F30210076
:100CD800B90020009C31132486311430F200F3014E
:100CE800983100208631E0302100B90020009B3186
:100CF800FC23863102302100B90020009C311324E6
:100D080086311C302100B90020009C311324863123
:100D180007302100B90020009C311324863112309D
:100D28002100B90020009C3113248631373021007E
:100D3800B90020009C311324863132302100B900DB
:100D480020009C311324863129302100B90020006D
:100D58009C31132486312D302100B90020009C31AC
:100D68001324863129302100B90020009C31132436
:100D7800863125302100B90020009C3113248631AA
:100D88002B302100B90020009C31132486313930E2
:100D98002100B90020009C31132486312100B901BB
:100DA80020009C311324863101302100B900200035
:100DB8009C311324863103302100B90020009C3176
:100DC8001324863110302100B90020009C311324EF
:100DD80086310A30F200F301983100208631E13083
:100DE8002100B90020009B31FC238631033021000B
:100DF800B90020009C31132487311D302100B9002F
:100E080020009C311324873107302100B9002000CD
:100E18009C311324873106302100B90020009C3111
:100E2800132487312E302100B90020009C3113246F
:100E380087312C302100B90020009C3113248731E0
:100E480029302100B90020009C31132487312D302E
:100E58002100B90020009C31132487312E30210055
:100E6800B90020009C31132487312E302100B900AD
:100E780020009C311324873137302100B90020002D
:100E88009C311324873137302100B90020009C3170
:100E9800132487312100B90120009C3113248731A4
:100EA8002100B90120009C31132487310230210030
:100EB800B90020009C311324873110302100B9007B
:100EC80020009C31132487310A30F200F301983155
:100ED8000020873113302100B90020009B31FC230A
:100EE80087316430F200F3019831002087312930CE
:100EF8002100B90020009B31FC2387316430F200C7
:100F0800F301983100208731FF30C600C700BA01CD
:100F1800BB014F30C000C1019F30BE00BF0105308A
:100F2800C500C2010130C4000830C3000130CE0042
:100F38009931FD21873198318F2810303E00A0006B
:100F480008303D00CC001330C60015303E00A30029
:100F58001430A40014303D00C500200008006030A3
:100F680031008D008F01910192010630930021001C
:100F7800131193133E00B801C301CE01330094133B
:100F8800901320008C018D018E01900108002A30F9
:100F98002100B600200051082100BC00BD0120003E
:100FA80051082100B700B80120008F31A8278731E8
:100FB8002B302100B600200052082100BC00BD01E2
:100FC800200052082100B700B80120008F31A8275F
:100FD80087312C302100B90020009B31FC23873158
:100FE8003C082100BA0020003D082100BB00200079
:040FF8009C312A2CD2
:101000007708F5007808F6009130F9000730FA000B
:101010009C315B248831701C00347708173EF70040
:1010200008300318013E78078A007708820093345D
:101030000034003400340034003400340034003410
:101040000034003400340034003400340034003400
:1010500000340034003400340034003400340034F0
:101060000034003400340034FE341B3400340034C7
:1010700000340034003400340034003400340034D0
:1010800000340034003400341E34003400340034A2
:1010900000340034003400341E3400340034003492
:1010A0000034003400340034003401342034193466
:1010B000A03407347834013426341934A03407348A
:1010C00078340134263401342034013400340034BF
:1010D00000340034003400341C3418342634103406
:1010E00042341034FF343F348234113402340F342C
:1010F00000340034003400341C34103422340834FA
:1011000022340434223403349C34003440340E340A
:1011100030341134083411340434113402340E34B0
:1011200000340734803408345C34103462341034B2
:10113000A2341134323413341C341C3400341834C7
:101140000034163480340134003400340034003468
:1011500000340034003400341E34003400340034D1
:1011600000340034003400340034003400340034DF
:10117000003400340034003400340034E0340734E8
:10118000183418340C3430340434203402344034ED
:10119000023440340034003400340034023440342B
:1011A00002344034043420340C34303418341834CD
:1011B000E0340734003400340034003400340034A8
:1011C000003400340834003418340034F03400346F
:1011D0004E340034F0340034183400340834003411
:1011E000003400340034003400340234003402345B
:1011F0000034023400340234E0341F34003402344A
:101200000034023400340234003402340034003438
:101210000034003400340034003400340034983496
:1012200000347834003400340034003400340034A6
:10123000003400340034003400340034003400340E
:1012400000340134003401340034013400340134FA
:1012500000340134003401340034003400340034EC
:1012600000340034003400340034003400341834C6
:1012700000341834003400340034003400340034B6
:10128000003400340034003400340034003440347E
:101290000034303400340C3400340334C0340034AF
:1012A000303400340C340034023400340034003460
:1012B00000340034F03403340C340C340234103471
:1012C00002341034023410340C340C34F03403344F
:1012D000003400340034003400340034043410345A
:1012E0000434103404341034FE341F340034103409
:1012F000003410340034103400340034003400342E
:1013000000340034063418340234143402341234F5
:1013100002341134C23410343C34103400340034FC
:10132000003400340034003400340034003400341D
:101330000234103442341034423410344234103405
:10134000BC340F3400340034003400340034003432
:1013500000340334C03402342034023418340234EC
:1013600004340234FE341F340034023400340234B6
:1013700000340034003400340034003400340034CD
:101380003E341034223410342234103442340834C1
:101390008234073400340034003400340034003424
:1013A00000340034F03407344C3408342234103420
:1013B0002234103422341034423408348034073458
:1013C000003400340034003400340034023400347B
:1013D0000234183402340734C23400343234003456
:1013E0000A3400340634003400340034003400344D
:1013F000003400341C340F34A2341034423410341E
:1014000042341034A2341034A23409341C3406346B
:1014100000340034003400340034003478340034B4
:10142000843410340234113402341134023411344F
:1014300084340C34F8340334003400340034003481
:101440000034003400340034003400346034183484
:101450006034183400340034003400340034003474
:1014600000340034003400340034003400340034DC
:1014700000340034603498346034783400340034FC
:1014800000340034003400340034003400340034BC
:1014900000340034003400340034033400340334A6
:1014A0008034043480340434403408344034083404
:1014B00020341034003400340034003480340434D8
:1014C000803404348034043480340434803404346C
:1014D00080340434803404348034043400340034E0
:1014E000003400342034103440340834403408349C
:1014F000803404348034043400340334003403343E
:101500000034003400340034003400340E3400342D
:101510000234003402341B34823400344234003448
:10152000263400341C3400340034003400340034D9
:10153000F034033418340C3404341834E2341334E3
:10154000123414340A3416348A341B34FC3407340D
:1015500000340434003404340034103400340E34C5
:10156000803403347034023418340234303402349A
:10157000C03402340034033400340C3400341034EA
:1015800000340034F8341F34883410348834103474
:1015900088341034883410344834113430340E34E4
:1015A0000034003400340034C034033430340C349C
:1015B000103408340834103408341034083410342B
:1015C000083410341834103400340034003400343B
:1015D00000340034F8341F34083410340834103424
:1015E000083410340834103410340834E03407342C
:1015F000003400340034003400340034F8341F3434
:1016000008341134083411340834113408341134D6
:1016100008341134083410340034003400340034F9
:1016200000340034F8341F340834013408340134F1
:1016300008340134083401340834013408340034E7
:10164000003400340034003400340034C034033437
:1016500030340C3410340834083410340834103466
:10166000083411340834113418341F340034003471
:1016700000340034F8341F340034013400340134B1
:10168000003401340034013400340134F8341F34A0
:101690000034003400340034003400340834103492
:1016A0000834103408341034F8341F34083410343B
:1016B000083410340834103400340034003400345A
:1016C0000034003400340034003410340834103452
:1016D0000834103408341034F8340F340034003433
:1016E000003400340034003400340034F8341F3443
:1016F00080340034803401344034023420340434E3
:101700001034043408340834003410340034003405
:1017100000340034F8341F340034103400341034F2
:1017200000341034003410340034103400341034D9
:101730000034003400340034F8341F3438340034BA
:10174000E03401340034073400340634C03401344A
:1017500038340034F8341F3400340034003400349A
:1017600000340034F8341F34103400346034003452
:10177000803401340034063400340834F8341F3423
:10178000003400340034003400340034E0340734D2
:101790001034083408341034083410340834103449
:1017A0000834103410340834E03407340034003482
:1017B00000340034F8341F34083401340834013460
:1017C000083401340834013488340034703400346F
:1017D000003400340034003400340034E034073482
:1017E00010340834083410340834103408341034F9
:1017F0000834303410344834E03447340034003492
:1018000000340034F8341F3408340134083401340F
:101810000834033488340434703408340034103409
:101820000034003400340034003400347034183490
:101830004834103488341034883410340834113467
:101840000834093418340E340034003400340034C1
:1018500008340034083400340834003408340034C8
:10186000F8341F34083400340834003408340034A9
:10187000083400340034003400340034F8340734C1
:101880000034183400341034003410340034103470
:1018900000340834F83407340034003400340034A1
:1018A0000834003430340034C03401340034063499
:1018B000003418340034183400340734C034003491
:1018C000303400340834003418340034E034033445
:1018D00000341C3400340F34E0340034C03401349C
:1018E00000340E3400341C34E03403341834003433
:1018F00008341034103408342034043440340234B2
:1019000080340134803401344034023420340434CF
:1019100010340834083410340834003410340034DF
:10192000603400348034003400341F348034003498
:10193000403400342034003410340034083400348F
:1019400000340034083418340834143408341234A1
:1019500008341134883410344834103428341034A6
:1019600018341034003400340034003400340034AF
:1019700000340034FE347F340234403402344034C6
:101980000234403402344034003400340034003433
:1019900000340034023400340C3400343034003469
:1019A000C03400340034033400340C340034303498
:1019B0000034403400340034003400340234403405
:1019C000023440340234403402344034FE347F3434
:1019D0000034003400340034003400340034003467
:1019E000003400340034043400340334E034003470
:1019F000383400340E34003470340034803403340E
:101A000000340434003400340034203400342034F2
:101A100000342034003420340034203400342034A6
:101A20000034203400342034003420340034203496
:101A30000034003400340034003400340034003406
:101A400001340034023400340034003400340034F3
:101A500000340034003400340034003400340C34DA
:101A60002034123420341134203411342034093419
:101A7000C0341F34003410340034003400340034D7
:101A800000340034FE341F34403408342034103421
:101A90002034103420341034603408348034073457
:101AA000003400340034003400340034803407340F
:101AB00040340834203410342034103420341034AE
:101AC0002034103420341034003400340034003416
:101AD0000034003480340734403418342034103457
:101AE000203410342034103440340834FE341F3491
:101AF00000340034003400340034003480340734BF
:101B00004034093420341134203411342034113459
:101B100020341134C0341134003400340034003423
:101B2000003400342034003420340034FC341F34BA
:101B3000243400342234003422340034223400347B
:101B4000223400340034003400340034803407344C
:101B500040349834203490342034903420349034FD
:101B600040344834E0343F3400340034003400342E
:101B700000340034FE341F348034003440340034E8
:101B8000203400342034003420340034C0341F3476
:101B90000034003400340034003400342034003485
:101BA0002034003426340034E6341F34003400344A
:101BB0000034003400340034003400340034003485
:101BC00000340034003480342034803420348034B5
:101BD00026348034E6347F3400340034003400345A
:101BE000003400340034003400340034FE341F3438
:101BF0000034013400340334803404344034043479
:101C000040340834203410340034003400340034BC
:101C10000034003400340034023400340234003420
:101C200002340034FE341F340034003400340034F5
:101C30000034003400340034E0341F3440340034C5
:101C40002034003420340034C0341F344034003495
:101C50002034003420340034C0341F3400340034C5
:101C600000340034E0341F34C034003440340034D5
:101C7000203400342034003420340034C0341F3485
:101C8000003400340034003400340034803407342D
:101C900040340834203410342034103420341034CC
:101CA00040340834803407340034003400340034C5
:101CB00000340034E034FF3440340834203410342D
:101CC0002034103420341034603408348034073425
:101CD00000340034003400340034003480340734DD
:101CE000403418342034103420341034203410346C
:101CF00040340834E034FF3400340034003400341D
:101D00000034003400340034E0341F3480340034B4
:101D1000403400342034003420340034E0340034C3
:101D2000003400340034003400340034C03418343B
:101D3000203411342034113420341234203412343D
:101D400020340C34003400340034003400340034C7
:101D5000003400342034003420340034F8340F349C
:101D60002034103420341034203410342034103413
:101D7000003400340034003400340034E0340F34D4
:101D8000003410340034103400341034003408347B
:101D9000E0341F34003400340034003400340034A4
:101DA00020340034C0340134003406340034183494
:101DB0000034103400340C3400340334C0340034A4
:101DC000203400340034003460340034803407346C
:101DD0000034183400340E34C034013480340134FB
:101DE00000340E3400341834803407346034003446
:101DF0000034003420341034403408348034043447
:101E00000034033400340334803404344034083460
:101E1000203410340034003420348034C034803412
:101E200000348334003446340034383400341834F9
:101E30000034063400340134C0340034203400341B
:101E40000034003420341034203418342034143456
:101E50002034123420341134A0341034603410345F
:101E600020341034003400340034003400340034A2
:101E70000034013400340134FC343E340234403444
:101E8000023440340234403400340034003400342E
:101E900000340034003400340034003400340034A2
:101EA000FE347F3400340034003400340034003415
:101EB0000034003400340034003400340034003482
:101EC000023440340234403402344034FC343E3472
:101ED0000034013400340134003400340034003460
:101EE00000340334803400348034003480340034CF
:101EF000003401340034013400340234003402343C
:101F000000340234803401340034003480341F340F
:101F1000C0341034203410341034103420341034D1
:101F2000C034103480341F340034003400340034A2
:101F3000C034033430340C341034083408341034D2
:101F400008341034083490340834B0341834D034A1
:101F50004E18C42F2A3021003602031DB72F183027
:101F6000BC070030BD3D1830B7070030B83D2B30FE
:101F70003602031DC32F0030BC070030BD3D0030CA
:101F8000B7070030B83DDD2F2A3021003602031D8F
:101F9000D12F0030BC070030BD3D0030B707003006
:101FA000B83D2B303602031DDD2F1830BC07003042
:101FB000BD3D1830B7070030B83D3608B9002000E5
:101FC0009B31FC238F3121003D08B90020009C315A
:101FD00013248F3121003C08B90020009C311324C8
:101FE0008F3121003808B90020009C3113248F3133
:0C1FF00021003708B90020009C31132CA0
:1020000021002008F9002108FA002208F500230821
:10201000F60020009C315B249031701C24282100A4
:1020200020082000CF00210021082000D00021003E
:102030002208A0002308A10020004F082100A200D0
:10204000200050082100A30021002408F9002508E1
:10205000FA002608F5002708F60020009C315B24D2
:102060009031701C4828210024082000CF00210056
:1020700025082000D00021002608A4002708A5007C
:1020800020004F082100A600200050082100A700D2
:102090000130210020022000B00000302100213B4F
:1020A0002000B10021002008F9002108FA002208D0
:1020B000F5002308F60020009C315B249031701855
:1020C0008D28B00A0319B10A3008D1002100240874
:1020D0002000D2006008BC006108BD008731CB271A
:1020E00090313008D100210026082000D20060087D
:1020F000BC006108BD008731CB2790313008F50066
:102100003108F60021002208F9002308FA00200017
:102110009C315B2490317018612801302100240229
:102120002000B00000302100253B2000B10021003C
:102130002408F9002508FA002608F5002708F6000B
:1021400020009C315B2490317018D228B00A03190A
:10215000B10A210020082000D1003008D200600818
:10216000BC006108BD008731CB27903121002208D7
:102170002000D1003008D2006008BC006108BD001A
:102180008731CB2790313008F5003108F600210067
:102190002608F9002708FA0020009C315B249031C2
:1021A0007018A62808005A082100E40020005B08E7
:1021B0002100E5006408F5006508F6000230F9002A
:1021C000FA0120009D312825903175082100D800A2
:1021D0007608D9005809B3005909B400B30A0319A5
:1021E000B40A6408F5006508F6006C08F900FA0105
:1021F00020009C316A249031F009701CC82921000C
:10220000640862072000D10021006C086A072000E2
:10221000D2006008BC006108BD008731CB27913136
:1022200021006C0862072000D100210064086A07C1
:102230002000D2006008BC006108BD008731CB27B8
:1022400091312100640862022000D10021006C0855
:102250006A072000D2006008BC006108BD00873119
:10226000CB27913121006C0862022000D1002100AF
:1022700064086A072000D2006008BC006108BD0045
:102280008731CB2791312100640862022000D10000
:1022900021006C086A022000D2006008BC006108BE
:1022A000BD008731CB27913121006C0862022000EC
:1022B000D100210064086A022000D2006008BC003E
:1022C0006108BD008731CB27913121006408620786
:1022D0002000D10021006C086A022000D2006008B2
:1022E000BC006108BD008731CB27913121006C080B
:1022F00062072000D100210064086A022000D20099
:102300006008BC006108BD008731CB2791312100F6
:10231000EC0A3308F5003408F600F901FA01200050
:102320009C316A249131701CA529031021006C0D89
:10233000D8003307DC000030343DDD0001305C079D
:10234000B30000305D3DB400C72901302100E40234
:102350000030E53B64086C02DC00D8016508583B9E
:10236000DD0001305C07DE0000305D3DDF005E080F
:10237000F5005F08F6000230F900FA0120009D31F7
:102380007725913170082100B3077108B43DF12819
:1023900008000F30A102A201A3014403031DFD297F
:1023A0001030A1022108F7009B310B23913121004D
:1023B000A80020002108F7009B31792391312100EA
:1023C000A9002808F7002908F8002000E224A80046
:1023D00021002808F5002908F6000130F900FA016B
:1023E00020006F27701CF7290130C500F929280A41
:1023F000C50007302100B500172A02304402031D32
:10240000172A1130A1022108F500F6011430F90055
:10241000FA019D315325923170082100A8007108FE
:10242000A90009302000A8000F302100B500FF30BE
:102430002000A90000302802031CB22AA90A2100AA
:10244000A80A0319A90A20004403031D302A210009
:102450002808F7002908F8002000E224AB003E2AF3
:1024600002304402031D3E2A21002808F7002908F3
:10247000F8002000883100209231AB00FF30AA0024
:10248000003021003502031CAD2A2000AA0A2B18B7
:10249000572A29082407D1002A082607D2003A081B
:1024A000BC003B08BD008731CB279231642A290844
:1024B0002407D1002A082607D2006008BC00610862
:1024C000BD008731CB279231AB0C4408F5000230B8
:1024D000F9009C314224923170082100D80020007C
:1024E0002A08F5000730F9009C314224923121007E
:1024F00058087005DC005C1C892AA80A0319A90A7F
:102500002808F7002908F8002000883100209231BF
:10251000AB00200028082902031DA72A2908240748
:10252000CF000030253DD00002304402031D9B2A1D
:10253000CF0A0319D00A4F08D1002A082607D20073
:102540003A08BC003B08BD008731CB2792312100FF
:10255000350820002A02031C452A200028082902E9
:10256000031C1E2A08002100CE012000450821007E
:10257000AE002100CE0AE5304E078400D80123309A
:10258000583D850020005C08F5005D08F6005E08F7
:10259000F7005F08F8000A30F900FA01FB01FC01BE
:1025A0009C31CA249231700880007508DC007608DE
:1025B000DD007708DE007808DF005C08F5005D08C4
:1025C000F6005E08F7005F08F800F901FA01FB0168
:1025D000FC019C3148249231F0097018B92A21007D
:1025E0002F082000CB00210030082000CC00210063
:1025F0004E0A2000CD00013021004E02031C482B62
:102600002000CD034B08A4004C08A5002100310890
:102610002000A600210032082000A700E5304D0769
:10262000840000302100D8002330583D8500303030
:1026300000072000A1004608E0004708E100C9218A
:102640004508F5004408F9009D314725933170088D
:102650002100D80020004B072100DC0000302000C2
:102660004C3D2100DD002000440821005C07D8001B
:1026700000305D3DD900013058022000CB00003011
:102680002100593B2000CC004D08013C031C002BCD
:1026900020004B082100AF0020004C082100B000B2
:1026A0002E082000C500080056080A3C0318612BBC
:1026B000571C5D2B230091125F2B2300911691155F
:1026C000632B23000F1590131013F00123000F1834
:1026D000F00970082100D800F0012E000F18F00951
:1026E000210058087005DC005C1C652B23000C08D9
:1026F0002000D9002E000F10230011160F1020000B
:102700009A31E222933156080A3C03188A2B23009F
:1027100091118C2B23000F1120000800E201E3012E
:10272000E601E701EC01ED01EE01EF01E401E50155
:10273000E801E901EA01EB01210020082202200062
:10274000E20021002108233B2000E30021002408AF
:1027500026022000E60021002508273B2000E70094
:102760006208F9006308FA00F501F6019C316A2459
:102770009331701CBF2B0130EC00ED01C22BFF30F8
:10278000EC00ED006608F9006708FA00F501F601B3
:102790009C316A249331701CD12B0130EE00EF0183
:1027A000D42BFF30EE00EF006C08F5006D08F6004A
:1027B0006208F9006308FA009D31772593317008AB
:1027C000E2007108E3006E08F5006F08F600660885
:1027D000F9006708FA009D31772593317008E6000B
:1027E0007108E7006208F5006308F6000230F9009E
:1027F000FA019D31772593317008E4007108E500F6
:102800006608F5006708F6000230F900FA019D310C
:10281000772594317008E8007108E9006208F50036
:102820006308F6006608F9006708FA009C316A241C
:102830009431F009701C7F2C62086802EA0063087A
:10284000693BEB0021002008F5002108F600220872
:10285000F9002308FA0020006F27F009701C6F2C84
:10286000210020082000D100210024082000D200EF
:102870006008BC006108BD008731CB2794316C082B
:102880002100A00720006D082100A13D20006A085A
:10289000F5006B08F600F901FA019C316A249431C5
:1028A000701C572C6808EA076908EB3D6E2C640819
:1028B00068022100DC0020006508693B2100DD0082
:1028C0005C082000EA0721005D082000EB3D6E084F
:1028D0002100A40720006F082100A53D222C210023
:1028E00020082000D100210024082000D200600828
:1028F000BC006108BD008731CB279431E12C66080C
:102900006402EA006708653BEB0021002408F5003B
:102910002508F6002608F9002708FA0020006F278E
:10292000F009701CD22C210020082000D1002100C9
:1029300024082000D2006008BC006108BD00873177
:10294000CB2794316E082100A40720006F082100D6
:10295000A53D20006A08F5006B08F600F901FA01B0
:102960009C316A249431701CBA2C6408EA0765080B
:10297000EB3DD12C680864022100DC0020006908CE
:10298000653B2100DD005C082000EA0721005D08AE
:102990002000EB3D6C082100A00720006D082100FD
:1029A000A13D852C210020082000D1002100240811
:1029B0002000D2006008BC006108BD008731CB2731
:1029C000943108007708F5007808F600A530F90082
:1029D0000130FA009C315B249431701C003477087C
:1029E000F93EF70014300318013E78078A00770893
:1029F0008200A5340134003401345E3403340634DB
:102A000000340634053428347C3428347C342834AB
:102A1000053424342A347F342A34103403346234A5
:102A200018344634053430344C345A342434503459
:102A30000134063402343C344234023442343C34EF
:102A40000534283410347C341034283403341034E2
:102A5000383410340134C03403341034103410349A
:102A600001344034033460341834063404343C34C4
:102A7000423442343C34033444347E3440340434ED
:102A80004434623452344C3403344A344A34343497
:102A900004341E3410347C34103403344E344A343D
:102AA000323404343C344A344A34303403346234EB
:102AB00012340E34043434344A344A343434043452
:102AC0000C34523452343C340134483402348034AF
:102AD000683403341034283444340334283428341C
:102AE0002834033444342834103403340234523448
:102AF0000C340534383444345434543458340434A5
:102B00007C34123412347C3404347E344A344A34F3
:102B1000343404343C3442344234243404347E3477
:102B2000423442343C3403347E344A344A3403342D
:102B30007E340A340A3404343C344234523434345B
:102B400004347E34083408347E34033442347E3412
:102B500042340334423442343E3404347E34083444
:102B60001434623403347E344034403405347E34CB
:102B70000434083404347E3405347E340434183488
:102B800020347E3404343C34423442343C34043403
:102B90007E34123412340C3404343C344234423423
:102BA000BC3404347E34123412346C34043444346F
:102BB0004A344A343034033402347E340234043428
:102BC0003E34403440343E340534063418346034E6
:102BD0001834063405343E3440343E3440343E34F8
:102BE00005344234243418342434423404349E34BA
:102BF000A034A0347E340434623452344A3446342F
:102C000002347E34423403340634183460340234DF
:102C100042347E340334203410342034043480347D
:102C20008034803480340234043408340434203452
:102C300054345434783404347E3444344434383492
:102C40000434383444344434283404343834443478
:102C500044347E34043438345434543458340234D4
:102C60007C340A3404349834A434A4347C340434DA
:102C70007E3404340434783401347A3402344034F9
:102C80003A3404347E3410342834443401347E34ED
:102C900005347C34043478340434783404347C349B
:102CA0000434043478340434383444344434383408
:102CB0000434FC34243424341834043418342434D4
:102CC0002434FC3402347C34043404344834543422
:102CD00054342034033404343E34443404343C3417
:102CE000403440343C3405340C34303440343034D7
:102CF0000C3405343C3440343C3440343C340534EA
:102D00004434283410342834443404349C34A034FB
:102D1000A0347C340334643454344C3403340834E5
:102D2000363441340134FF3403344134363408340A
:102D30000434203410342034103401342100BF0115
:102D40006008F5006108F6001030F9002730FA003D
:102D500020009C315B249631F009701CCF2E21009D
:102D60006008F5006108F6001030F9002730FA001D
:102D700020009C319424963175082100D6007008FB
:102D8000E0007108E100BF0ADF303F078400D8018E
:102D90002330583D8500303056078000DF2E21005B
:102DA0006008F5006108F600E830F9000330FA0029
:102DB00020009C315B249631F009701CFF2E21000D
:102DC0006008F5006108F600E830F9000330FA0009
:102DD00020009C319424963175082100D60070089B
:102DE000E0007108E100BF0ADF303F078400D8012E
:102DF0002330583D85003030560780000E2F2100CB
:102E00006008F5006108F6006430F900FA0120005E
:102E10009C315B249731F009701C2D2F2100600834
:102E2000F5006108F6006430F900FA0120009C31D9
:102E30009424973175082100D6007008E0007108CD
:102E4000E100BF0ADF303F078400D8012330583D3E
:102E500085003030560780003C2F21006008F500C7
:102E60006108F6000A30F900FA0120009C315B2469
:102E70009731F009701C5A2F21006008F500610895
:102E8000F6000A30F900FA0120009C3194249731B1
:102E900075082100D6007008E0007108E100BF0A43
:102EA000DF303F078400D8012330583D85003030A3
:102EB000560780002100BF0ADF303F078400D80199
:102EC0002330583D85003030600780007008E000F6
:102ED0007108E1003F082C00BF0020000800F0014D
:102EE00075087902031D080076087A02031D0800A0
:102EF000F009080078088A007708F70A0319F80A29
:102F000082000534473472346534613474340434D7
:102F1000203443346F3477340B342034423441341A
:102F2000533449344334203432343034323430343E
:102F300017344134443441344634523455344934DE
:102F4000543420344D3449344E34493420344334DD
:102F50004F344C344F345234203454344634543487
:102F60001934573449345434483420344A344F34B3
:102F7000593453345434493443344B342034463474
:102F80004534413454344834453452345734493448
:102F90004E344734083442347534743474346F34E6
:102FA0006E3420344134083442347534743474340B
:102FB0006F346E34203442340634533465346C3408
:102FC000653463347434043455347034203420341C
:102FD00006344C346534663474342034203404347C
:102FE00044346F3477346E34073452346934673480
:082FF0006834743420342034ED
:10300000F30A0E30F100BD30F000F00B0528F10B93
:103010000328F20B0128F30B01280800E830F20026
:103020000330F3000020F40B0E28080021002008D4
:1030300022020318252820082000CF0021002208A2
:10304000A00020004F082100A20024082602031837
:10305000332824082000CF0021002608A4002000E7
:103060004F082100A6002A30B6002008BC00BD0190
:103070002208B700B80120008F31A82798312B30E3
:103080002100B6002408BC00BD012608B700B80125
:1030900020008F31A8279831210020082202D80073
:1030A000580ADC0024082602D800580ADE005C0812
:1030B000F500F6015E08F900FA01200053257008BA
:1030C000C8007108C9002C302100B9002000FC2381
:1030D00048082100D100200049082100D2005108F1
:1030E000F5005208F6000130F900FA0120005B24D7
:1030F00070188D282100D108031DD20A2000600815
:103100002100BA00200061082100BB0020002A2411
:103110002100D10B7E28D20B7E2820000800D3018D
:10312000D4012100AF01B001B101B2012A30B600D3
:10313000BC01BD01200040082100B700200041086B
:103140002100B80020008F31A82798310230F2000A
:10315000F30100202B302100B600BC01BD0120008E
:103160003E082100B70020003F082100B8002000E1
:103170008F31A82798310230F200F30100202C3063
:103180002100B9002000FC230230F200F3010020EE
:103190002100CF013230D0004F08F5005008F60072
:1031A0000130F900FA0120005B247018EA282100A0
:1031B000CF08031DD00A20003A082100BA002000E1
:1031C0003B082100BB0020002A242100CF0BDB2874
:1031D000D00BDB282000080021003108F500320860
:1031E000F6000230F900FA0120005B24701CFC2874
:1031F0002100B101B201262901302100B1020030C5
:10320000B23B20004308F5004408F9004725700848
:103210002100D8003108F5003208F6005808F900FE
:10322000FA012000532570082100DC007108DD0040
:103230005C08F5005D08F600A030F900FA012000F6
:10324000942470082100B1007108B2002000080029
:103250002100400884004108850000082000CA00C1
:10326000CA080319080045082100AE002F082000F5
:10327000CB00210030082000CC00CD0101304A02F3
:10328000031C8629CD0A4B08A4004C08A500210088
:1032900031082000A600210032082000A7004D08B8
:1032A0002100400784000030413D850000082000D7
:1032B000A1004608E0004708E1009131C921993199
:1032C0004508F5004408F900472570082100D8009A
:1032D00020004B072100DC00003020004C3D210085
:1032E000DD002000440821005C07D80000305D3D6F
:1032F000D900013058022000CB0000302100593B9A
:103300002000CC004A084D02031C42294B08210032
:10331000AF0020004C082100B0002E082000C5009E
:1033200008002100400884004108850000082000B2
:10333000CA00CA080319080045082100AE002F087A
:103340002000CB00210030082000CC00CD0101304E
:103350004A02031CEB29CD0A4B08A4004C08A50027
:10336000210031082000A600210032082000A7001B
:103370004D082100400784000030413D85000008D1
:103380002000A1009131C92199314508F500440878
:10339000F900472570082100D80020004B072100C4
:1033A000DC00003020004C3D2100DD0020004408FE
:1033B00021005C07D80000305D3DD9000130580283
:1033C0002000CB0000302100593B2000CC004A08EF
:1033D0004D02031CAB294B082100AF0020004C0814
:1033E0002100B0002E082000C50008002100400880
:1033F000C0004108C1002000282936302100B90052
:103400002000FC234E03031D112A60302100B90067
:10341000200013249F30C000C1014F30BE00BF0107
:103420004B2A02304E02031D202A4F30C000C1013A
:103430009F30BE00BF012100B901200013244B2A98
:1034400003304E02031D302AA0302100B9002000B5
:1034500013249F30C000C1014F30BE00BF014B2A72
:1034600004304E02031D402A4F30C000C1019F307E
:10347000BE00BF01C0302100B900200013244B2A38
:103480004F30C000C1019F30BE00BF01C0302100DD
:10349000B90020001324080002302C00BB000F30BC
:1034A00021006005D700093C0318582A0730D707C8
:1034B000303057072C00BD002100D701D70AE00C9F
:1034C00004305702031C5E2A0F306005D700093C08
:1034D00003186C2A0730D707303057072C00BC0080
:1034E0002000080023008F17101690130C302000C6
:1034F0005602031D822A23009015101190101010FF
:1035000013308D002000D608031D8B2A2300901154
:10351000101590141010033020005602031D952A38
:103520002300901110159014101423009016200001
:10353000080056080A3C0318A12A23009114200011
:10354000E2220800230090132000590823008C0079
:103550002000E2222300111FB12AFF302000D500F5
:10356000B32A2000D5012300901FBB2A2000560853
:103570000A3C0318A22A200056080A3C031CC22A4F
:10358000230010162000080056080A3C0318CD2A14
:10359000230011142000E222D02A23008F1DCD2AFF
:1035A0002000080056080A3C0318DD2A23000F19E2
:1035B000D62A11152000E222E02A23000F1EDD2A60
:1035C00020000800D8012000D80AFF305802031854
:1035D000F52A2E000F1CE32A0F10200008002E00F1
:1035E0000F1CE32A0F102000080008007708F500E0
:1035F0007808F6000130F900FA015B24701C0034F1
:1036000077080A3EF7001B300318013E78078A004E
:10361000770882000134613077020318003477089C
:10362000183EF7001B300318013E8A00770882001D
:10363000603401340334053409340F34153419343B
:103640001F342134243427342D3431343334373487
:1036500039343D34423446344B344F345434583486
:103660005D34613466346B346D3470347434783462
:103670007C34803486348B34903495349A349E3440
:10368000A234A734AC34B034B434B934BD34C33408
:10369000C934CE34D334D834DD34E234E634EB34B8
:1036A000F134F734FD34023407340A340E34113463
:1036B00015341A341D34223427342C343134363442
:1036C00039343E344334453448344D344F34553422
:1036D0005A345F34643469346C34713475347A34F8
:1036E000803486348C349134953499349B349F34AF
:1036F000A43461307702031800347708863EF7005F
:103700001B300318013E8A00770882000034003421
:103710000034003400340034003400340034003409
:1037200000340034003400340034003400340034F9
:1037300000340034003400340034003400340034E9
:1037400000340034003400340034003400340034D9
:1037500000340034003400340034003400340034C9
:1037600000340034003400340034003400340034B9
:1037700000340034003400340034003400340034A9
:103780000034013401340134013401340134013492
:103790000134013401340134013401340134013481
:1037A0000134013401340134013401340134013471
:1037B0000134013401340134013401340134013461
:1037C0000134013401340134013401340134770807
:1037D000F5007808F6000130F900FA015B24701C4E
:1037E00000347708FB3EF7001B300318013E7807D2
:1037F0008A00770882000734171118110830210059
:10380000D300B91F062C20009716082C2000971211
:1038100097112100B90D200097152100D30B012C21
:103820002000171508001711181508302100D500C1
:10383000B91F1D2C200097161F2C200097129711DE
:103840002100B90D200097152100D50B182C200060
:10385000171508001711181510302100D400BB1FD0
:10386000342C20009716362C200097129711210037
:10387000BA0DBB0D200097152100D40B2F2C200072
:1038800017150800F001750879020319F0090800FE
:10389000F00175087902031D080076087A02031DFD
:1038A000080077087B02031D080078087C02031DCE
:1038B0000800F0090800F00176087A02031C0800ED
:1038C0007A087602031C682C790875020318080030
:1038D000F0090800F001F61F842CFA1B712CF00986
:1038E00008007509F7007609F800F70A0319F80AC5
:1038F0007909F5007A09F600F50A0319F60A77083E
:10390000F9007808FA00862CFA1B080076087A027B
:10391000031C08007A087602031C922C79087502B1
:1039200003180800F00908007508F7007608F80089
:103930007908FB007A08FC00F201F3017B08F5002E
:103940007C08F600F901FA0197316F279C31701C51
:10395000AC2CF501F60108001030F4000310F70D4F
:10396000F80DF20DF30D7B08F2027C08F33B77149F
:103970000318BF2C77107B08F2077C08F33DF40B8B
:10398000AE2C7708F5007808F6007208F00073088E
:10399000F100080075082100C2007608C30077080E
:1039A000C4007808C5007908C6007A08C7007B08FB
:1039B000C8007C08C900CA01CB01CC01CD01460872
:1039C000F5004708F6004808F7004908F800F90133
:1039D000FA01FB01FC0120004824701CF42CF501C5
:1039E000F601F701F80108002030F400031021006F
:1039F000C20DC30DC40DC50DCA0DCB0DCC0DCD0D23
:103A00004608CA024708CB3B4808CC3B4908CD3B97
:103A100042140318142D42104608CA074708CB3D2C
:103A20004808CC3D4908CD3DF40BF62C4208F50082
:103A30004308F6004408F7004508F8004A08F0007B
:103A40004B08F1004C08F2004D08F300200008007C
:103A500076087A06FD00F61F322DF509F609F50AFB
:103A60000319F60AFA1F392DF909FA09F90A031997
:103A7000FA0A9424FD1F462DF509F609F50A0319E3
:103A8000F60AF009F109F00A0319F10A0800F00139
:103A900075087918F0070310F90C0310F50DF908F3
:103AA000031D482D08007508F7007608F80079080E
:103AB000FB007A08FC00F201F3017B1C632D770800
:103AC000F2077808F33D0310FC0CFB0C0310F70D14
:103AD000F80D7B08F9007C08FA00F501F6015B247B
:103AE00070185D2D7208F0007308F1000800760868
:103AF0007A06FD00F61F812DF509F609F50A03196E
:103B0000F60AFA1F882DF909FA09F90A0319FA0ABF
:103B10005325FD1F902DF009F109F00A0319F10A50
:023B200008009B
:020000040001F9
:0A000E008C3FFE3F9F3FFF1FFF3FA6
:00000001FF
