:020000040000FA
:0400000006EF00F017
:020008001000E6
:10000C0030EC0FF039EC0BF040EC0FF0020E2B6FD4
:10001C00010E126F0EEC0FF015EE54F0540EF66E3E
:10002C00230EF76E95EC11F0540EA06F050EA16F18
:10003C00010E126F5EEC0EF0010E2B6F010E126FA3
:10004C000EEC0FF0070E766F010E126F26EC0FF010
:10005C0005EE37F0040EEE6E0A0EEE6EEE6AEE6AE8
:10006C00230EEE6E500E2F6F05EE2DF0040EEE6E7D
:10007C000A0EEE6EEE6AEE6A240EEE6E05EE32F0AD
:10008C00040EEE6E0A0EEE6EEE6AEE6A020EEE6E66
:10009C0005EE42F0060EEE6EEE6A1E0EEE6EC00E11
:1000AC00EE6EEE6AEE6A020EEE6E420E9E6F050E5C
:1000BC009F6F21EC0AF015EE54F0720EF66E230EC3
:1000CC00F76E95EC11F0540EA06F050EA16F010E9A
:1000DC00126F5EEC0EF0020E2B6F010E126F0EEC17
:1000EC000FF0949492881F0E0D6F800E196FF6EC22
:1000FC0009F01F0E0D6F800E196FCBEC09F0050E79
:10010C00A26F7BEC09F0A22FFCD7516B526B536B97
:10011C00546B380E0D6F196B90EC0DF0106B92DB6D
:10012C000F6B82B40F2BD7EC0DF02AA202D08B846C
:10013C0001D08B94056A80B8052A1051055CD8A4AF
:10014C0078D01053D8A46BD011C077F0010E126F79
:10015C0080EC0EF015EE54F0800EF66E230EF76E5A
:10016C0095EC11F0540EA06F050EA16F010E126FDD
:10017C005EEC0EF065C077F066C078F067C079F081
:10018C0068C07AF0010E126FC3EC0EF015EE54F04D
:10019C00800EF66E230EF76E95EC11F0540EA06FD8
:1001AC00050EA16F010E126F5EEC0EF061C077F0C0
:1001BC0062C078F063C079F064C07AF0010E126FFF
:1001CC00C3EC0EF015EE54F0800EF66E230EF76EA7
:1001DC0095EC11F0540EA06F050EA16F010E126F6D
:1001EC005EEC0EF013C077F0010E126F80EC0EF087
:1001FC00010E2B6F010E126F0EEC0FF061C058F058
:10020C0062C059F063C05AF064C05BF065C05CF02A
:10021C0066C05DF067C05EF068C05FF013DB10C0B5
:10022C000FF0D7EC0DF02AA203D0010E106F01D005
:10023C00106BABDA75D700D00300FED7F4EC0BF0E3
:10024C002D6B2D2B05EE7DF02D51E926000EEA22AB
:10025C00EFCF9CF09CC09BF005EE7DF0200EE924C6
:10026C00A46F000EEA20A56F2D51A425E96E000E97
:10027C00A521EA6E9BC0EFFF060E2D5DD8A0E1D73D
:10028C002D6B2D2B05EE7DF01C0EE924A46F000EBA
:10029C00EA20A56F2D51A425E96E000EA521EA6E6A
:1002AC00EFCF9CF09CC09BF005EE7DF0260EE92470
:1002BC00A46F000EEA20A56F2D51A425E96E000E47
:1002CC00A521EA6E9BC0EFFF040E2D5DD8A0D9D7F7
:1002DC002D6B2D2B05EE7DF0060EE924A46F000E80
:1002EC00EA20A56F2D51A425E96E000EA521EA6E1A
:1002FC00EFCF9CF09CC09BF005EE7DF0160EE92430
:10030C00A46F000EEA20A56F2D51A425E96E000EF6
:10031C00A521EA6E9BC0EFFF060E2D5DD8A0D9D7A4
:10032C0038C59AF539C59BF53AC59CF53BC59DF585
:10033C00020E0501936F2A0E00016B6F6C6B2CEC97
:10034C0009F02A0E6B6F6C6BC3D1816B826B836B64
:10035C00846B020E7F5D2D6F000E80592E6F7FC057
:10036C0009F080C00AF01CC005F01DC006F0C4ECFA
:10037C0010F000B040D0020E2D27000E2E2305EEFB
:10038C007DF02D51E924A46F000EEA20A56F010E1B
:10039C00A425E96E000EA521EA6EEF508127000E10
:1003AC008223000E8323000E842305EE7DF02D5155
:1003BC00E926000EEA22EFCF05F0066A096A010E63
:1003CC000A6E84EC11F000C04AF001C04BF04A51A7
:1003DC0081274B518223000E8323000E84232DC0D2
:1003EC0005F02EC006F01CC009F01DC00AF0C4ECCC
:1003FC0010F000B0C0D781C009F082C00AF083C0F1
:10040C000BF084C00CF0100E576FC2EC0DF026C030
:10041C002DF027C02EF081C04AF082C04BF02D5138
:10042C004A272E514B234A1F4B1F05EE7DF072516C
:10043C00E926000EEA224BC0EFFF05EE7DF072516B
:10044C00E924A46F000EEA20A56F010EA425E96E25
:10045C00000EA521EA6E4AC0EFFF1200032AE30E3C
:10046C00016E060E006E002EFED7012EFAD7022E5C
:10047C00F6D7032EF4D712001C0E0D6F78EC0BF090
:10048C00400E1515166F400E165DD8B417D015EE2C
:10049C0054F0840EF66E230EF76E95EC11F0540E9C
:1004AC00A06F050EA16F010E126F5EEC0EF01E0E0A
:1004BC000D6F400E196FF6EC09F01200612BD8B4D9
:1004CC00622BD8B4632BD8B4642B720E0D6F78ECFE
:1004DC000BF015C014F00D6B55C019F090EC0DF02D
:1004EC00010E0D6F56C019F090EC0DF0060E1E6F3C
:1004FC001F6B60D97EC555F0566B7FC556F080C515
:10050C0023F0246B81C524F082C574F083C575F08B
:10051C00800E050182150001A86FA8C005F0800EA1
:10052C00096EA2EC10F000A005D023C01EF024C070
:10053C001FF040D90D6B55C019F090EC0DF0010E69
:10054C000D6F56C019F090EC0DF00D6B78EC0BF0B4
:10055C0015C09DF0010E0D6F78EC0BF09DC005F0F1
:10056C0055C009F0A2EC10F0001E00C0A8F015C098
:10057C0005F056C009F0A2EC10F0001E00C0A4F06B
:10058C00A851A411A96FA9B1D5D7010E5515A46F07
:10059C00A56BA4C005F0A5C006F0096A0A6AA7EC11
:1005AC0010F000A006D0010E555D206F000E5659BC
:1005BC00216F0C0E0D6F20C019F090EC0DF00D0E8C
:1005CC000D6F21C019F090EC0DF01E0E0D6F400E4A
:1005DC00196FF6EC09F0080E05018A5DD8A476D0E7
:1005EC00060E8B5DD8A418D09253D8A415D09305C1
:1005FC00D8A412D03851A45DD8A40ED03951A55D21
:10060C00D8A40AD03A51A65DD8A406D03B51A75D18
:10061C00D8A402D0000112DE05018B53D8A456D009
:10062C00450E8C5DD8A452D092C505F0096A000124
:10063C00A2EC10F000C0A8F092C505F0400E096EB7
:10064C00A2EC10F0A8510010A96FA9A13FD0050190
:10065C0038519C5DD8A43AD039519D5DD8A436D080
:10066C003A519E5DD8A432D03B519F5DD8A42ED078
:10067C009505D8A407D0080EA05DD8A403D000011E
:10068C004DEC0FF0110E0501955DD8A403D00001BF
:10069C0021EC0CF0060E0501955DD8A417D015EED3
:1006AC0054F09E0EF66E230EF76E000195EC11F0D1
:1006BC00540EA06F050EA16F010E126F5EEC0EF0C2
:1006CC00010E2B6F010E126F0EEC0FF000011200D9
:1006DC001F0E0D6F800E196FF6EC09F01F0E0D6FCB
:1006EC00800E196FCBEC09F01C0E0D6F020E196FFA
:1006FC00CBEC09F01F0E0D6F78EC0BF0080E1515F6
:10070C00A86FA8C005F0080E096EA2EC10F000B09E
:10071C00F1D7060E0D6F700E6B25A46F000E6C21B9
:10072C00A56FA4C019F090EC0DF0070E0D6F160E0E
:10073C006C25196F90EC0DF01C0E0D6F080E196FD7
:10074C00F6EC09F01B0E0D6F080E196FCBEC09F0CF
:10075C001F0E0D6F080E196FF6EC09F01F0E0D6FC2
:10076C0078EC0BF0080E1515A86FA8C005F0080E54
:10077C00096EA2EC10F000B0F1D7652BD8B4662B43
:10078C00D8B4672BD8B4682B1200720E0D6F78ECAE
:10079C000BF015C014F0390E0D6F78EC0BF015C082
:1007AC0011F011510008D8B004D0800E4F6F506B6F
:1007BC0063DE12001EC009F01FC00AF0EE0E056EBB
:1007CC00050E066EC4EC10F000B01200899AC69E9D
:1007DC003A0EC96EC7A0FED7C9CFAAF01EC005F04D
:1007EC001FC006F0810E096E0A6AC4EC10F000A05E
:1007FC0027D0206B216B010E096E0A6A1EC005F012
:10080C001FC006F0C4EC10F000B01AD0202BD8B4E6
:10081C00212BC96AC7A0FED705EE7DF02051E92631
:10082C00000EEA22C9CFEFFF20C005F021C006F070
:10083C001EC009F01FC00AF0C4EC10F000B0E6D7DF
:10084C00898A1200010E2B6F010E126F0EEC0FF045
:10085C0015EE54F0B00EF66E230EF76E95EC11F00B
:10086C00540EA06F050EA16F010E126F5EEC0EF010
:10087C00720E0D6F78EC0BF015C014F014C098F0DC
:10088C00996BF6EC0FF015EE54F0066AC80EF66E86
:10089C00230EF76E9CEC11F005EE3CF0D7EC10F04B
:1008AC0005EE54F006C0EFFF540EA06F050EA16FBD
:1008BC00010E126F5EEC0EF0010E2B6F010E126F1B
:1008CC000EEC0FF015EE54F0D40EF66E230EF76E00
:1008DC0095EC11F0540EA06F050EA16F010E126F66
:1008EC005EEC0EF0010E2B6F010E126F0EEC0FF082
:1008FC001F0E0D6F78EC0BF015C014F014C098F0AF
:10090C0038EC0EF015EE54F0066AF80EF66E230E67
:10091C00F76E9CEC11F005EE29F0D7EC10F005EE1B
:10092C0054F006C0EFFF540EA06F050EA16F010E20
:10093C00126F5EEC0EF01E0E0D6F78EC0BF015C006
:10094C0014F014C098F038EC0EF015EE54F0066A62
:10095C00020EF66E240EF76E9CEC11F005EE29F0EB
:10096C00D7EC10F005EE54F006C0EFFF540EA06F5C
:10097C00050EA16F010E126F5EEC0EF01D0E0D6FC9
:10098C0078EC0BF015C014F014C098F038EC0EF0A5
:10099C0015EE54F0066A020EF66E240EF76E9CEC01
:1009AC0011F005EE29F0D7EC10F005EE54F006C06E
:1009BC00EFFF540EA06F050EA16F010E126F5EECCF
:1009CC000EF01C0E0D6F78EC0BF014C098F038EC98
:1009DC000EF015EE54F0066A960EF66E230EF76EB8
:1009EC009CEC11F005EE29F0D7EC10F005EE54F06C
:1009FC0006C0EFFF540EA06F050EA16F010E126F13
:100A0C005EEC0EF01B0E0D6F78EC0BF015C014F0B5
:100A1C0014C098F038EC0EF015EE54F0066A900EF7
:100A2C00F66E230EF76E9CEC11F005EE29F0D7EC68
:100A3C0010F005EE54F006C0EFFF540EA06F050E3B
:100A4C00A16F010E126F5EEC0EF0010E2B6F010EFA
:100A5C00126F0EEC0FF015EE54F0080EF66E240E1D
:100A6C00F76E95EC11F0540EA06F050EA16F010EF0
:100A7C00126F5EEC0EF0010E2B6F010E126F0EEC6E
:100A8C000FF0C00E0D6F78EC0BF015C014F014C005
:100A9C0098F038EC0EF015EE54F0066AF80EF66E7F
:100AAC00230EF76E9CEC11F005EE29F0D7EC10F04C
:100ABC0005EE54F006C0EFFF540EA06F050EA16FAB
:100ACC00010E126F5EEC0EF04DC00DF078EC0BF0D9
:100ADC0015C014F014C098F038EC0EF015EE54F06C
:100AEC00066A3C0EF66E240EF76E9CEC11F005EEC9
:100AFC0029F0D7EC10F005EE54F006C0EFFF540EC1
:100B0C00A06F050EA16F010E126F5EEC0EF0C20EFF
:100B1C000D6F78EC0BF015C014F014C098F038EC95
:100B2C000EF015EE54F0066A3C0EF66E240EF76EBF
:100B3C009CEC11F005EE29F0D7EC10F005EE54F01A
:100B4C0006C0EFFF540EA06F050EA16F010E126FC1
:100B5C005EEC0EF0C30E0D6F78EC0BF015C014F0BC
:100B6C0014C098F038EC0EF015EE54F0066A3C0EFA
:100B7C00F66E240EF76E9CEC11F005EE29F0D7EC16
:100B8C0010F005EE54F006C0EFFF540EA06F050EEA
:100B9C00A16F010E126F5EEC0EF0E40E0D6F78EC8F
:100BAC000BF015C014F014C098F038EC0EF015EEE4
:100BBC0054F0066A3C0EF66E240EF76E9CEC11F0A7
:100BCC0005EE29F0D7EC10F005EE54F006C0EFFF5F
:100BDC00540EA06F050EA16F010E126F5EEC0EF09D
:100BEC00E50E0D6F78EC0BF015C014F014C098F0F6
:100BFC0038EC0EF015EE54F0066A440EF66E240E28
:100C0C00F76E9CEC11F005EE29F0D7EC10F005EE28
:100C1C0054F006C0EFFF540EA06F050EA16F010E2D
:100C2C00126F5EEC0EF0E20E0D6F78EC0BF015C04F
:100C3C0014F014C098F038EC0EF015EE54F0066A6F
:100C4C00440EF66E240EF76E9CEC11F005EE29F0B6
:100C5C00D7EC10F005EE54F006C0EFFF540EA06F69
:100C6C00050EA16F010E126F5EEC0EF0E30E0D6F10
:100C7C0078EC0BF015C014F014C098F038EC0EF0B2
:100C8C0015EE54F0066A440EF66E240EF76E9CECCC
:100C9C0011F005EE29F0D7EC10F005EE54F006C07B
:100CAC00EFFF540EA06F050EA16F010E126F5EECDC
:100CBC000EF0E00E0D6F78EC0BF015C014F014C0B4
:100CCC0098F038EC0EF015EE54F0066A440EF66E01
:100CDC00240EF76E9CEC11F005EE29F0D7EC10F019
:100CEC0005EE54F006C0EFFF540EA06F050EA16F79
:100CFC00010E126F5EEC0EF0E10E0D6F78EC0BF046
:100D0C0015C014F014C098F038EC0EF015EE54F039
:100D1C00066A440EF66E240EF76E9CEC11F005EE8E
:100D2C0029F0D7EC10F005EE54F006C0EFFF540E8E
:100D3C00A06F050EA16F010E126F5EEC0EF0010E8E
:100D4C002B6F010E126F0EEC0FF015EE54F0480ED7
:100D5C00F66E240EF76E95EC11F0540EA06F050E86
:100D6C00A16F010E126F5EEC0EF0010E2B6F010ED7
:100D7C00126F0EEC0FF0090E0D6F78EC0BF015C026
:100D8C0014F014C098F038EC0EF015EE54F0066A1E
:100D9C00F80EF66E230EF76E9CEC11F005EE29F0B2
:100DAC00D7EC10F005EE54F006C0EFFF540EA06F18
:100DBC00050EA16F010E126F5EEC0EF0080E0D6F9A
:100DCC0078EC0BF015C014F014C098F038EC0EF061
:100DDC00290EA06F050EA16F010E126F5EEC0EF0C6
:100DEC000B0E0D6F78EC0BF015C014F014C098F0CE
:100DFC0038EC0EF015EE54F0066A900EF66E230EDB
:100E0C00F76E9CEC11F005EE29F0D7EC10F005EE26
:100E1C0054F006C0EFFF540EA06F050EA16F010E2B
:100E2C00126F5EEC0EF00A0E0D6F78EC0BF015C025
:100E3C0014F014C098F038EC0EF0290EA06F050ECB
:100E4C00A16F010E126F5EEC0EF00F0E0D6F78ECB1
:100E5C000BF015C014F014C098F038EC0EF015EE31
:100E6C0054F0066A900EF66E230EF76E9CEC11F0A1
:100E7C0005EE29F0D7EC10F005EE54F006C0EFFFAC
:100E8C00540EA06F050EA16F010E126F5EEC0EF0EA
:100E9C000E0E0D6F78EC0BF015C014F014C098F01A
:100EAC0038EC0EF0290EA06F050EA16F010E126F1B
:100EBC005EEC0EF00D0E0D6F78EC0BF015C014F00F
:100ECC0014C098F038EC0EF015EE54F0066A020ED1
:100EDC00F66E240EF76E9CEC11F005EE29F0D7ECB3
:100EEC0010F005EE54F006C0EFFF540EA06F050E87
:100EFC00A16F010E126F5EEC0EF00C0E0D6FF2DB9B
:100F0C0015C014F014C098F038EC0EF0290EA06F38
:100F1C00050EA16F010E126F5EEC0EF0380E0D6F08
:100F2C00E1DB15C014F014C098F038EC0EF015EE9F
:100F3C0054F0066A020EF66E240EF76E9CEC11F05D
:100F4C0005EE29F0D7EC10F005EE54F006C0EFFFDB
:100F5C00540EA06F050EA16F010E126F5EEC0EF019
:100F6C00390E0D6FBFDB15C014F014C098F038ECBF
:100F7C000EF015EE54F0066A3C0EF66E240EF76E6B
:100F8C009CEC11F005EE29F0D7EC10F005EE54F0C6
:100F9C0006C0EFFF540EA06F050EA16F010E126F6D
:100FAC005EEC0EF0CB0E0D6F9DDB15C014F014C073
:100FBC0098F038EC0EF015EE54F0066A3C0EF66E16
:100FCC00240EF76E9CEC11F005EE29F0D7EC10F026
:100FDC0005EE54F006C0EFFF540EA06F050EA16F86
:100FEC00010E126F5EEC0EF0CA0E0D6F7BDB15C09E
:100FFC0014F014C098F038EC0EF0290EA06F050E0A
:10100C00A16F010E126F5EEC0EF0010E2B6F010E34
:10101C00126F0EEC0FF015EE54F0860EF66E240ED9
:10102C00F76E95EC11F0540EA06F050EA16F010E2A
:10103C00126F5EEC0EF0010E2B6F010E126F0EECA8
:10104C000FF0050E0D6F4EDB15C014F014C098F0A8
:10105C0038EC0EF015EE54F0066AF80EF66E230E10
:10106C00F76E9CEC11F005EE29F0D7EC10F005EEC4
:10107C0054F006C0EFFF540EA06F050EA16F010EC9
:10108C00126F5EEC0EF0040E0D6F2CDB15C014F01D
:10109C0014C098F038EC0EF0290EA06F050EA16F5D
:1010AC00010E126F5EEC0EF0070E0D6F1BDB15C000
:1010BC0014F014C098F038EC0EF015EE54F0066AEB
:1010CC00900EF66E230EF76E9CEC11F005EE29F0E7
:1010DC00D7EC10F005EE54F006C0EFFF540EA06FE5
:1010EC00050EA16F010E126F5EEC0EF0060E0D6F69
:1010FC00F9DA15C014F014C098F038EC0EF0290E83
:10110C00A06F050EA16F010E126F5EEC0EF0030EB8
:10111C000D6FE8DA15C014F014C098F038EC0EF02E
:10112C0015EE54F0066A900EF66E230EF76E9CECDC
:10113C0011F005EE29F0D7EC10F005EE54F006C0D6
:10114C00EFFF540EA06F050EA16F010E126F5EEC37
:10115C000EF0020E0D6FC6DA15C014F014C098F024
:10116C0038EC0EF0290EA06F050EA16F010E126F58
:10117C005EEC0EF0C80E0D6FB5DA15C014F014C08D
:10118C0098F038EC0EF015EE54F0066A900EF66EF0
:10119C00230EF76E9CEC11F005EE29F0D7EC10F055
:1011AC0005EE54F006C0EFFF540EA06F050EA16FB4
:1011BC00010E126F5EEC0EF0C90E0D6F93DA15C0B6
:1011CC0014F014C098F038EC0EF015EE54F0066ADA
:1011DC00F80EF66E230EF76E9CEC11F005EE29F06E
:1011EC00D7EC10F005EE54F006C0EFFF540EA06FD4
:1011FC00050EA16F010E126F5EEC0EF04EC00DF0DD
:10120C0071DA15C014F014C098F038EC0EF015EE2D
:10121C0054F0066AF80EF66E230EF76E9CEC11F085
:10122C0005EE29F0D7EC10F005EE54F006C0EFFFF8
:10123C00540EA06F050EA16F010E126F5EEC0EF036
:10124C00020E2B6F010E126F0EEF0FF0020E0D6FD0
:10125C00700E196F90EC0DF0030E0D6F160E196FCA
:10126C0090EC0DF0899AC69E7A0EC96EC7A0FED777
:10127C00C9CFAAF00E0EC96EC7A0FED7C9CFAAF06F
:10128C00206B216B010E096E0A6A6BC005F06CC0F5
:10129C0006F0C4EC10F000B026D0202BD8B4212BD3
:1012AC0020C009F021C00AF0800E056E066AC4EC5D
:1012BC0010F000B018D005EE7DF02051E926000E9C
:1012CC00EA22EFCFC9FFC7A0FED7C9CFAAF020C032
:1012DC0005F021C006F06BC009F06CC00AF0C4EC3C
:1012EC0010F000B0DAD7898A120005017E697F6997
:1012FC00806981698269836943C584F544C585F534
:10130C0045C586F546C587F547C588F548C589F5B1
:10131C00080E8A6F060E8B6F8C6B010E8D6F080E8C
:10132C008E6F8F6B060E906F040E916F926B010E89
:10133C00936F43C594F544C595F545C596F546C5DB
:10134C0097F547C598F548C599F538C59AF539C547
:10135C009BF53AC59CF53BC59DF59E6B9F6BA06BB1
:10136C00A16BA26BA36B33C5A4F534C5A5F535C52C
:10137C00A6F536C5A7F52A0E00016B6F6C6B66DF00
:10138C003C0E6B6F6C6B6EEF03F0600E0D15A46F63
:10139C00A4C005F0200E096EE2EC10F005C00EF0B2
:1013AC000E51495DD8B40DD01F0E0D15A46FA4C0FD
:1013BC0009F01B0E056EBFEC10F0001E00B0CCD96E
:1013CC0002D00EC049F0899A1F0E0D15A46FA00E05
:1013DC00A4117E6FC8DB19C07EF0C5DB898A1200B0
:1013EC00600E0D15A46FA4C005F0200E096EE2EC82
:1013FC0010F005C00EF00E51495DD8B40DD01F0E83
:10140C000D15A46FA4C009F01B0E056EBFEC10F0F7
:10141C00001E00B0A1D902D00EC049F0899A1F0E4F
:10142C000D15A46F800EA4117E6F9DDB19C07EF08C
:10143C009ADB898A12009488949A9496929A95943D
:10144C008B9A8B96899A898A050EA36F8C840A0EC7
:10145C00026E036A34EC02F08C940A0E026E036A7C
:10146C0034EC02F08C840A0E026E036A34EC02F047
:10147C00A32FECD7899A0C0E7C6F7B6BCDEC0FF005
:10148C007E6971DB630E496F1D0E0D6F2BD9010E3A
:10149C001515A46FA4C005F0010E096EA2EC10F096
:1014AC00001E00B0F1D71F0E0D6FC00E196F32DB8E
:1014BC001E0E0D6F800E196F2DDB1C0E0D6F196B30
:1014CC0029DB1B0E0D6FC00E196F24DB360E0D6F52
:1014DC00196B20DB370E0D6F196B1CDB040E0D6FB7
:1014EC00700E196F17DB050E0D6F160E196F12DBD0
:1014FC00060E0D6F19690EDB070E0D6F1F0E196F9F
:10150C0009DB080E0D6F196B05DB090E0D6F196BDE
:10151C0001DB0A0E0D6F6E0E196FFCDA0B0E0D6FE0
:10152C00160E196FF7DA0D6B196BF4DA010E0D6FDD
:10153C00196BF0DA0C0E0D6F196BECDA0D0E0D6FDA
:10154C00196BE8DA556B566B380E0D6FA10E196FCF
:10155C00E1DA770E0D6F196BDDDA750E0D6F196B05
:10156C00D9DA670E0D6F196BD5DA1D0E0D6FBAD85F
:10157C00010E1515A46FA4C005F0010E096EA2ECA6
:10158C0010F0001E00B0F1D7EA0E0D6F196BC2DA25
:10159C00D20E0D6F196BBEDAC00E0D6F0D0E196FDA
:1015AC00B9DAC20E0D6F300E196FB4DAC30E0D6FAF
:1015BC00010E196FAFDACA0E0D6FEE0E196FAADAA3
:1015CC00CB0E0D6F050E196FA5DAC40E0D6F120E32
:1015DC00196FA0DAC60E0D6F120E196F9BDAC70EBB
:1015EC000D6F0C0E196F96DAE10E0D6F44C519F0E4
:1015FC0091DAE00E0D6F43C519F08CDAE30E0D6F26
:10160C0046C519F087DAE20E0D6F45C519F082DA7E
:10161C00E50E0D6F48C519F07DDAE40E0D6F47C568
:10162C0019F078DA6E6B1A6B1B6B54DA100E6E6F46
:10163C001A6B1B6B4FDA140E6E6F040E1A6F760E4C
:10164C001B6F48DA120E6E6F1A6B1B6B43DA1F0E90
:10165C000D6F140E196F5EDA140E6E6F760E1A6F14
:10166C00040E1B6F37D205EE42F0060EEE6EEE6ADC
:10167C00EE6AEE6AEE6AEE6AEE6A05EE37F0040E7A
:10168C00EE6EEE6AEE6AEE6AEE6A05EE2DF0040E70
:10169C00EE6EEE6AEE6AEE6AEE6A500E2F6F656BB6
:1016AC00666B676B686B616B626B636B646B386BDF
:1016BC00396B136B1200AB6B406B0F0E05018C1565
:1016CC000001366F040DF3CF36F0406B436B0F0EF9
:1016DC00AE6F0E0E3625AF6F6BDAB1C096F5B2C099
:1016EC0097F51200600E0D15A46FA4C005F0200E26
:1016FC00096EE2EC10F005C00EF00E51495DD8B445
:10170C0010D01F0E0D15A46FA4C009F01B0E056E92
:10171C00BFEC10F0001E00A002D01ED802D00EC0EC
:10172C0049F0899AC69E1F0E0D15A46FA4C0C9FF5F
:10173C00C7A0FED7C9CFAAF0C69EAAC0C9FFC7A032
:10174C00FED7C9CFAAF0C69EAAC0C9FFC7A0FED7B4
:10175C00C9CF15F0898A1200899ABF0E7E6F03DA01
:10176C00030E7E6F00DA898A0E05D8A409D0899AF7
:10177C009F0E7E6FF8D9010E7E6FF5D9898A19D02C
:10178C00020E0E5DD8A409D0899A9F0E7E6FEBD9FC
:10179C00020E7E6FE8D9898A0CD0030E0E5DD8A498
:1017AC0008D0899A9F0E7E6FDED9030E7E6FDBD92F
:1017BC00898A0EC049F0120098C59CF599C59DF513
:1017CC009AC59EF59BC59FF538C598F539C599F511
:1017DC003AC59AF53BC59BF501D86DD72D6B2D2BD2
:1017EC0005EE7DF0060EE924A46F000EEA20A56F2D
:1017FC002D51A425E96E000EA521EA6EEFCF9CF0C9
:10180C009CC09BF005EE7DF02D51E926000EEA22DE
:10181C009BC0EFFF060E2D5DD8A0E1D743C584F524
:10182C0044C585F545C586F546C587F547C588F594
:10183C0048C589F51200A2C505F0066A096A010EB1
:10184C000A6E84EC11F000C0A4F001C0A5F00501F3
:10185C00A3510001A425AC6F000EA521AD6FACC047
:10186C0005F0ADC006F0700E096E170E0A6EA7ECEF
:10187C0010F000A07AD0520E0501A85DD8A404D0B7
:10188C000001F1DE0CEF00F0440EA85DD8A403D0EB
:10189C00000128EC04F0490E0501A85DD8A464D021
:1018AC001F0E00010D6FC00E196F34D9380E0D6F5D
:1018BC00A10E196F2FD9770E0D6F196B2BD9750ED1
:1018CC000D6F196B27D9670E0D6F196B23D91D0E70
:1018DC000D6F08DF010E1515A86FA8C005F0010EDD
:1018EC00096EA2EC10F0001E00B0F1D7C00E0D6F07
:1018FC000D0E196F0FD9C20E0D6F300E196F0AD95C
:10190C00C30E0D6F010E196F05D9CA0E0D6FEE0EB9
:10191C00196F00D9CB0E0D6F050E196FFBD8C40EC5
:10192C000D6F120E196FF6D8C60E0D6F120E196FC1
:10193C00F1D8C70E0D6F0C0E196FECD81C0E0D6F75
:10194C00196BE8D81B0E0D6FC00E196FE3D8360E4D
:10195C000D6F196BDFD8370E0D6F196BDBD81F0E9F
:10196C000D6F140E196FD6D8B3D0ACC005F0ADC046
:10197C0006F0880E096E130E0A6EE3DB00A080D011
:10198C00410E0501A85DD8A411D015EE54F0CE0E71
:10199C00F66E240EF76E000195EC11F0540EA06F4C
:1019AC00050EA16F010E126F83D964D0420EA85D93
:1019BC00D8A411D015EE54F0DC0EF66E240EF76E92
:1019CC00000195EC11F0540EA06F050EA16F010EE5
:1019DC00126F6ED94FD0430EA85DD8A411D015EE5E
:1019EC0054F0EA0EF66E240EF76E000195EC11F031
:1019FC00540EA06F050EA16F010E126F59D93AD07B
:101A0C00440EA85DD8A411D015EE54F0F40EF66E69
:101A1C00240EF76E000195EC11F0540EA06F050E1C
:101A2C00A16F010E126F44D925D0450EA85DD8A424
:101A3C0011D015EE54F0020EF66E250EF76E000165
:101A4C0095EC11F0540EA06F050EA16F010E126FE4
:101A5C002FD910D015EE54F00C0EF66E250EF76E35
:101A6C00000195EC11F0540EA06F050EA16F010E44
:101A7C00126F1ED9010E2B6F010E126FC9D928D00F
:101A8C00ACC005F0ADC006F0070E096E0A6A59DB52
:101A9C0000A014D091DEA0C505F0A2C509F045DB6D
:101AAC0005C0A0F509C0A2F5A1C505F0A3C509F0B4
:101ABC003CDB05C0A1F509C0A3F50AD0ACC005F00C
:101ACC00ADC006F0190E096E0A6A3BDB00A000D00F
:101ADC0000011200EA0E0D6F05DED40E0D6F6EC004
:101AEC0019F018D8D60E0D6F1AC019F013D8D70EDE
:101AFC000D6F1BC019F00ED8EA0E0D6FF3DD010E41
:101B0C001515A46FA4C005F0010E096E15DB00B00D
:101B1C00F3D71200600E0D15A46FA4C005F0200EB3
:101B2C00096E4ADB05C00EF00E51495DD8B40CD0DD
:101B3C001F0E0D15A46FA4C009F01B0E056E19DB4A
:101B4C00001E00B009DE02D00EC049F0899A1F0EAB
:101B5C000D15A46F400EA4117E6F05D819C07EF030
:101B6C0002D8898A1200C69E7EC0C9FFC7A0FED7C4
:101B7C00C790C9CF7DF0120057C095F09553D8B4DB
:101B8C0007D0D8900C320B320A320932952FF9D784
:101B9C0009C026F00AC027F00BC028F00CC029F0B1
:101BAC0012000F53D8B402D02A9201D02A8212000C
:101BBC00020EAE5D476F486BD8A04807AEC009F067
:101BCC000A6AAFC005F0B0C006F0D8DA00B023D076
:101BDC00020E4727000E482305EE7DF04751E926FB
:101BEC00000EEA22EFCF45F047292C6F05EE7DF071
:101BFC002C51E926000EEA22EFCF46F04451402743
:101C0C0047C005F048C006F0AFC009F0B0C00AF0FC
:101C1C00B5DA00B0DDD74305D8A40ED0AF2BD8B4BD
:101C2C00B02B05EE7DF0AF51E926000EEA22EFCF86
:101C3C0045F0466B4451402741C005F0066A096ADD
:101C4C00010E0A6E5BDB00C0A4F001C0A5F042518E
:101C5C00A4253E6F40513E273E1F3FC0B1F03EC011
:101C6C00B2F01200020E0501296F0F0E000198153B
:101C7C00976F0908D8B002D0070E9727300E97251A
:101C8C0005012B6F0001976B972B9833040E975D12
:101C9C00D8A0FAD70F0E9815976F0908D8B002D0B4
:101CAC00070E9727300E972505012A6F00011200A9
:101CBC00A0C0E9FFA1C0EAFFEFCF71F07153D8B417
:101CCC0018D0936B010E715DD8A013D0932B935148
:101CDC00A025E96E000EA121EA6EEFCF76F0B0D808
:101CEC00010E026E036A34EC02F07151935DD8A0C0
:101CFC00EDD71200606B640E775DD8A012D077C060
:101D0C0005F0640E096E58DA05C060F000C077F07B
:101D1C00300E6025766F94D8010E026E036A34EC97
:101D2C0002F060C009F0056A24DA00C0A8F077C0A0
:101D3C0005F00A0E096E1DDA001EA8510010A46FE2
:101D4C00A4A112D077C005F00A0E096E35DA05C0D1
:101D5C0060F000C077F0300E6025766F71D8010E00
:101D6C00026E036A34EC02F0300E7725766F68D879
:101D7C00010E026E036A34EF02F0926B922B05EEA9
:101D8C0049F09251E926000EEA2277C005F078C09E
:101D9C0006F079C007F07AC008F00A0E096E0A6ADC
:101DAC000B6A0C6A51DA00C0EFFF05C077F006C071
:101DBC0078F007C079F008C07AF077C005F078C0E9
:101DCC0006F079C007F07AC008F0096A0A6A0B6A53
:101DDC000C6AC0D9001E00B0D1D79229936F010EA6
:101DEC00925DD8A014D0930705EE49F09351E926E3
:101DFC00000EEA22300EEF24766F22D8010E026E0E
:101E0C00036A34EC02F093510108D8A0ECD712000D
:101E1C002BC094F09453D8B412D00D0E766F10D80A
:101E2C00010E026E036A34EC02F00A0E766F08D8CB
:101E3C00010E026E036A34EC02F0942FEED71200FE
:101E4C001205D8A406D09EA8FED79EA8FED776C0B1
:101E5C00ADFF1200E06AF86AC09EC290C186C184D0
:101E6C00C182C180070EB46E806A816A826A836AFD
:101E7C00846A1200010E126F070EAF6E020EB06E66
:101E8C00B886AC84AC98AB8EAB88AC8A1200A6DC5E
:101E9C0045D84CD80501966B976B0F0E00017F6FE0
:101EAC00806B210E1C6F1D6B190E726F736BABEC7C
:101EBC0001F00501A06BA26BA36B8EC505F0066A41
:101ECC00096A010E0A6E000119DA00C069F001C03E
:101EDC006AF005018F5100016927000E6A230D0E6F
:101EEC006927000E6A23230E7F6F806B69C01CF07C
:101EFC006AC01DF0250E726F736BABEC01F0692B91
:101F0C00D8B46A2B69C06BF06AC06CF02CEC09F089
:101F1C0069C06BF06AC06CF06EEF03F039C090F5DD
:101F2C0038C091F5382BD8B4392B12002D6B2D2BD2
:101F3C0005EE7DF01A0EE924A46F000EEA20A56FC1
:101F4C002D51A425E96E000EA521EA6EEFCF9CF071
:101F5C009CC09BF005EE7DF01E0EE924A46F000ED4
:101F6C00EA20A56F2D51A425E96E000EA521EA6E7D
:101F7C009BC0EFFF040E2D5DD8A0D9D738C598F5BE
:101F8C0039C599F53AC59AF53BC59BF51200C69A29
:101F9C00C79EC79C7BA1C78CC6987BB3C688C696C8
:101FAC00C694C692C6900D0E7C5DD8A401D016D0F6
:101FBC000C0E7C5DD8A402D0C68010D00B0E7C5DBC
:101FCC00D8A402D0C6820AD07C53D8A403D0C6842D
:101FDC00C68004D07C05D8A401D0C684C68A120061
:101FEC00856B98C005F099C006F0100E096E270E8F
:101FFC000A6EC4D8001E00A01AD098C005F099C073
:10200C0006F0100E096E270E0A6EEAD805C096F07F
:10201C0000C098F001C099F0852B05EE3CF085517D
:10202C00E926000EEA22300E9625EF6E0CD098C0F1
:10203C0005F099C006F0E80E096E030E0A6E9ED8E4
:10204C00001E00A01AD098C005F099C006F0E80E4A
:10205C00096E030E0A6EC4D805C096F000C098F045
:10206C0001C099F0852B05EE3CF08551E926000E58
:10207C00EA22300E9625EF6E0BD098C005F099C071
:10208C0006F0640E096E0A6A79D8001E00A019D0F9
:10209C0098C005F099C006F0640E096E0A6AA0D8C3
:1020AC0005C096F000C098F001C099F0852B05EEA4
:1020BC003CF08551E926000EEA22300E9625EF6E93
:1020CC000BD098C005F099C006F00A0E096E0A6A8A
:1020DC0055D8001E00A018D098C005F099C006F085
:1020EC000A0E096E0A6A7CD805C096F000C098F0FA
:1020FC0001C099F0852B05EE3CF08551E926000EC8
:10210C00EA22300E9625EF6E852B05EE3CF08551BC
:10211C00E926000EEA22300E9825EF6E00C098F0EA
:10212C0001C099F085C03CF5120005C000F009C053
:10213C0005F000C009F01200006809500562006A41
:10214C001200006A0950056212000A500662120061
:10215C0000681200006A0950056212000A500662FB
:10216C0012000B50076212000C500862120000683B
:10217C001200006809500560006A1200006A0650DF
:10218C000A5CD8A012000A50065C04E30950055CF6
:10219C00D8B01200001E1200EFCF05F005C0E7FF0B
:1021AC0003D0EF50056E06260552D8B41200ECCFC2
:1021BC00E4FF052EFCD712000952D8B41200006AB5
:1021CC00080E046ED890053600360950005E058066
:1021DC00D8B003D0059009500026042EF3D7120076
:1021EC0005C007F006C008F009C00BF00AC00CF0DF
:1021FC00026A036A0BC005F00CC006F0096A0A6A91
:10220C00A0DF00A003D0056A066A1200100E046E4F
:10221C00D89007360836023603360B50025E0C5047
:10222C00035A0780D8B005D007900B5002260C50EB
:10223C000322042EEDD707C005F008C006F002C03B
:10224C0000F003C001F0120005C086F006C087F054
:10225C0007C088F008C089F009C08AF00AC08BF06A
:10226C000BC08CF00CC08DF08E6B8F6B906B916BE8
:10227C008AC005F08BC006F08CC007F08DC008F04A
:10228C00096A0A6A0B6A0C6A65DF00A005D0056A48
:10229C00066A076A086A1200200E046ED890863708
:1022AC008737883789378E378F37903791378A51F0
:1022BC008E5F8B518F5B8C51905B8D51915B8681C6
:1022CC00D8B009D086918A518E278B518F238C518F
:1022DC0090238D519123042EE1D786C005F087C041
:1022EC0006F088C007F089C008F08EC000F08FC0DF
:1022FC0001F090C002F091C003F0120005500902E9
:10230C00F3CF00F0F4CF01F005500A02F350012690
:10231C0006500902F350012606520A021200090067
:10232C00F5CF05F0F5CFE7FF090005D00900F55012
:10233C00056E062609000552D8B412000900F5CF27
:10234C00E4FF052EFBD712001C1C454E4332384AC5
:10235C0036302045746865726E65742044726976F7
:10236C006572203031350B0B496E697469616C698B
:10237C007365640002022C2009094E6F20706163A2
:10238C006B6574000303202020000505202020200D
:10239C0020001010544350205265706C79204E650B
:1023AC006564656415155265676973746572647547
:1023BC006D7020454E4332384A3630000A0A20569A
:1023CC00657273696F6E3A202222436E74726C3A96
:1023DC002045434F4E312045434F4E3220455354F8
:1023EC0041542020454952202045494507072020CB
:1023FC0020202020200004042020202032324D41B7
:10240C004320203A204D41434F4E3120204D414333
:10241C004F4E3220204D41434F4E3320204D4143EF
:10242C004F4E3420204D41432D41646472657373CB
:10243C00060620202020202001012E003B3B527854
:10244C002020203A20455258535420204552584EB3
:10245C00442020455258575250542045525852440B
:10246C0050542045525846434F4E2045504B5443F0
:10247C004E54204D414D58464C0035355478202053
:10248C00203A20455458535420204554584E44204B
:10249C0020455752505420204D41434C434F4E3110
:1024AC00204D41434C434F4E32204D4150485355E3
:1024BC0050000101520001014400010149000101D9
:1024CC0041000808416374696F6E204101014200AC
:1024DC000808416374696F6E2042010143000808CB
:1024EC00416374696F6E20430808416374696F6EB1
:1024FC002044010145000808416374696F6E204552
:0A250C000808416374696F6E2046F1
:020000040030CA
:0600010002191EFF8180C0
:060008000FC00FE00F40E5
:00000001FF
