:020000040000FA
:0400000006EF00F017
:020008001000E6
:10000C002DEC39F01EEC39F04EEC39F05BEC39F09C
:10001C00C48EC49CC59EC49AC496C4880C0E01019F
:10002C00966F000189EC17F00B0E0101B46F190EDD
:10003C00B56F010E566E0001FDEC32F0010E5A6EDA
:10004C0017EEF1F0C60EF66E960EF76E000EF86E09
:10005C004DEC4BF0F10E0101CC6F1C0ECD6F16EE7A
:10006C0042F0D60EF66E960EF76E000EF86E00018C
:10007C004DEC4BF0420E01019F6F180EA06F5B6AA6
:10008C00000174EC46F05A6A17EEF1F0EA0EF66EC7
:10009C00960EF76E000EF86E4DEC4BF0F10E010162
:1000AC00CC6F1C0ECD6F16EE42F0FE0EF66E960E59
:1000BC00F76E000EF86E00014DEC4BF0420E010194
:1000CC009F6F180EA06F5B6A000174EC46F0010E76
:1000DC005A6E17EEF1F0020EF66E970EF76E000EDA
:1000EC00F86E4DEC4BF0F10E0101CC6F1C0ECD6F88
:1000FC00AFC007F15B6A0001A3EC46F05A6A17EE39
:10010C00F1F0EA0EF66E960EF76E000EF86E4DECF0
:10011C004BF0F10E0101CC6F1C0ECD6F16EE42F0C0
:10012C00FE0EF66E960EF76E000EF86E00014DEC9C
:10013C004BF0420E01019F6F180EA06F5B6A00011D
:10014C0074EC46F00101DE6B0C0E316FBD8EBC827F
:10015C00010E5A6E17EEF1F0200EF66E970EF76E3A
:10016C00000EF86E00014DEC4BF0F10E0101CC6F5E
:10017C001C0ECD6F16EE42F02E0EF66E970EF76E2D
:10018C00000EF86E00014DEC4BF0420E01019F6F1A
:10019C00180EA06F5B6A000174EC46F0B90E0101F9
:1001AC009D6F180E9E6F010E566E0001C7EC32F05B
:1001BC0016EE67F0400EF66E970EF76E000EF86EA8
:1001CC004DEC4BF006EEB9F016EE67F0A3EC49F0EF
:1001DC00001E00B03DEC43F0DBEC3CF04EC00EF0EA
:1001EC004FC00FF050C010F051C011F017EEF1F0ED
:1001FC00420EF66E970EF76E000EF86E00014DEC87
:10020C004BF0F10E0101B16F1C0EB26F0001DAEC74
:10021C001CF04EC06CF14FC06DF150C06EF151C06E
:10022C006FF1010E01012C6F190E3C6F17EEF1F0FE
:10023C00480EF66E970EF76E000EF86E00014DEC40
:10024C004BF0F10E0101986F1C0E996F000181ECBF
:10025C0028F05A6A17EEF1F04A0EF66E970EF76E0A
:10026C00000EF86E4DEC4BF0F10E0101CC6F1C0E34
:10027C00CD6F16EE42F0480EF66E970EF76E000E2E
:10028C00F86E00014DEC4BF0420E01019F6F180E01
:10029C00A06F5B6A000174EC46F0010E5A6E17EE0B
:1002AC00F1F0520EF66E970EF76E000EF86E4DECE6
:1002BC004BF0F10E0101CC6F1C0ECD6F16EE42F01F
:1002CC00480EF66E970EF76E000EF86E00014DECB0
:1002DC004BF0420E01019F6F180EA06F5B6A00017C
:1002EC0074EC46F0010E5A6E17EEF1F07A0EF66EC3
:1002FC00970EF76E000EF86E4DEC4BF0F10E0101FF
:10030C00CC6F1C0ECD6F16EE42F08C0EF66E970E67
:10031C00F76E000EF86E00014DEC4BF0420E010131
:10032C009F6F180EA06F5B6A000174EC46F0010E13
:10033C005A6E17EEF1F0980EF66E970EF76E000EE1
:10034C00F86E4DEC4BF0F10E0101CC6F1C0ECD6F25
:10035C0016EE42F0AA0EF66E970EF76E000EF86EC1
:10036C0000014DEC4BF0420E01019F6F180EA06F77
:10037C005B6A000174EC46F0010E5A6E17EEF1F058
:10038C00BC0EF66E970EF76E000EF86E4DEC4BF041
:10039C00F10E0101CC6F1C0ECD6F16EE42F0CE0E9D
:1003AC00F66E970EF76E000EF86E00014DEC4BF0EA
:1003BC00420E01019F6F180EA06F5B6A000174EC76
:1003CC0046F0010E5A6E17EEF1F0E00EF66E970E37
:1003DC00F76E000EF86E4DEC4BF0F10E0101CC6F88
:1003EC001C0ECD6F16EE42F0480EF66E970EF76EA1
:1003FC00000EF86E00014DEC4BF0420E01019F6FA8
:10040C00180EA06F5B6A000174EC46F0010E01013E
:10041C002C6F0A0E3C6F17EEF1F0480EF66E970E2D
:10042C00F76E000EF86E00014DEC4BF0F10E010171
:10043C00986F1C0E996F000181EC28F05A6A17EE28
:10044C00F1F0F40EF66E970EF76E000EF86E4DECA2
:10045C004BF0F10E0101CC6F1C0ECD6F16EE42F07D
:10046C00480EF66E970EF76E000EF86E00014DEC0E
:10047C004BF0420E01019F6F180EA06F5B6A0001DA
:10048C0074EC46F0B90E01019D6F180E9E6F010EB3
:10049C00566E0001C7EC32F016EE67F00E0EF66EDB
:1004AC00980EF76E000EF86E4DEC4BF006EEB9F0B0
:1004BC0016EE67F0A3EC49F000C0D1F116EE67F030
:1004CC00100EF66E980EF76E000EF86E4DEC4BF0AB
:1004DC0006EEB9F016EE67F0A3EC49F00101D1512C
:1004EC000010D56FD5B17AD6B90ECF6F180ED06F6C
:1004FC00010E976F0001EFEC39F016EE67F0120E5B
:10050C00F66E980EF76E000EF86E4DEC4BF006EE94
:10051C00E2F016EE67F0A3EC49F0001E00A03AD012
:10052C00B90E0101CF6F180ED06F010E976F00013D
:10053C00EFEC39F016EE67F0140EF66E980EF76EBF
:10054C00000EF86E4DEC4BF006EEE2F016EE67F096
:10055C00A3EC49F0001E00A01DD0B90E0101CF6F15
:10056C00180ED06F010E976F0001EFEC39F016EEFC
:10057C0067F0160EF66E980EF76E000EF86E4DECD8
:10058C004BF006EEE2F016EE67F0A3EC49F0001E1D
:10059C0000B047D6B90E0101CF6F180ED06FB90E4F
:1005AC00A36F180EA46F000133EC3AF00101130590
:1005BC00976F0001B6EC42F0900E0101CF6F180E50
:1005CC00D06F0001F2EC4FF0DFC17FF1E0C180F1A0
:1005DC00B90E0101CF6F180ED06F010E976F00018D
:1005EC00EFEC39F016EE67F0160EF66E980EF76E0D
:1005FC00000EF86E4DEC4BF006EEE2F016EE67F0E6
:10060C00A3EC49F0001E00A025EF07F0B90E010184
:10061C00CF6F180ED06F010E976F0001EFEC39F011
:10062C0016EE67F0120EF66E980EF76E000EF86E60
:10063C004DEC4BF006EEE2F016EE67F0A3EC49F051
:10064C0000A00BD006EE67F101017F51E926805125
:10065C00EA226F00BCFF58F10AD006EE34F101011A
:10066C007F51E9268051EA226F00BCFF58F116EE4B
:10067C0067F0180EF66E980EF76E000EF86E00010D
:10068C004DEC4BF005EED7F316EE67F0A3EC49F00A
:10069C0000A04DD0020E01012C6F140E3C6F17EE12
:1006AC00F1F01C0EF66E980EF76E000EF86E00014F
:1006BC004DEC4BF0F10E0101986F1C0E996F00017F
:1006CC0081EC28F0010E5A6E17EEF1F01E0EF66E4C
:1006DC00980EF76E000EF86E4DEC4BF0F10E01011A
:1006EC00CC6F1C0ECD6F68C108F169C109F16AC1EC
:1006FC000AF16BC10BF15B6A0001FFEC46F0020ED4
:10070C0001012C6F140E3C6F17EEF1F01C0EF66EFF
:10071C00980EF76E000EF86E00014DEC4BF0F10EDA
:10072C000101986F1C0E996F000181EC28F00101FA
:10073C0058510F08D8B021D058C105F0100E096ED1
:10074C00000118EC4AF005C0D1F10101D1516C2522
:10075C00686F000E6D21696F000E6E216A6F000EBE
:10076C006F216B6F68C132F069C133F06AC134F02C
:10077C006BC135F00001E4EC43F058C105F0100EEC
:10078C00096E000118EC4AF005C0D1F10101D151FC
:10079C00100DF350585D656F666BD8A0660765C188
:1007AC0005F066C106F0200E096E0A6A0001DDEC48
:1007BC004AF000C065F101C066F158C105F0100E99
:1007CC00096E18EC4AF005C0D1F10101D151100DA0
:1007DC00F350585D686F696BD8A069076A6B6B6BD7
:1007EC0068C105F069C106F06AC107F06BC108F079
:1007FC00200E096E0A6A0B6A0C6A0001F0EC4AF0D2
:10080C0000C068F101C069F102C06AF103C06BF16C
:10081C0007EEFFF101016851E924D16F6951EA201B
:10082C00D26F1A0ED125E96E000ED221EA6E6F003E
:10083C00BCFF22F0236A246A256A07EEFFF1685197
:10084C00E924D16F6951EA20D26F1B0ED125E96ED4
:10085C00000ED221EA6E6F00BCFF26F0276A286AD0
:10086C00296A07EEFFF16851E924D16F6951EA203A
:10087C00D26F140ED125E96E000ED221EA6E6F00F4
:10088C00BCFF2AF02B6A2C6A2D6A07EEFFF1685127
:10089C00E924D16F6951EA20D26F150ED125E96E8A
:1008AC00000ED221EA6E6F00BCFF2EF02F6A306A68
:1008BC00316A68C146F169C147F16AC148F16BC13F
:1008CC0049F10001DCEC3BF046C168F147C169F12C
:1008DC0048C16AF149C16BF168C12EF069C12FF0B2
:1008EC006AC130F06BC131F0020E0101685DD16F4D
:1008FC00000E6959D26F000E6A59D36F000E6B59F6
:10090C00D46FD1C105F0D2C106F0D3C107F0D4C168
:10091C0008F045C109F00A6A0B6A0C6A0001F0EC98
:10092C004AF000504E240101686F01504F20696F4E
:10093C00025050206A6F035051206B6F16EE67F017
:10094C00180EF66E980EF76E000EF86E00014DEC58
:10095C004BF005EED7F316EE67F0A3EC49F000A0D0
:10096C006AD0020E01012C6F140E3C6F17EEF1F0E1
:10097C001C0EF66E980EF76E000EF86E00014DEC24
:10098C004BF0F10E0101986F1C0E996F000181EC78
:10099C0028F0010E5A6E17EEF1F0580EF66E980E06
:1009AC00F76E000EF86E4DEC4BF0F10E0101CC6FB2
:1009BC001C0ECD6F2EC008F12FC009F130C00AF10A
:1009CC0031C00BF15B6A0001FFEC46F0010E5A6E70
:1009DC0017EEF1F0820EF66E980EF76E000EF86EB2
:1009EC004DEC4BF0F10E0101CC6F1C0ECD6F68C1BC
:1009FC0008F169C109F16AC10AF16BC10BF15B6ABB
:100A0C000001FFEC46F0020E01012C6F140E3C6F3E
:100A1C0017EEF1F01C0EF66E980EF76E000EF86ED7
:100A2C0000014DEC4BF0F10E0101986F1C0E996F0B
:100A3C00000181EC28F0B90E0101CF6F180ED06FB8
:100A4C00010E976F0001EFEC39F016EE67F0120E05
:100A5C00F66E980EF76E000EF86E4DEC4BF006EE3F
:100A6C00E2F016EE67F0A3EC49F000A025D068C1C7
:100A7C006CF169C16DF16AC16EF16BC16FF168C146
:100A8C000EF069C10FF06AC110F06BC111F0B90E14
:100A9C000101CF6F180ED06F8105976F0001EFEC3D
:100AAC0039F0E20E0101B16F180EB26F0001DAECF1
:100ABC001CF017EF01F0C2D1010E01012C6F0F0ECB
:100ACC003C6F17EEF1F0480EF66E970EF76E000EB7
:100ADC00F86E00014DEC4BF0F10E0101986F1C0EFD
:100AEC00996F000181EC28F0010E01012C6F3C0E76
:100AFC003C6F17EEF1F0A80EF66E980EF76E000E26
:100B0C00F86E00014DEC4BF0F10E0101986F1C0ECC
:100B1C00996F000181EC28F0010E01012C6F0F0E72
:100B2C003C6F17EEF1F0480EF66E970EF76E000E56
:100B3C00F86E00014DEC4BF0F10E0101986F1C0E9C
:100B4C00996F000181EC28F05A6A17EEF1F0AA0EA9
:100B5C00F66E980EF76E000EF86E4DEC4BF0F10E33
:100B6C000101CC6F1C0ECD6F16EE42F0C20EF66E6C
:100B7C00980EF76E000EF86E00014DEC4BF0420E25
:100B8C0001019F6F180EA06F5B6A000174EC46F0B8
:100B9C00010E01012C6F3C0E3C6F17EEF1F0A80E0C
:100BAC00F66E980EF76E000EF86E00014DEC4BF0E1
:100BBC00F10E0101986F1C0E996F000181EC28F069
:100BCC00010E01012C6F0F0E3C6F17EEF1F0480E69
:100BDC00F66E970EF76E000EF86E00014DEC4BF0B2
:100BEC00F10E0101986F1C0E996F000181EC28F039
:100BFC0068C170F169C171F16AC172F16BC173F1B5
:100C0C00010E5A6E17EEF1F0D40EF66E980EF76ECA
:100C1C00000EF86E4DEC4BF0F10E0101CC6F1C0E7A
:100C2C00CD6F16EE42F0480EF66E970EF76E000E74
:100C3C00F86E00014DEC4BF0420E01019F6F180E47
:100C4C00A06F010E5B6E000174EC46F09AEC17F08D
:100C5C000101DE0502011D6F0101DE51315DD8A0DD
:100C6C00B8D002011D2B0101506B516B526B536BB1
:100C7C000001E4EC31F0BC82BD9E020E026E036AF0
:100C8C00D1EC28F070C168F171C169F172C16AF1DF
:100C9C0073C16BF168C132F069C133F06AC134F0D1
:100CAC006BC135F0E4EC43F01DC205F0066AD40EBE
:100CBC00096E0A6ADDEC4AF000C004F101C005F1CE
:100CCC000101326B336B636B646B836B846B01015F
:100CDC00832BD8B4842B856B866B0101852BD8B400
:100CEC00862B322BD8B4332B63C109F064C10AF0C4
:100CFC000568010E066E0001B8EC49F000A016D094
:100D0C000101682BD8B4692BD8B46A2BD8B46B2BDF
:100D1C0068C132F069C133F06AC134F06BC135F08F
:100D2C000001E4EC43F00101636B646B01010451BD
:100D3C00325D346F05513359356F34C109F035C10B
:100D4C000AF0D40E056E066A0001B8EC49F0001EDC
:100D5C0000A015D007EEFFF101016351E9266451A3
:100D6C00EA226F00B8FF94F194C193F107EE2AF1D7
:100D7C003451E9263551EA2260004FF6EEFF0101AD
:100D8C00632BD8B4642B85C105F086C106F00D0E1B
:100D9C00096E0A6A0001B8EC49F000B09ED783C115
:100DAC0005F084C106F0D40E096E0A6AB8EC49F05D
:100DBC0000B08DD7BC92BD8E020E026E036AD1ECD0
:100DCC0028F034EC3FF00101315102011D5DD8A037
:100DDC0048D7120E0001796F31EC46F0010E01017B
:100DEC002C6F0F0E3C6F17EEF1F0480EF66E970E4F
:100DFC00F76E000EF86E00014DEC4BF0F10E010198
:100E0C00986F1C0E996F000181EC28F0010E010106
:100E1C002C6F0F0E3C6F17EEF1F0480EF66E970E1E
:100E2C00F76E000EF86E00014DEC4BF0F10E010167
:100E3C00986F1C0E996F000181EC28F098D0BD8E34
:100E4C009AEC17F00101DE0502011D6F0101DE5164
:100E5C00315DD8A057D002011D2B0101506B516B95
:100E6C00526B536B0001E4EC31F07FC105F080C193
:100E7C0006F0010E096E0A6A8BEC49F000A003D053
:100E8C004AEC10F037D07FC105F080C106F0020E9D
:100E9C00096E0A6A8BEC49F000A003D0E3EC47F032
:100EAC0029D07FC105F080C106F0030E096E0A6AD5
:100EBC008BEC49F000A003D02FEC0EF01BD07FC1BF
:100ECC0005F080C106F0040E096E0A6A8BEC49F03D
:100EDC0000A003D0ADEC3FF00DD07FC105F080C178
:100EEC0006F0050E096E0A6A8BEC49F000A002D0E0
:100EFC0066EC18F034EC3FF00101315102011D5D3C
:100F0C00D8A0A9D7120E0001796F31EC46F0010E72
:100F1C0001012C6F0F0E3C6F17EEF1F0480EF66EC0
:100F2C00970EF76E000EF86E00014DEC4BF0F10EC3
:100F3C000101986F1C0E996F000181EC28F0010ED5
:100F4C0001012C6F0F0E3C6F17EEF1F0480EF66E90
:100F5C00970EF76E000EF86E00014DEC4BF0F10E93
:100F6C000101986F1C0E996F000181EC28F0F4EFD1
:100F7C0000F000D00300FED7EF0E0760000C075006
:100F8C00A60FF66E0F0ED8B0010FF76E000ED8B08C
:100F9C00010FF86E0800F5501200F0008080F8FC8C
:100FAC00FC849C9C1800000021213F3F3F21210123
:100FBC000000000080C0C0404040C080C040000025
:100FCC0047CFDF989898FFFF7F00000004FCFCFCE3
:100FDC00804040C0C0800000203F3F3F0100003FE8
:100FEC003F3F000000404040DCDCDC000000000023
:100FFC00002020203F3F3F20202000000000004028
:10100C004040DCDCDC0000002060E08080C0FFFFA2
:10101C007F00000004FCFCFC000080C0C04000000D
:10102C00203F3F3F02070F3D38300000000404040E
:10103C00FCFCFC0000000000002020203F3F3F2073
:10104C0020200000C0C0C04040C04040C0C0800054
:10105C003F3F3F00003F00003F3F3F00C0C0C0404B
:10106C004040C0C0800000003F3F3F0000003F3FB9
:10107C003F00000080C0C0404040C0C08000000065
:10108C001F3F3F2020203F3F1F00F00E0760000C49
:10109C000750B80FF66E100ED8B0010FF76E000E99
:1010AC00D8B0010FF86E0800F5501200F00040C0E7
:1010BC0080C0404040C0C080000080FFFFFF901007
:1010CC00101F1F0F0080C0C0404040C080C04000B7
:1010DC00000F1F1F101090FFFFFF8000000040C08A
:1010EC00C0C080C0C0C0C0800000203F3F3F210076
:1010FC0000010101000080C0C040404040C08000A1
:10110C000000193B232626263C3D190000004040D8
:10111C00E0F0F84040404000000000001F3F3F203E
:10112C00383818000000C0C0C0000000C0C0C000AB
:10113C0000001F3F3F2020203F1F3F200000C0C069
:10114C00C0000000C0C0C0000000070F1F383038BE
:10115C001F0F07000000C0C0C00000000000C0C08E
:10116C00C000070F3F38380E38383F0F0700C0C09B
:10117C00C00000C0C0C00000000030393F0F0F3F5E
:10118C0039300000000000C0C0C0000000C0C0C06A
:10119C00000080878F9FD8F8783F0F076D0E07608F
:1011AC00000C0750CA0FF66E110ED8B0010FF76E77
:1011BC00000ED8B0010FF86E0800F5501200780040
:1011CC00C0C0404040C0C0C00000000031383C2EC0
:1011DC0027233138000000008080C0787C3C040458
:1011EC00040400000101031E3E3C202020200000CE
:1011FC0000000000FEFEFE000000000000000000E9
:10120C007F7F7F0000000000040404043C7C78C055
:10121C0080800000202020203C3E1E03010100386D
:10122C003C3C040C1C3830203C3C1C00F00E07608D
:10123C00000C07505A0FF66E120ED8B0010FF76E55
:10124C00000ED8B0010FF86E0800F5501200F00037
:10125C00E0F0F81C0C0C1CF8F0E000003F3F3F02E3
:10126C000202023F3F3F000004FCFCFC848484FC2F
:10127C00FC780000203F3F3F2424243F3F1E000009
:10128C0000FCFCFC0C0C0C0C0C000000003F3F3F65
:10129C000000000000000000E0F0F81C0C0C1CF832
:1012AC00F0E000003F3F3F303030303F3F3F000028
:1012BC0004FCFCFC848484C4CC1C0000203F3F3F15
:1012CC0024242423333800003C1C0C0484C4E47C08
:1012DC003C1C0000383C3E2723242030383C0000C6
:1012EC00FCFCFC808080FCFCFC0000003F3F3F01CC
:1012FC0001013F3F3F000000E0F0F89C8C8C8C9C7F
:10130C00F8F0E000070F1F39313131391F0F07009A
:10131C00000404FCFCFC0404000000000020203F3E
:10132C003F3F20200000000004FCFCFCC0E0703CAF
:10133C001C0C0000203F3F3F03070E3C3830EE0EE4
:10134C000760000C07506C0FF66E130ED8B0010F2F
:10135C00F76E000ED8B0010FF86E0800F5501200B1
:10136C00F000E0F0F81C0C0C1CF8F0E000003F3F23
:10137C003F000000003F3F3F0000FCFCFC78F0E029
:10138C00F078FCFCFC003F3F3F00000100003F3FB9
:10139C003F00FCFCFC70E0C08000FCFCFC003F3F0C
:1013AC003F00000103073F3F3F00001C1C9C9C9C1E
:1013BC009C9C1C1C000000383839393939393838B4
:1013CC000000E0F0F81C0C0C0C1CF8F0E000070F0F
:1013DC001F38303030381F0F0700FCFCFC1C1C1C65
:1013EC001CFCFCFC00003F3F3F000000003F3F3F67
:1013FC00000004FCFCFC848484FCFC780000203F8E
:10140C003F3F2401010101000000003C7CFCDC9CFE
:10141C009C1C1C1C0000003C3E3F3B3939383838C2
:10142C0000001C0C0404FCFCFC04040C1C0000005C
:10143C0020203F3F3F20200000007CFCFC800080EF
:10144C00FCFC7C0000000020243F3F3F24205F0E6A
:10145C000760000C07507C0FF66E140ED8B0010F0D
:10146C00F76E000ED8B0010FF86E0800F5501200A0
:10147C0060E0F0F83818FCFC1838F8F0E0070F1FA3
:10148C001C183F3F181C1F0F07001C3C7CE0C0E0E1
:10149C007C3C1C000000383C3E0703073E3C3800F7
:1014AC000000FCFCFC80F8F8F880FCFCFC0000015F
:1014BC0003233F3F3F23030100000070FCFC8C8C96
:1014CC008CFCFC70000000003133333333333100BB
:1014DC00EF0E0760000C0750FE0FF66E140ED8B01E
:1014EC00010FF76E000ED8B0010FF86E0800F55022
:1014FC001200F000000000000000000000000000DE
:10150C0000000000000000000000000000F8FCFCDF
:10151C00FCF8000000000000000073737300000072
:10152C0000000000001E3E3E0000003E3E1E00007B
:10153C0000000000000000000000003030FEFE3013
:10154C00303030FEFE30300C0C7F7F0C0C0C0C7FDE
:10155C007F0C0C00F0F898FE9898FE9898180000F4
:10156C001819197F19197F191F0F00000038383806
:10157C0080C0E07038000000001C0E0703011C1C2A
:10158C001C00000038FCC4C4FC38000000800000C3
:10159C001E3F2121333F1E1E3723000000203C3C00
:1015AC001C00000000000000000000000000000013
:1015BC000000000000C0E0F0381C0C040400000027
:1015CC000003070F1C383020200000000004040C1E
:1015DC001C38F0E0C000000000202030381C0F0741
:1015EC000300F00E0760000C0750100FF66E160E7D
:1015FC00D8B0010FF76E000ED8B0010FF86E0800CE
:10160C00F5501200F0808890E0E0FCFCE0E090885F
:10161C008001110907073F3F0707091101000080EE
:10162C008080F0F0808080000000000101010F0F2D
:10163C00010101000000000000000000000000009B
:10164C000000004078783800000000000000808026
:10165C008080808080808080000001010101010178
:10166C00010101010000000000000000000000006A
:10167C0000000000383838000000000000000000B6
:10168C000000000080C0E07038002030381C0E07CD
:10169C00030100000000F8FCFC04040404FCFCF84A
:1016AC0000001F3F3F202020203F3F1F00006060B4
:1016BC0060F0FCFC0000000000002020203F3F3FB9
:1016CC00202020000000181C1C040484CCFC783062
:1016DC00000030383C2E2723213838380000181CE5
:1016EC001C848484CC7C7830000018383824212168
:1016FC00333E1E0CF10E0760000C0750220FF66EE5
:10170C00170ED8B0010FF76E000ED8B0010FF86E9F
:10171C000800F5501200F00080C0603018FCFCFC92
:10172C000000000003030323233F3F3F232300005B
:10173C00FCFCFC848484848404040000193939245E
:10174C002121333F1F0E0000E0F0F89C8C84848430
:10175C00800000001F3F3F242421213F3F1F000039
:10176C003C3C3C0404040484FCFC7C000000003879
:10177C003C3E070301000000787CFCC4C48484FC5C
:10178C007C7800001E3E3F212123233F3E1E00009B
:10179C00F8FCFC84848484FCFCF800000001242107
:1017AC002131391F0F07000000000070707000001D
:1017BC00000000000000000E0E0E000000000000F3
:1017CC000000007070700000000000000000101E8F
:1017DC001E0E00000000000080C0E070381C0E06D9
:1017EC00020000000103070E1C387060400000600E
:1017FC00606060606060606060606006060606069F
:10180C000606060606060600F00E0760000C0750DA
:10181C00360FF66E180ED8B0010FF76E000ED8B05A
:10182C00010FF86E0800F5501200F00002060E1CB5
:10183C003870E0C080000000406070381C0E070358
:10184C0001000000181C0C0E0686CEFC7C38000033
:10185C00000000007373730000000000FCFEFE0229
:10186C0002C2C2C2FEFEFC003F3F7F606063636346
:10187C0063430300E0F0F81C0C0C1CF8F0E00000D3
:10188C003F3F3F020202023F3F3F000004FCFCFCD2
:10189C00848484FCFC780000203F3F3F2421213FBE
:1018AC003F1E0000F0F8FC0C0404041C1C18000083
:1018BC000F1F3F30202020383818000004FCFCFC9F
:1018CC0004040CFCF8F00000203F3F3F2020303F88
:1018DC001F0F000004FCFCFC848484C4CC1C00009E
:1018EC00203F3F3F242121233338000004FCFCFC23
:1018FC00848484C4CC1C0000203F3F3F21010103A1
:10190C0003000000F0F8FC0C0404043C3C3800001C
:10191C000F1F3F302022223E3E3EF10E0760000C8E
:10192C000750480FF66E190ED8B0010FF76E000E67
:10193C00D8B0010FF86E0800F5501200F000FCFC56
:10194C00FC808080FCFCFC0000003F3F3F0101015B
:10195C003F3F3F000000000404FCFCFC04040000BA
:10196C0000000020203F3F3F20200000000000002E
:10197C0000000404FCFCFC04041E1E3E202020205D
:10198C003F3F1F00000004FCFCFCC0E0703C1C0C42
:10199C000000203F3F3F03070E3C3830000004FCA2
:1019AC00FCFC0400000000000000203F3F3F202012
:1019BC002030383C0000FCFCFC78F0E0F078FCFCBB
:1019CC00FC003F3F3F00000100003F3F3F00FCFC9C
:1019DC00FC70E0C08000FCFCFC003F3F3F000001BD
:1019EC0003073F3F3F00E0F0F81C0C0C0C1CF8F018
:1019FC00E000070F1F38303030381F0F070004FC91
:101A0C00FCFC848484FCFC780000203F3F3F2101D7
:101A1C00010101000000E0F8F81C0C040C1CF8F8A3
:101A2C00E000071F1F18185C5E7E7F7F4700EF0EDB
:101A3C000760000C07505C0FF66E1A0ED8B0010F41
:101A4C00F76E000ED8B0010FF86E0800F5501200BA
:101A5C00F00004FCFCFC848484FCFC780000203F37
:101A6C003F3F0101033F3F3C000078FCFC84848431
:101A7C0084BC3C3800001C3C3D242421213F3F1EEB
:101A8C0000001C0C0404FCFCFC04040C1C000000F6
:101A9C0020203F3F3F2020000000FCFCFC00000009
:101AAC00FCFCFC0000001F3F3F2020203F3F1F009C
:101ABC000000FCFCFC000000FCFCFC000000070F1C
:101ACC001F3830381F0F07000000FCFCFC000080A2
:101ADC000000FCFCFC00030F3F3C3C0F3C3C3F0F68
:101AEC0003001C3C7CE0C0E07C3C1C000000383C4B
:101AFC003E0703073E3C380000007CFCFC80008065
:101B0C00FCFC7C0000000020213F3F3F2120000016
:101B1C0000003C1C0C0484C4E47C3C1C0000383CDD
:101B2C003E2723212030383C00000000FCFCFC0444
:101B3C0004040400000000003F3F3F202020200050
:101B4C00EF0E0760000C07506E0FF66E1B0ED8B030
:101B5C00010FF76E000ED8B0010FF86E0800F550AB
:101B6C001200F0001C3870E0C08000000000000083
:101B7C00000000000103070E1C18300000000404D4
:101B8C000404FCFCFC0000000000202020203F3F4F
:101B9C003F0000002030381C0E0E1C383020000096
:101BAC000000000000000000000000000000000029
:101BBC0000000000000000C0C0C0C0C0C0C0C0C059
:101BCC00C0C0C0000C0C3C30300000000000000015
:101BDC000000000000000000000000000040404039
:101BEC004040C0C0800000001C3E3E2222223F1F0D
:101BFC003F20000004FCFCFC404040C0C0800000C2
:101C0C00203F1F3F2020203F3F1F000080C0C040CE
:101C1C004040C0C0800000001F3F3F2020203939C9
:101C2C001900000080C0C0404044FCFCFC040000D3
:101C3C001F3F3F2020203F1F3F20000080C0C0409E
:101C4C004040C0C0800000001F3F3F2222223B3B8F
:101C5C001B00020E0101506F516B020E526F536B41
:101C6C0016EEB7F2BC0EF66E990EF76E000EF86E0D
:101C7C0000014DEC4BF0B70E0101B46F1A0EB56FAD
:101C8C00B0C054F0B1C055F000016BEC32F0020E54
:101C9C000101506F516B120E526F536B16EEB7F26F
:101CAC00C40EF66E990EF76E000EF86E00014DEC38
:101CBC004BF0B70E0101B46F1A0EB56FB0C054F0F3
:101CCC00B1C055F000016BEC32F0020E0101506F07
:101CDC00516B220E526F536B16EEB7F2CC0EF66EA2
:101CEC00990EF76E000EF86E00014DEC4BF0B70E2E
:101CFC000101B46F1A0EB56FB0C054F0B1C055F0FD
:101D0C0000016BEC32F0020E0101506F516B320E80
:101D1C00526F536B16EEB7F2D40EF66E990EF76E39
:101D2C00000EF86E00014DEC4BF0B70E0101B46FD4
:101D3C001A0EB56FB0C054F0B1C055F000016BEC89
:101D4C0032F0020E0101506F516B420E526F536B09
:101D5C0016EEB7F2DC0EF66E990EF76E000EF86EFC
:101D6C0000014DEC4BF0B70E0101B46F1A0EB56FBC
:101D7C00B0C054F0B1C055F000016BEC32F0020E63
:101D8C000101506F516B520E526F536B16EEB7F23E
:101D9C00E40EF66E990EF76E000EF86E00014DEC27
:101DAC004BF0B70E0101B46F1A0EB56FB0C054F002
:101DBC00B1C055F000016BEC32F0020E0101506F16
:101DCC00516B6C0E526F536B16EEB7F2EC0EF66E47
:101DDC00990EF76E000EF86E00014DEC4BF0B70E3D
:101DEC000101B46F1A0EB56FB0C054F0B1C055F00C
:101DFC0000016BEC32F0020E0101506F516B7C0E46
:101E0C00526F536B16EEB7F2F20EF66E990EF76E2A
:101E1C00000EF86E00014DEC4BF0B70E0101B46FE3
:101E2C001A0EB56FB0C054F0B1C055F000016BEC98
:101E3C0032F0020E0101506F516B8C0E526F536BCE
:101E4C0016EEB7F2FC0EF66E990EF76E000EF86EEB
:101E5C0000014DEC4BF0B70E0101B46F1A0EB56FCB
:101E6C00B0C054F0B1C055F000016BEC32F0020E72
:101E7C000101506F516B9C0E526F536B16EEB7F203
:101E8C00040EF66E9A0EF76E000EF86E00014DEC15
:101E9C004BF0B70E0101B46F1A0EB56FB0C054F011
:101EAC00B1C055F000016BEC32F0020E0101506F25
:101EBC00516BAC0E526F536B16EEB7F20E0EF66EF4
:101ECC009A0EF76E000EF86E00014DEC4BF0B70E4B
:101EDC000101B46F1A0EB56FB0C054F0B1C055F01B
:101EEC0000016BEC32F0020E0101506F516BBC0E15
:101EFC00526F536B16EEB7F2160EF66E9A0EF76E15
:101F0C00000EF86E00014DEC4BF0B70E0101B46FF2
:101F1C001A0EB56FB0C054F0B1C055F000016BEFA4
:101F2C0032F024C109F025C10AF026C105F027C101
:101F3C0006F0B8EC49F000A00CD024C1B6F025C1D5
:101F4C00B7F026C124F127C125F1B6C026F1B7C0E0
:101F5C0027F128C109F029C10AF02AC105F02BC1CB
:101F6C0006F0B8EC49F000A00CD028C1B6F029C19D
:101F7C00B7F02AC128F12BC129F1B6C02AF1B7C09C
:101F8C002BF1010E0101245D00016A6F000E0101AD
:101F9C00255900016B6F24C109F025C10AF026C137
:101FAC0005F027C106F0B8EC49F000B02BD06A2B35
:101FBC00D8B46B2B6AC0B8F06BC0B9F028C1BAF0BA
:101FCC0029C1BBF014C1A4F015C1A5F0C5EC3FF0BC
:101FDC006AC0B8F06BC0B9F02AC1BAF02BC1BBF023
:101FEC0014C1A4F015C1A5F0C5EC3FF06AC005F012
:101FFC006BC006F026C109F027C10AF0B8EC49F015
:10200C0000B0D5D7010E0101285D00016A6F000EEA
:10201C000101295900016B6F28C109F029C10AF08F
:10202C002AC105F02BC106F0B8EC49F000B02BD05A
:10203C006A2BD8B46B2B24C1B8F025C1B9F06AC097
:10204C00BAF06BC0BBF014C1A4F015C1A5F0C5EC7F
:10205C003FF026C1B8F027C1B9F06AC0BAF06BC026
:10206C00BBF014C1A4F015C1A5F0C5EC3FF06AC0DB
:10207C0005F06BC006F02AC109F02BC10AF0B8ECD0
:10208C0049F000B0D5D712000A0E0101246F256B60
:10209C000A0E286F296B5E0E266F276BCA0E2A6FED
:1020AC002B6BB0C014F1B1C015F100013ADF140E66
:1020BC000101246F256B140E286F296B540E266FAB
:1020CC00276BC00E2A6F2B6BB0C014F1B1C015F189
:1020DC00000127DF1E0E0101246F256B1E0E286FD9
:1020EC00296B4A0E266F276BB60E2A6F2B6BB0C06E
:1020FC0014F1B1C015F1000114DF280E0101246F99
:10210C00256B280E286F296B400E266F276BAC0EA3
:10211C002A6F2B6BB0C014F1B1C015F10001E7EFC1
:10212C0028F001017F6B806B816B826BE80EC66FB0
:10213C00040EC76F7F2BD8B4802B640E796F640E9E
:10214C007A6F010E816F826B770E526E126A136A70
:10215C00146A156A5968000103EC46F07AC105F05F
:10216C00020E096E0001B3EC49F000C0D9F181C137
:10217C0009F082C10AF0640E056E066AB8EC49F0EB
:10218C000101D9510010D16FD1B10ED0010E376FB2
:10219C007AC178F1000126EC2FF078C17AF10101B7
:1021AC00812BD8B4822BDAD7010E816F826B690E2A
:1021BC00526E126A136A146A400E156E5968000149
:1021CC0003EC46F079C105F0020E096E0001B3EC88
:1021DC0049F000C0D9F181C109F082C10AF0640E46
:1021EC00056E066AB8EC49F00101D9510010D16FA7
:1021FC00D1B10ED0010E376F79C178F1000126EC08
:10220C002FF078C179F10101812BD8B4822BDAD768
:10221C007953D8B404D0C62F8DD7C72F8BD7010EC6
:10222C005A6E16EE45F2A00EF66E9B0EF76E000E71
:10223C00F86E00014DEC4BF0450E0101CC6F1A0EFF
:10224C00CD6F16EE0CF2AA0EF66E9B0EF76E000E0C
:10225C00F86E00014DEC4BF00C0E01019F6F1A0E45
:10226C00A06F5B6A000174EC46F05A6A16EE45F2F8
:10227C00B40EF66E9B0EF76E000EF86E4DEC4BF036
:10228C00450E0101CC6F1A0ECD6F7FC10CF180C1D0
:10229C000DF15B6A0001D0EC46F05A6A16EE45F27D
:1022AC00BC0EF66E9B0EF76E000EF86E4DEC4BF0FE
:1022BC00450E0101CC6F1A0ECD6F16EE0CF2F20E1C
:1022CC00F66E9A0EF76E000EF86E00014DEC4BF0A8
:1022DC000C0E01019F6F1A0EA06F5B6A000174EC6B
:1022EC0046F0010E5A6E16EE45F2C60EF66E9B0EB9
:1022FC00F76E000EF86E4DEC4BF0450E0101CC6FF5
:10230C001A0ECD6F79C107F15B6A0001A3EC46F0A0
:10231C005A6A16EE45F2DE0EF66E9B0EF76E000E46
:10232C00F86E4DEC4BF0450E0101CC6F1A0ECD6FD3
:10233C007AC107F15B6A0001A3EF46F0BD9EF40E73
:10234C00026E010E036ED1EC28F0BD8E01017905F1
:10235C00D8B463D07F6B806BBD8E0A0E396F0001D1
:10236C005BEC46F0320E026E036AD1EC28F016EEEE
:10237C000CF2820EF66E9A0EF76E000EF86E4DECA5
:10238C004BF00C0E0101B46F1A0EB56F010E566EA8
:10239C000001FDEC32F0400E526E126A136A146AA0
:1023AC00156A950E596E03EC46F079C105F0010ED5
:1023BC00096E86EC49F0001E00C0D9F17FC105F012
:1023CC0080C106F0320E096E0A6AB8EC49F00101C0
:1023DC00D9510014D16FD1A10AD0010E376F79C138
:1023EC0078F1000126EC2FF078C179F1DED716EEEA
:1023FC000CF2860EF66E9A0EF76E000EF86E000159
:10240C004DEC4BF00C0E0101B46F1A0EB56F010EB2
:10241C00566E0001FDEC32F099D7BD8E010E5A6E4E
:10242C0016EE0CF28A0EF66E9A0EF76E000EF86E21
:10243C0000014DEC4BF00C0E0101CC6F1A0ECD6F60
:10244C0016EE45F2920EF66E9A0EF76E000EF86EC0
:10245C0000014DEC4BF0450E01019F6F1A0EA06F61
:10246C005B6A000174EF46F0640E0101796F7F6BBB
:10247C00806B640EB86F7F2BD8B4802B816B826B12
:10248C00510E526E126A020E136E146A156A596856
:10249C00000103EC46F079C105F0096A000186ECF5
:1024AC0049F000C0D9F181C109F082C10AF0640E73
:1024BC00056E066AB8EC49F00101D9510010D16FD4
:1024CC00D1B10ED0010E376F79C178F1000126EC35
:1024DC002FF078C179F10101812BD8B4822BDBD795
:1024EC007953D8B402D0B82FC6D77953D8A427D0F3
:1024FC00010E5A6E16EE45F22C0EF66E9D0EF76E10
:10250C00000EF86E00014DEC4BF0450E0101CC6F46
:10251C001A0ECD6F16EE0CF24C0EF66E9D0EF76E7B
:10252C00000EF86E00014DEC4BF00C0E01019F6F8C
:10253C001A0EA06F5B6A000174EC46F026D0010EF7
:10254C005A6E16EE45F2500EF66E9D0EF76E000E9C
:10255C00F86E00014DEC4BF0450E0101CC6F1A0EDC
:10256C00CD6F16EE0CF24C0EF66E9D0EF76E000E45
:10257C00F86E00014DEC4BF00C0E01019F6F1A0E22
:10258C00A06F5B6A000174EC46F05A6A16EE45F2D5
:10259C00700EF66E9D0EF76E000EF86E4DEC4BF055
:1025AC00450E0101CC6F1A0ECD6F79C107F15B6A34
:1025BC000001A3EC46F05A6A16EE45F2820EF66E56
:1025CC009D0EF76E000EF86E4DEC4BF0450E0101B2
:1025DC00CC6F1A0ECD6F7FC10CF180C10DF15B6A0F
:1025EC000001D0EF46F00101066B640E796F7F6B32
:1025FC00806BE80EC86F040EC96F7F2BD8B4802B8C
:10260C007A0E526E126A136A146A156A59680001BE
:10261C0003EC46F0320E0101CA6F010E376F79C11F
:10262C0078F1000126EC2FF078C179F10101795392
:10263C00D8B402D0CA2FF1D7320ECA6F010E376F41
:10264C007AC178F1000126EC2FF078C17AF1010102
:10265C007A29D8A402D0CA2FF1D7320ECA6F010E34
:10266C00376F7BC178F1000126EC2FF078C17BF13C
:10267C0001017B29D8A402D0CA2FF1D7320ECA6F20
:10268C00010E376F7CC178F1000126EC2FF078C178
:10269C007CF101017C29D8A402D0CA2FF1D7320ECB
:1026AC00CA6F010E376F7DC178F1000126EC2FF057
:1026BC0078C17DF101017A29D8A402D0CA2FF1D7B3
:1026CC007953D8B404D0C82F98D7C92F96D779533B
:1026DC00D8A423D1010E066F010E5A6E16EE0CF221
:1026EC00F00EF66E9B0EF76E000EF86E00014DECC0
:1026FC004BF00C0E0101CC6F1A0ECD6F16EE45F29D
:10270C00F80EF66E9B0EF76E000EF86E00014DEC97
:10271C004BF0450E01019F6F1A0EA06F5B6A000112
:10272C0074EC46F05A6A16EE0CF2120EF66E9C0E13
:10273C00F76E000EF86E4DEC4BF00C0E0101CC6FE9
:10274C001A0ECD6F87C107F15B6A0001A3EC46F04E
:10275C00010E5A6E16EE0CF2240EF66E9C0EF76EEF
:10276C00000EF86E4DEC4BF00C0E0101CC6F1A0EF6
:10277C00CD6F79C107F15B6A0001A3EC46F0010E45
:10278C005A6E16EE0CF23E0EF66E9C0EF76E000EA6
:10279C00F86E4DEC4BF00C0E0101CC6F1A0ECD6F98
:1027AC007AC107F15B6A0001A3EC46F05A6A16EE97
:1027BC000CF25C0EF66E9C0EF76E000EF86E4DEC85
:1027CC004BF00C0E0101CC6F1A0ECD6F7BC107F1D3
:1027DC005B6A0001A3EC46F05A6A16EE0CF25C0E32
:1027EC00F66E9C0EF76E000EF86E4DEC4BF00C0E68
:1027FC000101CC6F1A0ECD6F7CC107F15B6A000131
:10280C00A3EC46F05A6A16EE0CF25C0EF66E9C0EB9
:10281C00F76E000EF86E4DEC4BF00C0E0101CC6F08
:10282C001A0ECD6F7DC107F15B6A0001A3EC46F077
:10283C005A6A16EE0CF25E0EF66E9C0EF76E000ED9
:10284C00F86E4DEC4BF00C0E0101CC6F1A0ECD6FE7
:10285C0016EE45F2480EF66E970EF76E000EF86EF9
:10286C0000014DEC4BF0450E01019F6F1A0EA06F4D
:10287C005B6A000174EC46F001017ABD27D0010EB1
:10288C005A6E16EE0CF2600EF66E9C0EF76E000E83
:10289C00F86E00014DEC4BF00C0E0101CC6F1A0ED2
:1028AC00CD6F16EE45F27E0EF66E9C0EF76E000E98
:1028BC00F86E00014DEC4BF0450E01019F6F1A0EA6
:1028CC00A06F5B6A000174EC46F026D0010E5A6EC4
:1028DC0016EE0CF29E0EF66E9C0EF76E000EF86E57
:1028EC0000014DEC4BF00C0E0101CC6F1A0ECD6FAC
:1028FC0016EE45F2BE0EF66E9C0EF76E000EF86EDE
:10290C0000014DEC4BF0450E01019F6F1A0EA06FAC
:10291C005B6A000174EC46F064D0BD8E010E5A6EF9
:10292C0016EE0CF2F00EF66E9B0EF76E000EF86EB5
:10293C0000014DEC4BF00C0E0101CC6F1A0ECD6F5B
:10294C0016EE45F2E40EF66E9C0EF76E000EF86E67
:10295C0000014DEC4BF0450E01019F6F1A0EA06F5C
:10296C005B6A000174EC46F05A6A16EE0CF2FE0E2D
:10297C00F66E9C0EF76E000EF86E4DEC4BF00C0ED6
:10298C000101CC6F1A0ECD6F7FC10CF180C10DF11E
:10299C005B6A0001D0EC46F0010E5A6E16EE0CF29A
:1029AC000C0EF66E9D0EF76E000EF86E4DEC4BF0A5
:1029BC000C0E0101CC6F1A0ECD6F16EE45F21A0EED
:1029CC00F66E9D0EF76E000EF86E00014DEC4BF09E
:1029DC00450E01019F6F1A0EA06F5B6A000174EC2B
:1029EC0046F01200640E0101796F576A79C105F047
:1029FC00010E096E000186EC49F000C0D9F179C1D5
:102A0C0005F0050E096E86EC49F000C0D1F17FC1CE
:102A1C0009F080C10AF0320E056E066AB8EC49F076
:102A2C000101D951D111D56F0010D96FD9B139D05D
:102A3C007F2BD8B4802B480E526EAA0E126E010E4C
:102A4C00136E146A156A870E596E000103EC46F07A
:102A5C00010E0101376F79C178F1000126EC2FF0DE
:102A6C0078C179F1030E0101376F7AC178F1000159
:102A7C0026EC2FF078C17AF1010E0101376F7BC182
:102A8C0078F1000126EC2FF078C17BF1010E0101E9
:102A9C00376F67C178F1000126EC2FF078C167F130
:102AAC00A5D7BD8E7FC109F080C10AF0320E056E2C
:102ABC00066A0001B8EC49F000A026D0010E5A6E4F
:102ACC0016EE45F29E0EF66E9A0EF76E000EF86E2E
:102ADC004DEC4BF0450E0101CC6F1A0ECD6F16EE7E
:102AEC000CF2A60EF66E9A0EF76E000EF86E000142
:102AFC004DEC4BF00C0E01019F6F1A0EA06F5B6A30
:102B0C00000174EC46F0FED101017905D8A44BD03C
:102B1C00010E5A6E16EE45F29E0EF66E9A0EF76E7A
:102B2C00000EF86E00014DEC4BF0450E0101CC6F20
:102B3C001A0ECD6F16EE0CF2AE0EF66E9A0EF76EF6
:102B4C00000EF86E00014DEC4BF00C0E01019F6F66
:102B5C001A0EA06F5B6A000174EC46F0010E5A6EFF
:102B6C0016EE45F2BA0EF66E9A0EF76E000EF86E71
:102B7C004DEC4BF0450E0101CC6F1A0ECD6F16EEDD
:102B8C000CF2C80EF66E9A0EF76E000EF86E00017F
:102B9C004DEC4BF00C0E01019F6F1A0EA06F5B6A8F
:102BAC00000174EC46F0050E0101795DD8A44BD000
:102BBC00010E5A6E16EE45F2D00EF66E9A0EF76EA8
:102BCC00000EF86E00014DEC4BF0450E0101CC6F80
:102BDC001A0ECD6F16EE0CF2D80EF66E9A0EF76E2C
:102BEC00000EF86E00014DEC4BF00C0E01019F6FC6
:102BFC001A0EA06F5B6A000174EC46F0010E5A6E5F
:102C0C0016EE45F2BA0EF66E9A0EF76E000EF86ED0
:102C1C004DEC4BF0450E0101CC6F1A0ECD6F16EE3C
:102C2C000CF2E40EF66E9A0EF76E000EF86E0001C2
:102C3C004DEC4BF00C0E01019F6F1A0EA06F5B6AEE
:102C4C00000174EC46F0AA0E01017B5DD8A44BD0B8
:102C5C00010E5A6E16EE45F2EC0EF66E9A0EF76EEB
:102C6C00000EF86E00014DEC4BF0450E0101CC6FDF
:102C7C001A0ECD6F16EE0CF2F20EF66E9A0EF76E71
:102C8C00000EF86E00014DEC4BF00C0E01019F6F25
:102C9C001A0EA06F5B6A000174EC46F05A6A16EECD
:102CAC0045F2F60EF66E9A0EF76E000EF86E4DECBF
:102CBC004BF0450E0101CC6F1A0ECD6F16EE0CF2D7
:102CCC00080EF66E9B0EF76E000EF86E00014DECC2
:102CDC004BF00C0E01019F6F1A0EA06F5B6A000186
:102CEC0074EC46F060D0010E5A6E16EE45F2EC0E06
:102CFC00F66E9A0EF76E000EF86E00014DEC4BF06E
:102D0C00450E0101CC6F1A0ECD6F16EE0CF2F20EC1
:102D1C00F66E9A0EF76E000EF86E00014DEC4BF04D
:102D2C000C0E01019F6F1A0EA06F5B6A000174EC10
:102D3C0046F05A6A16EE45F2F60EF66E9A0EF76EDD
:102D4C00000EF86E4DEC4BF0450E0101CC6F1A0ED7
:102D5C00CD6F16EE0CF21E0EF66E9B0EF76E000E7D
:102D6C00F86E00014DEC4BF00C0E01019F6F1A0E2A
:102D7C00A06F5B6A000174EC46F05A6A16EE45F2DD
:102D8C00380EF66E9B0EF76E000EF86E4DEC4BF097
:102D9C00450E0101CC6F1A0ECD6F7BC107F15B6A3A
:102DAC000001A3EC46F001017A05D8A44BD0010E2A
:102DBC005A6E16EE45F2EC0EF66E9A0EF76E000E8B
:102DCC00F86E00014DEC4BF0450E0101CC6F1A0E64
:102DDC00CD6F16EE0CF2F20EF66E9A0EF76E000E2A
:102DEC00F86E00014DEC4BF00C0E01019F6F1A0EAA
:102DFC00A06F5B6A000174EC46F05A6A16EE45F25D
:102E0C00460EF66E9B0EF76E000EF86E4DEC4BF008
:102E1C00450E0101CC6F1A0ECD6F16EE0CF25A0E48
:102E2C00F66E9B0EF76E000EF86E00014DEC4BF03B
:102E3C000C0E01019F6F1A0EA06F5B6A000174ECFF
:102E4C0046F060D0010E5A6E16EE45F2EC0EF66EA0
:102E5C009A0EF76E000EF86E00014DEC4BF0450E1D
:102E6C000101CC6F1A0ECD6F16EE0CF2F20EF66E4F
:102E7C009A0EF76E000EF86E00014DEC4BF00C0E36
:102E8C0001019F6F1A0EA06F5B6A000174EC46F093
:102E9C005A6A16EE45F2680EF66E9B0EF76E000E31
:102EAC00F86E4DEC4BF0450E0101CC6F1A0ECD6F48
:102EBC0016EE0CF27C0EF66E9B0EF76E000EF86E94
:102ECC0000014DEC4BF00C0E01019F6F1A0EA06F20
:102EDC005B6A000174EC46F05A6A16EE45F2920EEB
:102EEC00F66E9B0EF76E000EF86E4DEC4BF0450E29
:102EFC000101CC6F1A0ECD6F7AC107F15B6A00012C
:102F0C00A3EC46F01200000E0101965DD8B004D07F
:102F1C0019010B6B00011200010E19010B6F6000FF
:102F2C0059F60CF900011200F06BF16B0101506BBA
:102F3C00516B526B536B0001806B816B802BD8B43F
:102F4C00812B07EE2AF18051E9268151EA2260009B
:102F5C008BF2EFFF80C005F081C006F0D40E096E35
:102F6C000A6AB8EC49F000B0E9D7120002D8B3EF06
:102F7C0042F0F06BF16B0101506B516B526B536B68
:102F8C000001806B816B802BD8B4812B07EE2AF16A
:102F9C008051E9268151EA2260008BF2EFFF80C05C
:102FAC0005F081C006F0D40E096E0A6AB8EC49F03F
:102FBC0000B0E9D7100E796F31EC46F0020E026EBC
:102FCC00036AD1EC28F0BC92BA80806B816B802BA9
:102FDC00D8B4812B7E6B7F6B7E2BD8B47F2BA2C099
:102FEC007AF0080E0101C56F00017AAF02D0BC8ADD
:102FFC0001D0BC9ABC867A37BC960101C52FF4D798
:10300C007EC005F07FC006F0680E096E0A6A0001EA
:10301C00B8EC49F000B0E0D780C005F081C006F0F4
:10302C00D40E096E0A6AB8EC49F000B0D0D7BC8255
:10303C000A0E026E036AD1EC28F0130E796F31EC94
:10304C0046F0020E026E036AD1EC28F0BC92BA80F4
:10305C00806B816B802BD8B4812B7E6B7F6B7E2B2E
:10306C00D8B47F2BA2C07AF0080E0101C56F000105
:10307C007AAF02D0BC8A01D0BC9ABC867A37BC9697
:10308C000101C52FF4D77EC005F07FC006F0680E95
:10309C00096E0A6A0001B8EC49F000B0E0D780C0B4
:1030AC0005F081C006F0D40E096E0A6AB8EC49F03E
:1030BC0000B0D0D7BC820A0E026E036AD1EF28F0A2
:1030CC00040E0101246F256B040E286F296B2A0E48
:1030DC00266F276B2A0E2A6F2B6BB0C014F1B1C070
:1030EC0015F10001E7EC28F0050E0101246F256BAA
:1030FC00050E286F296B290E266F276B290E2A6F58
:10310C002B6BA2C014F1A3C015F10001E7EC28F061
:10311C00060E0101246F256B060E286F296B280EF5
:10312C00266F276B280E2A6F2B6BB0C014F1B1C021
:10313C0015F10001E7EC28F0070E0101246F256B57
:10314C00070E286F296B270E266F276B270E2A6F09
:10315C002B6BA2C014F1A3C015F10001E7EC28F011
:10316C00080E0101246F256B080E286F296B260EA3
:10317C00266F276B260E2A6F2B6BB0C014F1B1C0D3
:10318C0015F10001E7EC28F0090E0101246F256B05
:10319C00090E286F296B250E266F276B250E2A6FBB
:1031AC002B6BA2C014F1A3C015F10001E7EC28F0C1
:1031BC000A0E0101246F256B0A0E286F296B240E51
:1031CC00266F276B240E2A6F2B6BB0C014F1B1C085
:1031DC0015F10001E7EC28F00B0E0101246F256BB3
:1031EC000B0E286F296B230E266F276B230E2A6F6D
:1031FC002B6BA2C014F1A3C015F10001E7EC28F071
:10320C000C0E0101246F256B0C0E286F296B220EFE
:10321C00266F276B220E2A6F2B6BB0C014F1B1C036
:10322C0015F10001E7EC28F00D0E0101246F256B60
:10323C000D0E286F296B210E266F276B210E2A6F1E
:10324C002B6BA2C014F1A3C015F10001E7EC28F020
:10325C000E0E0101246F256B0E0E286F296B200EAC
:10326C00266F276B200E2A6F2B6BB0C014F1B1C0E8
:10327C0015F10001E7EC28F00F0E0101246F256B0E
:10328C000F0E286F296B1F0E266F276B1F0E2A6FD0
:10329C002B6BA2C014F1A3C015F10001E7EC28F0D0
:1032AC004D0E0101EB6FEC6B190E0201076F086BF1
:1032BC00170E0101F16FF26BB0C014F1B1C015F132
:1032CC0000016DEC29F04D0E0101EB6FEC6B190E4A
:1032DC000201076F086B130E0101F16FF26BA2C0B4
:1032EC0014F1A3C015F100016DEC29F04D0E010194
:1032FC00EB6FEC6B190E0201076F086B0E0E0101E0
:10330C00F16FF26BB0C014F1B1C015F100016DECAE
:10331C0029F04D0E0101EB6FEC6B190E0201076FDA
:10332C00086B0B0E0101F16FF26BA2C014F1A3C07C
:10333C0015F100016DEC29F04D0E0101EB6FEC6BFA
:10334C00190E0201076F086B050E0101F16FF26B8C
:10335C00B0C014F1B1C015F100016DEC29F04D0EA7
:10336C000101EB6FEC6B190E0201076F086B020E7B
:10337C000101F16FF26BA2C014F1A3C015F10001B1
:10338C006DEC29F0190E0101EB6FEC6B3C0E020198
:10339C00076F086B100E01010F6F106B080E116F89
:1033AC00126BB0C014F1B1C015F1000177EC2AF02A
:1033BC00190E0101EB6FEC6B3C0E0201076F086BF1
:1033CC000E0E01010F6F106B070E116F126BA2C066
:1033DC0014F1A3C015F1000177EC2AF0190E0101CC
:1033EC00EB6FEC6B3C0E0201076F086B0C0E0101CE
:1033FC000F6F106B060E116F126BB0C014F1B1C0D1
:10340C0015F1000177EC2AF0190E0101EB6FEC6B52
:10341C003C0E0201076F086B0A0E01010F6F106B57
:10342C00050E116F126BA2C014F1A3C015F10001AF
:10343C0077EC2AF0190E0101EB6FEC6B3C0E0201DC
:10344C00076F086B080E01010F6F106B040E116FE4
:10345C00126BB0C014F1B1C015F1000177EC2AF079
:10346C00190E0101EB6FEC6B3C0E0201076F086B40
:10347C00060E01010F6F106B030E116F126BA2C0C1
:10348C0014F1A3C015F1000177EC2AF0320E010102
:10349C005B6F5C6B320E5F6F606B640E5D6F5E6BAF
:1034AC00640E616F626BB0C054F0B1C055F0000196
:1034BC0018EC2DF0370E01015B6F5C6B370E5F6FF4
:1034CC00606B5F0E5D6F5E6B5F0E616F626BA2C0B7
:1034DC0054F0A3C055F0000118EC2DF03C0E010186
:1034EC005B6F5C6B3C0E5F6F606B5A0E5D6F5E6B5F
:1034FC005A0E616F626BB0C054F0B1C055F0000150
:10350C0018EC2DF0410E01015B6F5C6B410E5F6F8F
:10351C00606B550E5D6F5E6B550E616F626BA2C07A
:10352C0054F0A3C055F0000118EC2DF0460E01012B
:10353C005B6F5C6B460E5F6F606B500E5D6F5E6B0E
:10354C00500E616F626BB0C054F0B1C055F0000109
:10355C0018EC2DF04B0E01015B6F5C6B4B0E5F6F2B
:10356C00606B4B0E5D6F5E6B4B0E616F626BA2C03E
:10357C0054F0A3C055F0000118EC2DF0500E0101D1
:10358C005B6F5C6B500E5F6F606B500E5D6F5E6BB4
:10359C00500E616F626BB0C054F0B1C055F00001B9
:1035AC0018EC2DF0190E0101EB6FEC6B460E0201BD
:1035BC00076F086B020E0101ED6FEE6B660E0201D8
:1035CC00096F0A6B2E0E0101EF6FF06B660E020194
:1035DC000B6F0C6BB0C014F1B1C015F100017BEC9A
:1035EC002AF0190E0101EB6FEC6B4E0E0201076F06
:1035FC00086B0A0E0101ED6FEE6B620E0201096F92
:10360C000A6B260E0101EF6FF06B620E02010B6F5D
:10361C000C6BA2C014F1A3C015F100017BEC2AF0D5
:10362C00190E0101EB6FEC6B560E0201076F086B64
:10363C00120E0101ED6FEE6B5E0E0201096F0A6B4B
:10364C001E0E0101EF6FF06B5E0E02010B6F0C6B27
:10365C00B0C014F1B1C015F100017BEC2AF0080EDA
:10366C000101246F256B6C0E286F296B5A0E266F87
:10367C00276B940E2A6F2B6BB0C014F1B1C015F1EF
:10368C000001E7EC28F0120E0101246F256B760E79
:10369C00286F296B500E266F276B880E2A6F2B6BA9
:1036AC00A2C014F1A3C015F10001E7EC28F01C0E28
:1036BC000101246F256B800E286F296B460E266F37
:1036CC00276B7E0E2A6F2B6BB0C014F1B1C015F1B5
:1036DC000001E7EC28F0090E0101906F916B6C0E64
:1036EC00496E4A6A16EEB7F21E0EF66E9A0EF76E19
:1036FC00000EF86E00014DEC4BF0B70E01019A6F05
:10370C001A0E9B6FA2C014F1A3C015F100018DEC31
:10371C0027F0130E0101906F916B750E496E4A6A7A
:10372C0016EEB7F21E0EF66E9A0EF76E000EF86ECF
:10373C0000014DEC4BF0B70E01019A6F1A0E9B6F06
:10374C00B0C014F1B1C015F100018DEC27F0130ECF
:10375C000101906F916B950E496E4A6A16EEB7F2A5
:10376C00280EF66E9A0EF76E000EF86E00014DECF8
:10377C004BF0B70E01019A6F1A0E9B6FB0C014F18B
:10378C00B1C015F100018DEC27F0320E0101F36F81
:10379C00F46BB50E02010D6F0E6B040E166E176AEC
:1037AC00020E376E386A010E0101DD6F010E366FA5
:1037BC00B0C014F1B1C015F10001A6EC34F014C185
:1037CC00B0F015C1B1F0320E0101F36FF46BB50E10
:1037DC0002010D6F0E6B060E166E176A030E376E16
:1037EC00386A010E0101DD6F010E366FA2C014F1B3
:1037FC00A3C015F10001A6EC34F014C1A2F015C160
:10380C00A3F0320E0101F36FF46BB50E02010D6FD4
:10381C000E6B0A0E166E176A050E376E386A010E9D
:10382C000101DD6F010E366FB0C014F1B1C015F19E
:10383C000001A6EC34F014C1B0F015C1B1F0320E99
:10384C000101F36FF46BB50E02010D6F0E6B0E0ED2
:10385C00166E176A070E376E386A010E0101DD6F9E
:10386C00010E366FA2C014F1A3C015F10001A6EC35
:10387C0034F014C1A2F015C1A3F0320E0101F36FA4
:10388C00F46BB50E02010D6F0E6B120E166E176AED
:10389C00090E376E386A010E0101DD6F010E366FAD
:1038AC00B0C014F1B1C015F10001A6EC34F014C194
:1038BC00B0F015C1B1F0320E0101F36FF46BB50E1F
:1038CC0002010D6F0E6B160E166E176A0B0E376E0D
:1038DC00386A010E0101DD6F010E366FA2C014F1C2
:1038EC00A3C015F10001A6EC34F014C1A2F015C16F
:1038FC00A3F0320E0101F36FF46BB50E02010D6FE4
:10390C000E6B1A0E166E176A0D0E376E386A010E94
:10391C000101DD6F010E366FB0C014F1B1C015F1AD
:10392C000001A6EC34F014C1B0F015C1B1F0320EA8
:10393C000101F36FF46BB50E02010D6F0E6B1E0ED1
:10394C00166E176A0F0E376E386A010E0101DD6FA5
:10395C00010E366FA2C014F1A3C015F10001A6EC44
:10396C0034F014C1A2F015C1A3F0320E0101F36FB3
:10397C00F46BB50E02010D6F0E6B220E166E176AEC
:10398C00110E376E386A010E0101DD6F010E366FB4
:10399C00B0C014F1B1C015F10001A6EC34F014C1A3
:1039AC00B0F015C1B1F012000EC032F00FC033F000
:1039BC0010C034F011C035F0E4EC43F00EC074F1DB
:1039CC000FC075F110C076F111C077F10EC005F083
:1039DC000FC006F010C007F011C008F04EC009F07F
:1039EC004FC00AF050C00BF051C00CF094EC49F0F1
:1039FC0000A003D0010E366E01D0366A0101546B63
:103A0C00556B640E226E236A246A256A836B846B61
:103A1C00026B036B22C005F023C006F024C007F034
:103A2C0025C008F0096A0A6A0B6A0C6A000194EC5A
:103A3C0049F000B00FEF22F007EEFFF101015451F5
:103A4C00E9265551EA226F00BCFF26F0276A286A46
:103A5C00296A26C005F027C006F028C007F029C047
:103A6C0008F0E50E096E0A6A0B6A0C6A000194EC08
:103A7C0049F0001E00A0C7EF21F007EEFFF1010195
:103A8C005451E924D16F5551EA20D26F0B0ED12538
:103A9C00E96E000ED221EA6E6F00BCFF26F0276A99
:103AAC00286A296A006A26A0001E00C0D9F1006AA3
:103ABC0026A2001E00C0D1F1006A26A4001E00C080
:103ACC00D5F1006A26A6001ED951D111DA6FD51195
:103ADC00D96F0010DA6FDAA1C7EF21F026A864D1F4
:103AEC0007EEFFF15451E9265551EA226F00BCFF55
:103AFC0096F1000189EC17F016EE11F006EE0BF1C1
:103B0C0005EC4AF00101856B866B0101852BD8B45D
:103B1C00862B07EEFFF15451E924D16F5551EA2061
:103B2C00D26F8551D125E96E8651D221EA6E6F0094
:103B3C00BCFF96F1000189EC17F015EEE5F3066A6F
:103B4C0006EE11F00CEC4AF006EE0BF10CEC4AF020
:103B5C0005EEE5F360001BF0EFFF16EE11F005EE3D
:103B6C00E5F305EC4AF085C105F086C106F0070EB9
:103B7C00096E0A6AB8EC49F000B0C7D70101022BF4
:103B8C0006EE67F10251E926000EEA2260000FF6FC
:103B9C00EFFF02C105F0010E096E000186EC49F041
:103BAC0000C0D9F103C105F0096A86EC49F00101A6
:103BBC00D9510014DA6FDAA191D0010E2C6F3C0EA2
:103BCC003C6F16EEB7F2A80EF66E980EF76E000E5E
:103BDC00F86E00014DEC4BF0B70E0101986F1A0E08
:103BEC00996F000181EC28F0010E01012C6F080E79
:103BFC003C6F16EEB7F2480EF66E970EF76E000E8F
:103C0C00F86E00014DEC4BF0B70E0101986F1A0ED7
:103C1C00996F000181EC28F05A6A16EEB7F2580E33
:103C2C00F66E9F0EF76E000EF86E4DEC4BF0B70E65
:103C3C000101CC6F1A0ECD6F16EE7EF2066A680E7D
:103C4C00F66E9F0EF76E000EF86E000155EC4BF001
:103C5C006000C7F6E9FF6000CBF6EAFF0CEC4AF017
:103C6C0006EE7EF260001BF0EFFF7E0E01019F6FEF
:103C7C001A0EA06F5B6A000174EC46F0010E010194
:103C8C002C6F3C0E3C6F16EEB7F2A80EF66E980E2B
:103C9C00F76E000EF86E00014DEC4BF0B70E010103
:103CAC00986F1A0E996F000181EC28F0010E01013A
:103CBC002C6F3C0E3C6F16EEB7F2480EF66E970E5C
:103CCC00F76E000EF86E00014DEC4BF0B70E0101D3
:103CDC00986F1A0E996F000181EC28F0010E5A6E44
:103CEC0016EEB7F2780EF66E9F0EF76E000EF86EAB
:103CFC0000014DEC4BF0B70E0101CC6F1A0ECD6FDD
:103D0C0002C107F15B6A0001A3EC46F05A6AFE0E91
:103D1C000101966F000189EC17F016EEB7F2066AF6
:103D2C00480EF66E970EF76E000EF86E55EC4BF0D3
:103D3C0006EE0BF10CEC4AF0480EF66E970EF76E91
:103D4C00000EF86E55EC4BF006EEB7F260001BF06F
:103D5C00EFFFB70E0101CC6F1A0ECD6FE50E9F6F02
:103D6C00170EA06F5B6A000174EC46F05A6A16EEEF
:103D7C00B7F2840EF66E9F0EF76E000EF86E4DECD9
:103D8C004BF0B70E0101CC6F1A0ECD6F06EE67F13A
:103D9C000251E926000EEA226F00BCFF07F15B6AB4
:103DAC000001A3EC46F0EDD207EEFFF15451E926E9
:103DBC005551EA226F00BCFF96F1000189EC17F017
:103DCC0016EE11F006EE0BF105EC4AF00101856BD5
:103DDC00866B0101852BD8B4862B07EEFFF154516D
:103DEC00E924D16F5551EA20D26F8551D125E96E66
:103DFC008651D221EA6E6F00BCFF96F1000189EC6E
:103E0C0017F015EEE5F3066A06EE11F00CEC4AF02D
:103E1C0006EE0BF10CEC4AF005EEE5F360001BF03E
:103E2C00EFFF16EE11F005EEE5F305EC4AF085C157
:103E3C0005F086C106F0070E096E0A6AB8EC49F067
:103E4C0000B0C7D707EEFFF101015451E924D16F3F
:103E5C005551EA20D26F080ED125E96E000ED22101
:103E6C00EA6E6F00BCFF96F1000189EC17F016EEBC
:103E7C0011F006EE0BF105EC4AF00101856B866B37
:103E8C000101852BD8B4862B07EEFFF15451E924A0
:103E9C00D16F5551EA20D26F8551D125D56F8651FE
:103EAC00D221D66F080ED525E96E000ED621EA6E0A
:103EBC006F00BCFF96F1000189EC17F015EEDBF3F7
:103ECC00066A06EE11F00CEC4AF006EE0BF10CEC67
:103EDC004AF005EEDBF360001BF0EFFF16EE11F07D
:103EEC0005EEDBF305EC4AF085C105F086C106F062
:103EFC00020E096E0A6AB8EC49F000B0C1D7010194
:103F0C00032B06EE34F10351E926000EEA22600081
:103F1C000FF6EFFF03C105F0010E096E000186ECF0
:103F2C0049F000C0D9F102C105F0096A86EC49F0EC
:103F3C000101D9510014DA6FDAA191D0010E2C6F66
:103F4C003C0E3C6F16EEB7F2A80EF66E980EF76E9E
:103F5C00000EF86E00014DEC4BF0B70E0101986F9E
:103F6C001A0E996F000181EC28F0010E01012C6FE3
:103F7C00080E3C6F16EEB7F2480EF66E970EF76E03
:103F8C00000EF86E00014DEC4BF0B70E0101986F6E
:103F9C001A0E996F000181EC28F05A6A16EEB7F2EE
:103FAC00960EF66E9F0EF76E000EF86E4DEC4BF003
:103FBC00B70E0101CC6F1A0ECD6F16EE7EF2066AAB
:103FCC00A80EF66E9F0EF76E000EF86E000155EC03
:103FDC004BF06000C7F6E9FF6000CBF6EAFF0CEC93
:103FEC004AF006EE7EF260001BF0EFFF7E0E010140
:103FFC009F6F1A0EA06F5B6A000174EC46F0010E05
:10400C0001012C6F3C0E3C6F16EEB7F2A80EF66E4B
:10401C00980EF76E000EF86E00014DEC4BF0B70EDB
:10402C000101986F1A0E996F000181EC28F0010EB6
:10403C0001012C6F3C0E3C6F16EEB7F2480EF66E7B
:10404C00970EF76E000EF86E00014DEC4BF0B70EAC
:10405C000101986F1A0E996F000181EC28F036045B
:10406C00D8A412D101010305D8A490D0010E5A6E28
:10407C0016EEB7F2B80EF66E9F0EF76E000EF86ED7
:10408C0000014DEC4BF0B70E0101CC6F1A0ECD6F49
:10409C0016EE7EF2C00EF66E9F0EF76E000EF86EE8
:1040AC0000014DEC4BF07E0E01019F6F1A0EA06FBC
:1040BC005B6A000174EC46F05A6AE90E0101966FD6
:1040CC00000189EC17F016EEB7F2066A06EE0BF15A
:1040DC000CEC4AF0480EF66E970EF76E000EF86E6A
:1040EC0055EC4BF006EEB7F260001BF0EFFFB70E8D
:1040FC000101CC6F1A0ECD6FE50E9F6F170EA06FDE
:10410C005B6A000174EC46F05A6A16EEB7F24C0E7C
:10411C00F66E9D0EF76E000EF86E4DEC4BF0B70E72
:10412C000101CC6F1A0ECD6F16EE7EF24C0EF66EB0
:10413C009D0EF76E000EF86E00014DEC4BF07E0EEE
:10414C0001019F6F1A0EA06F5B6A000174EC46F0C0
:10415C005A6A16EEB7F2C80EF66E9F0EF76E000E88
:10416C00F86E4DEC4BF0B70E0101CC6F1A0ECD6F03
:10417C0006EE34F10351E926000EEA226F00BCFF73
:10418C0007F15B6A0001A3EC46F07DD0010E5A6E7C
:10419C0016EEB7F2D60EF66E9F0EF76E000EF86E98
:1041AC0000014DEC4BF0B70E0101CC6F1A0ECD6F28
:1041BC000305076F5B6A0001A3EC46F05A6AE90E2F
:1041CC000101966F000189EC17F016EEB7F2066A42
:1041DC00480EF66E970EF76E000EF86E55EC4BF01F
:1041EC0006EE0BF10CEC4AF0480EF66E970EF76EDD
:1041FC00000EF86E55EC4BF006EEB7F260001BF0BB
:10420C00EFFFB70E0101CC6F1A0ECD6FE50E9F6F4D
:10421C00170EA06F5B6A000174EC46F05A6A16EE3A
:10422C00B7F2E20EF66E9F0EF76E000EF86E4DECC6
:10423C004BF0B70E0101CC6F1A0ECD6FDB0E9F6FDA
:10424C00170EA06F5B6A000174EC46F05A6A16EE0A
:10425C00B7F2C80EF66E9F0EF76E000EF86E4DECB0
:10426C004BF0B70E0101CC6F1A0ECD6F06EE34F188
:10427C000351E926000EEA226F00BCFF07F15B6ACE
:10428C000001A3EC46F07DD0010E5A6E16EEB7F28B
:10429C00D60EF66E9F0EF76E000EF86E00014DEC0A
:1042AC004BF0B70E0101CC6F1A0ECD6F03C107F1A5
:1042BC005B6A0001A3EC46F05A6AE90E0101966FA5
:1042CC00000189EC17F016EEB7F2066A480EF66E8E
:1042DC00970EF76E000EF86E55EC4BF006EE0BF1E8
:1042EC000CEC4AF0480EF66E970EF76E000EF86E58
:1042FC0055EC4BF006EEB7F260001BF0EFFFB70E7B
:10430C000101CC6F1A0ECD6FE50E9F6F170EA06FCB
:10431C005B6A000174EC46F05A6A16EEB7F2E20ED4
:10432C00F66E9F0EF76E000EF86E4DEC4BF0B70E5E
:10433C000101CC6F1A0ECD6FDB0E9F6F170EA06FA5
:10434C005B6A000174EC46F05A6A16EEB7F2C80EBE
:10435C00F66E9F0EF76E000EF86E4DEC4BF0B70E2E
:10436C000101CC6F1A0ECD6F06EE34F10351E92624
:10437C00000EEA226F00BCFF07F15B6A0001A3ECA0
:10438C0046F0200E01015427000E5523832BD8B480
:10439C00842B54C105F055C106F0096A020E0A6E51
:1043AC0000018BEC49F000A025D00101546B556B3A
:1043BC0083C105F084C106F0100E096E0A6A000173
:1043CC002CEC4AF005500E240101746F06500F209E
:1043DC00756F000E1020766F000E1120776F74C170
:1043EC0032F075C133F076C134F077C135F000018D
:1043FC00E4EC43F007EEFFF101015451E92655516D
:10440C00EA226F00BCFF22F0236A246A256A10EFAF
:10441C001DF054C156F155C157F13604D8A428D01B
:10442C0001010307026B010E035DD8A021D0022B02
:10443C0006EE34F10251E924D16F000EEA20D26F5E
:10444C00010ED125E96E000ED221EA6E6F00B8FF85
:10445C0094F194C193F106EE34F10251E926000E69
:10446C00EA2260004FF6EEFF0351025DD8A0DFD7C1
:10447C0083C109F084C10AF00F0E056E066A0001B3
:10448C00B8EC49F000A00AD00EC032F00FC033F0E7
:10449C0010C034F011C035F0E4EC43F0010E010112
:1044AC002C6F3C0E3C6F16EEB7F2A80EF66E980E03
:1044BC00F76E000EF86E00014DEC4BF0B70E0101DB
:1044CC00986F1A0E996F000181EC28F0010E010112
:1044DC002C6F3C0E3C6F16EEB7F2480EF66E970E34
:1044EC00F76E000EF86E00014DEC4BF0B70E0101AB
:1044FC00986F1A0E996F000181EF28F043507E08D7
:10450C00D8A003D0200E435E0ED04350D208D8A0C2
:10451C0003D0210E435E07D04350FA08D8A003D035
:10452C00220E435E00D05C6A5C2A43C005F00A0E82
:10453C00096E18EC4AF005C0D9F14350180D6F0004
:10454C00CCFFD1F10101D951F00DD1515C24D96FBF
:10455C00F350D95D5F6E43C005F0096A0001B3ECFE
:10456C0049F0001E00C0D9F143C009F0090E056ED8
:10457C00B3EC49F0001E0101D9510014D16FD1A147
:10458C0006D05FC007F000016EEC0AF05E6E43C00F
:10459C0005F00A0E096E0001B3EC49F0001E00C0D4
:1045AC00D9F143C009F0130E056EB3EC49F0001EAF
:1045BC000101D9510014D16FD1A106D05FC007F011
:1045CC000001F7EC0AF05E6E43C005F0140E096EA4
:1045DC000001B3EC49F0001E00C0D9F143C009F052
:1045EC001D0E056EB3EC49F0001E0101D9510014EB
:1045FC00D16FD1A106D05FC007F0000180EC0BF0A9
:10460C005E6E43C005F01E0E096E0001B3EC49F05E
:10461C00001E00C0D9F143C009F0270E056EB3ECA3
:10462C0049F0001E0101D9510014D16FD1A106D05F
:10463C005FC007F000010AEC0CF05E6E43C005F0A1
:10464C00280E096E0001B3EC49F0001E00C0D9F130
:10465C0043C009F0310E056EB3EC49F0001E0101A8
:10466C00D9510014D16FD1A106D05FC007F0000161
:10467C0093EC0CF05E6E43C005F0320E096E000137
:10468C00B3EC49F0001E00C0D9F143C009F03B0E59
:10469C00056EB3EC49F0001E0101D9510014D16F25
:1046AC00D1A106D05FC007F000011DEC0DF05E6ECD
:1046BC0043C005F03C0E096E0001B3EC49F0001E3E
:1046CC0000C0D9F143C009F0450E056EB3EC49F0BA
:1046DC00001E0101D9510014D16FD1A106D05FC0C9
:1046EC0007F00001A6EC0DF05E6E43C005F0460E1F
:1046FC00096E0001B3EC49F0001E00C0D9F143C0B3
:10470C0009F04F0E056EB3EC49F0001E0101D951B2
:10471C000014D16FD1A106D05FC007F00001C2EC2C
:10472C0007F05E6E43C005F0500E096E0001B3EC4D
:10473C0049F0001E00C0D9F143C009F0590E056EB6
:10474C00B3EC49F0001E0101D9510014D16FD1A175
:10475C0006D05FC007F000014BEC08F05E6E43C062
:10476C0005F05A0E096E0001B3EC49F0001E00C0B2
:10477C00D9F143C009F0630E056EB3EC49F0001E8D
:10478C000101D9510014D16FD1A106D05FC007F03F
:10479C000001D4EC08F05E6E43C005F0A00E096E6B
:1047AC000001B3EC49F0001E00C0D9F143C009F080
:1047BC00A90E056EB3EC49F0001E0101D95100148D
:1047CC00D16FD1A106D05FC007F000011CEC09F03D
:1047DC005E6E43C005F0AA0E096E0001B3EC49F001
:1047EC00001E00C0D9F143C009F0B30E056EB3EC46
:1047FC0049F0001E0101D9510014D16FD1A106D08E
:10480C005FC007F00001A5EC09F05E6E43C005F037
:10481C00B40E096E0001B3EC49F0001E00C0D9F1D2
:10482C0043C009F0B70E056EB3EC49F0001E010150
:10483C00D9510014D16FD1A106D05FC007F000018F
:10484C002DEC0AF05E6E240E5E5CD8A402D0210E14
:10485C005E6E5D6A5D2A5C50472401012D6F000E6F
:10486C0048202E6F5D5049242F6F000E4A20306F68
:10487C005C500C08D8B008D00C0E2D5F000E2E5BCF
:10488C00080E2F27000E30235EA010D02DC1B8F0DB
:10489C002EC1B9F02FC1BAF030C1BBF054C0A4F096
:1048AC0055C0A5F00001C5EC3FF00FD02DC1B8F0FC
:1048BC002EC1B9F02FC1BAF030C1BBF0A2C0A4F028
:1048CC00A3C0A5F00001C5EC3FF05E32080E5D5CA4
:1048DC00D8A0C0D7180E5C5CD8A026D6120014C184
:1048EC0005F015C106F0B0C009F0B1C00AF08BECB0
:1048FC0049F0001E00A01DD0010195950001A2A158
:10490C0002D001019585010195970001B0A102D05B
:10491C000101958714C1B0F015C1B1F00001A26B73
:10492C00A36B010195A702D00001A22B010195896F
:10493C0002D0010195990F0E435E446A456A43C04B
:10494C0005F0B20E096E0001B3EC49F0001E00C078
:10495C00D9F143C009F0CA0E056EB3EC49F0001E44
:10496C000101D9510014DA6FDAA104D0010E495EAD
:10497C00000E4A5A5C6A5C2A5C04D8A407D043C077
:10498C0007F0000137EC2FF05E6E2BD0020E5C5C52
:10499C00D8A407D043C007F00001C0EC2FF05E6E26
:1049AC0020D0030E5C5CD8A407D043C007F00001F4
:1049BC0049EC30F05E6E15D0040E5C5CD8A407D0C8
:1049CC0043C007F00001D2EC30F05E6E0AD0050E49
:1049DC005C5CD8A406D043C007F000015BEC31F05E
:1049EC005E6E4B6A4C6A5D6A5D2A466A536A010EBA
:1049FC000001AE5DD8A064D0532A462A4D6A01014D
:104A0C005A6B010E0001AE5DD8A055D001015A2B96
:104A1C004D2A5EA026D044504724D16F45504820E3
:104A2C00D26F4650D1250001B86F000E0101D22182
:104A3C000001B96F4B5049240101D16F4C504A20F1
:104A4C00D26F4D50D1250001BA6F000E0101D22159
:104A5C000001BB6F14C1A4F015C1A5F0C5EC3FF06B
:104A6C0025D044504724D16F45504820D26F465032
:104A7C00D1250001B86F000E0101D2210001B96FE0
:104A8C004B5049240101D16F4C504A20D26F4D50EC
:104A9C00D1250001BA6F000E0101D2210001BB6FBC
:104AAC00A2C0A4F0A3C0A5F0C5EC3FF0AE5101012B
:104ABC005A5DD8A0ABD70001AE51535CD8A09CD79F
:104ACC005E32AE514B26000E4C22080E5D5CD8A017
:104ADC008BD7AE514426000E4522050E5C5CD8A047
:104AEC004AD7010195A910D00001B06BB16B01013F
:104AFC0095A702D00001B02B0001A26BA36B0101A2
:104B0C0095A502D00001A22B000112000FC105F0E7
:104B1C0010C106F0020E096E0A6AB8EC49F000B03A
:104B2C00120011C105F012C106F0020E096E0A6ADC
:104B3C00B8EC49F000B012000FC105F010C106F03E
:104B4C000FC109F010C10AF0DDEC4AF000C0E2F030
:104B5C0001C0E3F011C105F012C106F011C109F05A
:104B6C0012C10AF0DDEC4AF000C0E4F001C0E5F03F
:104B7C00E251E225C86FE351E321C96FCA6BD8B08B
:104B8C00CA2BCB6BC851C827C951C923CA51CA23D8
:104B9C00CB51CB23E451E425CC6FE551E521CD6F0E
:104BAC00CE6BD8B0CE2BCF6BCC51CC27CD51CD23E7
:104BBC00CE51CE23CF51CF23C851C825C06FC95178
:104BCC00C921C16FCA51CA21C26FCB51CB21C36F4E
:104BDC00CC51CC25C46FCD51CD21C56FCE51CE213A
:104BEC00C66FCF51CF21C76FEC6BED6B11C1F2F0DB
:104BFC0012C1F3F0DA6BDB6BDC6BDD6BC0C005F064
:104C0C00C1C006F0C2C007F0C3C008F0F2C009F082
:104C1C00F3C00AF00B6A0C6AF0EC4AF000C0DEF04C
:104C2C0001C0DFF002C0E0F003C0E1F0C8C005F045
:104C3C00C9C006F0CAC007F0CBC008F011C109F01A
:104C4C0012C10AF00B6A0C6AF0EC4AF000C0D6F004
:104C5C0001C0D7F002C0D8F003C0D9F0020ECC25A9
:104C6C00D26F000ECD21D36F000ECE21D46F000E6B
:104C7C00CF21D56FE251D227E351D323000ED42399
:104C8C00000ED523D651D25FD751D35BD851D45B0C
:104C9C00D951D55B9153D8A402D07FD901D0D5D9A5
:104CAC00DAC005F0DBC006F0DCC007F0DDC008F0B0
:104CBC00DEC009F0DFC00AF0E0C00BF0E1C00CF080
:104CCC00C6EC49F000A038D0EC2BD8B4ED2BC45175
:104CDC00DA27C551DB23C651DC23C751DD23D5BFF1
:104CEC0014D0010EF25F000EF35BC051DE5FC151B8
:104CFC00DF5BC251E05BC351E15BDE51D25FDF5140
:104D0C00D35BE051D45BE151D55BCC51D227CD5173
:104D1C00D323CE51D423CF51D523DA51D227DB5113
:104D2C00D323DC51D423DD51D5239153D8A402D005
:104D3C0034D901D08AD9B4D7EC51EC27ED51ED23FD
:104D4C00EC2BD8B4ED2B010EF25F000EF35BECC034
:104D5C0005F0EDC006F0076A086AECC009F0EDC07A
:104D6C000AF00B6A0C6AF0EC4AF000C0D6F001C0F5
:104D7C00D7F002C0D8F003C0D9F0E4C005F0E5C00C
:104D8C0006F0076A086AD6C009F0D7C00AF0D8C086
:104D9C000BF0D9C00CF0F0EC4AF000C0D6F001C01A
:104DAC00D7F002C0D8F003C0D9F0020ED625D26FCE
:104DBC00000ED721D36F000ED821D46F000ED9214D
:104DCC00D56FF2C005F0F3C006F0076A086AF2C0AE
:104DDC0009F0F3C00AF00B6A0C6AF0EC4AF000C060
:104DEC00D6F001C0D7F002C0D8F003C0D9F0C8C0CB
:104DFC0005F0C9C006F0CAC007F0CBC008F0D6C099
:104E0C0009F0D7C00AF0D8C00BF0D9C00CF0F0EC08
:104E1C004AF000C0D6F001C0D7F002C0D8F003C0F1
:104E2C00D9F0D651D227D751D323D851D423D95125
:104E3C00D523C8C005F0C9C006F0CAC007F0CBC066
:104E4C0008F0E4C009F0E5C00AF00B6A0C6AF0EC5B
:104E5C004AF000C0D6F001C0D7F002C0D8F003C0B1
:104E6C00D9F0D651D25FD751D35BD851D45BD9513D
:104E7C00D55B010EEC5F000EED5BD890ED33ED339E
:104E8C00EC33F22BD8B4F32BF2C009F0F3C00AF0D8
:104E9C00056A066AB8EC49F000A038D0010EF25F42
:104EAC00000EF35BC051DE5FC151DF5BC251E05BB2
:104EBC00C351E15BD5AF13D0EC2BD8B4ED2BC4515F
:104ECC00DA27C551DB23C651DC23C751DD23DA5168
:104EDC00D227DB51D323DC51D423DD51D523C85148
:104EEC00D227C951D323CA51D423CB51D523DE5158
:104EFC00D25FDF51D35BE051D45BE151D55B915371
:104F0C00D8A402D04AD801D0A0D8BED7120090C1E4
:104F1C00B3F091C1B4F00101E96B60006BF6E9FFED
:104F2C0060006FF6EAFF010EEF5CD8A034D0E92BDD
:104F3C00B3C047F0B4C048F0E9519A25E96E000EB1
:104F4C009B21EA6E6F00BCFF43F00001C8DCAF513F
:104F5C00AE036F00CCFFD9F10101D9510001B3258B
:104F6C000101D16F000E0001B4210101D26F010EBD
:104F7C00D1250001B36F000E0101D2210001B46FE5
:104F8C0060006BF6E9FF60006FF6EAFFEF5001017D
:104F9C00E95DD8A0CCD700011200EC510101EB2542
:104FAC000001B86FB96BD8B0B92BF25102010725CB
:104FBC000001BA6FBB6BD8B0BB2B14C1A4F015C1E8
:104FCC00A5F0C5EC3FF0EC510101EB5D0001B86FB1
:104FDC00B96BD8A0B907F251020107250001BA6FCD
:104FEC00BB6BD8B0BB2B14C1A4F015C1A5F0C5EC9C
:104FFC003FF0EC510101EB5D0001B86FB96BD8A02B
:10500C00B907F2510201075D0001BA6FBB6BD8A062
:10501C00BB0714C1A4F015C1A5F0C5EC3FF0EC51D1
:10502C000101EB250001B86FB96BD8B0B92BF25167
:10503C000201075D0001BA6FBB6BD8A0BB0714C19E
:10504C00A4F015C1A5F0C5EF3FF002010705000162
:10505C00F46FF251020D6F00CCFFD9F10101D9515F
:10506C00020107250101D16F07C209F0D1C105F07A
:10507C000001B3EC49F000B03DD0F42BEC51010130
:10508C00EB250001B86FB96BD8B0B92BF251F45DB8
:10509C00BA6FBB6BD8A0BB0714C1A4F015C1A5F0A7
:1050AC00C5EC3FF0EC510101EB5D0001B86FB96B41
:1050BC00D8A0B907F251F45DBA6FBB6BD8A0BB078F
:1050CC0014C1A4F015C1A5F0C5EC3FF0F251020DCE
:1050DC006F00CCFFD9F10101D95102010725010163
:1050EC00D16FF4C005F0D1C109F00001B3EC49F067
:1050FC0000B0C3D71200640E01013C5DD8B008D0DB
:10510C00010E0001FF6F010E566E4BEC34F002D015
:10511C00640E3C5F01012C05D8A412D03CC1B7F140
:10512C00B753D8B40CD098C1B4F199C1B5F1010EF4
:10513C00566E0001FDEC32F00101B72FF4D729D0E7
:10514C00020E2C5DD8A425D03CC1B7F1B753D8B40E
:10515C0020D098C1B4F199C1B5F1010E566E000181
:10516C00FDEC32F016EEF0F2480EF66E970EF76E7E
:10517C00000EF86E4DEC4BF0F00E0101B46F1A0EF0
:10518C00B56F010E566E0001FDEC32F00101B72F28
:10519C00E0D700011200032A810E016E280E006E6A
:1051AC00002EFED7012EFAD7022EF6D7032EF4D7F7
:1051BC001200E80E026E030E036EEDDF042EF9D71B
:1051CC00120024C109F025C10AF026C105F027C13F
:1051DC0006F0B8EC49F000A00AD024C1B6F026C104
:1051EC0024F127C125F1B6C026F10101276B28C196
:1051FC0009F029C10AF02AC105F02BC106F0000103
:10520C00B8EC49F000A00AD028C1B6F02AC128F1A8
:10521C002BC129F1B6C02AF101012B6B010E010142
:10522C00285D0001806F000E010129590001816F7A
:10523C0028C109F029C10AF02AC105F02BC106F0DA
:10524C00B8EC49F000B042D0802BD8B4812B010EC1
:10525C000101245D00017E6F000E01012559000142
:10526C007F6F24C109F025C10AF026C105F027C1C2
:10527C0006F0B8EC49F000B01DD07E2BD8B47F2BD3
:10528C007EC0B8F07FC0B9F080C0BAF081C0BBF06E
:10529C0014C1A4F015C1A5F0C5EC3FF07EC005F01B
:1052AC007FC006F026C109F027C10AF0B8EC49F01E
:1052BC0000B0E3D780C005F081C006F02AC109F028
:1052CC002BC10AF0B8EC49F000B0BED712000101B6
:1052DC00F151010800018C6F000E0101D16FF251E8
:1052EC00D15900018D6F010E616F626BF1C105F038
:1052FC00F2C106F0FE0E096E0A6833EC4BF000C0EA
:10530C0063F001C064F08F6BF1C190F00101F151B9
:10531C0002010725056F0101F25102010821066FF8
:10532C000101F1510201075D036F0101F25102010C
:10533C000859046FEBC124F1ECC125F103C228F12B
:10534C0004C229F1EBC126F1ECC127F105C22AF107
:10535C0006C22BF100013DEC3AF090518F5DD8B0B4
:10536C00BFD08CC005F08DC006F0096A0A6ADCEC6F
:10537C0049F0001E00A009D09007020E6327000E12
:10538C00642363518C2764518D238F2B020E61276C
:10539C00000E622361518C2762518D238F510101C4
:1053AC00EB25246F000EEC21256F000190510201BA
:1053BC0007250101286F000E020108210101296F48
:1053CC0000018F510101EB25266F000EEC21276F98
:1053DC00000190510201075D01012A6F000E0201CC
:1053EC00085901012B6F00013DEC3AF08F5101017E
:1053FC00EB5D246F000EEC59256F000190510201FA
:10540C0007250101286F000E020108210101296FF7
:10541C0000018F510101EB5D266F000EEC59276FD7
:10542C00000190510201075D01012A6F000E02017B
:10543C00085901012B6F00013DEC3AF0905101012C
:10544C00EB25246F000EEC21256F00018F5102011A
:10545C0007250101286F000E020108210101296FA7
:10546C00EB51000190250101266FD16BEC51D1213C
:10547C00276F00018F510201075D01012A6F000E99
:10548C000201085901012B6F00013DEC3AF09051DB
:10549C000101EB5D246F000EEC59256F00018F515B
:1054AC00020107250101286F000E020108210101EC
:1054BC00296F000190510101EB5D266F000EEC5934
:1054CC00276F00018F510201075D01012A6F000E49
:1054DC000201085901012B6F00013DEC3AF03DD758
:1054EC001200010E916F8CEF25F007C209F008C273
:1054FC000AF009C205F00AC206F0B8EC49F000A0A7
:10550C0024D007C205F008C206F009C209F00AC28D
:10551C000AF079EC49F005C007F206C008F209C0A0
:10552C0009F20AC00AF2EBC105F0ECC106F0EDC1BC
:10553C0009F0EEC10AF079EC49F005C0EBF106C0B8
:10554C00ECF109C0EDF10AC0EEF109C209F00AC292
:10555C000AF00BC205F00CC206F0B8EC49F000A042
:10556C0024D00BC205F00CC206F009C209F00AC225
:10557C000AF079EC49F005C00BF206C00CF209C038
:10558C0009F20AC00AF2EFC105F0F0C106F0EDC154
:10559C0009F0EEC10AF079EC49F005C0EFF106C054
:1055AC00F0F109C0EDF10AC0EEF107C209F008C232
:1055BC000AF009C205F00AC206F0B8EC49F000A0E6
:1055CC0024D007C205F008C206F009C209F00AC2CD
:1055DC000AF079EC49F005C007F206C008F209C0E0
:1055EC0009F20AC00AF2EBC105F0ECC106F0EDC1FC
:1055FC0009F0EEC10AF079EC49F005C0EBF106C0F8
:10560C00ECF109C0EDF10AC0EEF107C205F008C2D9
:10561C0006F00BC209F00CC20AF08BEC49F000A0AA
:10562C0069D0EBC1BEF0ECC1BFF0EBC1BCF0ECC17A
:10563C00BDF0EDC105F0EEC106F0BCC009F0BDC077
:10564C000AF0B8EC49F000A005D0EDC1BCF0EEC1F9
:10565C00BDF010D0EDC109F0EEC10AF0BEC005F0EE
:10566C00BFC006F0B8EC49F000A004D0EDC1BEF00C
:10567C00EEC1BFF0EFC105F0F0C106F0BCC009F0FF
:10568C00BDC00AF0B8EC49F000A005D0EFC1BCF0E9
:10569C00F0C1BDF010D0EFC109F0F0C10AF0BEC0EE
:1056AC0005F0BFC006F0B8EC49F000A004D0EFC183
:1056BC00BEF0F0C1BFF0BCC024F1BDC025F107C2E3
:1056CC0028F108C229F1BC51BE5D0101D16F000166
:1056DC00BD51BF590101D26F010ED125266F000EAD
:1056EC00D221276F07C22AF108C22BF100013DEC31
:1056FC003AF012000101EB51ED5D00016C6F0101FC
:10570C00EC51EE5900016D6F02010751095D00016A
:10571C00726F020108510A590001736F0101EB51BC
:10572C00EF5D00016E6F0101EC51F05900016F6FDC
:10573C00020107510B5D0001746F020108510C59F5
:10574C000001756F0101ED51EF5D0001706F0101FA
:10575C00EE51F0590001716F020109510B5D00010E
:10576C00766F02010A510C590001776FE66BE76BFB
:10577C00E86BE96B09C205F00AC206F00BC209F02E
:10578C000CC20AF08BEC49F000A005D009C2D0F095
:10579C000AC2D1F00AD0010E0201095D0001D06FDE
:1057AC00000E02010A590001D16F010E0201075DC2
:1057BC000001EE6F000E020108590001EF6F07C2E5
:1057CC0009F008C20AF0D0C005F0D1C006F0B8EC60
:1057DC0049F000B06FD0EE2BD8B4EF2BE6C005F03B
:1057EC00E7C006F072C009F073C00AF0BEEC4AF0D4
:1057FC0005500101EB250001BC6F06500101EC21A5
:10580C000001BD6FE8C005F0E9C006F074C009F0F6
:10581C0075C00AF0BEEC4AF005500101EB25000101
:10582C00BE6F06500101EC210001BF6F6C51E627E1
:10583C006D51E7236E51E8276F51E923BCC009F085
:10584C00BDC00AF0BEC005F0BFC006F0B8EC49F010
:10585C0000A012D0BCC005F0BDC006F0BEC009F05F
:10586C00BFC00AF079EC49F005C0BCF006C0BDF031
:10587C0009C0BEF00AC0BFF0BCC024F1BDC025F108
:10588C00EEC028F1EFC029F1BEC026F1BFC027F150
:10589C00EEC02AF1EFC02BF13DEC3AF0EEC005F072
:1058AC00EFC006F0D0C009F0D1C00AF0B8EC49F056
:1058BC0000B091D7020109510001EE5D0101D16FD9
:1058CC0002010A510001EF590101D26F70C005F0BD
:1058DC0071C006F0D1C109F0D2C10AF0000133EC5D
:1058EC004BF000C0E6F001C0E7F0020107510001E7
:1058FC00EE5D0101D16F020108510001EF59010168
:10590C00D26F6EC005F06FC006F0D1C109F0D2C1E4
:10591C000AF0000133EC4BF000C0E8F001C0E9F0F4
:10592C00010ED05DEE6F000ED159EF6FD0C009F0B3
:10593C00D1C00AF00BC205F00CC206F0B8EC49F06D
:10594C0000B06FD0EE2BD8B4EF2BE6C005F0E7C05B
:10595C0006F076C009F077C00AF0BEEC4AF00550AC
:10596C000101ED250001BC6F06500101EE21000183
:10597C00BD6FE8C005F0E9C006F074C009F075C051
:10598C000AF0BEEC4AF005500101EB250001BE6F98
:10599C0006500101EC210001BF6F7051E6277151D7
:1059AC00E7236E51E8276F51E923BCC009F0BDC055
:1059BC000AF0BEC005F0BFC006F0B8EC49F000A07C
:1059CC0012D0BCC005F0BDC006F0BEC009F0BFC00F
:1059DC000AF079EC49F005C0BCF006C0BDF009C076
:1059EC00BEF00AC0BFF0BCC024F1BDC025F1EEC0B2
:1059FC0028F1EFC029F1BEC026F1BFC027F1EEC0DF
:105A0C002AF1EFC02BF13DEC3AF0EEC005F0EFC0FF
:105A1C0006F00BC209F00CC20AF0B8EC49F000B069
:105A2C0091D712005BC109F05CC10AF05DC105F0B1
:105A3C005EC106F0B8EC49F000A012D05BC105F0D5
:105A4C005CC106F05DC109F05EC10AF079EC49F069
:105A5C0005C05BF106C05CF109C05DF10AC05EF1E6
:105A6C005FC109F060C10AF061C105F062C106F0C6
:105A7C00B8EC49F000A012D05FC105F060C106F08F
:105A8C0061C109F062C10AF079EC49F005C05FF11F
:105A9C0006C060F109C061F10AC062F101015B51FD
:105AAC005D5DD16F5C515E59D26FD1C109F0D2C12D
:105ABC000AF0040E056E066A0001B8EC49F000C04D
:105ACC00D5F101015F51615DD16F60516259D26FA7
