:020000020000FC
:0200000033C00B
:0200040018954D
:02000800189549
:02000C00189545
:02001000189541
:0200140018953D
:02001800189539
:02001C00189535
:02002000189531
:0200240018952D
:02002800189529
:02002C00189525
:02003000189521
:0200340018951D
:02003800189519
:02003C00189515
:02004000189511
:0200440018950D
:02004800189509
:02004C00189505
:02005000189501
:020054001895FD
:020058001895F9
:02005C001895F5
:020060001895F1
:020064001895ED
:1000680058E05EBF5FEF5DBFC9D4CFD450E0509376
:100078004301509344015FEF50933501509336018B
:1000880051E05093410151E0509326017CD179D041
:10009800609075016A946092730160917401C091D7
:1000A80075016C1708F462C06090730163946092E4
:1000B800730150E050935B0150935C0150E0509302
:1000C8005D0150935E01B3D35090730150FC23C07F
:1000D80050E050935B0150935C0150917301509331
:1000E8005D0150E050935E015091730150935201AD
:1000F80050E0509353015093540150935501CED37F
:100108005FEF509343015093440150E05093350101
:100118005093360122C050E050935B0150935C012C
:100128005091730150935D0150E050935E015091DE
:1001380073015093520150E050935301509354016E
:1001480050935501ABD350E0509343015093440171
:100158005FEF50933501509336010E94290C60914E
:100168007301C09174016C1708F49ECF52E150934B
:1001780026010E940E0F50E05093260104D1889565
:10018800FECF50E0509350015093510150E05093EE
:100198005B0150935C0150E050935D0150935E0108
:1001A80050E050932D0150932E0160902D016394DF
:1001B80060922D0160902E0109F4639460922E01E3
:1001C80060902D0120E0620EA62D60902E0121E0A6
:1001D800621EB62D509135015C9360912D0170918E
:1001E8002E01CDE0D0E00E948B0F00FCDECF0895F9
:1001F80002D00C94AF0E50E050935001509351012F
:1002080050E050935B0150935C0150E050935D01C6
:1002180050935E0150E050932D0150932E01609051
:100228002D01639460922D0160902E0109F463946E
:1002380060922E0160902D0120E0620EA62D609044
:100248002E0121E0621EB62D509135015C9360911C
:100258002D0170912E01CDE0D0E00E948B0F00FCA3
:10026800DECF50E1509326010E940E0FD2E0E0E06D
:10027800C8D22A98299A50E050932D0150932E0104
:1002880060902D01639460922D0160902E0109F415
:10029800639460922E0150E050932B0150932C01EF
:1002A80060902B01639460922B0160902C0109F4FB
:1002B800639460922C01509135015093270150931B
:1002C8006301ABD260912B0170912C01C8E6D0E09C
:1002D8000E948B0F00FCE4CF60912D0170912E01DC
:1002E800C4EDD0E00E948B0F00FCCACF2A9ADAE056
:1002F800E0E087D253E1509326010E940E0FD2E02E
:10030800E0E07FD22A98299A50E050932D0150932B
:100318002E0160902D01639460922D0160902E0152
:1003280009F4639460922E0150E050932B0150938E
:100338002C0160902B01639460922B0160902C013A
:1003480009F4639460922C01509135015093270170
:100358005093630162D260912B0170912C01C8E621
:10036800D0E00E948B0F00FCE4CF60912D017091CA
:100378002E01C4EDD0E00E948B0F00FCCACF2A9A50
:10038800DAE0E0E03EC2219A229A209A239A259A3E
:10039800579860912601613009F07DC0289AD8EC01
:1003A800E0E02FD22898D4E1E0E02BD2289AD8ECCC
:1003B800E0E027D256E0509326010E940E0F57E145
:1003C800509327010E941B0F57E1509327010E9469
:1003D8001B0F57E1509327010E941B0FD8ECE0E058
:1003E80010D251E0509326010E940E0F53E0509313
:1003F80027010E941B0F50E0509327010E941B0FFA
:100408005BE2509327010E941B0F5BE25093270188
:100418000E941B0F53E0509327010E941B0FD8EC3A
:10042800E0E0EFD154E0509326010E940E0F50E017
:10043800509326010E940E0F5FEB509327010E94F4
:100448001B0F50E3509326010E940E0F5CE350935C
:1004580027010E941B0F51E6509326010E940E0FA0
:1004680058E6509327010E941B0F50E05093270134
:100478000E941B0F54ED509327010E941B0F52E856
:10048800509326010E940E0F52E1509327010E94BB
:100498001B0F77D319C050E5509326010E940E0F09
:1004A80057EF509327010E941B0F52E050932601EB
:1004B8000E940E0F57E0509326010E940E0F55EA36
:1004C800509327010E941B0F089560915601709167
:1004D8005701C0914301D09144010E94790F0094C3
:1004E80000FE28C0509164015B7F5090350150FC9C
:1004F800546050936401577F5090430150FC5860FA
:100508005093640150915601509343015091570103
:100518005093440155275090640153FC53955093D0
:10052800350150E050933601509164015061509369
:10053800640105C0509164015F7E5093640160902E
:1005480019012FE0621A6092190150E050931A01C4
:1005580050931B0160914101613001F560901901D0
:1005680020E1621A60921901A091190112D5009236
:100578005801A091190149D500925901A09158013B
:10058800B091590117D40092200160902001639422
:100598006092420157E0509360011BC06091410195
:1005A8006230B9F46090190121E1621A6092190170
:1005B8006091190170E0C4E1D0E00E9473100092CC
:1005C80058011092590159E0509320015FE050936F
:1005D80060015FEF5093210160912001603008F4C1
:1005E800F7C06090210163946092210160905801E6
:1005F8006394609258016090590109F46394609281
:10060800590160914101613041F4A0915801B091C4
:100618005901D0D3009223010BC06091410162308F
:1006280039F4A0915801B09159012BD500922301BA
:100638005FEF5093220160916001603008F4C1C0FF
:10064800609022016394609222015090230150FC33
:1006580025C060901C0120912101620E60924A0120
:1006680060901D0120E0621E60924B0160901E01A7
:1006780020912201620E60924C0160901F0120E0DF
:10068800621E60924D01509135015093370150918F
:100698003601509338010E94AE0C24C060901C01B2
:1006A80020912101620E60924A0160901D0120E0B4
:1006B800621E60924B0160901E0120912201620E21
:1006C80060924C0160901F0120E0621E60924D0113
:1006D800509156015093370150915701509338016A
:1006E8000E94AE0C509123015795509323016091BD
:1006F8004101C2E00E94740F602C60912201C7E0A2
:100708000E94740F002D0621202F20FF12C0609038
:1007180058016394609258016090590109F46394F8
:1007280060925901A0915801B0915901AAD4009240
:10073800230160912101C09120016C17D9F56090C7
:100748001C0120912101620E6092480160901D01F8
:1007580020E0621E6092490160914101623059F4C3
:10076800609048016394609248016090490109F4DF
:100778006394609249015091480150934A01509105
:10078800490150934B0160901E0120912201620E95
:1007980060924C0160901F0120E0621E60924D0142
:1007A80050913501509337015091360150933801DB
:1007B8000E94AE0C60912201C09160016C1708F490
:1007C8003FCF60912101C09120016C1708F409CF37
:1007D8005090640154FE14C055275090640153FC96
:1007E80053955093430150E050934401552750903E
:1007F800640152FC53955093350150E050933601F3
:100808000895E395AEEF94E19A95F1F7AA95D9F793
:10081800DA95C1F7EA95B1F70895509163015EBD85
:100828005DB456FCFACF5DB457FEFDCF08956091D4
:100838005D0170915E01C2E0D0E00E948B0F00FE66
:1008480006C050E050935D0150935E0126C0609051
:100858005D0121E0621A60925D0160905E0120E016
:10086800620A60925E0160914001C09141016C9FF3
:10087800602C60915D0170915E01C62DD0E00E94F0
:100888007310002D112D602F712FC4EDD0E00E9440
:10089800950F00925D0110925E01089550E050930B
:1008A80071015091420150935A0160907101639413
:1008B800609271010EE0600EA62D00E021E0021F9B
:1008C800B02F609152017091530180915401909121
:1008D8005501CAE0D0E0E0E0F0E00E94C40F0C92BD
:1008E8006093520170935301809354019093550182
:1008F800609152017091530180915401909155017A
:10090800C0E0D0E0E0E0F0E00E94800F009400FC3E
:10091800CCCF50915B015093450150915C015093AD
:100928004601609071016394609247016091710182
:1009380070E080E090E0613008F453C060904701B7
:100948006A94609247015091450150931C0150915F
:10095800460150931D0150915D0150931E01509125
:100968005E0150931F01609047010EE0600EA62DB6
:1009780000E021E0021FB02F6C9000E3600E60924F
:1009880019015091430150935601509144015093DD
:1009980057019BDD60914201C09141016C9F602C21
:1009A80020914501260D022F6090460120E0621E2D
:1009B800162D20914101020F602E20E0121F712E8A
:1009C80021E0621A6092450120E0720A70924601A5
:1009D80061E070E080E090E0C09147016C1708F496
:1009E800ADCF5091450150935B0150914601509312
:1009F8005C0150915A0150934201089550E055B955
:100A080050E058B950E05BB90895219A229A209A8B
:100A1800239A259A5798289ADCE2E1E0F2DE289892
:100A2800D8ECE0E0EEDE289ADCE2E1E0EADE5EE027
:100A38005093620150E0509361010E94250F56E0E7
:100A4800509326010E940E0F57E1509327010E94F0
:100A58001B0F57E1509327010E941B0F57E150933A
:100A680027010E941B0FD8ECE0E0CBDE51E0509349
:100A780026010E940E0F53E0509327010E941B0F7E
:100A880050E0509327010E941B0F5BE2509327010F
:100A98000E941B0F5BE2509327010E941B0F53E03B
:100AA800509327010E941B0FD8ECE0E0AADE54E027
:100AB800509326010E940E0F50E0509326010E9489
:100AC8000E0F5FEB509327010E941B0F50E35093CA
:100AD80026010E940E0F5CE3509327010E941B0F12
:100AE80051E6509326010E940E0F58E650932701B5
:100AF8000E941B0F50E0509327010E941B0F54EDDA
:100B0800509327010E941B0F52E8509326010E9420
:100B18000E0F52E1509327010E941B0F32D05FEF56
:100B2800509343015093440150E050933501509342
:100B3800360155E0509342015BDB57E650933D0187
:100B480050E050933E0153ED50933B0150E05093D9
:100B58003C0154E0509325010E94B30E50E050939D
:100B68003F0151E05093410158E05093400153ED4B
:100B78005093740150E05093750150E05093730105
:100B8800089552E8509326010E940E0F50E05093AA
:100B980027010E941B0F50E5509326010E940E0F5B
:100BA80057E9509327010E941B0F50E250932601EA
:100BB8000E940E0F50E05093280160902801639422
:100BC80060922801A0912801ADD000922401509193
:100BD8002401509327010E941B0F609128016C3259
:100BE80060F351E2509326010E940E0F50E050939B
:100BF800280160902801639460922801A09128013F
:100C0800C1D00092240150912401509327010E94E1
:100C18001B0F609128016A3260F352E2509326015B
:100C28000E940E0F50E050932801609028016394B1
:100C380060922801A09128015DD000922401509172
:100C48002401509327010E941B0F609128016A32EA
:100C580060F353E2509326010E940E0F50E0509328
:100C6800280160902801639460922801A0912801CE
:100C780071D00092240150912401509327010E94C1
:100C88001B0F609128016A3260F354E250932601E9
:100C98000E940E0F50E05093280160902801639441
:100CA80060922801A09128010DD000922401509152
:100CB8002401509327010E941B0F609128016A327A
:100CC80060F30895A93110F000240895E2EEFCE0E5
:100CD800EA0F08F4F395C89508952A8008000000E3
:100CE8000290282800000180140000000150121210
:100CF80000000100A93110F000240895E2E1FDE0B0
:100D0800EA0F08F4F395C89508952A4017000000E3
:100D180002900F0F000003400A01000001A00E0E10
:100D280000000200A93110F000240895E2E4FDE07B
:100D3800EA0F08F4F395C89508952C000800000000
:100D480002602828000001001400000001001212AF
:100D580000000100A93110F000240895E2E7FDE049
:100D6800EA0F08F4F395C89508952A800800000052
:100D7800029028280000018014000000015012127F
:100D880000000100A93110F000240895E2EAFDE016
:100D9800EA0F08F4F395C89508952A400800000062
:100DA80002902828000001401400000001A012123F
:100DB800000001006A2F7B2FC5EAD1E00E948B0F4B
:100DC80000FE0895E8EDFDE0EA0FFB1FC8950895C1
:100DD800A50100015E0306000605287C287C28057D
:100DE800242A7F2A100362184605304C5A245001E1
:100DF80006023C4202423C0528107C1028031038A9
:100E08001001C003101010014003601806043C4292
:100E1800423C03447E40044462524C034A4A340430
:100E28001E107C10034E4A32043C4A4A30036212B8
:100E38000E04344A4A34040C52523C014802806879
:100E48000310284403282828034428100302520CBE
:100E5800053844545458047C12127C047E4A4A349F
:100E6800043C424224047E42423C037E4A4A037EBA
:100E78000A0A043C425234047E08087E03427E4239
:100E88000342423E047E081462037E4040057E040D
:100E980008047E057E0418207E043C42423C047E01
:100EA80012120C043C4242BC047E12126C04444AE6
:100EB8004A3003027E02043E40403E050618601890
:100EC80006053E403E403E054224182442049EA0AA
:100ED800A07E0462524A46027E420306186002421D
:100EE8007E0320102004808080800204080420549F
:100EF8005478047E4444380438444428043844442C
:100F08007E0438545458027C0A0498A4A47C047EB5
:100F1800040478017A02403A047E102844017E05D0
:100F28007C04780478047C04047804384444380445
:100F3800FC24241804182424FC027C040448545477
:100F48002003043E44043C40403C050C3040300C37
:100F5800053C403C403C054428102844049CA0A083
:100F68007C0364544C0308364101FF0341360804EE
:100F78002010201001006A2F7B2FC1E0D0E0C7D7D6
:100F880000FE0895E8E9FFE0EA0FFB1FC895089501
:100F98000100A13610F000240895E0EBFFE0EA0F0D
:100FA80008F4F395C895089560010305090F15190C
:100FB8001F2124272D313337393D42464B4F545892
:100FC8005D61666B6D7074787C80868B90959A9E57
:100FD800A2A7ACB0B4B9BDC3C9CED3D8DDE2E6EBA5
:100FE800F1F7FD02070A0E11151A1D22272C3136BA
:100FF800393E4345484D4F555A5F64696C71757A5F
:1010080080868C9195999B9FA400A13610F00024AE
:101018000895E8E2F0E1EA0F08F4F395C895089519
:1010280000000000000000000000000000000000B8
:1010380000000000000000000000000000000000A8
:101048000000000000000000000000000000000098
:101058000000000000000000000000010101010183
:101068000101010101010101010101010101010168
:101078000101010101010101010101010101010158
:1010880001006A2F7B2FC1E9D7E041D700FE089500
:10109800E4EAF0E1EA0FFB1FC89508959300000009
:1010A8000000000000000000000000000000000038
:1010B800000000000000000000FE1B00000000000F
:1010C8000000000000000000001E000000000000FA
:1010D800001E0000000000000000012019A0077891
:1010E800012619A007780126012001000000000050
:1010F800001C1826104210FF3F8211020F0000004A
:10110800001C102208220422039C00400E30110803
:10111800110411020E000780085C106210A211323F
:10112800131C1C00180016800100000000000000BD
:10113800001E000000000000000000000000000089
:10114800000000E00718180C30042002400240009C
:101158000000000240024004200C301818E007008C
:101168000000000000000008001800F0004E00F029
:101178000018000800000000000002000200020041
:1011880002E01F000200020002000200000000004E
:101198000000000098007800000000000000000037
:1011A8000000000000000100010001000100010032
:1011B80001000000000000000000000018001800F6
:1011C80000000000000000000000000040003000A7
:1011D8000C0003C00030000C00020000000000F00A
:1011E800030C0C0210021002100C0CF0030000009B
:1011F800000000041004100410FE1F00100010006E
:10120800100000000000000618021402120211C2A9
:10121800103C100000000000000000000002104216
:101228001042104210BC0F0000000000000003C074
:1012380002200218020402FE1F0002000200000041
:1012480000000000003E1022102210420882070011
:1012580000000000000000F0074C082210221022B5
:101268001042088007000000000000020002180277
:1012780007C20032000A0006000000000000001C3F
:101288000FA21042104210A210A2091C0600000072
:1012980000000078008410021102110211840CF879
:1012A8000300000000000000000000601860180043
:1012B80000000000000000000000000000000060C6
:1012C80098607800000000000000000000000000A6
:1012D8000000030003800480044008400820100038
:1012E800000000800480048004800480048004805E
:1012F800048004000000002010400840088004809A
:1013080004000300030000000000000E00020002B9
:101318001B8200420026001C0000000000F0031899
:101328000C0418E21312140A168A1BFC07000400A6
:10133800040010000E8003700218023002C0020080
:1013480003000C00100000F81F881088108810880F
:10135800104811300E00000000C003300C100808BF
:10136800100810081008101810000000000000F8FD
:101378001F08100810081008101008E007000000E7
:10138800000000F81F0811081108110811081108B9
:1013980010000000000000F81F08010801080108FB
:1013A8000108010800000000000000C003300C1014
:1013B800080810081008110811181F00000000F88C
:1013C8001F00010001000100010001F81F000000DA
:1013D800000000081008100810F81F08100810086E
:1013E800100000000000000000001008100810089D
:1013F80010F80F0000000000000000F81F800080B7
:10140800014002200410040808001000000000F841
:101418001F00100010001000100010001000000045
:1014280000F81F3800E00100070006C0013800F886
:101438001F000000000000F81F100060008001007D
:10144800060008F81F000000000000E00710080868
:10145800100810081008101008E00700000000F835
:101468001F08010801080108018800700000000039
:10147800000000E0071008081008100810083010D5
:1014880048E04700000000F81F0801080108038829
:101498000470080010000000000000701848108850
:1014A80010881008110809180E000000000800082C
:1014B8000008000800F81F080008000800080000DD
:1014C800000000F80700180010001000100008F8CD
:1014D800070000000008003000C0010006001800E6
:1014E800180007C000300008001800E003001C00C6
:1014F8000FE000C001000E001CE0031800081010E7
:1015080008200440028001800140022004100808DD
:10151800100800100060008000001F8000400020BC
:1015280000100008000000081808140812081188A4
:10153800104810281018100000000000000000FEDD
:101548007F0240024002400240000000000000020A
:10155800000C003000C0000003000C003000400008
:101568000000000240024002400240FE7F000000EE
:101578000000000000000000040003E00038000E36
:1015880000700080030004000000200020002000FC
:101598002000200020002000200020002000000063
:1015A8000000000000010002000000000000000030
:1015B800000000000C2012201120112009C01F007B
:1015C80010000000000000FE1F400820102010201E
:1015D8001060088007000000000000800740082015
:1015E80010201020102010201000000000000080A3
:1015F8000740182010201020104008FE1F0000008F
:10160800000000800740092011201120112011C07E
:101618001100000000000020002000FC1F24002210
:1016280000220022002200000000008007409820CD
:1016380090209020904048E03F000000000000FE0D
:101648001F80004000200020002000C01F00000074
:10165800000000200020002600E61F000000000017
:10166800000000000000000080208020802680E626
:101678007F00000000000000000000FE1F000100C5
:10168800038004400440082010000000000000000F
:1016980000020002000200FE1F000000000000001F
:1016A80000E01F400020002000C01F400020002054
:1016B80000C01F00000000E01FC000400020002004
:1016C800002000C01F000000000000800740082024
:1016D800102010201040088007000000000000E0E3
:1016E800FF4008201020102010600880070000002C
:1016F800000000800740182010201020104008E04B
:10170800FF0000000000000000E01F8000400020F3
:10171800002000E000000000000000C01820112098
:101728001120122012200C000000000000000020F0
:10173800002000F80F2010201020102010000000BA
:10174800000000E00F0010001000100008E01F006B
:1017580000000000002000C0010006001800100072
:101768000C0003C000200000006000800700180083
:101778000EC0018001000E001880076000000020E4
:101788001040088004000300038004400820100073
:10179800002080C080008300460038001800060042
:1017A80001C0002000000020102018201420122062
:1017B80011A01060102010000000000000000100BF
:1017C80001FC3E0240024002400000000000000010
:1017D8000000000000FE7F00000000000000000084
:1017E8000000000000024002400240FC3E000100F0
:1017F800010000000000038000800080000001005C
:101808000100020002000280010000801FC01020B9
:101818001010102010C010801F00000000C00330FE
:101828000C100808100810089008B018D0006A2F8B
:101838007B2FC1E0D0E06BD300FE0895E0E5F8E12E
:10184800EA0FFB1FC895089507006091730166238E
:1018580009F045C050E150932601DCD22A98299A14
:1018680050E050932D0150932E0160902D01639408
:1018780060922D0160902E0109F4639460922E010C
:1018880050E050932B0150932C0160902B016394EE
:1018980060922B0160902C0109F4639460922C01F2
:1018A8005091350150932701509363010E94110410
:1018B80060912B0170912C01C8E6D0E028D300FC80
:1018C800E4CF60912D0170912E01C4EDD0E01FD3BB
:1018D80000FCCBCF2A9A53E1509326019BD22A9839
:1018E800299A50E050932D0150932E0160902D01BC
:1018F800639460922D0160902E0109F463946092C4
:101908002E0160902D0120E0620EA62D60902E0120
:1019180021E0621EB62D5C9150932701509363011C
:101928000E94110460902D0120E0620EA62D6090A7
:101938002E0121E0621EB62D509135015C93609115
:101948002D0170912E01CDE0D0E0E1D200FCCECF88
:101958002A9A089560912501613009F03BC05091A1
:101968004A015093390150914B0150933A015091DB
:101978004C0150934A0150914D0150934B0124ED75
:1019880000913901201B622E20E000913A01200BC2
:10199800722E21E0621A60924C0120E0720A709265
:1019A8004D01C0914C01D0914D0160913D01709164
:1019B8003E01ADD2602CC0914A01D0914B0160919B
:1019C8003B0170913C01A3D2002D0629202F20FD58
:1019D80008959EC060912501633009F03BC0509185
:1019E8004A015093390150914B0150933A0128E62E
:1019F80000914C01201B622E20E000914D01200B2C
:101A0800722E21E0621A60924A0120E0720A7092F6
:101A18004B015091390150934C0150913A01509328
:101A28004D01C0914C01D0914D0160913D017091E3
:101A38003E016DD2602CC0914A01D0914B0160915A
:101A48003B0170913C0163D2002D0629202F20FD17
:101A580008955EC0609125016430C9F4C0914A01BF
:101A6800D0914B0160913D0170913E0150D2602CA4
:101A7800C0914C01D0914D0160913B0170913C01A6
:101A880046D2002D0629202F20FD089541C06091DF
:101A98002501623009F03CC024ED00914C01201B67
:101AA800622E20E000914D01200B722E21E0621A77
:101AB80060924C0120E0720A70924D0128E6009174
:101AC8004A01201B622E20E000914B01200B722E50
:101AD80021E0621A60924A0120E0720A70924B017A
:101AE800C0914A01D0914B0160913D0170913E0136
:101AF8000ED2602CC0914C01D0914D0160913B01F8
:101B080070913C0104D2002D0629202F20FD089554
:101B180060904C0170904D01662D772DC091730136
:101B2800D0E0E3D1009400FC089560904A0121E0E0
:101B3800620E6092310160904B0120E0621E60925B
:101B4800320153E0509372018894509132015795B5
:101B58005093320150913101579550933101609063
:101B680072016A946092720179F720914A0101E04A
:101B7800200F622E20914B0100E0201F722E662D4F
:101B8800772DC8E0D0E0CDD100925F0160914C0183
:101B980070914D01CDE0D0E0A2D2009233011092B5
:101BA800340160915F01662379F4609033012091DC
:101BB8003101620E60922901609034012091320156
:101BC800621E60922A0114C02091330100913101F4
:101BD800200F622E2091340100913201201F722EB5
:101BE80021E0620E6092290120E0721E70922A01A3
:101BF8006091730170E0CDE0D0E071D200924E01A7
:101C080010924F015091290150932F0150912A01B0
:101C18005093300160902F0120914E01621A60921A
:101C28002F016090300120914F01620A60923001CB
:101C3800C0912F01D09130016DE070E068D100FCB7
:101C4800089560902F0120E0620EA62D609030016B
:101C580021E0621EB62D5C915093240160915F01D2
:101C6800662351F4509124015E7F5090370150FC57
:101C780051605093240161C060915F01613051F45B
:101C8800509124015F775090370150FC5068509371
:101C9800240153C060915F01623051F450912401D6
:101CA8005F7B5090370150FC50645093240145C02D
:101CB80060915F01633051F4509124015F7D509031
:101CC800370150FC50625093240137C060915F0186
:101CD800643051F4509124015F7E5090370150FCDC
:101CE80050615093240129C060915F01653051F41F
:101CF80050912401577F5090370150FC5860509301
:101D080024011BC060915F01663051F45091240199
:101D18005B7F5090370150FC5460509324010DC0F4
:101D280060915F01673049F4509124015D7F5090C4
:101D3800370150FC52605093240160902F0120E03D
:101D4800620EA62D6090300121E0621EB62D5091E2
:101D580024015C93089552E1509326015BC050E042
:101D680050935D0150935E0150E050935B01509396
:101D78005C0160912501643069F453ED50933B0197
:101D880050E050933C0157E650933D0150E050938A
:101D98003E013FC060912501613069F457E65093D8
:101DA8003B0150E050933C0153ED50933D0150E00E
:101DB80050933E012EC060912501623069F453EDC5
:101DC80050933B0150E050933C0157E650933D013E
:101DD80050E050933E011DC060912501633069F4C5
:101DE80057E650933B0150E050933C0153ED50931C
:101DF8003D0150E050933E010CC053ED50933B0120
:101E080050E050933C0157E650933D0150E0509309
:101E18003E0108952A98299850912601509363010C
:101E28000E9411042A9A4F9BFECF089508952A987C
:101E3800299A50912701509363010E9411042A9A0C
:101E480008955CB55F7B5CBD5CB55B7F5CBD509005
:101E5800610150FE03C05CB554605CBD5CB5577F42
:101E68005CBD5090610151FE03C05CB558605CBD1B
:101E78005CB55F7E5CBD5DB55E7F5DBD5CB55E7F5C
:101E88005CBD5CB55D7F5CBD609162016E3039F40C
:101E98005CB550615CBD5DB551605DBD1DC06091B4
:101EA80062016D3021F45CB550615CBD15C0609174
:101EB80062016C3039F45CB550615CBD5CB5516051
:101EC8005CBD0AC0609162016B3031F45CB5506151
:101ED8005CBD5CB552605CBD5CB550645CBD08958A
:101EE80000246C1308950094089500246C1719F4C5
:101EF8007D1709F40094089500246C1739F47D17B0
:101F080029F48E1719F49F1709F4009408950024F2
:101F1800D71730F07D1718F06C1708F00895009463
:101F28000895862F972FEC2FFD2F50E0252E50E097
:101F3800352E6E2F7F2FC0E0D0E0D7DF00FE03C024
:101F480060E070E0089550E1552E8894881F991F2D
:101F5800221C331C622C6E1A262C632C6F0A362C1A
:101F6800816038F48E7F622C6E0E262C632C6F1ED7
:101F7800362C5A9451F7682F792F022C132C089578
:101F8800609365017093660180936701909368017F
:101F9800C0936901D0936A01E0936B01F0936C01DF
:101FA80050E050936D0150936E0150936F01509320
:101FB80070016091690170916A0180916B01909143
:101FC8006C01C0E0D0E0E0E0F0E096DF00FE05C084
:101FD80060E070E080E090E0089550E2552E88942B
:101FE80050916501551F5093650150916601551F29
:101FF8005093660150916701551F509367015091A6
:102008006801551F5093680150916D01551F5093F9
:102018006D0150916E01551F50936E0150916F01E3
:10202800551F50936F0150917001551F50937001C7
:1020380060906D0120916901621A60926D01609053
:102048006E0120916A01620A60926E0160906F01D0
:1020580020916B01620A60926F016090700120917B
:102068006C01620A60927001509165015160509351
:10207800650108F5509165015E7F50936501609098
:102088006D0120916901620E60926D0160906E0190
:1020980020916A01621E60926E0160906F0120912A
:1020A8006B01621E60926F016090700120916C015B
:1020B800621E609270015A9409F091CF6091650197
:1020C80070916601809167019091680100906D019F
:1020D80010906E0120906F013090700108956C9FF0
:1020E800202C312C6D9F300C7C9F300C022C132C33
:0220F800089549
:00000001FF
