:020000040000FA
:0400000021000E29A4
:080008008231042A07196E2859
:1000100020083C39343C031D28283010A013A413B9
:100020003808B81F30140630390203193E2805304D
:10003000390203195F280930390203196128083091
:100040003902031967283D000E1220000C303720BA
:100050000C30A0000830A100A01708003D000E12CF
:10006000200030183A287C20483029204830A4004D
:10007000A4170800A413A5010C30352802303B0258
:1000800003194E2803303B020319522801303B026A
:10009000031D2328A130B10012305528B330B10020
:1000A00043305528F630B1000A30B200BF08031DB6
:1000B0002E283E0203182E283E08B2002E28B01427
:1000C0002E283011BA08031D301596202E28BF3077
:1000D0003019013EB1000130B2002E2830187528C9
:1000E0007C200830241F09173728B01C0800B010E6
:1000F0003A083D0096000800A413A501B2080319B0
:1001000008003108840081308500203086002030CE
:1001100087000301083C0319932812001E00A50A5A
:100120002508B20B8A280408B10008002000AD2081
:100130000301AD01AC05AC06AC1708004030071A4E
:10014000080007199928A9080319AD28AC13B22093
:100150002000C9000130AD00AC174030A900A80153
:10016000A8170800043029020319C42840302902C6
:100170000319D828013029020319BF28023452304C
:100180004A02031D023401004C08C8004D088600D5
:100190004A0887004B082300920007089100453069
:1001A0000602031D01341430950006211511013497
:1001B000480886002A30840020308500243023003F
:1001C00095002030870012008607930012008607F2
:1001D000940087030319EF280621910AE32895016B
:1001E0008608031D0334151506219501871615147D
:1001F0000000000011001402031D0434110013025A
:10020000031D04349103870BF72801345530960001
:10021000AA3096009514000000000800FC309900F8
:1002200051301A05513C031D10293E210319212983
:1002300023008E1120008E1D212923008E1582316E
:10024000002A90309B0044213D008E013D008E1518
:100250008E1D27293D00101C302944213D0010101F
:100260003D00901D2A290F08870090112000783941
:10027000031D3C29062030299E203029840182302C
:100280008500003F013E08003D0093019001990167
:100290009A019B019C019D019E019F0197011430D1
:1002A0009100093092008401203085006A30870077
:1002B00000301A00870B59293D000E1796010E12C7
:1002C0000E13901D662990110D216129163098009A
:1002D0001E3099001A309A0020001830A2002030F9
:1002E000A6002A30AA002930AE006A30B6002030BD
:0C02F000A300A700AB00AF00B700282857
:0E03420012340134003402340234003400342A
:10035000083450341D34EE34EE34013400340034AB
:10036000003401340134093402344334003402349B
:10037000013400348034113409340434003400343E
:10038000013402340234013400340534243400349E
:100390001034013404342434023402340534243457
:1003A000063400340134053424340134003401347B
:1003B0000734053482340334083400347F3409347C
:1003C00004340134003402340A340034003400347C
:1003D00007340534813402344034003400340734A7
:1003E0000534013402344034003400340A34033418
:1003F000303400343034003430340034303400349D
:020000040001F9
:02000E00CC0F15
:02001000CE1F01
:00000001FF
