:020000040000FA
:0600000020008C01102815
:0800080000004F28CF308C05E9
:100010001F1191102017210038308C042000412836
:1000200090308600320005309F003C309E003C003E
:1000300055308F00AA308F000F103D001430900013
:100040003C000530900055308F00AA308F000F140F
:10005000210038308C040C1123008C0124309E00C8
:1000600008309F0033309B0000309C0090309D0092
:10007000200001309F000C15A001A101DB012A30F6
:10008000D800A011101001148B1700238C194528DB
:100090000230D2008C194528D20B4A283C2850281F
:1000A0008C1E9D2853288C1A9D2856288C1E9D280E
:1000B00059288C1A9D285C288C1E9D282430840089
:1000C0008C1E9D2880018A018C1A001467288C1AC6
:1000D00080146A288C1A00158C1D88288C1A8015AB
:1000E00071288C1A00168C1D88288C1A80162408FA
:1000F0000F398C1A00178C1D88288C1A8017840AD7
:1001000080018C1A00148C1D88288C1A80146A288F
:100110000B009D289F289D28D228A7289B289D2832
:100120009D289D289D289D28D2289D28B1289D285E
:100130009D2814219D282508D900101009002508A4
:10014000D9007F395806031D9D28A0164128201F7D
:100150009D282013211BA0122113A111A01E2112E2
:1001600041287F3025055806031D9D28A019992890
:100170000314250DA506A509A51BC7282118CA2803
:10018000A11A1029211BCE28A1194D292B2A211E85
:1001900099284D293208D800211020140C2141281B
:1001A000211741287F3059055806031D9D28A019A5
:1001B000992824300402033A031DE2281621DB1398
:1001C000A01241282408B3002508B4002608B50071
:1001D0002708B6002808B7001621A0151010290816
:1001E000B8002A08B9002B08BA002C08BB002D085B
:1001F000BC002E08BD002F08BE003008BF00233011
:100200000402B1008321A01E0A295B1F502AE122AB
:100210005B13D028E12241284B30A11CC3301729A1
:10022000A1121E30172141285A301729D230A200BE
:100230000C162100CF308C0520000730A300303091
:100240008C06A30B20291030A30030300000221CA4
:100250008C062A29A21C8C062D29221D8C063029E9
:10026000A21D8C063329221E8C063629A21E8C065E
:100270003929221F8C063C29A21F8C06211F4529E3
:1002800020178C06A30B41290000CF308C054C2190
:10029000210038308C04200008000C162100CF30DB
:1002A0008C05200050089E009D011F15000007309E
:1002B000A30030308C06A30B5A2943308400303021
:1002C0000000001C8C066429801C8C0691180628EE
:1002D000001D8C0691180628801D8C069118062892
:1002E000001E8C0691180628801E8C069118062880
:1002F000001F8C0691180628801F8C06840A0000B7
:10030000001C8C066429333084003108D2000314A9
:10031000000D80068009840AD20B88293330D3006F
:100320003330D20084003108C400C301D401D501A8
:10033000D601D701800CD40CD60A54107E30540656
:100340000319B029540DD50CD70AD719B621D61DDB
:100350009A29D601D20A52088400C40B9A29003483
:10036000C30AC31DA729B103C301A729D701530895
:10037000840055088000D30A520884000800840ACB
:100380005108D600FF30D200D3000008D400083056
:10039000D50000085206D4005308D200D50103103E
:1003A000540CD406D50C540CD300D50CD40DD40663
:1003B000540ED4065508D418013AD206C030D418C9
:1003C000D306840AD60BC929D209D30900345208AE
:1003D0008000840A530880000230D1070034433083
:1003E000D3005A08D2008400D401D501D6015108A7
:1003F000D700D001800CD50AD40CD60AD6192222F7
:10040000FC30540203180722D5190E2AFA290310CA
:10041000D40CD60AD6192222D00A0800D501D20A55
:1004200052088400D70BFA290310D40CD60AD61D23
:10043000152A22225108D7000310D70DD70D570DCA
:10044000D0070034D6015308840054088000D30A32
:10045000520884000800400841040319D028A01560
:10046000101034308400D1013330DA001B238000B7
:10047000D10A840AC20AC00BD1193F2A362A5A0867
:1004800084004B30A11CC3308000A110801DA1143A
:10049000BF21E721D10AEF210830D007A11541285B
:1004A000A114340860390319632A3508013A031985
:1004B000DA2A3508093A0319DA2A35080A3A0319FB
:1004C000DB2AA116412835080B00722A792A412817
:1004D0007B2A41287D2A8C2A8C2ACB2AD02AD42A0E
:1004E000D82AD92AB401B501201934140230D10018
:1004F0003F2A2011D0282015D0283608B200D2017A
:10050000D21503148030B20C031CB206320DD20B8C
:10051000822AB2132114D0283A08C0003B08C10037
:10052000FF30BB0803193A08D2003708213A0319F3
:10053000AD2A3708223A0319B22A37080B0041289E
:10054000A32AA82AB72A1230DC220030C200312A9E
:100550002930DC221230C200312A0930DC2224305A
:10056000C200312A1930DC223B30C200312A360861
:100570000B00BC2AC12AC62A0430DC225430C20037
:10058000312A1230DC225830C200312A5630DC22A7
:100590006A30C200312A3208B4000130D1003F2A4B
:1005A0003608B200A014D028B4010130D1003F2A8F
:1005B000D02841284128D028D202031C3A08C00084
:1005C0000800D201D20AB51BF22AB51AFC2A351A44
:1005D000FE2AB508031D0034340823009E189A0033
:1005E00020000034340823009B00200035088913C4
:1005F00023009C00200000340C1500340C11003442
:10060000911E0034230019082000B4000230D100EC
:100610003330DA005A0884004B30A11CC33080000C
:10062000A110801DA114BF21E721D10AEF210830BC
:10063000D0072116003442080B0012340134103464
:1006400001340034003400340834D83404342834FD
:1006500006341634083401340234003401340934C9
:10066000023429340034013401340034803432340B
:1006700009340434003400340234033400340034C8
:10068000003409342134003401340034013422347C
:100690001934003407340534813403340834003409
:1006A0000A340734053401340334083400340A347E
:1006B0000634A034FF3409340134A1340134093440
:1006C0000334153400342634FF34003475340834D0
:1006D00095340234813402340934043491340234C0
:1006E000C03404340334093404341234033444343D
:1006F00000344D3400344C3400344034003432344F
:10070000003430340034313400343334003456345F
:100710000334433400346F3400346E3400346534B1
:100720000034633400346334003469340034F33407
:1007300000346E34003420340034553400345334E3
:1007400000344234003420340034613400347434D2
:10075000003472340034613400347634003465344B
:1007600000347A3400342034003464340034653486
:1007700000342034003450340034493400344334DD
:1007800000343134003432340034463400343634EA
:1007900000343734003435340034203400347034BD
:1007A00000346F3400347234003420340034443464
:0A07B00000344D3400344C340034A2
:020000040001F9
:02000E008C1F45
:060010003025FF1FFF3F39
:00000001FF
