:020000040000FA
:04000000803105281E
:100008000900E6277B277C278031D101D201D30163
:10001800D401DF308600233087000C30F700113020
:10002800F8009031F5208031DF30D8002330D90036
:100038003D08A8003E08A900903100208031D10178
:10004800D2011430D300D401DF308600233087007A
:100058001D30F7001130F8009031F5208031DF3085
:10006800D8002330D9003D08A8003E08A9009031E7
:10007800002080310230F40090313D2080313C2551
:1000880080310928472863004728F0307702031891
:1000980000347708563EF70000300318013E8A0006
:1000A80077088200F03400344034C0348034C034DF
:1000B800403440344034C034C034803400340034D8
:1000C8008034FF34FF34FF349034103410341F343C
:1000D8001F340F3400348034C034C03440344034CA
:1000E8004034C0348034C0344034003400340F34D9
:1000F8001F341F34103410349034FF34FF34FF346D
:1001080080340034003400344034C034C034C03447
:100118008034C034C034C034C03480340034003437
:1001280020343F343F343F34213400340034013428
:1001380001340134003400348034C034C0344034D5
:10014800403440344034C034803400340034003407
:1001580019343B3423342634263426343C343D3495
:10016800193400340034003440344034E034F0347E
:10017800F8344034403440344034003400340034DF
:10018800003400341F343F343F342034383438349A
:100198001834003400340034C034C034C03400345F
:1001A80000340034C034C034C03400340034003467
:1001B8001F343F343F342034203420343F341F343C
:1001C8003F34203400340034C034C034C0340034E8
:1001D80000340034C034C034C03400340034003437
:1001E80007340F341F343834303438341F340F3464
:1001F8000734003400340034C034C034C034003410
:100208000034003400340034C034C034C034003406
:1002180007340F343F34383438340E3438343834F3
:100228003F340F3407340034C034C034C034003491
:100238000034C034C034C0340034003400340034D6
:10024800303439343F340F340F343F343934303498
:1002580000340034003400340034C034C034C034B6
:10026800003400340034C034C034C03400340034A6
:10027800803487348F349F34D834F83478343F341A
:100288000F340734F0307702031800347708533EF0
:10029800F70001300318013E8A0077088200F03425
:1002A800803488349034E034E034FC34FC34E03476
:1002B800E0349034883480340134113409340734FC
:1002C80007343F343F3407340734093411340134D8
:1002D80000340034803480348034F034F034803496
:1002E8008034803400340034003400340134013464
:1002F80001340F340F340134013401340034003434
:100308000034003400340034003400340034003445
:10031800003400340034003400340034403478347D
:100328007834383400340034003400340034003475
:100338000034803480348034803480348034803495
:100348008034803480340034003401340134013482
:1003580001340134013401340134013401340034EE
:1003680000340034003400340034003400340034E5
:10037800003400340034003400340034003438349D
:100388003834383400340034003400340034003455
:100398000034003400340034003400340034803435
:1003A800C034E034703438340034203430343834D5
:1003B8001C340E3407340334013400340034003460
:1003C8000034F834FC34FC34043404340434043485
:1003D800FC34FC34F834003400341F343F343F34E8
:1003E80020342034203420343F343F341F34003448
:1003F8000034603460346034F034FC34FC3400344D
:1004080000340034003400340034203420342034E4
:100418003F343F343F342034203420340034003417
:10042800003418341C341C34043404348434CC347C
:10043800FC347834303400340034303438343C34CC
:100448002E342734233421343834383438340034C3
:10045800003418341C341C34843484348434CC344C
:100468007C34783430340034003418343834383438
:1004780024342134213433343E341E340C34F130E6
:100488007702031800347708503EF700023003184B
:10049800013E8A0077088200F03400348034C0348A
:1004A800603430341834FC34FC34FC340034003408
:1004B80000340034033403340334233423343F3406
:1004C8003F343F342334233400340034FC34FC34C8
:1004D800FC348434843484348434843404340434DC
:1004E8000034003419343934393424342134213473
:1004F80033343F341F340E3400340034E034F034E5
:10050800F8349C348C348434843484348034003417
:10051800003400341F343F343F342434243421342D
:1005280021343F343F341F34003400343C343C34ED
:100538003C3404340434043404348434FC34FC344B
:100548007C34003400340034003438343C343E34D5
:1005580007340334013400340034003478347C34F4
:10056800FC34C434C43484348434FC347C34783467
:10057800003400341E343E343F34213421342334D3
:1005880023343F343E341E3400340034F834FC3411
:10059800FC348434843484348434FC34FC34F834B7
:1005A800003400340034013424342134213431340B
:1005B80039341F340F340734003400340034003425
:1005C8000034703470347034003400340034003433
:1005D800003400340034003400340E340E340E3449
:1005E8000034003400340034003400340034003463
:1005F8000034703470347034003400340034003403
:10060800003400340034003410341E341E340E34E8
:100618000034003400340034003400348034C034F2
:10062800E034703438341C340E3406340234003468
:10063800003400340134033407340E341C343834A5
:1006480070346034403400340034603460346034D2
:1006580060346034603460346034603460346034F2
:100668006034063406340634063406340634063458
:1006780006340634063406340634F030770203189C
:10068800003477084E3EF70003300318013E8A0015
:1006980077088200F0340034023406340E341C34F7
:1006A80038347034E034C0348034003400340034DA
:1006B80040346034703438341C340E340734033416
:1006C800013400340034003418341C340C340E3433
:1006D80006348634CE34FC347C3438340034003468
:1006E8000034003400340034733473347334003409
:1006F8000034003400340034FC34FE34FE34023458
:100708000234C234C234C234FE34FE34FC34003401
:100718003F343F347F34603460346334633463344B
:100728006334433403340034E034F034F8341C3494
:100738000C340C341C34F834F034E0340034003415
:100748003F343F343F3402340234023402343F34FD
:100758003F343F34003400340434FC34FC34FC347B
:10076800843484348434FC34FC34783400340034E5
:1007780020343F343F343F342434213421343F344F
:100788003F341E3400340034F034F834FC340C3474
:100798000434043404341C341C3418340034003455
:1007A8000F341F343F34303420342034203438346C
:1007B80038341834003400340434FC34FC34FC3449
:1007C800043404340C34FC34F834F0340034003489
:1007D80020343F343F343F342034203430343F34E5
:1007E8001F340F34003400340434FC34FC34FC343B
:1007F800843484348434C434CC341C340034003419
:1008080020343F343F343F342434213421342334DA
:1008180033343834003400340434FC34FC34FC34CD
:10082800843484348434C434CC341C3400340034E8
:1008380020343F343F343F3421340134013403340D
:100848000334003400340034F034F834FC340C340D
:100858000434043404343C343C3438340034003434
:100868000F341F343F3430342034223422343E34A1
:100878003E343E34F13077020318003477084B3E9B
:10088800F70004300318013E8A0077088200F0342C
:100898000034FC34FC34FC34803480348034FC3440
:1008A800FC34FC340034003400343F343F343F34EB
:1008B8000134013401343F343F343F3400340034D0
:1008C8000034003404340434FC34FC34FC34043480
:1008D800043400340034003400340034203420342C
:1008E8003F343F343F342034203400340034003463
:1008F8000034003400340034003404340434FC344C
:10090800FC34FC34043404341E341E343E342034A5
:100918002034203420343F343F341F340034003432
:1009280000340434FC34FC34FC34C034E034703417
:100938003C341C340C340034003420343F343F340D
:100948003F34033407340E343C3438343034003404
:1009580000340434FC34FC34FC34043400340034F3
:100968000034003400340034003420343F343F3441
:100978003F34203420342034303438343C3400348C
:100988000034FC34FC34FC347834F034E034F03493
:100998007834FC34FC34FC3400343F343F343F3486
:1009A800003400340134003400343F343F343F34E1
:1009B8000034FC34FC34FC347034E034C03480340B
:1009C8000034FC34FC34FC3400343F343F343F34CE
:1009D800003400340134033407343F343F343F34A7
:1009E8000034E034F034F8341C340C340C340C3457
:1009F8001C34F834F034E034003407340F341F3436
:100A0800383430343034303438341F340F34073409
:100A180000340434FC34FC34FC34843484348434AA
:100A2800FC34FC3478340034003420343F343F3410
:100A38003F342134013401340134013400340034AA
:100A48000034E034F834F8341C340C3404340C34F6
:100A58001C34F834F834E034003407341F341F34BD
:100A6800183418345C345E347E347F347F34473431
:100A7800CA01CB012430C8008E31CE268531B03072
:100A8800C80090319E208531FF30D500D600D50AA8
:100A98000319D60AFF30AA00AB00AA0A0319AB0A49
:100AA800C9019031912085312A08F5002B08F600FC
:100AB8002730F900FA019031C62085317018512D80
:100AC8005508F5005608F6000730F900FA0190318C
:100AD800C620853170184B2DB230C80090319E2049
:100AE8008531CA01CB012430C8008E31CE2685312C
:100AF8002130C80090319E2822087E3C031C872D97
:100B08002030A202952D2208D23C031C8E2D2130C4
:100B1800A202952D2208FA3C031C952D2230A20230
:100B2800952DAC01AC0A2208F5000A30F900903185
:100B3800D52085317508DB002208F5001830F9004A
:100B48009031E92085317008DD005B08F500F03050
:100B5800F9009031E92085315D082C07DB00DC01C4
:100B68000318DC0A70085B02AF0000305C3BB00081
:100B78002208F500F9019031BF208531F00970088D
:100B8800DB002208F9000930F5009031BF208531DB
:100B9800F0095B087005DD005D1CD82D2F08F700F3
:100BA8008B31DA238531AE002208F5000A30F900CE
:100BB8009031BF208531F0097008DB002208F90068
:100BC8001330F5009031BF208531F0095B087005BE
:100BD800DD005D1CF32D2F08F7004621AE0022082A
:100BE800F5001430F9009031BF208531F009700804
:100BF800DB002208F9001D30F5009031BF20863156
:100C0800F0095B087005DD005D1C0E2E2F08F7004B
:100C18004322AE002208F5001E30F9009031BF20B3
:100C28008631F0097008DB002208F9002730F5004A
:100C38009031BF208631F0095B087005DD005D1C2E
:100C4800292E2F08F7004123AE002208F50028308E
:100C5800F9009031BF208631F0097008DB002208C6
:100C6800F9003130F5009031BF208631F0095B087A
:100C78007005DD005D1C442E2F08F7003E24AE00F1
:100C88002208F5003230F9009031BF208631F00992
:100C98007008DB002208F9003B30F5009031BF20D6
:100CA8008631F0095B087005DD005D1C612E2F0898
:100CB800F7008C31D6248631AE002208F5003C308E
:100CC800F9009031BF208631F0097008DB00220856
:100CD800F9004530F5009031BF208631F0095B08F6
:100CE8007005DD005D1C7E2E2F08F7008D31D225A2
:100CF8008631AE002208F5004630F9009031BF2059
:100D08008631F0097008DB002208F9004F30F50041
:100D18009031BF208631F0095B087005DD005D1C4D
:100D28009B2E2F08F700883100208631AE0022085C
:100D3800F5005030F9009031BF208631F009700875
:100D4800DB002208F9005930F5009031BF208631C8
:100D5800F0095B087005DD005D1CB62E2F08F70052
:100D68004920AE002208F5005A30F9009031BF2022
:100D78008631F0097008DB002208F9006330F500BD
:100D88009031BF208631F0095B087005DD005D1CDD
:100D9800D32E2F08F7008831FC208631AE002208B8
:100DA800F500A030F9009031BF208631F0097008B5
:100DB800DB002208F900A930F5009031BF20863108
:100DC800F0095B087005DD005D1CF02E2F08F700A8
:100DD800893176218631AE002208F500AA30F90063
:100DE8009031BF208631F0097008DB002208F90035
:100DF800B330F5009031BF208731F0095B087005EA
:100E0800DD005D1C0D2F2F08F7008A317322873112
:100E1800AE002208F500B430F9009031BF208731C8
:100E2800F0097008DB002208F900B730F5009031AE
:100E3800BF208731F0095B087005DD005D1C2A2F93
:100E48002F08F7008B316E238731AE0024302E0235
:100E5800031D302F2130AE00AD01AD0A2C08230749
:100E6800CC000030243DCD002D082507CE000030F1
:100E7800263DCF002C080C3C03184A2F0C30CC021E
:100E88000030CD3B0830CE070030CF3D2E1C5B2F05
:100E98004C08C2004D08C3004E08C4004F08C500E6
:100EA8002808B4002908B5008F310C278731AE0C0B
:100EB80008302D02031C312F18302C02031C962DEC
:100EC8000800FF3021008F0022000C140C158C1034
:100ED8008C132000DD018F19DD0A5D09DB005B182A
:100EE8006D2F22008C1721008F01200008000800B8
:100EF80021008F018C130C108C100C118C118C128A
:100F080022008C110C148C178C140C158C162000D4
:100F18008F010530F200F30190312F208731220034
:100F28008C152000CA01CB014030C8008E31CE2676
:100F38008731FF30CA003F30CB004230C8008E31C5
:100F4800CE2687312830CA00CB014130C8008E3107
:100F5800CE2687312830CA00CB014330C8008E31F5
:100F6800CE2687310230CA00CB012230C8008E312C
:100F7800CE2687318030C80090319E2087319C3042
:100F8800B100C80090319E208731A030C800903150
:100F98009E208731B201B3010130BD00BE0105308A
:100FA800BC00BA010130BB00F030B800B9014030D4
:100FB800B600B7010130C1008E31DA2690316220C7
:100FC80087313C2D2100191799161916991199176F
:100FD8009E131D1023008C018D018F0190012200AA
:100FE8009313911320008C018D018E018F019001C4
:020FF8000800EF
:10100000EF3077020318003477080D3EF700083000
:101010000318013E8A0077088200F03400348034DF
:101020008034F834FC34FC3484349C349C341834DC
:10103000003400340034213421343F343F343F3411
:10104000213421340134003400340034003480343D
:10105000C034C034403440344034C0348034C034B0
:101060004034003400344734CF34DF34983498347B
:101070009834FF34FF347F340034003400340434B7
:10108000FC34FC34FC34803440344034C034C0344C
:1010900080340034003420343F343F343F34013452
:1010A000003400343F343F343F34003400340034E3
:1010B000403440344034DC34DC34DC34003400343C
:1010C00000340034003400342034203420343F34E1
:1010D0003F343F3420342034203400340034003492
:1010E00000340034403440344034DC34DC34DC340C
:1010F00000340034003420346034E03480348034F0
:10110000C034FF34FF347F340034003400340434FE
:10111000FC34FC34FC34003400348034C034C0343B
:1011200040340034003420343F343F343F34023400
:1011300007340F343D343834303400340034003454
:10114000043404340434FC34FC34FC3400340034FF
:1011500000340034003400342034203420343F3450
:101160003F343F3420342034203400340034C03441
:10117000C034C03440344034C03440344034C034CF
:10118000C034803400343F343F343F3400340034C2
:101190003F34003400343F343F343F340034C034F3
:1011A000C034C034403440344034C034C03480345F
:1011B0000034003400343F343F343F3400340034D2
:1011C00000343F343F343F34003400340034803442
:1011D000C034C034403440344034C034C03480342F
:1011E0000034003400341F343F343F342034203482
:1011F00020343F343F341F346D30770203180034FD
:101200007708093EF70009300318013E8A00770885
:10121000820078340034C034C03440344034403428
:10122000C034C034C03400340034003400343134AD
:1012300038343C342E3427342334313438340034B9
:1012400000340034003480348034C03478347C344A
:101250003C340434043404340434003400340134A1
:10126000013403341E343E343C34203420342034E2
:101270002034003400340034003400340034FE34B0
:10128000FE34FE34003400340034003400340034C2
:101290000034003400347F347F347F340034003431
:1012A00000340034003404340434043404343C3452
:1012B0007C347834C03480348034003400342034BA
:1012C0002034203420343C343E341E340334013482
:1012D0000134003438343C343C3404340C341C3491
:1012E0003834303420343C343C341C34F030770211
:1012F000031800347708833EF70009300318013ED5
:101300008A0077088200F0340034E034F034F83496
:101310001C340C340C341C34F834F034E034003415
:1013200000343F343F343F34023402340234023458
:101330003F343F343F34003400340434FC34FC3454
:10134000FC34843484348434FC34FC347834003405
:10135000003420343F343F343F34243424342434A4
:101360003F343F341E34003400340034FC34FC3449
:10137000FC340C340C340C340C340C340034003495
:10138000003400343F343F343F3400340034003400
:1013900000340034003400340034E034F034F834E5
:1013A0001C340C340C341C34F834F034E034003485
:1013B00000343F343F343F34303430343034303410
:1013C0003F343F343F34003400340434FC34FC34C4
:1013D000FC34843484348434C434CC341C34003439
:1013E000003420343F343F343F3424342434243414
:1013F000233433343834003400343C341C340C345B
:1014000004348434C434E4347C343C341C34003438
:10141000003438343C343E342734233424342034EC
:10142000303438343C3400340034FC34FC34FC3484
:10143000803480348034FC34FC34FC340034003498
:1014400000343F343F343F340134013401343F34FD
:101450003F343F34003400340034E034F034F834A6
:101460009C348C348C348C349C34F834F034E03438
:10147000003407340F341F343934313431343134CB
:1014800039341F340F340734003400340434043446
:10149000FC34FC34FC3404340434003400340034B0
:1014A00000340034203420343F343F343F3420347F
:1014B000203400340034003400340434FC34FC3470
:1014C000FC34C034E03470343C341C340C3400340C
:1014D000003420343F343F343F34033407340E3477
:1014E0003C3438343034EE30770203180034770857
:1014F000803EF7000A300318013E8A007708820018
:10150000F0340034E034F034F8341C340C340C344F
:101510001C34F834F034E034003400343F343F34C9
:101520003F3400340034003400343F343F343F341F
:1015300000340034FC34FC34FC347834F034E034CF
:10154000F0347834FC34FC34FC3400343F343F3421
:101550003F34003400340134003400343F343F342D
:101560003F340034FC34FC34FC347034E034C03498
:1015700080340034FC34FC34FC3400343F343F34D9
:101580003F34003400340134033407343F343F34F3
:101590003F34003400341C341C349C349C349C3460
:1015A0009C349C341C341C340034003400343834F3
:1015B00038343934393439343934393438343834C6
:1015C00000340034E034F034F8341C340C340C347F
:1015D0000C341C34F834F034E034003407340F3465
:1015E0001F34383430343034303438341F340F340E
:1015F00007340034FC34FC34FC341C341C341C34FC
:101600001C34FC34FC34FC34003400343F343F34AC
:101610003F3400340034003400343F343F343F342E
:10162000003400340434FC34FC34FC34843484341A
:101630008434FC34FC3478340034003420343F34B7
:101640003F343F3424340134013401340134003454
:101650000034003400343C347C34FC34DC349C34BE
:101660009C341C341C341C340034003400343C34AE
:101670003E343F343B3439343934383438343834F8
:10168000003400341C340C3404340434FC34FC3492
:10169000FC34043404340C341C340034003400347E
:1016A000203420343F343F343F342034203400345D
:1016B000003400347C34FC34FC3480340034803416
:1016C000FC34FC347C3400340034003400342034E6
:1016D00024343F343F343F34243420345F307702A5
:1016E0000318003477087B3EF7000B300318013EE7
:1016F0008A00770882006034E034F034F8343834FB
:101700001834FC34FC3418343834F834F034E03411
:1017100007340F341F341C3418343F343F3418342A
:101720001C341F340F34073400341C343C347C34F4
:10173000E034C034E0347C343C341C3400340034B5
:10174000003438343C343E340734033407343E34F8
:101750003C343834003400340034FC34FC34FC3481
:101760008034F834F834F8348034FC34FC34FC34FD
:10177000003400340134033423343F343F343F34E5
:101780002334033401340034003400347034FC3426
:10179000FC348C348C348C34FC34FC3470340034A1
:1017A000003400340034313433343334333433349C
:1017B00033343134EF307702031800347708E73ED2
:1017C000F7000B300318013E8A0077088200F034DE
:1017D0000034003400340034003400340034003469
:1017E0000034003400340034003400340034003459
:1017F0000034003400340034003400340034003449
:1018000000340034F834FC34FC34FC34F834003454
:1018100000340034003400340034003400347334B5
:101820007334733400340034003400340034003432
:10183000003400341E343E343E340034003400346E
:101840003E343E341E34003400340034003400345E
:1018500000340034003400340034003400340034E8
:1018600030343034FE34FE343034303430343034BC
:10187000FE34FE34303430340C340C347F347F3456
:101880000C340C340C340C347F347F340C340C3472
:101890000034F034F8349834FE3498349834FE34FC
:1018A0009834983418340034003418341934193406
:1018B0007F34193419347F3419341F340F34003411
:1018C000003400343834383438348034C034E034B0
:1018D0007034383400340034003400341C340E3496
:1018E0000734033401341C341C341C3400340034F9
:1018F00000343834FC34C434C434FC343834003458
:10190000003400348034003400341E343F34213439
:10191000213433343F341E341E34373423340034FE
:101920000034003420343C343C341C340034003463
:101930000034003400340034003400340034003407
:1019400000340034003400340034003400340034F7
:1019500000340034C034E034F03438341C340C34F7
:1019600004340434003400340034003403340734C5
:101970000F341C34383430342034203400340034F4
:1019800000340034043404340C341C343834F0345F
:10199000E034C034003400340034003420342034C7
:1019A000303438341C340F3407340334EF307702CA
:1019B000031800347708E33EF7000C300318013EAB
:1019C0008A0077088200F03400340434FC34FC349C
:1019D000FC34843484348434FC34FC34783400346F
:1019E000003420343F343F343F3401340134033475
:1019F0003F343F343C34003400347834FC34FC341D
:101A00008434843484348434BC343C3438340034F6
:101A100000341C343C343D34243424342134213407
:101A20003F343F341E34003400341C340C3404344E
:101A30000434FC34FC34FC34043404340C341C34DE
:101A4000003400340034203420343F343F343F34F9
:101A500020342034003400340034FC34FC34FC34B2
:101A6000003400340034FC34FC34FC3400340034E2
:101A700000341F343F343F342034203420343F348A
:101A80003F341F34003400340034FC34FC34FC3464
:101A9000003400340034FC34FC34FC3400340034B2
:101AA000003407340F341F343834303438341F34A2
:101AB0000F340734003400340034FC34FC34FC347C
:101AC00000340034803400340034FC34FC34FC3402
:101AD000003403340F343F343C343C340F343C3452
:101AE0003C343F340F34033400341C343C347C34F5
:101AF000E034C034E0347C343C341C3400340034F2
:101B0000003438343C343E340734033407343E3434
:101B10003C3438340034003400347C34FC34FC343D
:101B2000803400348034FC34FC347C3400340034A1
:101B300000340034203421343F343F343F342134E6
:101B4000203400340034003400343C341C340C3471
:101B500004348434C434E4347C343C341C340034E1
:101B6000003438343C343E34273423342134203498
:101B7000303438343C340034003400340034FC3425
:101B8000FC34FC34043404340434043400340034AD
:101B90000034003400343F343F343F3420342034A8
:101BA00020342034EF307702031800347708DF3E0A
:101BB000F7000D300318013E8A0077088200F034E8
:101BC00000341C3438347034E034C0348034003491
:101BD0000034003400340034003400340034003465
:101BE00000340134033407340E341C3418343034D8
:101BF0000034003400340434043404340434FC3439
:101C0000FC34FC340034003400340034003420341C
:101C10002034203420343F343F343F340034003407
:101C200000342034303438341C340E340E341C3438
:101C3000383430342034003400340034003400347C
:101C400000340034003400340034003400340034F4
:101C500000340034003400340034003400340034E4
:101C60000034003400340034C034C034C034C034D4
:101C7000C034C034C034C034C034C034C034C034C4
:101C800000340C340C343C34303430340034003400
:101C900000340034003400340034003400340034A4
:101CA0000034003400340034003400340034003494
:101CB0000034003440344034403440344034C03484
:101CC000C03480340034003400341C343E343E349C
:101CD0002234223422343F341F343F342034003441
:101CE00000340434FC34FC34FC344034403440349C
:101CF000C034C03480340034003420343F341F34C6
:101D00003F342034203420343F343F341F340034F7
:101D100000348034C034C034403440344034C034A3
:101D2000C03480340034003400341F343F343F3436
:101D30002034203420343934393419340034003418
:101D400000348034C034C034403440344434FC3433
:101D5000FC34FC340434003400341F343F343F344A
:101D60002034203420343F341F343F3420340034B6
:101D700000348034C034C034403440344034C03443
:101D8000C03480340034003400341F343F343F34D6
:101D90002234223422343B343B341B344A08C900F9
:101DA0009031A9208E314B08C9009031A9208E3185
:101DB00090319E284103031DE42EF030B800B90194
:101DC0004030B600B7010B2F04304102031DEF2E47
:101DD0004030B800B901F030B600B7010B2F033026
:101DE0004102031DFA2EF030B800B9014030B600B0
:101DF000B7010B2F02304102031D052F4030B80000
:101E0000B901F030B600B7010B2FF030B800B901BE
:101E10004030B600B701080004304102031D112F05
:101E2000372F4103031D152F372F02304102031DA9
:101E30001A2F372F03304102031D372F4208380273
:101E4000DB004308393BDC0001305B02C20000309C
:101E50005C3BC30044083602DB004508373BDC002E
:101E600001305B02C40000305C3BC500372F4408E2
:101E7000F5004508F6002830F900FA01D627700869
:101E8000DB007108DC004208F5004308F60006306C
:101E9000F900FA01A0277508DD007608DE005D086C
:101EA0005B07DF005E085C3DE000FF305F07A000DD
:101EB0003F30603DA1002008CA002108CB0024303B
:101EC000C800CE268F313408F5003508F600013001
:101ED000F900FA019031B4208F31701C862F42082E
:101EE000F5004308F6000630F900FA01A027700853
:101EF000DB007108DC005B08053CDD00DF015C08ED
:101F00005F3BDE00F8305D04A7009C2F4208F5001F
:101F10004308F6000630F900FA01A0277008DB003C
:101F20007108DC005B08053CDD00DF015C085F3BFD
:101F3000DE00F0305D04A7002708C80090319E281D
:101F40007508F7007608F8007908FB007A08FC00AD
:101F5000F201F3017B08F5007C08F600F901FA01B3
:101F60009031B4208F31701CB82FF501F6010800B4
:101F70001030F4000310F70DF80DF20DF30D7B088F
:101F8000F2027C08F33B77140318CB2F77107B0801
:101F9000F2077C08F33DF40BBA2F7708F5007808B8
:101FA000F6007208F0007308F10008007508F700E9
:101FB0007608F8007908FB007A08FC00F201F301CA
:101FC0007B1CE62F7708F2077808F33D0310FC0C22
:101FD000FB0C0310F70DF80D7B08F9007C08FA00E4
:101FE000F501F6019031C6208F317018E02F72088C
:081FF000F0007308F100080085
:1020000058088400590885000008D000D00803193A
:1020100008005108BF005208C000DA010130500228
:10202000031C2E28DA0A3F08A3004008A400530826
:10203000A5005408A6005A08580784000030593DEE
:1020400085000008A2008531802590310D30BF0742
:102050000030C03D50085A02031C12280800F30A41
:102060000E30F100BD30F000F00B3428F10B3228B7
:10207000F20B3028F30B30280800E830F200033070
:10208000F3002F20F40B3D280800FF3021008F00C3
:1020900022000C140C158C108C132000DD010F187D
:1020A000DD0A5D09DB005B184D28DD018F18DD0AB4
:1020B0005D09DB005B18552822008C1721008F0179
:1020C00020000800C601C701FF30CA003F30CB0026
:1020D0002430C8008E31CE269031B030C8009E200A
:1020E000FF30D500D50AFF30AA00AA0AC901912005
:1020F0002A08F5002730F900BF2070187528550808
:10210000F5003F30F900BF2070187228B230C800C7
:102110009E20FF30CA003F30CB002430C8008E31F3
:10212000CE2E87316527903149088F0022000C1090
:102130000C118C148C138C172000080045204808C3
:102140008F0022000C140C118C148C138C1720009F
:102150000800452049088F0022000C100C118C1437
:102160008C138C1720000800F00175087902031DFC
:10217000080076087A02031D0800F0090800F00143
:10218000031479087502031CF0090800F0017608B1
:102190007A02031C08007A087602031CD328790807
:1021A000750203180800F0090800F908031908006F
:1021B000F0010830F4000310F50DF00D7908F0027D
:1021C00075140318E62875107908F007F40BDB285E
:1021D0000800F00175087918F0070310F90C0310D6
:1021E000F50DF908031DEA2808000521F500810016
:1021F000FC280521F500F607F5080319080005215C
:1022000041318100F50BFF28080078088A00770823
:10221000F70A0319F80A820010345734473432346D
:10222000343430343634343441342D3454344D3431
:1022300049342D3454345A34233408344634653404
:0C2240006234203432343034313439340C
:020000040001F9
:04000E00E43FFF1FAD
:00000001FF
