:020000040000FA
:04000000803105281E
:1000080009000D2221008C128C110C118C100C107F
:100018000130F200F3012000252021008F019030EB
:100028002000A2000130A300F030A000A101A60129
:10003800A701A320C521332065206300232863007E
:100048002328F30A0430F100A530F000F00B2A2829
:10005800F10B2828F20B2628F30B2628080002307B
:10006800A400A50025222208A8002308A900280822
:10007800F5002908F6000130F900FA01532270183A
:100088006428A808031DA90A2008AA002108AB00B3
:100098002A08F5002B08F6000130F900FA0153226E
:1000A80070186028AA08031DAB0AA401A50138220C
:1000B800AA0B5928AB0B5928A80B4828A90B482884
:1000C8000800B101B2010230A400A50025222208CF
:1000D800AC002308AD002C08F5002D08F60001300F
:1000E800F900FA0153227018A228AC08031DAD0AC2
:1000F8002008AE002108AF002E08F5002F08F600F2
:100108000130F900FA01532270189A28AE08031D2D
:10011800AF0A3108A4003208A50038222408B1002B
:100128002508B200AE0B8D28AF0B8D287B30B107A8
:100138000030B23DAC0B7C28AD0B7C2808002200B7
:100148008C160F30F200F3012000252022008C12BB
:100158000F30F200F3012000252022008C160F300A
:10016800F200F30120002520A4010130A50025227A
:10017800A401A50138220230A4000130A5002522DF
:10018800A401A50138220330A4000130A5002522CE
:10019800A401A5013822C830F200F3012520A401EA
:1001A8000130A50025229030A4001130A500382286
:1001B8000130A400A50025221730A400A50138228B
:1001C8000230A4000130A5002522BD30A400013072
:1001D800A50038220330A4000130A50025225030A4
:1001E800A4000330A50038228130A4000230A50005
:1001F80025221730A400A5013822A4010230A50049
:100208002522A401A50138220130A4000230A5004E
:100218002522A401A5013822A4010330A500252226
:10022800A401A50138220130A4000330A50025222D
:100238000730A400A50038220230A4000330A5002E
:1002480025220630A400A50038220530A40003307A
:10025800A50025220630A400A50138220630A400F6
:100268000330A50025220930A4000A30A500382251
:100278000730A4000330A50025220330A400023073
:10028800A50038220830A4000330A5002522053037
:10029800A400A50138220930A4000330A5002522B6
:1002A8000730A400A50138220C30A4000330A500B3
:1002B8002522A4010430A50038220D30A400033003
:1002C800A50025220A30A400A50138221030A40078
:1002D8000230A5002522A401A50138221130A4006E
:1002E8000230A5002522EF30A400A50138221230E3
:1002F800A4000230A5002522A401A501382213304C
:10030800A4000230A50025228F30A4000130A500EA
:100318003822A4010430A5002522A4013530A50007
:1003280038220130A4000430A50025220130A400A1
:10033800A50138220430A400A5002522A401A501A6
:1003480038221030A400A50125221030A400A501F0
:1003580038221130A400A5012522A401A5013822C4
:100368000B30A4000230A5002522A401A5013822E3
:100378000730A400A50125227330A4000130A50090
:10038800382A2608F5002708F600F901FA0148225C
:10039800701CD6290330A400A50125223030A40002
:1003A800A50138222608F5002708F6005A30F9007A
:1003B800FA014822701CE8290330A400A50125226F
:1003C8002830A400A50138222608F5002708F600E1
:1003D800B430F900FA014822701CF9290330A4004E
:1003E800A5012522A401A50138222608F500270821
:1003F800F6000E30F9000130FA004822701C0C2A71
:100408000330A400A50125221830A400A501382234
:1004180008002100191799161916991199139E1396
:100428001D1023008C018D018E018F019001220087
:100438009313911320008C018D018E018F0190017F
:10044800080022000C108C108C150C1520002508B3
:100458008F0022000C110C15200024088F002200A8
:100468000C110C152000080022008C14200025080F
:100478008F0022000C110C15200024088F00220088
:100488000C110C1520000800F00175087902031DF5
:10049800080076087A02031D0800F0090800F00138
:1004A80076087A02031C08007A087602031C602A80
:0C04B8007908750203180800F00908001C
:020000040001F9
:04000E00A439FF1EF4
:00000001FF
