:020000040000FA
:04000000803105281E
:10000800090090251C2580318D250330F4008831A6
:10001800162080310930D0008C30D10089310E2172
:1000280080311030C4008831FD2080311A30D00072
:100038008C30D10089310E2180310730C100BD01DB
:10004800172680312330D0008C30D10089310E2121
:1000580080314030C4000130C5005D268031023057
:10006800F400883116208031D4248031A72502304D
:10007800C1000230BD00172680313230D0008C30EC
:10008800D10089310E2180310330C1001430BD0008
:10009800172680313930D0008C30D10089310E21BB
:1000A80080312A08D8008831D7208031EC30D00040
:1000B8002330D10089310E2180312908D8008831B8
:1000C800D7208031EC30D0002330D10089310E2187
:1000D80080310530C1000230BD001726803145301F
:1000E800D0008C30D10089310E2180310230F400EB
:1000F8008831162080314030A2000130A3008931B8
:100108003C218031D4248031A7250230C10002303F
:10011800BD00172680316530D0008C30D100893180
:100128000E2180310330C1001430BD001726803104
:100138003930D0008C30D10089310E2180312A0825
:10014800D8008831D7208031EC30D0002330D1005E
:1001580089310E2180312908D8008831D720803193
:10016800EC30D0002330D10089310E2180310530A8
:10017800C1000230BD00172680314530D0008C30D8
:10018800D10089310E2180310230F40088311620E7
:1001980080318030A2000230A30089313C218031B7
:1001A800D4248031A7250230C1000230BD001726B3
:1001B80080316C30D0008C30D10089310E218031F3
:1001C8000330C1001430BD00172680313930D0000B
:1001D8008C30D10089310E2180312A08D80088312D
:1001E800D7208031EC30D0002330D10089310E2166
:1001F80080312908D8008831D7208131EC30D000EF
:100208002330D10089310E2181310530C1000230FF
:10021800BD00172681314530D0008C30D10089319E
:100228000E2181310230F400883116208131C0302E
:10023800A2000330A30089313C218131D4248131CB
:10024800A7250230C1000230BD0017268131733066
:10025800D0008C30D10089310E2181310330C100AA
:100268001430BD00172681313930D0008C30D100D0
:1002780089310E2181312A08D8008831D72081316F
:10028800EC30D0002330D10089310E21813129088A
:10029800D8008831D7208131EC30D0002330D1000C
:1002A80089310E2181310530C1000230BD00172689
:1002B80081314530D0008C30D10089310E21813117
:1002C8000230F400883116208131A2010530A300E4
:1002D80089313C218131D4248131A7250230C100E4
:1002E8000230BD00172681317A30D0008C30D10021
:1002F80089310E2181310330C1001430BD00172629
:1003080081313930D0008C30D10089310E218131D2
:100318002A08D8008831D7208131EC30D00023302A
:10032800D10089310E2181312908D8008831D720A0
:100338008131EC30D0002330D10089310E21813158
:100348000530C1000230BD00172681314530D0008C
:100358008C30D10089310E2181310230F40088318E
:10036800162081314030A2000630A30089313C219B
:100378008131D4248131A7250230C1000230BD006B
:10038800172681318130D0008C30D10089310E217F
:1003980081310330C1001430BD0017268131393056
:1003A800D0008C30D10089310E2181312A08D80043
:1003B8008831D7208131EC30D0002330D100893109
:1003C8000E2181312908D8008831D7208131EC30BD
:1003D800D0002330D10089310E2181310530C10090
:1003E8000230BD00172681314530D0008C30D10055
:1003F80089310E2181310230F40088311620823192
:100408008030A2000730A30089313C218231D424F6
:100418008231A7250230C1000230BD001726823183
:100428008830D0008C30D10089310E2182310330E0
:10043800C1001430BD00172682313930D0008C300D
:10044800D10089310E2182312A08D8008831D7207D
:100458008231EC30D0002330D10089310E21823135
:100468002908D8008831D7208231EC30D0002330D9
:10047800D10089310E2182310530C1000230BD0022
:10048800172682314530D0008C30D10089310E21B9
:1004980082310230F400883116208231C030A20047
:1004A8000830A30089313C218231D4248231A72528
:1004B8000230C1000230BD00172682318F30D000D3
:1004C8008C30D10089310E2182310330C1001430C3
:1004D800BD00172682313930D0008C30D1008931E7
:1004E8000E2182312A08D8008831D7208231EC3099
:1004F800D0002330D10089310E2182312908D8005B
:100508008831D7208231EC30D0002330D1008931B6
:100518000E2182310530C1000230BD00172682311C
:100528004530D0008C30D10089310E218231023023
:10053800F400883116208231A2010A30A3008931E3
:100548003C218231D4248231A7250230C1000230F7
:10055800BD00172682319630D0008C30D100893109
:100568000E2182310330C1001430BD0017268231BC
:100578003930D0008C30D10089310E2182312A08DF
:10058800D8008831D7208231EC30D0002330D10018
:1005980089310E2182312908D8008831D72082314B
:1005A800EC30D0002330D10089310E218231053062
:1005B800C1000230BD00172682314530D0008C3092
:1005C800D10089310E2182310230F40088311620A1
:1005D80082314030A2000B30A30089313C218231A6
:1005E800D4248231A7250230C1000230BD0017266D
:1005F80082319D30D0008C30D10089310E21833179
:100608000330C1001430BD00172683313930D000C3
:100618008C30D10089310E2183312A08D8008831E5
:10062800D7208331EC30D0002330D10089310E211E
:1006380083312908D8008831D7208331EC30D000A5
:100648002330D10089310E2183310530C1000230B9
:10065800BD00172683314530D0008C30D100893158
:100668000E2183310230F400883116208331803026
:10067800A2000C30A30089313C218331D42483317A
:10068800A7250230C1000230BD0017268331A430EF
:10069800D0008C30D10089310E2183310330C10064
:1006A8001430BD00172683313930D0008C30D1008A
:1006B80089310E2183312A08D8008831D720833127
:1006C800EC30D0002330D10089310E218331290844
:1006D800D8008831D7208331EC30D0002330D100C6
:1006E80089310E2183310530C1000230BD00172643
:1006F80083314530D0008C30D10089310E218331CF
:100708000230F400883116208331A201A301893117
:100718003C2183310530C1000230BD0017268331EA
:10072800AC30D0008C30D10089310E2183310630B5
:10073800C4008831FD2083310230F400883116204E
:1007480083314030A2000130A30089313C2183313C
:100758000530C1000230BD0017268331C630D000F5
:100768008C30D10089310E2183310630C4008831A4
:10077800FD2083310230F400883116208331803027
:10078800A2000230A30089313C2183310530C10029
:100798000230BD0017268331E030D0008C30D10004
:1007A80089310E2183310630C4008831FD20833120
:1007B8000230F400883116208331C030A2000330A3
:1007C800A30089313C2183310530C1000230BD00CE
:1007D80017268331FA30D0008C30D10089310E21B0
:1007E80083310630C4008831FD2083310230F400A3
:1007F800883116208331A2010530A30089313C21BC
:1008080084310530C1000230BD0017268431143010
:10081800D0008D30D10089310E2184310630C400DA
:100828008831FD2084310230F4008831162084316B
:100838004030A2000630A30089313C2184310530C4
:10084800C1000230BD00172684312E30D0008D3013
:10085800D10089310E2184310630C4008831FD2051
:1008680084310230F4008831162084318030A200AF
:100878000730A30089313C2184310530C1000230A2
:10088800BD00172684314830D0008D30D100893121
:100898000E2184310630C4008831FD2084310230B5
:1008A800F400883116208431C030A2000830A3003B
:1008B80089313C2184310530C1000230BD00172642
:1008C80084316230D0008D30D10089310E218431DD
:1008D8000630C4008831FD2084310230F4008831AC
:1008E80016208431A2010A30A30089313C218431C9
:1008F8000530C1000230BD00172684317C30D0009D
:100908008D30D10089310E2184310630C400883100
:10091800FD2084310230F4008831162084314030C3
:10092800A2000B30A30089313C2184310530C1007D
:100938000230BD00172684319630D0008D30D100AA
:1009480089310E2184310630C4008831FD2084317C
:100958000230F4008831162084318030A2000C3037
:10096800A30089313C2184310530C1000230BD002B
:1009780017268431B030D0008D30D10089310E2156
:1009880084310630C4008831FD2084310230F400FF
:1009980088311620893148218431D22C6300D22C29
:1009A8002908BF002A08C0002430BC00883167200D
:1009B8008431B030BC008831C1208431FF30CC0094
:1009C800CD00CC0A0319CD0AFF30A500A600A50A60
:1009D8000319A60ABE0188316E2084312508F50066
:1009E8002608F6002730F900FA018B31CF2384312D
:1009F8007018EB2C4C08F5004D08F6000730F9008C
:100A0800FA018B31CF2385317018E52CB230BC0048
:100A18008831C12085312908BF002A08C000243048
:100A2800BC008831672085312130BC008831C1285D
:100A380021008F018C130C108C100C118C118C124E
:100A480022008C110C148C178C140C158C16200099
:100A58008F010530F200F30188310820853122002A
:100A68008C152000BF01C0014030BC0088316720D0
:100A78008531FF30BF003F30C0004230BC008831B4
:100A8800672085312830BF00C0014130BC00883163
:100A9800672085312830BF00C0014330BC00883151
:100AA800672085310230BF00C0012230BC00883188
:100AB800672085318030BC008831C12085319C3069
:100AC800AB00BC008831C1208531A030BC00883122
:100AD800C1208531AC01AD010130B500B60105304A
:100AE800B400B2010130B300F030B000B1014030C1
:100AF800AE00AF010130B70088318F208531FF305B
:100B0800A7003F30A80088313B208531A901AA0100
:100B1800D42C0C30C7000800210019179916191693
:100B2800991199179E131D1023008C018D018F01B7
:100B3800900122009313911320008C018D018E01E6
:100B48008F01900108001430C1000430BD00172641
:100B58008531F830D0008E30D10089310E218531B1
:100B6800FF30DA00DA0A5A08C300C2012A30BB0093
:100B780089312E2185310A30F200F30188310820AD
:100B880085315A08F5000730F9008B31C8238531C3
:100B98007018B62DFF30D900D90AC3015908C20010
:100BA8002A30BB0089312E2185310730C30059080E
:100BB800C2002A30BB0089312E2185310A30F2006B
:100BC800F3018831082085315908F5002730F900EC
:100BD8008B31C82385317018D02DFF30DA00DA0A3E
:100BE8005A08C3002730C2002A30BB0089312E21A1
:100BF80085310A30F200F3018831082086315A081D
:100C0800F5000730F9008B31C82386317018F32DB1
:100C1800080020303A02BE008831CC208631C0302E
:100C2800BC008831C1283D08A200A3014108A300E7
:100C38002208BF002308C0002430BC008831672088
:100C480086312130BC008831C12086314108F90045
:100C58000730F5008B31C8238631701808003D082D
:100C6800F9002730F5008B31C82386317018080049
:100C78004108F500F6012830F900FA018B31DE232E
:100C880086317008D4007108D5003D085407D60095
:100C98000030553DD70029085607A2002A08573DBD
:100CA800A3002208BF002308C0002430BC008831FC
:100CB8006728CF14C6014408F5004508F60010302F
:100CC800F9002730FA008B31CF238631F009701CE8
:100CD800822E4408F5004508F6001030F900273048
:100CE800FA00C6277508C6007008C4007108C50058
:100CF80030304607BA000D268631902E4408F5009C
:100D08004508F600E830F9000330FA008B31CF23AC
:100D18008631F009701CA52E4408F5004508F60038
:100D2800E830F9000330FA00C6277508C6007008D5
:100D3800C4007108C50030304607BA000D26863158
:100D4800B22E4408F5004508F6006430F900FA01AF
:100D58008B31CF238631F009701CC62E4408F5006C
:100D68004508F6006430F900FA01C6277508C60080
:100D78007008C4007108C50030304607BA000D2657
:100D88008631D32E4408F5004508F6000A30F900EC
:100D9800FA018B31CF238631F009701CE62E440806
:100DA800F5004508F6000A30F900FA01C62775086B
:100DB800C6007008C4007108C50030304607BA0084
:100DC8000D26863130304407BA000D2E21009E17BB
:100DD8002000A408031DF32E23000C14842F2403E1
:100DE800031DF92E23008C14842F02302402031DC6
:100DF800002F23000C15842F03302402031D072F16
:100E080023008C15842F04302402031D0E2F230089
:100E18008C16842F0C302402031D152F23000D146B
:100E2800842F0A302402031D1C2F23008D14842FC5
:100E380008302402031D232F23000D15842F0930A9
:100E48002402031D2A2F23008D15842F0B30240222
:100E5800031D312F23000D16842F0D302402031D8E
:100E6800382F23008D16842F14302402031D3F2FA2
:100E780023000F14842F15302402031D462F23004E
:100E88008F14842F16302402031D4D2F23000F15B5
:100E9800842F17302402031D542F23008F15842F0D
:100EA80018302402031D5B2F23000F16842F1930DE
:100EB8002402031D622F23008F16842F1A30240268
:100EC800031D692F23000F17842F1B302402031DD5
:100ED800702F23008F17842F05302402031D772FCE
:100EE80023001014842F06302402031D7E2F2300B4
:100EF8009014842F07302402031D842F230010151B
:100F080021001E139E121E161D119D111D129D12E9
:100F18001D132000241C922F21001D152000A41C45
:100F2800972F21009D152000241D9C2F21001D16A0
:100F38002000A41DA12F21009D162000241EA62FED
:100F480021001D1721001D140230F50020008831F2
:100F58000020873121009D1400009D18B12F1D101D
:100F680023008C018D018F01900121001B082000B6
:100F7800C900CB0121001C082000CB0021009E13D2
:100F8800200008007508F7007608F8007908FB00CB
:100F98007A08FC00F201F3017B08F5007C08F600F2
:100FA800F901FA018B31BD238731701CDE2FF50161
:100FB800F60108001030F4000310F70DF80DF20DDB
:100FC800F30D7B08F2027C08F33B77140318F12F2A
:100FD80077107B08F2077C08F33DF40BE02F7708C5
:100FE800F5007808F6007208F0007308F1000800B0
:101000001930F000F00B02280000F50B0028080052
:10101000F30A0E30F100BD30F000F00B0D28F10B9B
:101020000B28F20B0928F30B09280800E830F2001E
:101030000330F3000820F40B16280800FF302100CD
:101040008F0022000C140C158C108C132000D6017C
:101050000F18D60A5609D40054182628D6018F181E
:10106000D60A5609D40054182E2822008C172100C5
:101070008F0120000800B801B9012708BF00280827
:10108000C0002430BC006720B030BC00C120FF305D
:10109000CC00CC0AFF30A500A50ABE016E202508B1
:1010A000F5002730F900C82370184C284C08F500CB
:1010B0003F30F900C82370184928B230BC00C12065
:1010C0002708BF002808C0002430BC0067283F085C
:1010D000BE00CC204008BE00CC20C12879203E08AC
:1010E0008F0022000C100C118C148C138C17200014
:1010F0000800FF3021008F0022000C140C158C100A
:101100008C132000D6018F19D60A5609D400541822
:10111000812822008C1721008F012000080037034E
:10112000031D9928F030B000B1014030AE00AF018E
:10113000C02804303702031DA4284030B000B1019C
:10114000F030AE00AF01C02803303702031DAF28D6
:10115000F030B000B1014030AE00AF01C028023025
:101160003702031DBA284030B000B101F030AE00A4
:10117000AF01C028F030B000B1014030AE00AF0187
:1011800008001E203C088F0022000C140C118C1447
:101190008C138C17200008001E203E088F002200B0
:1011A0000C100C118C148C138C17200008000230CA
:1011B0002C00CC000F3020005805D300093C031848
:1011C000E3280730D307303053072C00CE0020002F
:1011D000D301D30AD80C04305302031CE9280F3082
:1011E0005805D300093C0318F7280730D3073030DF
:1011F00053072C00CD00200008004408283C0318A9
:1012000003292830C400C40803190D291F30D00059
:101210008F30D1000E21C403032908005008840038
:10122000510885000008C800C80803190800CF1439
:10123000D20101304802031C2D29D20A520850075E
:1012400084000030513D85000008BA0086310D262B
:10125000893148085202031C1D2908004308C100B7
:101260004208BD0086311726893120303B02BE007E
:10127000CC20C430BC00C1282208BF002308C00015
:101280004030BC0067202208A9002308AA000800FB
:10129000A201A3013C210530C1000230BD0086310E
:1012A00017268931CB30D0008D30D1000E21073088
:1012B000C400FD200C30A4008631EA26893149089B
:1012C000A0004B08A100E530D0008D30D1000E21E8
:1012D0002008C4002108C50086315D268931F03020
:1012E000D0008D30D1000E212008F2002108F3003B
:1012F00008204030A2000130A3003C210530C1008D
:101300000230BD00863117268931F330D0008D3090
:10131000D1000E210630C400FD200630C10002308D
:10132000BD008631172689310C30A4008631EA26AB
:1013300089314908A0004B08A100E530D0008D306C
:10134000D1000E212008C4002108C50086315D2689
:101350008931F030D0008D30D1000E212008F2000C
:101360002108F30008208030A2000230A3003C21B5
:101370000530C1000230BD008631172689310D309D
:10138000D0008E30D1000E210630C400FD20063082
:10139000C1000230BD008631172689310C30A4000F
:1013A0008631EA2689314908A0004B08A100E530C2
:1013B000D0008D30D1000E212008C4002108C500C6
:1013C00086315D268931F030D0008D30D1000E217C
:1013D0002008F2002108F3000820C030A2000330EA
:1013E000A3003C210530C1000230BD008631172624
:1013F00089312730D0008E30D1000E210630C40054
:10140000FD200630C1000230BD00863117268A312A
:101410000C30A4008631EA268A314908A0004B0826
:10142000A100E530D0008D30D1000E212008C4008D
:101430002108C50086315D268A31F030D0008D301C
:10144000D1000E212008F2002108F3000820A2019B
:101450000530A3003C210530C1000230BD008631BB
:1014600017268A314130D0008E30D1000E2106304F
:10147000C400FD200630C1000230BD0086311726B1
:101480008A310C30A4008631EA268A314908A0004E
:101490004B08A100E530D0008D30D1000E2120088E
:1014A000C4002108C50086315D268A31F030D000A5
:1014B0008D30D1000E212008F2002108F300082011
:1014C0004030A2000630A3003C210530C1000230AC
:1014D000BD00863117268A315B30D0008E30D100B6
:1014E0000E210630C400FD200630C1000230BD00D0
:1014F000863117268A310C30A4008631EA268A31DB
:101500004908A0004B08A100E530D0008D30D10083
:101510000E212008C4002108C50086315D268A31CD
:10152000F030D0008D30D1000E212008F2002108CB
:10153000F30008208030A2000730A3003C210530D2
:10154000C1000230BD00863117268A317530D000C7
:101550008E30D1000E210630C400FD200630C100BF
:101560000230BD00863117268A310C30A400863146
:10157000EA268A314908A0004B08A100E530D000D6
:101580008D30D1000E212008C4002108C50086310D
:101590005D268A31F030D0008D30D1000E21200838
:1015A000F2002108F3000820C030A2000830A30098
:1015B0003C210530C1000230BD00863117268A313A
:1015C0008F30D0008E30D1000E210630C400FD20B7
:1015D0000630C1000230BD00863117268A310C303A
:1015E000A4008631EA268A314908A0004B08A100F0
:1015F000E530D0008D30D1000E212008C400210834
:10160000C50086315D268B31F030D0008D30D100A1
:101610000E212008F2002108F3000820A2010A3060
:10162000A3003C210530C1000230BD0086311726E1
:101630008B31A930D0008E30D1000E210630C4008D
:10164000FD200630C1000230BD00863117268B31E7
:101650000C30A4008631EA268B314908A0004B08E3
:10166000A100E530D0008D30D1000E212008C4004B
:101670002108C50086315D268B31F030D0008D30D9
:10168000D1000E212008F2002108F300082040308C
:10169000A2000B30A3003C210530C1000230BD0088
:1016A000863117268B31C330D0008E30D1000E2109
:1016B0000630C400FD200630C1000230BD00863176
:1016C00017268B310C30A4008631EA268B3149086D
:1016D000A0004B08A100E530D0008D30D1000E21D4
:1016E0002008C4002108C50086315D268B31F0300A
:1016F000D0008D30D1000E212008F2002108F30027
:1017000008208030A2000C30A3003C210530C1002D
:101710000230BD00863117268B31DD30D0008E308F
:10172000D1000E210630C400FD200630C100023079
:10173000BD00863117268B310C30A4008631EA2695
:101740008B314908A0004B08A100E530D0008D3056
:10175000D1000E212008C4002108C50086315D2675
:101760008B31F030D0008D30D1000E212008F200F6
:101770002108F300082048290800F00175087902C3
:10178000031D080076087A02031D0800F00908000E
:10179000F001031479087502031CF0090800F00138
:1017A00076087A02031C08007A087602031CDC2BF8
:1017B0007908750203180800F00908007508F70099
:1017C0007608F8007908FB007A08FC00F201F301C2
:1017D0007B1CEE2B7708F2077808F33D0310FC0C16
:1017E000FB0C0310F70DF80D7B08F9007C08FA00DC
:1017F000F501F601CF237018E82B7208F00073088A
:10180000F100080078088A007708F70A0319F80A37
:101810008200103457344734323434343034363460
:10182000343441342D3454344D3449342D3454340B
:101830005A34233408344634653462342034323424
:101840003034313439340E344C344334443450342D
:10185000413447344534533449345A3445342034C0
:101860003D342034063450346134673465342034D8
:1018700030340B344134643464347234653473343A
:1018800073343A342034303478341F344C34433495
:10189000443420346D346534743468346F346434C3
:1018A00073342034753473346534643420347434C0
:1018B0006F34203463347234653461347434653485
:1018C0002034703461346734653406345034613404
:1018D000673465342034313406345034613467342D
:1018E000653420343234063450346134673465341E
:1018F0002034333406345034613467346534203452
:10190000343406345034613467346534203435342B
:101910000634503461346734653420343634063448
:1019200050346134673465342034373406345034ED
:1019300061346734653420343834063450346134CB
:1019400067346534203439340734503461346734B3
:1019500065342034313430341934503461346734D0
:101960006534203430342034733477346134703447
:10197000703465346434203469346E3474346F34B4
:10198000203466346F34633475347334193450340E
:10199000613467346534203431342034733477341F
:1019A00061347034703465346434203469346E3496
:1019B00074346F34203466346F3463347534733464
:1019C000193450346134673465342034323420346F
:1019D0007334773461347034703465346434203453
:1019E00069346E3474346F34203466346F34633445
:1019F00075347334193450346134673465342034A9
:101A00003334203473347734613470347034653453
:101A10006434203469346E3474346F342034663462
:101A20006F3463347534733419345034613467342B
:101A30006534203434342034733477346134703472
:101A4000703465346434203469346E3474346F34E3
:101A5000203466346F34633475347334193450343D
:101A6000613467346534203435342034733477344A
:101A700061347034703465346434203469346E34C5
:101A800074346F34203466346F3463347534733493
:101A9000193450346134673465342034363420349A
:101AA0007334773461347034703465346434203482
:101AB00069346E3474346F34203466346F34633474
:101AC00075347334193450346134673465342034D8
:101AD000373420347334773461347034703465347F
:101AE0006434203469346E3474346F342034663492
:101AF0006F3463347534733419345034613467345B
:101B0000653420343834203473347734613470349D
:101B1000703465346434203469346E3474346F3412
:101B2000203466346F34633475347334193450346C
:101B30006134673465342034393420347334773475
:101B400061347034703465346434203469346E34F4
:101B500074346F34203466346F34633475347334C2
:101B60001A345034613467346534203431343034BD
:101B700020347334773461347034703465346434B1
:101B8000203469346E3474346F34203466346F34E6
:101B900063347534733419345034613467346534C4
:101BA00020343034203473347734613470347034FA
:101BB0006534643420346F346E34203474346934C2
:101BC0006D3465346F34753474340A3441344434BC
:101BD00043342F3457346134693474343A34203404
:101BE000023420342034193450346134673465347D
:101BF00020343134203473347734613470347034A9
:101C00006534643420346F346E3420347434693471
:101C10006D3465346F347534743419345034613430
:101C2000673465342034323420347334773461348B
:101C3000703470346534643420346F346E3420343E
:101C4000743469346D3465346F34753474341934D4
:101C50005034613467346534203433342034733481
:101C600077346134703470346534643420346F34C4
:101C70006E342034743469346D3465346F347534A3
:101C80007434193450346134673465342034343456
:101C90002034733477346134703470346534643490
:101CA00020346F346E342034743469346D346534C8
:101CB0006F34753474341934503461346734653496
:101CC00020343534203473347734613470347034D4
:101CD0006534643420346F346E34203474346934A1
:101CE0006D3465346F347534743419345034613460
:101CF00067346534203436342034733477346134B7
:101D0000703470346534643420346F346E3420346D
:101D1000743469346D3465346F3475347434193403
:101D200050346134673465342034373420347334AC
:101D300077346134703470346534643420346F34F3
:101D40006E342034743469346D3465346F347534D2
:101D50007434193450346134673465342034383481
:101D600020347334773461347034703465346434BF
:101D700020346F346E342034743469346D346534F7
:101D80006F347534743419345034613467346534C5
:101D900020343934203473347734613470347034FF
:101DA0006534643420346F346E34203474346934D0
:101DB0006D3465346F34753474341A34503461348E
:101DC000673465342034313430342034733477341C
:101DD0006134703470346534643420346F346E345C
:101DE0002034743469346D3465346F34753474342C
:101DF000243450347534743420342834203472340C
:101E00006F3477342C34203463346F346C3475344D
:101E10006D346E342C34203461347334633469345B
:101E20006934203463346834613472346134633427
:101E30007434653472342034293401342A34013442
:021E400020344C
:020000040001F9
:04000E00E43FFF1FAD
:00000001FF
