:020000040000FA
:0400000006EF00F017
:020008001000E6
:10000C0035EC11F0D4EC06F045EC11F092901C6B31
:10001C00020E3A6F010E1A6FA7EC0DF013EE7CF086
:10002C000E0EF66E2C0EF76EF4EC15F07C0E976F30
:10003C00030E986F010E1A6F9DEC0CF0010E3A6FC7
:10004C00010E1A6FA7EC0DF0070E816F010E1A6FDF
:10005C00BFEC0DF003EE58F0040EEE6E0A0EEE6ED1
:10006C00EE6AEE6A230EEE6E03EE5DF0060EEE6E99
:10007C00EE6A1E0EEE6EC00EEE6EEE6AEE6A020EAA
:10008C00EE6E500E4E6F03EE53F0040EEE6E0A0E33
:10009C00EE6EEE6AEE6A020EEE6E03EE4EF0060E99
:1000AC00EE6E440EEE6E940EEE6EFC0EEE6EA30E25
:1000BC00EE6EE50EEE6E8F0EEE6E03EE49F0040E54
:1000CC00EE6E810EEE6E060EEE6E0F0EEE6E1C0ECA
:1000DC00EE6E5D0E956F030E966F6AEC05F013EEE7
:1000EC007CF02C0EF66E2C0EF76EF4EC15F07C0EEC
:1000FC00976F030E986F010E1A6F9DEC0CF0010EAA
:10010C003A6F010E1A6FA7EC0DF09288010E126F68
:10011C00380E0E6F206B41EC0CF09191056A80B893
:10012C00052A1251055CD8A403D01205D8A400D01E
:10013C005BEC09F0F3D700D00300FED7032AE30EE3
:10014C00016E060E006E002EFED7012EFAD7022E7F
:10015C00F6D7032EF4D7120079EC0AF0A6C3C6F337
:10016C00A7C3C7F3A8C3C8F3A9C3C9F3AAC3CAF3E7
:10017C00ABC3CBF3C2C3CCF3C3C3CDF3C4C3CEF375
:10018C00C5C3CFF3ACC3BCF3ADC3BDF3AEC3BEF3B9
:10019C00AFC3BFF3B0C3C0F3B1C3C1F359C3C2F310
:1001AC005AC3C3F35BC3C4F35CC3C5F3020E0301B0
:1001BC00BB6F2A0E0001776F786BD2EC0BF02A0E16
:1001CC00776F786BB4EF08F0600E0E15116F050E9B
:1001DC009E6FD89011339E2FFCD71151695DD8B406
:1001EC000ED01F0E0E15A36FA3C009F01B0E056ECB
:1001FC0088EC15F0001E00B02FEC0AF002D011C0F4
:10020C0069F0899A1F0E0E15A36FA00EA311876FAC
:10021C006AEC0CF020C087F06AEC0CF0898A1200B2
:10022C00600E0E15116F050E9F6FD89011339F2F16
:10023C00FCD71151695DD8B40ED01F0E0E15A76FE7
:10024C00A7C009F01B0E056E88EC15F0001E00B05F
:10025C002FEC0AF002D011C069F0899A1F0E0E150E
:10026C00A76F800EA711876F6AEC0CF020C087F087
:10027C006AEC0CF0898A12008B6B8C6B8D6B8E6B1D
:10028C006A6B6C6B8851235DA36F89512459A46FE1
:10029C00A3C005F0A4C006F0020E096E0A6AAFEC0A
:1002AC0015F000C065F06505D8A410D013EE7CF0F5
:1002BC00440EF66E2C0EF76EF4EC15F07C0E976F68
:1002CC00030E986F010E1A6F9DEC0CF0020E885DF8
:1002DC00456F000E8959466F88C009F089C00AF035
:1002EC0023C005F024C006F08DEC15F000B036D01C
:1002FC00020E4527000E462303EEA5F04551E924D6
:10030C00A36F4651EA20A46F010EA325E96E000EDF
:10031C00A421EA6EEF508B27000E8C23000E8D2348
:10032C00000E8E2303EEA5F04551E9264651EA2234
:10033C00EFCF6CF06A518B276C518C23000E8D2300
:10034C00000E8E2345C005F046C006F023C009F010
:10035C0024C00AF08DEC15F000B0CAD78BC009F0A0
:10036C008CC00AF08DC00BF08EC00CF0100E726FAA
:10037C0088EC0CF036C045F037C046F08BC06AF004
:10038C008CC06CF045516A2746516C236A1F6C1F58
:10039C0003EEA5F07D51E9267E51EA226CC0EFFFF9
:1003AC0003EEA5F07D51E924A36F7E51EA20A46FE2
:1003BC00010EA325E96E000EA421EA6E6AC0EFFFC0
:1003CC001200B951BA5DA76F000EBB59A86FA7C038
:1003DC0005F0A8C006F0020E096E0A6AAFEC15F023
:1003EC0000C0BFF0606B616B646B636B020EB95D38
:1003FC00666F676BD8A06707B9C009F00A6ABAC004
:10040C0005F0BBC006F08DEC15F000B037D0020E35
:10041C006627000E672303EEA5F06651E9266751A7
:10042C00EA22EFCF09F00A6A0B6A0C6A080E726FA7
:10043C0073EC0CF032C05DF033C05FF06629446F92
:10044C0003EEA5F04451E926000EEA22EF505D269A
:10045C00000E5F225D5060275F506123000E642305
:10046C00000E632366C005F067C006F0BAC009F041
:10047C00BBC00AF08DEC15F000B0C9D76505D8A447
:10048C001FD0030EBA27000EBB2303EEA5F0BA5102
:10049C00E926BB51EA22EFCF09F00A6A0B6A0C6A13
:1004AC00080E726F73EC0CF032C05DF033C05FF06D
:1004BC005D5060275F506123000E6423000E6323A0
:1004CC0060C009F061C00AF064C00BF063C00CF0AE
:1004DC00100E726F88EC0CF036C05DF037C05FF018
:1004EC0060515D2761515F235D1F5F1F5FC0BCF0D2
:1004FC005DC0BDF01200D5C3BEF09193BEB1918327
:10050C009195BEB391859197BEB591879199BEB7E0
:10051C009189919BBEB9918B919DBEBB918D020E21
:10052C003A6F010E1A6FA7EC0DF013EE7CF0460E2D
:10053C00F66E2C0EF76EF4EC15F07C0E976F030E26
:10054C00986F010E1A6F9DEC0CF0C0C382F0010E77
:10055C001A6FBFEC0CF013EE7CF04E0EF66E2C0EF8
:10056C00F76EF4EC15F07C0E976F030E986F010E7E
:10057C001A6F9DEC0CF0C1C382F0010E1A6FBFEC28
:10058C000CF013EE7CF04E0EF66E2C0EF76EF4ECB7
:10059C0015F07C0E976F030E986F010E1A6F9DEC81
:1005AC000CF0C2C382F0010E1A6FBFEC0CF013EE0C
:1005BC007CF04E0EF66E2C0EF76EF4EC15F07C0EF5
:1005CC00976F030E986F010E1A6F9DEC0CF0C3C35E
:1005DC0082F0010E1A6FBFEC0CF0010E3A6F010E97
:1005EC001A6FA7EC0DF013EE7CF0500EF66E2C0E7D
:1005FC00F76EF4EC15F07C0E976F030E986F010EEE
:10060C001A6F9DEC0CF0090E816F010E1A6FBFEC86
:10061C000DF013EE7CF0560EF66E2C0EF76EF4EC1D
:10062C0015F07C0E976F030E986F010E1A6F9DECF0
:10063C000CF0090E816F010E1A6FBFEC0DF013EE6A
:10064C007CF05C0EF66E2C0EF76EF4EC15F07C0E56
:10065C00976F030E986F010E1A6F9DEC0CF0090E3C
:10066C00816F010E1A6FBFEC0DF013EE7CF0620E71
:10067C00F66E2C0EF76EF4EC15F07C0E976F030EE5
:10068C00986F010E1A6F9DEC0CF0090E816F010E24
:10069C001A6FBFEC0DF013EE7CF0680EF66E2C0E9C
:1006AC00F76EF4EC15F07C0E976F030E986F010E3D
:1006BC001A6F9DEC0CF0090E816F010E1A6FBFECD6
:1006CC000DF013EE7CF06E0EF66E2C0EF76EF4EC55
:1006DC0015F07C0E976F030E986F010E1A6F9DEC40
:1006EC000CF0010E3A6F010E1A6FA7EC0DF0826B35
:1006FC0091B3822B010E1A6FBFEC0CF0090E816FB7
:10070C00010E1A6FBFEC0DF0826B91B5822B010EAE
:10071C001A6FBFEC0CF0090E816F010E1A6FBFEC53
:10072C000DF0826B91B7822B010E1A6FBFEC0CF09F
:10073C00090E816F010E1A6FBFEC0DF0826B91B92F
:10074C00822B010E1A6FBFEC0CF0090E816F010E9B
:10075C001A6FBFEC0DF0826B91BB822B010E1A6FDE
:10076C00BFEC0CF0090E816F010E1A6FBFEC0DF08F
:10077C00826B91BD822B010E1A6FBFEC0CF0010E37
:10078C003A6F010E1A6FA7EC0DF0006A91B5001EBE
:10079C0000C0A9F0006A91A3001EA9510014A36F18
:1007AC00A3A192D013EE7CF0780EF66E2C0EF76EA1
:1007BC00F4EC15F07C0E976F030E986F010E1A6F08
:1007CC009DEC0CF0010E3A6F010E1A6FA7EC0DF0B8
:1007DC0067EC0AF0C9C305F0CBC309F073EC15F054
:1007EC0005C0C9F309C0CBF3C8C305F0CAC309F0EF
:1007FC0073EC15F005C0C8F309C0CAF3010EAE6F57
:10080C00AF6BCCC317F0CDC319F0CEC318F0CFC368
:10081C0013F0AE511327AF511823000E1923000EFD
:10082C00172313C0D3F318C0D2F319C0D1F317C0D8
:10083C00D0F30301CF69CE69100ECD6F110ECC6FC2
:10084C00000131810301D56BD583D589200ED66F7C
:10085C00D76B010EE16F010EE26F0F0EB4155D6EDA
:10086C005F6A5DC005F05FC006F0040E096E0A6A8F
:10087C000001E3EC15F000C05DF001C05FF0B6C301
:10088C0005F0066A096A010E0A6EE3EC15F000C069
:10089C00A3F001C0A4F00301B7510001A325A76F79
:1008AC00000EA421A86F0E0EA725B66F92DAA6EC47
:1008BC000AF0B6C077F0786BD2EC0BF0B6C077F0DC
:1008CC00786BB4EC08F00D6B91ABF6D091B36AD0A9
:1008DC00C0C3C4F3C1C3C5F3C2C3C6F3C3C3C7F318
:1008EC0059C3C0F35AC3C1F35BC3C2F35CC3C3F3B4
:1008FC00C9C305F0CBC309F073EC15F005C0C9F3FF
:10090C0009C0CBF3C8C305F0CAC309F073EC15F0EA
:10091C0005C0C8F309C0CAF305EC09F0CCC34BF011
:10092C00CDC34DF0CEC34CF0CFC347F0B6C305F0EA
:10093C00066A096A010E0A6EE3EC15F000C0A3F01A
:10094C0001C0A4F00301B7510001A325A76F000E4D
:10095C00A421A86FA7514725A36FA8514C21A46FC0
:10096C00000E4D21A56F000E4B21A66F280EA35D26
:10097C00476F000EA4594C6F000EA5594D6F000E19
:10098C00A6594B6FD3C3CFF3D2C3CEF3D1C3CDF3A0
:10099C00D0C3CCF347C0D3F34CC0D2F34DC0D1F38A
:1009AC004BC0D0F391A988D013EE7CF0820EF66E7A
:1009BC002C0EF76EF4EC15F07C0E976F030E986FFF
:1009CC00010E1A6F9DEC0CF0010E3A6F010E1A6FAE
:1009DC00A7EC0DF0C0C382F0010E1A6FBFEC0CF047
:1009EC0013EE7CF08A0EF66E2C0EF76EF4EC15F00E
:1009FC007C0E976F030E986F010E1A6F9DEC0CF026
:100A0C00C1C382F0010E1A6FBFEC0CF013EE7CF038
:100A1C008A0EF66E2C0EF76EF4EC15F07C0E976FBA
:100A2C00030E986F010E1A6F9DEC0CF0C2C382F08E
:100A3C00010E1A6FBFEC0CF013EE7CF08A0EF66E02
:100A4C002C0EF76EF4EC15F07C0E976F030E986F6E
:100A5C00010E1A6F9DEC0CF0C3C382F0010E1A6FDD
:100A6C00BFEC0CF00301D56BD589B66B280EB76FB4
:100A7C00500ED46F100ED56F200ED66FD76BDC6B6B
:100A8C00DD6BDE6BDF6BE06BE16B0001A2D9A6ECDA
:100A9C000AF00301B66B280EB76F3C0E0001776F9E
:100AAC00786BD2EC0BF03C0E776F786B57DB010E4A
:100ABC000D6F010EAC6FAD6B91B303D0C9EC0DF0A3
:100ACC0002D0DCEC0EF012009488949A9496929AD0
:100ADC0095948B9A8B96899A898A050E9A6F8C8439
:100AEC00140E026E036AA4EC00F08C94140E026EC9
:100AFC00036AA4EC00F08C84140E026E036AA4EC5E
:100B0C0000F09A2FECD7899A0B0E856F846B4AEC08
:100B1C0015F087696AEC0CF0630E696F1D0E0E6F91
:100B2C00F7EC09F0010E1E15A36FA3C005F0010E22
:100B3C00096E7AEC15F0001E00B0F0D71F0E0E6F88
:100B4C00C00E206F41EC0CF01E0E0E6F800E206F4D
:100B5C0041EC0CF01C0E0E6F206B41EC0CF01B0EDC
:100B6C000E6FC10E206F41EC0CF0360E0E6F206B29
:100B7C0041EC0CF0370E0E6F206B41EC0CF0040EB8
:100B8C000E6F700E206F41EC0CF0050E0E6F160EF2
:100B9C00206F41EC0CF0060E0E6F206941EC0CF04E
:100BAC00070E0E6F1F0E206F41EC0CF0080E0E6F2F
:100BBC00206B41EC0CF0090E0E6F206B41EC0CF02D
:100BCC000A0E0E6F6E0E206F41EC0CF00B0E0E6FBA
:100BDC00160E206F41EC0CF00E6B206B41EC0CF000
:100BEC00010E0E6F206B41EC0CF00C0E0E6F206B97
:100BFC0041EC0CF00D0E0E6F206B41EC0CF06F6B9A
:100C0C00716B380E0E6F200E206F41EC0CF0770ECE
:100C1C000E6F206B41EC0CF0750E0E6F206B41ECDF
:100C2C000CF0670E0E6F206B41EC0CF01D0E0E6F6E
:100C3C00D8DB010E1E15A36FA3C005F0010E096EC3
:100C4C007AEC15F0001E00B0F1D7EA0E0E6F206B97
:100C5C0041EC0CF0D20E0E6F206B41EC0CF0C00E80
:100C6C000E6F0D0E206F41EC0CF0C20E0E6F320E9B
:100C7C00206F41EC0CF0C30E0E6F010E206F41EC97
:100C8C000CF0CA0E0E6FEE0E206F41EC0CF0CB0E7A
:100C9C000E6F050E206F41EC0CF0C40E0E6F120E91
:100CAC00206F41EC0CF0C60E0E6F120E206F41EC53
:100CBC000CF0C70E0E6F0C0E206F41EC0CF0E10E19
:100CCC000E6F020E9525E96E000E9621EA6EEFCF9F
:100CDC0020F041EC0CF0E00E0E6F010E9525E96E44
:100CEC00000E9621EA6EEFCF20F041EC0CF0E30EF3
:100CFC000E6F040E9525E96E000E9621EA6EEFCF6D
:100D0C0020F041EC0CF0E20E0E6F030E9525E96E0F
:100D1C00000E9621EA6EEFCF20F041EC0CF0E50EC0
:100D2C000E6F060E9525E96E000E9621EA6EEFCF3A
:100D3C0020F041EC0CF0E40E0E6F050E9525E96EDB
:100D4C00000E9621EA6EEFCF20F041EC0CF0796B9F
:100D5C00216B226B20EC0CF0100E796F216B226B47
:100D6C0020EC0CF0140E796F040E216F760E226FAE
:100D7C0020EC0CF0120E796F216B226B20EC0CF036
:100D8C001F0E0E6F140E206F41EC0CF0140E796FC9
:100D9C00760E216F040E226F20EF0CF003EE5DF047
:100DAC00060EEE6EEE6AEE6AEE6AEE6AEE6AEE6AB7
:100DBC0003EE58F0040EEE6EEE6AEE6AEE6AEE6A20
:100DCC00500E4E6F576B596B686B010EAC6FAD6B61
:100DDC001200606B0F0E0301B4150001556F020E6B
:100DEC00A06FD8905537A02FFCD7606B656B0F0E9A
:100DFC00B96F0E0E5525A76FA86BD8B0A82B010E96
:100E0C00A75DBA6F000EA859BB6F0301BE6BBF6B19
:100E1C000001E7EC01F0BCC0BEF3BDC0BFF3120093
:100E2C001C0E0E6FDEDA400E1E151F6F400E1F5D7E
:100E3C00D8B403D030EF00F01200720E0E6FD1DA7E
:100E4C001EC01DF0010E276F296B0E6B6FC020F0BA
:100E5C0041EC0CF0010E0E6F71C020F041EC0CF067
:100E6C00272BD8B4292B27C005F029C006F0096A16
:100E7C000A6A7FEC15F000B01ED00E6BB2DA1EC001
:100E8C0092F0010E0E6FADDA92C005F06FC009F052
:100E9C007AEC15F0001E00C0A3F01EC005F071C066
:100EAC0009F07AEC15F0001E00C0A7F0A351A711B1
:100EBC00A96FA9B1CAD7060E256F266B25DAA6C372
:100ECC006FF0716BA7C371F0A8C32AF02C6BA9C388
:100EDC002CF0AAC37FF0ABC380F02AC025F02CC045
:100EEC0026F012DA010E276F296B0E6B6FC020F003
:100EFC0041EC0CF0010E0E6F71C020F041EC0CF0C7
:100F0C00272BD8B4292B27C005F029C006F0096A75
:100F1C000A6A7FEC15F000A017D013EE7CF08C0E53
:100F2C00F66E2C0EF76EF4EC15F07C0E976F030E2C
:100F3C00986F010E1A6F9DEC0CF0010E3A6F010EBA
:100F4C001A6FA7EC0DF01ED00E6B4BDA1EC092F090
:100F5C00010E0E6F46DA92C005F06FC009F07AEC04
:100F6C0015F0001E00C0A3F01EC005F071C009F002
:100F7C007AEC15F0001E00C0A7F0A351A711A96FC1
:100F8C00A9B1B3D7010E6F15A36FA46BA3C005F065
:100F9C00A4C006F0096A0A6A7FEC15F000A006D01E
:100FAC00010E6F5D276F000E7159296F0C0E0E6FBD
:100FBC0027C020F041EC0CF00D0E0E6F29C020F074
:100FCC0041EC0CF01E0E0E6F400E206F16EC01F073
:100FDC00080E0301B25DD8A4BFD0060EB35DD8A431
:100FEC0019D0BA53D8A416D0BB05D8A413D05951D4
:100FFC00CC5DD8A40FD05A51CD5DD8A40BD05B5189
:10100C00CE5DD8A407D05C51CF5DD8A403D000012D
:10101C00B2EC00F00301B353D8A49ED0450EB45DDE
:10102C00D8A49AD0BAC305F0096A00017AEC15F07D
:10103C0000C0A7F0BAC305F0400E096E7AEC15F0AB
:10104C00A7510010A96FA9A187D003015951C45D04
:10105C00D8A482D05A51C55DD8A47ED05B51C65D50
:10106C00D8A47AD05C51C75DD8A476D0BD05D8A4DD
:10107C0008D0080EC85DD8A404D089800001D8D847
:10108C008990110E0301BD5DD8A457D0CAC305F0D9
:10109C00066A096A010E0A6E0001E3EC15F000C045
:1010AC00A3F001C0A4F00301CB510001A325B76F3D
:1010BC00000EA421B86F56DBB7C005F0B8C006F01F
:1010CC00070E096E0A6A7FEC15F000A036D0E7D93E
:1010DC00C8C305F0CAC309F073EC15F005C0C8F31A
:1010EC0009C0CAF3C9C305F0CBC309F073EC15F002
:1010FC0005C0C9F309C0CBF330DBCCC305F0066ADD
:10110C00096A010E0A6EE3EC15F000C041F001C053
:10111C0043F00301CD5100014127000E4323220E61
:10112C004127000E432341C077F043C078F034DBF5
:10113C0041C077F043C078F011D8060E0301BD5DB5
:10114C00D8A40AD0CA53D8A407D0500ECB5DD8A4CB
:10115C0003D0000181EC02F0000112001F0E0E6F93
:10116C00800E206F16EC01F01F0E0E6F800E206F9C
:10117C00EAEC00F01C0E0E6F020E206FEAEC00F091
:10118C001F0E0E6F2ED9080E1E15A76FA7C005F0E7
:10119C00080E096E7AEC15F000B0F2D7700E7725B8
:1011AC00416F160E7821436F060E0E6F41C020F072
:1011BC0062DB070E0E6F43C020F05DDB1C0E0E6F62
:1011CC00080E206F16EC01F01B0E0E6F080E206F30
:1011DC00EAEC00F01F0E0E6F080E206F16EC01F0FB
:1011EC001F0E0E6FFED8080E1E15A76FA7C005F0B8
:1011FC00080E096E7AEC15F000B0F2D71200ACC3F1
:10120C00A6F3ADC3A7F3AEC3A8F3AFC3A9F3B0C3A2
:10121C00AAF3B1C3ABF35EC3ACF35FC3ADF360C36E
:10122C00AEF361C3AFF362C3B0F363C3B1F31200A7
:10123C0059C0B8F357C0B9F3572BD8B4592B41D96F
:10124C000301BE6BBF6B0F0E0001886F896B210E03
:10125C00236F246B190E7D6F7E6B42EC01F0030142
:10126C00C86BCA6BCB6BB6C376F0B7C374F00D0EFC
:10127C0000017427000E7623230E886F896B74C0CF
:10128C0023F076C024F0250E7D6F7E6B42EC01F0CE
:10129C00742BD8B4762B74C077F076C078F07CDAE7
:1012AC0074C077F076C078F059D7390E0E6F99D894
:1012BC001E510008D8B005D0580E6D6F020E6E6F1F
:1012CC00AFDD1C0E0E6F8DD81EC0A3F0A3A11BD0DA
:1012DC0013EE7CF0A60EF66E2C0EF76EF4EC15F0F9
:1012EC007C0E976F030E986F010E1A6F20DB010EA8
:1012FC003A6F010E1A6FA7EC0DF01C0E0E6F010E5B
:10130C00206FEAEC00F01200899AC69E3A0EC96E64
:10131C00C7A0FED7C9CFB5F0276B296B010E096E9C
:10132C000A6A25C005F026C006F08DEC15F000B059
:10133C0026D0272BD8B4292B27C009F029C00AF0B6
:10134C00580E056E020E066E8DEC15F000B017D01F
:10135C00C96AC7A0FED703EEA5F02751E92629518B
:10136C00EA22C9CFEFFF27C005F029C006F025C03F
:10137C0009F026C00AF08DEC15F000B0DAD725C0C4
:10138C0009F026C00AF0580E056E020E066E8DECA2
:10139C0015F000A024D0580E276F020E296F590E9D
:1013AC00096E020E0A6E25C005F026C006F08DEC03
:1013BC0015F000B014D0272BD8B4292BC96AC7A0BC
:1013CC00FED7C9CFB5F027C005F029C006F025C05F
:1013DC0009F026C00AF08DEC15F000B0ECD7898A24
:1013EC001200600E0E15116F050E9B6FD890113305
:1013FC009B2FFCD71151695DD8B410D01F0E0E1560
:10140C00A36FA3C009F01B0E056E88EC15F0001E2F
:10141C0000A002D01ED802D011C069F0899AC69ED5
:10142C001F0E0E15A36FA3C0C9FFC7A0FED7C9CF4F
:10143C00B5F0C69EB5C0C9FFC7A0FED7C9CFB5F0E1
:10144C00C69EB5C0C9FFC7A0FED7C9CF1EF0898AFA
:10145C001200899ABF0E876F37DA030E876F34DA62
:10146C00898A899A9F0E876F2FDA1105D8A404D028
:10147C00010E876F29DA0FD0020E115DD8A404D0AB
:10148C00020E876F21DA07D0030E115DD8A403D0AA
:10149C00030E876F19DA898A11C069F01200C0C374
:1014AC00C4F3C1C3C5F3C2C3C6F3C3C3C7F359C3A3
:1014BC00C0F35AC3C1F35BC3C2F35CC3C3F313D809
:1014CC0088D4C0C3C4F3C1C3C5F3C2C3C6F3C3C37A
:1014DC00C7F359C3C0F35AC3C1F35BC3C2F35CC3B4
:1014EC00C3F301D876D4456B452B03EEA5F0060E5D
:1014FC00E924A36F000EEA20A46F4551A325E96EE1
:10150C00000EA421EA6EEFCF90F090C08FF003EEA6
:10151C00A5F04551E926000EEA228FC0EFFF060E1A
:10152C00455DD8A0E1D75EC3ACF35FC3ADF360C338
:10153C00AEF361C3AFF362C3B0F363C3B1F3120094
:10154C000301D86BD96B0001606B616B646B636BCF
:10155C00C0C35FF0C1C35DF060515D24606F615129
:10156C005F20616FA96B6451A921646FA36B6351F8
:10157C00A321636FC2C35FF0C3C35DF060515D24F0
:10158C00606F61515F20616FA96B6451A921646F19
:10159C00A36B6351A321636FC4C35FF0C5C35DF03C
:1015AC0060515D24606F61515F20616FA96B645164
:1015BC00A921646FA36B6351A321636FC6C35FF052
:1015CC00C7C35DF060515D24606F61515F20616F36
:1015DC00A96B6451A921646FA36B6351A321636F41
:1015EC000301BD5100016027000E6123000E64232E
:1015FC00000E63230F0E0301B4155D6E5F6A5DC0B0
:10160C0005F05FC006F0040E096E0A6A0001E3ECF7
:10161C0015F000C05DF001C05FF05D50605F5F5081
:10162C00615B000E645B000E635BB6C35FF0B7C317
:10163C005DF060515D24606F61515F20616FA96B3B
:10164C006451A921646FA36B6351A321636F5DC0C7
:10165C0005F05FC006F0020E096E0A6AAFEC15F0D9
:10166C0000C065F0230E5D24A76F000E5F20A86FED
:10167C00160EA75D416F000EA859436F656B0301F1
:10168C00CDA102D00001652B00016505D8A412D0B4
:10169C00412BD8B4432B03EEA5F04151E924A76F9D
:1016AC004351EA20A86F010EA725E96E000EA82170
:1016BC00EA6EEF6A210E666F676B230E096E0A6A7B
:1016CC0041C005F043C006F08DEC15F000B036D0EB
:1016DC00020E6627000E672303EEA5F06651E9267D
:1016EC006751EA22EFCF5FF003EEA5F06651E924D3
:1016FC00A76F6751EA20A86F010EA725E96E000EAF
:10170C00A821EA6EEFCF5DF060515D24606F6151EE
:10171C005F20616FA96B6451A921646FA36B635146
:10172C00A321636F66C005F067C006F041C009F0E5
:10173C0043C00AF08DEC15F000B0CAD760C05DF064
:10174C0061C05FF064515D27000E5F235D1F5F1F5A
:10175C005FC0D8F35DC0D9F312000301CE6BCF6B21
:10176C0000011200B7C005F0B8C006F0700E096E8B
:10177C00170E0A6E7FEC15F000A001D00CD0B7C08C
:10178C0005F0B8C006F0880E096E130E0A6E7FECD9
:10179C0015F000A000D01200020E0E6F700E206F1C
:1017AC006AD8030E0E6F160E206F65D8899AC69EE6
:1017BC007A0EC96EC7A0FED7C9CFB5F00E0EC96E92
:1017CC00C7A0FED7C9CFB5F0276B296B010E096EE8
:1017DC000A6A77C005F078C006F08DEC15F000B001
:1017EC0027D0272BD8B4292B27C009F029C00AF001
:1017FC00580E056E020E066E8DEC15F000B018D06A
:10180C0003EEA5F02751E9262951EA22EFCFC9FFB3
:10181C00C7A0FED7C9CFB5F027C005F029C006F088
:10182C0077C009F078C00AF08DEC15F000B0D9D76C
:10183C00898A1200EA0E0E6FD4DDD40E0E6F79C0B9
:10184C0020F019D8D60E0E6F21C020F014D8D70E68
:10185C000E6F22C020F00FD8EA0E0E6FC2DD010E03
:10186C001E15A36FA3C005F0010E096E7AEC15F0DE
:10187C0000B0F2D71200600E0E15116F050E9C6FA2
:10188C00D89011339C2FFCD71151695DD8B40DD071
:10189C001F0E0E15A36FA3C009F01B0E056E88EC6E
:1018AC0015F0001E00B0D5DD02D011C069F0899A88
:1018BC001F0E0E15A36F400EA311876F05D820C005
:1018CC0087F002D8898A1200C69E87C0C9FFC7A0BC
:1018DC00FED7C790C9CF86F0120072C0A2F0A253F7
:1018EC00D8B407D0D89009360A360B360C36A22F4E
:1018FC00F9D709C032F00AC033F00BC034F00CC079
:10190C0035F0120072C0A1F0A153D8B407D0D89012
:10191C000C320B320A320932A12FF9D709C036F03A
:10192C000AC037F00BC038F00CC039F0120097C069
:10193C00E9FF98C0EAFFEFCF7CF07C53D8B418D005
:10194C00996B010E7C5DD8A013D0992B99519725DA
:10195C00E96E000E9821EA6EEFCF81F00AD9010EE4
:10196C00026E036AA4EC00F07C51995DD8A0EDD70F
:10197C001200736B640E825DD8A013D082C005F088
:10198C00640E096E9BEC15F005C073F000C082F07C
:10199C00300E7325816FEDD8010E026E036AA4EC34
:1019AC0000F073C009F0056A88EC15F000C0A9F0CE
:1019BC0082C005F00A0E096E88EC15F0001EA951C4
:1019CC000010A36FA3A113D082C005F00A0E096EFC
:1019DC009BEC15F005C073F000C082F0300E73253F
:1019EC00816FC7D8010E026E036AA4EC00F0300EB2
:1019FC008225816FBED8010E026E036AA4EF00F03F
:101A0C00736B82C005F083C006F0100E096E270EB2
:101A1C000A6E8DEC15F0001E00A01AD082C005F0E5
:101A2C0083C006F0100E096E270E0A6EAFEC15F08F
:101A3C0005C073F000C082F001C083F0300E732536
:101A4C00816F97D8010E026E036AA4EC00F00DD0E2
:101A5C0082C005F083C006F0E80E096E030E0A6E14
:101A6C008DEC15F0001E00A01AD082C005F083C0CA
:101A7C0006F0E80E096E030E0A6EAFEC15F005C009
:101A8C0073F000C082F001C083F0300E7325816FBB
:101A9C0070D8010E026E036AA4EC00F00CD082C068
:101AAC0005F083C006F0640E096E0A6A8DEC15F021
:101ABC00001E00A019D082C005F083C006F0640E91
:101ACC00096E0A6AAFEC15F005C073F000C082F025
:101ADC0001C083F0300E7325816F4BD8010E026E5E
:101AEC00036AA4EC00F00CD082C005F083C006F0B1
:101AFC000A0E096E0A6A8DEC15F0001E00A018D0B3
:101B0C0082C005F083C006F00A0E096E0A6AAFECBB
:101B1C0015F005C073F000C082F001C083F0300EE8
:101B2C007325816F26D8010E026E036AA4EC00F0B7
:101B3C00300E8225816F1DD8010E026E036AA4EF50
:101B4C0000F03AC09DF09D53D8B412D00D0E816FA9
:101B5C0010D8010E026E036AA4EC00F00A0E816F1D
:101B6C0008D8010E026E036AA4EC00F09D2FEED78C
:101B7C0012001A05D8A406D09EA8FED79EA8FED7A0
:101B8C0081C0ADFF120091AB0FD10301B653D8A4A5
:101B9C000BD1280EB75DD8A407D100010D05D8A430
:101BAC0003D113EE7CF0B40EF66E2C0EF76EF4EC43
:101BBC0015F07C0E976F030E986F010E1A6FB7DE3F
:101BCC00010E3A6F010E1A6FBCDF370E0F6F106BE0
:101BDC0013EE7CF0C20EF66E2C0EF76EF4EC15F0D4
:101BEC007C0E976F030E986F010E1A6FA0DEACC0BF
:101BFC0082F0ADC083F0010E1A6F02DF010E3A6F56
:101C0C00010E1A6F9EDFACC005F0ADC006F0010EE0
:101C1C00096E0A6A7FEC15F000A011D03F6BC3D996
:101C2C0013EE7CF0420EF66E2C0EF76EF4EC15F003
:101C3C007C0E936F030E946F010E3E6F37D9276B9A
:101C4C0013EE6FF0420EF66E2C0EF76EF4EC15F0F0
:101C5C00010EAC5DAA6F000EAD59AB6FACC009F0B4
:101C6C00ADC00AF0230E056E050E066E8DEC15F058
:101C7C0000B051D0AA2BD8B4AB2B272B03EE6FF0AE
:101C8C002751E926000EEA22AAC007F0ABC008F0E3
:101C9C0002DBEF6E27C06FF327C005F00C0E096E48
:101CAC009BEC15F000C027F02753D8A428D06F0E5A
:101CBC00936F030E946F3E6BF9D83F05D8A417D0E1
:101CCC0013EE7CF0D60EF66E2C0EF76EF4EC15F0CF
:101CDC007C0E976F030E986F010E1A6F28DE0B0E99
:101CEC00AA5DAC6F000EAB59AD6F3F6B120013EEDB
:101CFC006FF0420EF66E2C0EF76EF4EC15F0AAC0D7
:101D0C0005F0ABC006F0230E096E050E0A6E8DECC5
:101D1C0015F000B0AFD72753D8B42DD003EE6FF029
:101D2C002751E926000EEA22AAC007F0ABC008F042
:101D3C00B2DAEF6E27C06FF36F0E936F030E946FD2
:101D4C003E6BB4D83F05D8A416D013EE7CF0E20E4F
:101D5C00F66E2C0EF76EF4EC15F07C0E976F030EEE
:101D6C00986F010E1A6FE3DD010EAA5DAC6F000EC9
:101D7C00AB59AD6F120013EE7CF0EE0EF66E2C0E1E
:101D8C00F76EF4EC15F07C0E976F030E986F010E46
:101D9C001A6FCDDD3D6917D913EE6FF0380EF66E64
:101DAC002C0EF76EF4EC15F00001120091AB7DD007
:101DBC0091A37BD013EE7CF0FA0EF66E2C0EF76E20
:101DCC00F4EC15F07C0E976F030E986F010E1A6FE2
:101DDC00AEDD010E3A6F010E1A6FB3DE0301D56B47
:101DEC00D589C0C3C4F3C1C3C5F3C2C3C6F3C3C34F
:101DFC00C7F359C3C0F35AC3C1F35BC3C2F35CC38B
:101E0C00C3F3C9C305F0CBC309F0000173EC15F0A3
:101E1C0005C0C9F309C0CBF3C8C305F0CAC309F0A8
:101E2C0073EC15F005C0C8F309C0CAF305EC09F052
:101E3C00CCC317F0CDC319F0CEC318F0CFC313F039
:101E4C00D3C3CFF3D2C3CEF3D1C3CDF3D0C3CCF332
:101E5C00132B13C0D3F318C0D2F319C0D1F317C08E
:101E6C00D0F30301B66B280EB76F500ED46F100E63
:101E7C00D56FD66B720ED76FDC6BDD6BDE6BDF6BE9
:101E8C00E06BE16B0001EFEC06F0A6EC0AF003014D
:101E9C00B66B280EB76F3C0E0001776F786B7CDC4D
:101EAC003C0E776F786BB4EC08F0120093C0E9FF2E
:101EBC0094C0EAFFEF500F25A76F000E1021A86FFA
:101ECC00060EA725416F000EA821436F41C009F0F3
:101EDC0043C00AF0580E056E020E066E8DEC15F01E
:101EEC0000A020D0010E3A6F010E1A6F2ADE13EEFD
:101EFC007CF0120EF66E2D0EF76EF4EC15F07C0ED7
:101F0C00976F030E986F010E1A6F11DD010E3A6F69
:101F1C00010E1A6F16DE3D6B56D8370E0F6F106B15
:101F2C00010E3F6F1B6B93C0E9FF94C0EAFF010EDB
:101F3C00EF5CD8A01ED01B2B1B519325E96E000E15
:101F4C009421EA6EEFCF8FF08FC090F003EEA5F0E6
:101F5C000F51E9261051EA2290C0EFFF0F2BD8B495
:101F6C00102B93C0E9FF94C0EAFFEF501B5DD8A083
:101F7C00E2D73E05D8A416D003EEA5F00F51E92602
:101F8C001051EA220D0EEF6E0F2BD8B4102B03EE6E
:101F9C00A5F00F51E9261051EA220A0EEF6E0F2B15
:101FAC00D8B4102B120013EE7CF0020EF66E2D0E30
:101FBC00F76EF4EC15F07C0E936F030E946F010E1C
:101FCC003E6F74DF12000301D56BD58900013D29EA
:101FDC00D8A466D00301D587D58103EEA5F0000106
:101FEC000F51E9261051EA220D0EEF6E0F2BD8B4CB
:101FFC00102B03EEA5F00F51E9261051EA220A0E20
:10200C00EF6E0F2BD8B4102B03EEA5F00F51E92671
:10201C001051EA220D0EEF6E0F2BD8B4102B03EEDD
:10202C00A5F00F51E9261051EA220A0EEF6E0F2B84
:10203C00D8B4102B010E0F5F000E105B0FC005F013
:10204C0010C006F0020E096E0A6AAFEC15F000C063
:10205C00A7F001C0A8F0A7C005F0A8C006F0096A57
:10206C000A6A7FEC15F000A019D013EE7CF0240E58
:10207C00F66E2D0EF76EF4EC15F07C0E976F030ECA
:10208C00986F010E1A6F53DC0F2BD8B4102B03EE84
:10209C00A5F00F51E9261051EA22EF6A0D6B07D01B
:1020AC00010E0F5F000E105B0301D597D591010E49
:1020BC0000013A6F010E1A6F44DD13EE7CF02C0E0A
:1020CC00F66E2D0EF76EF4EC15F07C0E976F030E7A
:1020DC00986F010E1A6F2BDCC0C382F0010E1A6FC1
:1020EC0048DC13EE7CF04E0EF66E2C0EF76EF4EC14
:1020FC0015F07C0E976F030E986F010E1A6F17DC9C
:10210C00C1C382F0010E1A6F34DC13EE7CF04E0E5C
:10211C00F66E2C0EF76EF4EC15F07C0E976F030E2A
:10212C00986F010E1A6F03DCC2C382F0010E1A6F96
:10213C0020DC13EE7CF04E0EF66E2C0EF76EF4ECEB
:10214C0015F07C0E976F030E986F010E1A6F9DECB5
:10215C000CF0C3C382F0010E1A6F0BDC010E3A6F48
:10216C00010E1A6FEEDC47C0D3F34CC0D2F34DC056
:10217C00D1F34BC0D0F30E0E0F5DB26F000E1059A1
:10218C00B46F090E816F010E1A6FF3DC13EE7CF045
:10219C00320EF66E2D0EF76EF4EC15F07C0E976F7A
:1021AC00030E986F010E1A6F9DEC0CF00E0EB225FB
:1021BC00826F000EB421836F010E1A6F21DC13EEB7
:1021CC007CF03A0EF66E2D0EF76EF4EC15F07C0EDC
:1021DC00976F030E986F010E1A6F9DEC0CF0280E82
:1021EC00B25D826F000EB459836F010E1A6F08DC5A
:1021FC0013EE7CF0460EF66E2D0EF76EF4EC15F029
:10220C007C0E976F030E986F010E1A6F9DEC0CF0FD
:10221C00580EB25D826F000EB459836F010E1A6FA7
:10222C0006EC0DF0010E3A6F010E1A6F8ADCB4C089
:10223C00B6F3B2C0B7F3EFEC06F0A6EC0AF00E0E54
:10224C00B225776F000EB421786FD2EC0BF00E0E26
:10225C00B225776F000EB421786FB4EF08F0E06A06
:10226C00F86AC09EC290C186C184C182C180070E2B
:10227C00B46E806A816A826A836A846A1200010E73
:10228C001A6F2A0EAF6EB06AB886AC84AC98AB8E5F
:10229C00AB88AC8A120007C005F008C006F0240E0B
:1022AC00096E050E0A6E8DEC15F000A0000C07509F
:1022BC00D00FF66E220ED8B0010F0824F76E08006E
:1022CC00F5501200233C21444F435459504520688B
:1022DC00746D6C205055424C494320222D2F2F57A2
:1022EC0033432F2F4454442048544D4C20342E302B
:1022FC0031205472616E736974696F6E616C2F2F2B
:10230C00454E223E3C68746D6C3E3C686561643E93
:10231C003C7469746C653E3C2F7469746C653E3C0E
:10232C007374796C6520747970653D22746578746A
:10233C002F637373223E7370616E2E6337207B663E
:10234C006F6E742D66616D696C793A2068656C7678
:10235C0065746963617D7370616E2E6336207B6674
:10236C006F6E742D73697A653A203730257D696DEF
:10237C00672E6335207B666C6F61743A20726967D7
:10238C0068743B7D6469762E6334207B7465787445
:10239C002D616C69676E3A2063656E7465727D7031
:1023AC002E6333207B666F6E742D66616D696C795C
:1023BC003A2068656C7665746963617D7374726FBD
:1023CC006E672E6332207B746578742D6465636F41
:1023DC00726174696F6E3A20756E6465726C696EA9
:1023EC00657D7370616E2E6331207B636F6C6F72D1
:1023FC003A20233030303046463B20666F6E742DC9
:10240C0073697A653A20313530257D3C2F737479A8
:10241C006C653E3C2F686561643E3C626F64793E3E
:10242C003C64697620636C6173733D226334223E95
:10243C003C7020636C6173733D226333223E3C61BC
:10244C00207461726765743D225F626C616E6B22F1
:10245C0020687265663D22687474703A2F2F736F12
:10246C0075726365666F7267652E6E65742F702F5B
:10247C0067636261736963223E3C7374726F6E674B
:10248C0020636C6173733D226332223E3C73706136
:10249C006E20636C6173733D226331223E4772651B
:1024AC00617420436F772042415349432054435079
:1024BC002F495020537461636B3C2F7370616E3ED7
:1024CC003C2F7374726F6E673E3C2F613E3C2F70D5
:1024DC003E3C2F6469763E3C7370616E206F6E6378
:1024EC006C69636B3D22746869732E7374796C65C7
:1024FC002E636F6C6F72203D2027626C75652722EE
:10250C0020636C6173733D226337223E3C62723EE2
:10251C003C62723E54686973207061676520697310
:10252C00207365727665642062792061204743428E
:10253C00204854545020B55365727665722E303352
:10254C00352066726F6D2061203136463138383552
:10255C0035204D6963726F63686970206D696372B1
:10256C006F636F6E74726F6C6C6572207573696ECD
:10257C006720616E20454E4332384A363020457410
:10258C006865726E657420636F6E74726F6C6C65C7
:10259C00722E3C62723E3C62723E546869732070CB
:1025AC00616765206F662048544D4C206974206922
:1025BC0073206265696E672070726F6365737365F3
:1025CC0064206173206D756C7469706C6520544364
:1025DC00502048544D4C207061636B6574732C20F3
:1025EC006173207468652048544D4C206578636590
:1025FC006564732074686520206D656D6F72792039
:10260C006275666665722E20546865206D656D6F07
:10261C007279206275666665722069732036303077
:10262C0020627974657320616E642074686520483B
:10263C00544D4C206973206F7665722031323030E6
:10264C002062797465732E20536F2C207765206D72
:10265C007573742062652070617373696E67206D89
:10266C006F7265207468616E206F6E6520544350E4
:10267C00207061636B657420746F20636F6E73746C
:10268C0072756374207468652048544D4C207472C4
:10269C00616E73616374696F6E2E3C62723E3C6254
:1026AC00723E546869732070616765206973206895
:1026BC00656C642061732061207461626C652077A5
:1026CC00697468696E20746865204772656174204E
:1026DC00436F7720424153494320736F7572636592
:1026EC002066696C65206173207468697320776952
:1026FC006C6C206265207468652064656661756C1D
:10270C0074207765622070616765206D6574686FF1
:10271C00642E3C62723E3C62723E4F706572617414
:10272C00696E67206F6E206465766963655F313909
:10273C00325F3136385F305F333C62723E3C6272DE
:10274C003E3C696D6720636C6173733D2263352277
:10275C00207372633D22687474703A2F2F676F6F09
:10276C002E676C2F31566838764D2220616C743D83
:10277C0022416E6F6269756D2773204C6F676F22F3
:10278C003E3C62723E3C62723E3C7370616E206FE6
:10279C006E636C69636B3D22746869732E73747914
:1027AC006C652E636F6C6F72203D202772656427F9
:1027BC002220636C6173733D226336223E40526566
:1027CC006C203033352E30313C62723E3C2F7370AE
:1027DC00616E3E3C2F7370616E3E3C2F626F64796C
:1027EC003E3C2F68746D6C3E07C005F008C006F0C7
:1027FC00730E096E020E0A6E8AD900A0000C0750E7
:10280C00200FF66E280ED8B0010F0824F76E0800C2
:10281C00F550120005000000000000000000000050
:10282C00000000000000000000000000000000009C
:10283C00000000000000000000000000000000008C
:10284C00000000000000000000000000000000007C
:10285C00000000000000000000000000000000006C
:102A8C00000000000000FF00C69AC79EC79C84A1EE
:102A9C00C78CC69884B3C688C696C694C692C69090
:102AAC000D0E855DD8A401D016D00C0E855DD8A472
:102ABC0002D0C68010D00B0E855DD8A402D0C68281
:102ACC000AD08553D8A403D0C684C68004D085050B
:102ADC00D8A401D0C684C68A120005C000F009C073
:102AEC0005F000C009F01200006809500562006A88
:102AFC001200006A0950056212000A5006621200A8
:102B0C0000681200006809500560006A1200006A33
:102B1C0006500A5CD8A012000A50065C04E3095067
:102B2C00055CD8B01200001E12000952D8B4120075
:102B3C00006A080E046ED890053600360950005E07
:102B4C000580D8B003D0059009500026042EF3D789
:102B5C00120005C007F006C008F009C00BF00AC04F
:102B6C000CF0026A036A0BC005F00CC006F0096A8F
:102B7C000A6ABFDF00A003D0056A066A1200100EB5
:102B8C00046ED89007360836023603360B50025EB8
:102B9C000C50035A0780D8B005D007900B50022672
:102BAC000C500322042EEDD707C005F008C006F028
:102BBC0002C000F003C001F0120005500902F3CF6F
:102BCC0000F0F4CF01F005500A02F3500126065034
:102BDC000902F350012606520A0212000900F5CF31
:102BEC0005F0F5CFE7FF04D00900F550056E062679
:102BFC000552D8B412000900F5CFE4FF052EFBD71F
:102C0C0012001C454E4332386A36302045746865D4
:102C1C00726E6574204472697665722030333500AB
:102C2C000B496E697469616C6973656409696E64DA
:102C3C0065782E68746D0000012106466C6167731F
:102C4C003A00012C0446494E20000453594E2000F2
:102C5C000452535420000450534820000441434B69
:102C6C002000085443505F55524720000873796E7A
:102C7C00262166696E000761636B26707368012EEE
:102C8C0019233245524450544C20616E64204552F5
:102C9C0044505448206572726F720D4275666665B9
:102CAC0072204F766572756E0D61636B2661636B76
:102CBC00707573683D31125461626C655374617246
:102CCC0074506F696E74203D20000A6578697469D0
:102CDC006E67403120000A65786974696E6740320E
:102CEC0020000A4854545053656E64403300076109
:102CFC00636B2666696E0F485454502F312E30206A
:102D0C00323030204F4B10656D70747920746865CB
:102D1C0020627566666572000720205041442120B0
:102D2C000553656E643A07422F576972653A0A2C4F
:102D3C002054435020506B743A00072C2048544DBB
:022D4C004C3AFF
:020000040030CA
:0600010002181EFF8180C1
:060008000FC00FE00F40E5
:00000001FF
