:020000020000FC
:0200000033C00B
:0200040018954D
:02000800189549
:02000C00189545
:02001000189541
:0200140018953D
:02001800189539
:02001C00189535
:02002000189531
:0200240018952D
:02002800189529
:02002C00189525
:02003000189521
:0200340018951D
:02003800189519
:02003C00189515
:0200400083C279
:0200440018950D
:02004800189509
:02004C00189505
:02005000189501
:020054001895FD
:020058001895F9
:02005C001895F5
:020060001895F1
:020064001895ED
:1000680058E05EBF5FEF5DBF1FD231D241D146D2AB
:1000780078945CE05093600153D050E0509369014C
:1000880050936A0150E050935D0150935E0152E035
:100098005093640151E050935C01E1D1C0E0D1E09C
:1000A800EAEDFDE06ED650E050938C0151E050939C
:1000B8008D0151E050935C011FD151E050936401D0
:1000C80051E050935C01CBD109D376D23DD2509107
:1000D8006B0150935D0150916C0150935E01A090AB
:1000E8005D0140906901A4186A2CA0905E014090BF
:1000F8006A01A4087A2C662D772DC8E8D3E1C2D40A
:10010800009400FE0AC0EAD257D250915D01509384
:10011800690150915E0150936A01D8CF8895FECF4E
:10012800609160016C3031F450E05093B90058E4AC
:100138005093B80060916001662301F454E0509335
:10014800BC0050E05093630108955090610150FC49
:1001580007C05091BC0050685F785093BC0006C03F
:100168005091BC005F7C506C5093BC0000000000B4
:100178005090BC0057FC01C0FBCF5091BB0050937E
:10018800680108955091BC00546A5093BC00509087
:10019800BC0057FC01C0FBCF08EF4090B9004022DB
:1001A8004092680160916801683019F493D00AC0E0
:1001B80001C090D060916801603119F48BD002C001
:1001C80001C088D00895509168015093BB0054E84D
:1001D8005093BC00000000005090BC0057FC01C0C8
:1001E800FBCF08EF4090B9004022409268015FEFD2
:1001F80050935F0160916801683009F438C06091DC
:100208006801683121F450E050935F0130C060917B
:100218006801683221F450E050935F0128C0609172
:100228006801603221F45FEF50935F0120C0609154
:100238006801603321F45FEF50935F0118C060914B
:100248006801683421F45FEF50935F0110C060913A
:100258006801603421F450E050935F0108C0609158
:100268006801683521F45FEF50935F0100C032C028
:1002780060916001662321F45CE05093600150DFD7
:100288005091BC00546A5093BC005090BC0057FC7D
:1002980001C0FBCF08EF4090B900402240926801AE
:1002A80060916801683011F415D001C013D0089529
:1002B8005091BC0054695093BC000895E395AEEF8B
:1002C80094E19A95F1F7AA95D9F7DA95C1F7EA95E5
:1002D800B1F708956AE0C09160016C1728F45FEFE8
:1002E80050936201089503C050E05093620108954D
:1002F80050E0509360010895A0918C01B0918D0158
:100308005C915093740160917401662309F150E087
:1003180050938E01609174016130D0F040908E014D
:10032800439440928E0140908C0160908E01460C5F
:10033800A42D40908D0100E0401EB42D5C91509397
:100348007801A5D060918E01C09174016C1730F3CB
:10035800089550E0509373016091790170917A018A
:10036800C0E1D7E28FD3009400FE15C060917901F7
:1003780070917A01C0E1D7E2ABD360937301009228
:10038800790110927A014090730100E3400E409287
:1003980078017DD00AC06091790170917A01C8EE28
:1003A800D3E070D3009400FE15C06091790170917C
:1003B8007A01C8EED3E08CD360937301009279017F
:1003C80010927A014090730100E3400E4092780148
:1003D8005ED00AC06091790170917A01C4E6D0E0DC
:1003E80051D3009400FE15C06091790170917A0193
:1003F800C4E6D0E06DD36093730100927901109246
:100408007A014090730100E3400E409278013FD09A
:100418000AC06091790170917A01CAE0D0E032D3C4
:10042800009400FE14C06091790170917A01CAE0CD
:10043800D0E04ED3609373010092790110927A0153
:100448004090730100E3400E4092780120D0409024
:10045800790100E3400E4092780119D00895509137
:10046800640150938F0160918F01662309F40EC0D7
:100478005DE0509378010BD05AE05093780107D093
:1004880040908F014A9440928F0191F708956091AE
:100498005C01613041F45090C00055FEFCCF509192
:1004A80078015093C600089550E055B950E058B906
:1004B80050E05BB9089560919A01623019F457E0F1
:1004C800509399015091990150939801089551E0E2
:1004D80050935C015091C00052605093C0005FEC93
:1004E8005093C40050E05093C5005091C100506132
:1004F8005093C10058605093C100089550916E0008
:10050800516050936E0050E050936F01509370010A
:10051800509371015093720117D051E050939A0192
:1005280053E050939901C7DF56E05093970108EFC5
:1005380065B46022462C60909801642865BC0895D3
:1005480040D41FD0A89835C450917F015E7F0FF426
:10055800516050937F01F89450916F0150936B0153
:100568005091700150936C015091710150936D013D
:100578005091720150936E0150907F0150FC789415
:10058800089556E05093970140906F01439440922C
:100598006F014090700109F44394409270014090BB
:1005A800710109F44394409271014090720109F479
:1005B80043944092720108955BDE50E850936801BD
:1005C80002DE55EF50936801FEDDDCDD51E8509303
:1005D8006801F9DDD2E3E0E071DED4DD51E8509343
:1005E8006801F1DD5FEF50936101AFDD5091680163
:1005F80050937B0150E050936101A7DD5091680151
:1006080050937C0155DE60917C0170917B0180E004
:1006180090E0CDE7D0E0E0E0F0E038D3602C712C3A
:10062800822C932C662D772D882D992DC0E0D0E053
:10063800E1E0F0E07CD2A62EB72EC82ED92E06E037
:10064800A01AA092650100E0B00AB092660160911C
:10065800650170916601CAE0D0E014D200FE0FC0B7
:10066800CBE2D1E0E6E0FEE08CD35BE250938C0174
:1006780051E050938D0151E050935C013DDE509163
:10068800650150939101509166015093920128D1D0
:10069800CBE2D1E099275991E8E0FEE079D3A6E5CD
:1006A800B1E00CD2ABE2B1E09C935BE250938C01D9
:1006B80051E050938D0151E050935C011DDECBE277
:1006C800D1E0E2E1FEE05DD35BE250938C0151E0C2
:1006D80050938D0151E050935C010ECEC9DD50E876
:1006E8005093680170DD50EE509368016CDD4ADD6F
:1006F80051E85093680167DD5FEF5093610125DD94
:100708005091680150937B0150E0509361011DDDC9
:100718005091680150937C01CBDDD4E1E0E0CEDD5F
:1007280060917C0170917B0180E090E0C4EAD4E4A0
:10073800E0E0F0E0ABD2602C712C822C932C662D7B
:10074800772D882D992DC0E0D0E0E1E0F0E0EFD1E1
:10075800A62EB72EC82ED92E0DE4A01AA09293016A
:1007680002E1B00AB09294016091930170919401F2
:1007780080E090E0C9E0D0E0E0E0F0E087D2602CD3
:10078800712C822C932C662D772D882D992DC5E000
:10079800D0E0E0E0F0E0CBD1A62EB72EC82ED92EBF
:1007A80000E8A00EA09295010CE0B01EB092960150
:1007B8006091950170919601C4E6D0E089D10092CC
:1007C80067016091950170919601C4E6D0E080D1EF
:1007D80060939501709396016091930170919401D3
:1007E800C4E6D0E075D100926701609193017091E1
:1007F8009401C4E6D0E06CD16093930170939401A6
:1008080051E05093640151E050935C0128DE50910F
:100818007C015093790150917B0150937A0151E00A
:1008280050935C0196DDCBE2D1E0E4E1FEE0A9D291
:100838005BE250938C0151E050938D0151E050934D
:100848005C015ADD509193015093910150919401AC
:100858005093920145D0CBE2D1E099275991E8E134
:10086800FEE096D2A6E5B1E029D1ABE2B1E09C93D7
:100878005BE250938C0151E050938D0151E050930D
:100888005C013ADDCBE2D1E0E0E2FEE07AD25BE265
:1008980050938C0151E050938D0151E050935C01CD
:1008A8002BDD509167015093910150E050939201D4
:1008B80017D0CBE2D1E099275991A6E5B1E0FED057
:1008C800E2E2FEE065D2ABE2B1E09C935BE25093DA
:1008D8008C0151E050938D0151E050935C010CCD97
:1008E80050E050937E016091910170919201C0E1B6
:1008F800D7E2C8D0009400FE1FC0609191017091AA
:100908009201C0E1D7E2E4D0609390010092910196
:100918001092920140907E01439440927E0106E538
:10092800400EA42D00E011E0011FB02F409090016F
:1009380000E3400E4C920AC06091910170919201BF
:10094800C8EED3E09FD0009400FE1FC060919101D3
:1009580070919201C8EED3E0BBD0609390010092F1
:1009680091011092920140907E01439440927E0141
:1009780006E5400EA42D00E011E0011FB02F4090C5
:10098800900100E3400E4C920AC060919101709171
:100998009201C4E6D0E076D0009400FE1FC06091BA
:1009A800910170919201C4E6D0E092D060939001D9
:1009B800009291011092920140907E0143944092DE
:1009C8007E0106E5400EA42D00E011E0011FB02FC6
:1009D8004090900100E3400E4C920AC06091910152
:1009E80070919201CAE0D0E04DD0009400FE1EC084
:1009F8006091910170919201CAE0D0E069D0609352
:100A08009001009291011092920140907E014394CE
:100A180040927E0106E5400EA42D00E011E0011F82
:100A2800B02F4090900100E3400E4C9240907E0120
:100A3800439440927E0106E5400EA42D00E011E0AB
:100A4800011FB02F4090910100E3400E4C9200929C
:100A580091011092920150917E0150935601089590
:100A680000246C1719F47D1709F4009408950024E4
:100A78006C1739F47D1729F48E1719F49F1709F4A8
:100A8800009408950024D71730F07D1718F06C17DC
:100A980008F00895009408950024F91758F049F4CF
:100AA800E81740F031F4D71728F019F46C1708F05C
:100AB8000895009408956D91699302C06D91960F01
:100AC800603009F40895ED91E9936A95E1F7089586
:100AD800862F972FEC2FFD2F50E0252E50E0352E36
:100AE8006E2F7F2FC0E0D0E0BBDF00FE03C060E0C8
:100AF80070E0089550E1552E8894881F991F221C94
:100B0800331C422C4E1A242C432C4F0A342C81605F
:100B180038F48E7F422C4E0E242C432C4F1E342C3E
:100B28005A9451F7682F792F022C132C089560934B
:100B38008001709381018093820190938301C09317
:100B48008401D0938501E0938601F093870150E0FA
:100B5800509388015093890150938A0150938B01D7
:100B6800609184017091850180918601909187013F
:100B7800C0E0D0E0E0E0F0E07ADF00FE05C060E031
:100B880070E080E090E0089550E2552E88945091EE
:100B98008001551F5093800150918101551F50933A
:100BA800810150918201551F509382015091830118
:100BB800551F5093830150918801551F5093880108
:100BC80050918901551F5093890150918A01551FF1
:100BD80050938A0150918B01551F50938B0140907F
:100BE80088016090840146184092880140908901EC
:100BF8006090850146084092890140908A01609082
:100C08008601460840928A0140908B0160908701D6
:100C1800460840928B0150918001516050938001A9
:100C280008F5509180015E7F5093800140908801C3
:100C380060908401460C4092880140908901609040
:100C48008501461C4092890140908A016090860186
:100C5800461C40928A0140908B0160908701461C97
:100C680040928B015A9409F091CF60918001709164
:100C780081018091820190918301009088011090F8
:100C8800890120908A0130908B010895609380013A
:100C9800709381018093820190938301C0938401B2
:100CA800D0938501E0938601F093870150E050933B
:100CB80088015093890150938A0150938B01509079
:100CC800840150FE1CC04090880160908001460C51
:100CD800409288014090890160908101461C4092B1
:100CE800890140908A0160908201461C40928A01E5
:100CF80040908B0160908301461C40928B01889440
:100D080050918701579550938701509186015795C7
:100D180050938601509185015795509385015091C4
:100D28008401579550938401889450918001551FF0
:100D38005093800150918101551F5093810150912A
:100D48008201551F5093820150918301551F509382
:100D58008301C0918401D0918501E0918601F091D1
:100D6800870160E070E080E090E096DE00FCA7CFAD
:100D7800009088011090890120908A0130908B01A1
:100D88000895C895602DE39509F4F395699306C015
:100D9800C895602DE39509F4F395960F603009F432
:100DA8000895C895E39509F4F39509926A95C9F7EA
:100DB800089540907601509175015FBF5091770179
:100DC8001895509377015FB750937501409276015B
:100DD80008952A5369373032312049324320485523
:100DE8004D494449545920414E442054454D50459D
:100DF8005241545552452053454E534F52000130ED
:100E08000948756D69646974793D0125023A2000C5
:0C0E18000654656D70203D00012E012085
:00000001FF
