:020000040000FA
:0400000080312428FF
:10000800FE00030EFF00080820002100B6000A08C1
:10001800B3008A018B1E18280B1D18282000983160
:10002800D72080310B111828210033088A003608A0
:0E00380088007F0E8300FE0E7E0E0900200061
:10004800882205249C22062281228B170B17D601B1
:10005800D701AB01AC012100351020008F314027BA
:10006800803120002203031D3D288B31CE238031AF
:100078003E28B0222100A7080319B20A35286300D8
:10008800432802302202031D4D288831BC208031CC
:1000980008006408003C0318052A11306402031D97
:1000A800A4282103031D9B28D801D9010130F90098
:1000B800FA016B08F5006C08F6009931412180318E
:1000C80070189328D80A0319D90AE50A0319E60A09
:1000D8006508BA006608BB008E3130268B3156237E
:1000E80080311B302902031986282008F200F30109
:1000F80094312C2480316508BA006608BB008E3123
:10010800302680315808F5005908F6006B08F900C8
:100118006C08FA0099314121803170186628650809
:100128002100AB00200066082100AC00A4286B0861
:1001380065072100AB0020006C08663D2100AC007B
:10014800123020006402031DF9282103031DF02842
:10015800D801D9010130F900FA016B08F5006C08E3
:10016800F6009931412180317018E828D80A03191E
:10017800D90A0130E5020030E63B6508BA00660896
:10018800BB008E3130268B31562380311B3029023B
:100198000319DB282008F200F30194312C24803164
:1001A8006508BA006608BB008E31302680315808D1
:1001B800F5005908F6006B08F9006C08FA00993147
:1001C800412180317018BA2865082100AB00200051
:1001D80066082100AC00F9286B0865022100AB0015
:1001E80020006C08663B2100AC001330200064023C
:1001F800031D4A292103031D3A29D801D9016B0897
:10020800E5026C08E63BD80A0319D90A6508BA0062
:100218006608BB008E3130268B31562381311B3066
:100228002902031924292008F200F30194312C240F
:1002380081316508BA006608BB008E3130268131ED
:100248006508F5006608F6006B08F9006C08FA0006
:10025800993141218131F00970180329580821008A
:10026800AB00200059082100AC004A296508F500B8
:100278006608F6006B08F9006C08FA009731062743
:10028800813175082100AB007608AC0014302000DD
:100298006402031DAD292103031D9D296508210062
:1002A800D300200066082100D40001302000D800C7
:1002B800D9010230F900FA016B08F5006C08F60064
:1002C80099314121813170189529D80A0319D90A21
:1002D800210053082000E507210054082000E63DCE
:1002E8008B31562381311B302902031988292008B4
:1002F800F200F30194312C2481316508BA006608B4
:10030800BB008E31302681315808F5005908F600B7
:100318006B08F9006C08FA00993141218131701895
:10032800692965082100AB00200066082100AC009F
:10033800AD296508F5006608F6006B08F9006C0839
:10034800FA0099319921813170082100AB007108B8
:10035800AC00153020006402031DBB2965086B053D
:100368002100AB00200066086C052100AC001730A6
:1003780020006402031DC92965086B042100AB0035
:10038800200066086C042100AC00183020006402CC
:10039800031DD72965086B062100AB0020006608FD
:1003A8006C062100AC00163020006402031DEC2905
:1003B8006508F5006608F6006B08F9006C08FA0095
:1003C80097310627813170082100AB007108AC0015
:1003D80021002B08F5002C08F600F901FA0120008D
:1003E80099311C218131701C052A0130E300E50197
:1003F800E601EB01EC012100AB01AC011D3020004E
:10040800E400080021000C108C100A30F200F301FF
:10041800200094312C248231983191208231CD08EA
:100428000319102A22000C1021000C110E108E1036
:100438000E110F30F200F301200094312C24823188
:1004480022000C150E148E100E110530F000F00B62
:100458002B2A8C140530F000F00B302A8C10053054
:10046800F200F301200094312C2482310330210062
:10047800CA0022008C140530F000F00B412A8C10C1
:100488000230F100F001F00B472AF10B462A133035
:10049800F000F00B4D2A2100CA0B3D2A0530F2006E
:1004A800F301200094312C24823122000C110E1407
:1004B8008E100E110530F000F00B602A8C140530F8
:1004C800F000F00B652A8C108530F000F00B6A2ADA
:1004D80028302000C8009431AF2482310630C8008B
:1004E8009431AF2482310C30C8009431AF24983154
:1004F8002E2082310C30D400080086302100A7005D
:100508007930A8002000080021001917991619163B
:10051800991199179E131D1023008C018D018E01CE
:1005280022009313911320008C018D018E01080085
:100538008B16DF01E001E101E2019831C22082312E
:1005480001302100D7000430D600200098317D20EA
:1005580082310630950008008B3156238231FF30F6
:1005680029020318042C1B302902031DBE2A9031CE
:10057800EF20823117302902031DC52A91314B2102
:10058800823110302902031DCC2A9031C5208231D6
:1005980015302902031DD32A90319B208231133054
:1005A8002902031DDA2A9831002082311D306402A5
:1005B800031DEF2A0130E300E701E801E901EA0140
:1005C8002100A001A101A201A301AD01AE01AF016B
:1005D800B0012000E40121002D08F9002E08FA00DE
:1005E8002F08FB003008FC00F501F601F701F801BF
:1005F8002000993150218231701C342B02305E0268
:10060800031D1B2B0A30290203181B2B0130E300A2
:10061800E701E801E901EA012100A001A101A20125
:10062800A301AD01AE01AF01B0012000E401033028
:100638005E02031D342B103029020318342B0130BD
:10064800E300E701E801E901EA012100A001A101B5
:10065800A201A301AD01AE01AF01B0012000E40188
:100668002908C100C2018831002083316303031DBA
:10067800502B6708BC006808BD006908BE006A08FE
:10068800BF00BB252100A001A101A201A301AD016A
:10069800AE01AF01B001912B21002008F90021081B
:1006A800FA002208FB002308FC00F501F601F70117
:1006B800F8012000993150218331701C752B2100DD
:1006C80020082000BC00210021082000BD002100D6
:1006D80022082000BE00210023082000BF00BB25FF
:1006E800912B21002D08F5002E08F6002F08F700A1
:1006F8003008F800F901FA01FB01FC0120009931EA
:1007080027218331701C912B6708BC006808BD0045
:100718006908BE006A08BF00BB2521002D08F90042
:100728002E08FA002F08FB003008FC00F501F6013E
:10073800F701F8012000993150218331701CC52B35
:1007480021002D082000BC0021002E082000BD003B
:1007580021002F082000BE00210030082000BF0023
:10076800BB25CC010B30CB009831A42083313B3022
:100778002100C7008730C8002000953167258331E4
:10078800F92B1D306402031DEA2B21002D082000DF
:10079800BC0021002E082000BD0021002F082000E9
:1007A800BE00210030082000BF00BB25CC010B3063
:1007B800CB009831A42083313B302100C70087301B
:1007C800C8002000953167258331F92BCC010B3007
:1007D800CB009831A420833141302100C7008730F5
:1007E800C80020009531672583313230F200F301CB
:1007F80094312C248B3156238431290A031DF92B7B
:10080800080021008E110E138E130C108C100C1181
:100818000E108E100E118E120C160E1220000800EB
:10082800023022020319202C0130CC000830CB0002
:100838009831A4208431262CCC010F30CB0098317C
:10084800A4208431FF3029020318B12DA908031D03
:10085800372C49302100C7008730C8002000953167
:1008680067258431B02D2903031D442CC030210095
:10087800C7008730C8002000953167258431B02D26
:1008880002302902031D522CC2302100C7008730D4
:10089800C8002000953167258431B02D0330290226
:1008A800031D602CC4302100C7008730C800200019
:1008B800953167258431B02D04302902031D6E2C33
:1008C800C6302100C7008730C80020009531672551
:1008D8008431B02D05302902031D7C2CC83021003D
:1008E800C7008730C8002000953167258431B02DB6
:1008F80006302902031D8A2CCA302100C700873020
:10090800C8002000953167258431B02D07302902B1
:10091800031D982CCC302100C7008730C800200068
:10092800953167258431B02D08302902031DA62C86
:10093800CE302100C7008730C800200095316725D8
:100948008431B02D09302902031DB42CD030210088
:10095800C7008730C8002000953167258431B02D45
:100968000A302902031DC22CD2302100C70087306B
:10097800C8002000953167258431B02D0B3029023D
:10098800031DD02CD4302100C7008730C8002000B8
:10099800953167258431B02D0C302902031DDE2CDA
:1009A800D6302100C7008730C80020009531672560
:1009B8008431B02D0D302902031DEC2CD8302100D4
:1009C800C7008730C8002000953167258431B02DD5
:1009D8000E302902031DFA2CDA302100C7008730B7
:1009E800C8002000953167258431B02D0F302902C9
:1009F800031D082DDC302100C7008730C800200007
:100A0800953167258531B02D10302902031D162D2B
:100A1800DE302100C7008730C800200095316725E7
:100A28008531B02D11302902031D242DE03021001D
:100A3800C7008730C8002000953167258531B02D63
:100A480012302902031D322DE2302100C700873001
:100A5800C8002000953167258531B02D1330290253
:100A6800031D402DE4302100C7008730C800200056
:100A7800953167258531B02D14302902031D4E2D7F
:100A8800E6302100C7008730C8002000953167256F
:100A98008531B02D15302902031D5C2DE830210069
:100AA800C7008730C8002000953167258531B02DF3
:100AB80016302902031D6A2DEA302100C70087304D
:100AC800C8002000953167258531B02D17302902DF
:100AD800031D732DC90198319B208531B02D183025
:100AE8002902031D7D2D0130C90098319B208531D5
:100AF800B02D1B302902031D8B2DEC302100C700BF
:100B08008730C8002000953167258531B02D1A300F
:100B18002902031D992DEE302100C7008730C80037
:100B28002000953167258531B02D19302902031D24
:100B3800A32D0230C90098319B208531B02D1A3081
:100B48002902031DB02DF0302100C7008730C800EE
:100B58002000953167258531BA2D3F302100C70027
:100B68008730C800200095316725853108003C088A
:100B7800B6003D08B7003E08B8003F08B900B1000C
:100B88003808B3003708B0003608B200CC01CB01F2
:100B98009831A420853145302100C7008730C8002E
:100BA80020009531672585313108CF000230C90012
:100BB8009431702485313308CF000230C900943154
:100BC800702485313008CF000230C9009431702478
:100BD80085313208CF000230C90094317024853144
:100BE8009631B026853114240130CC00CB019831E0
:100BF800A420853147302100C7008730C800200075
:100C08009531672586313608F5003708F60038082B
:100C1800F7003908F800F901CA30FA009A30FB00E9
:100C28003B30FC00993150218631701C242E49300C
:100C38002100C7008730C80020009531672586311C
:100C48003608F5003708F6003808F7003908F800C4
:100C5800F901E130FA00F530FB000530FC0099316C
:100C680050218631701C412E49302100C700873041
:100C7800C80020009531672586313608F500370809
:100C8800F6003808F7003908F8008030F900963087
:100C9800FA009830FB00FC01993150218631701C14
:100CA8005E2E49302100C7008730C80020009531EA
:100CB800672586313608F5003708F6003808F7004A
:100CC8003908F8004030F9004230FA000F30FB00D4
:100CD800FC01993150218631701C7B2E493021004E
:100CE800C7008730C800200095316725863136084F
:100CF800F5003708F6003808F7003908F800A03082
:100D0800F9008630FA000130FB00FC0199315021CE
:100D18008631701C982E49302100C7008730C800E2
:100D280020009531672586313608F5003708F6002A
:100D38003808F7003908F8001030F9002730FA00B1
:100D4800FB01FC01993150218631701CB42E4930C9
:100D58002100C7008730C8002000953167258631FB
:100D68003608F5003708F6003808F7003908F800A3
:100D7800E830F9000330FA00FB01FC0199315021F9
:100D88008631701CD02E49302100C7008730C8003A
:100D980020009531672586313608F5003708F600BA
:100DA8003808F7003908F8006430F900FA01FB0147
:100DB800FC01993150218631701CEB2E49302100FD
:100DC800C7008730C800200095316725863136086E
:100DD800F5003708F6003808F7003908F8000A3037
:100DE800F900FA01FB01FC01993150218631701C90
:100DF800062F49302100C7008730C80020009531F0
:100E0800672587313608CF003708D0003808D10069
:100E18003908D20096315D26873121002B08F90068
:100E28002C08FA00F501F60120009931412187319B
:100E3800701C252FF430F2000130F30094312C247B
:100E48008731080078088A007708F70A0319F80A32
:100E580082000D3433342E34313434342034313478
:100E680035347434683420344D3461347234033486
:100E780041346E3473340134203403342034203444
:100E8800203401346834013464340134303401349A
:100E98002A3401345E34013461340F343134363449
:100EA8006234693474342034423469346E34203402
:100EB8002D3420344434653463340F3420343334CF
:100EC8003234623469347434203420344434653420
:100ED800633469346D3461346C340F3420342D3408
:100EE8002034483465347834613464346534633488
:100EF80069346D3461346C342034103420342A342D
:100F080049346E347434653467346534723420344B
:100F18006F346E346C3479342A34203410342034ED
:100F280020342034433461346C34633475346C3485
:100F3800613474346F3472342034203420340334F0
:100F480076343A34203401342C3403344D34683444
:100F58007A341034203428344334293420344D343E
:100F68006B344534443453342034323430343134DF
:100F780038342034013462340134313401343234A9
:100F880001343334013434340134353401343634E3
:100F980001343734013438340134393401344134BC
:100FA8000134423401344334013444340134453487
:100FB8000134463401343D3401342B3401342D34AA
:100FC80001342F3401347834013426340134253483
:100FD80001346D340134633401345234043431340F
:100FE8002E343034303407343134363446343134E6
:060FF800383432343934B4
:101000004108F5004208F6001A30F900FA0199315A
:101010001C218831701C2428E701E801E901EA015C
:101020002100A001A101A201A3012000E4010130DF
:10103000E3002100AD01AE01AF01B0012000A50128
:10104000A601A701A80108004108F5004208F60022
:101050001030F900FA0199311C218831701C3328B5
:101060008031452088314108F9004208FA001030EB
:10107000F500F601993141218831701C942841080E
:10108000F5004208F6001830F900FA0199314121C3
:101090008831701C942821002D08F9002E08FA00D0
:1010A0002F08FB003008FC00F501F601F701F801FC
:1010B0002000993150218831701C7D2821002D0895
:1010C0002000E70021002E082000E80021002F0862
:1010D0002000E900210030082000EA002100A001E2
:1010E000A101A201A301AD01AE01AF01B001023027
:1010F0002000E3004108E400932802306302031D4E
:101100008A282100A001A101A201A301AD01AE0125
:10111000AF01B00120006303031D90280230E300FB
:101120004108E400080008004108F5004208F60004
:101130001030F900FA019931412188317018D92114
:101140004108F5004208F6001930F900FA0199311A
:101150001C218831701CAF289231762288314108D9
:10116000F5004208F6001A30F900FA0199311C2105
:101170008831701895220800023022020318C42812
:101180008031452088310800F430F2000130F3004E
:1011900094312C2488316408003C0318D82911307C
:1011A0006402031DE82821002008200067072100B1
:1011B000AD0021082000683D2100AE00220820007B
:1011C000693D2100AF00230820006A3D2100B000E6
:1011D000123020006402031D022921002008200093
:1011E00067022100AD0021082000683B2100AE000D
:1011F00022082000693B2100AF00230820006A3B41
:101200002100B000133020006402031D2529670867
:10121000F5006808F6006908F7006A08F800210080
:101220002008F9002108FA002208FB002308FC002E
:10123000200097313C27893175082100AD007608E0
:10124000AE007708AF007808B000143020006402C8
:10125000031D48296708F5006808F6006908F700CB
:101260006A08F80021002008F9002108FA00220885
:10127000FB002308FC00200097319C27893170086F
:101280002100AD007108AE007208AF007308B00015
:10129000153020006402031D602967082100200525
:1012A000AD002000680821002105AE00200069087B
:1012B00021002205AF0020006A0821002305B000AC
:1012C000173020006402031D7829670821002004DC
:1012D000AD002000680821002104AE00200069084C
:1012E00021002204AF0020006A0821002304B0007E
:1012F000183020006402031D902967082100200691
:10130000AD002000680821002106AE002000690819
:1013100021002206AF0020006A0821002306B00049
:10132000163020006402031DB3296708F500680821
:10133000F6006908F7006A08F80021002008F900A3
:101340002108FA002208FB002308FC002000973146
:101350003C27893170082100AD007108AE00720889
:10136000AF007308B00021002D08F5002E08F6002C
:101370002F08F7003008F800F901FA01FB01FC0121
:101380002000993127218931701CD8290130E300D0
:10139000E701E801E901EA012100A001A101A201A0
:1013A000A301AD01AE01AF01B0011D302000E4008A
:1013B0000800023022020318E1299231F422893117
:1013C00008005E03031DE6290230DE0002305E02E3
:1013D000031DF6294108F9004208FA000930F5001A
:1013E000F601993141218931701808009831652042
:1013F00089316303031D452A4108F5004208F600C0
:10140000F901FA0199311C218A31701C222A6708DE
:10141000F5006808F6006908F7006A08F80021007E
:101420005808F900FA01FB01FC01200097319C27C4
:101430008A317008E7007108E8007208E900730853
:10144000EA00442A6708F5006808F6006908F70012
:101450006A08F80021005808F900FA01FB01FC01B4
:10146000200097319C278A317008E7007108E80056
:101470007208E9007308EA004108E7074208E83DFE
:101480000030E93D0030EA3D932A4108F50042086A
:10149000F600F901FA0199311C218A31701C6C2A7D
:1014A00021002008F5002108F6002208F700230893
:1014B000F8005808F900FA01FB01FC0120009731FF
:1014C0009C278A3170082100A0007108A1007208D1
:1014D000A2007308A300932A21002008F500210828
:1014E000F6002208F7002308F8005808F900FA016E
:1014F000FB01FC01200097319C278A3170082100F4
:10150000A0007108A1007208A2007308A3002000C7
:1015100041082100A007200042082100A13D003021
:10152000A23D0030A33D2000080002302202031833
:101530009D2A933183238A3108002100A708031DC7
:10154000AB2A3208A900AA012000993107218A316B
:1015500001302100A700AD01AE01AF01B00155037C
:10156000031D372B20009831E1208A312100260805
:101570002000EE009831E1208A3121002608200069
:10158000EF009831E1208A3121002608A4002000D4
:101590009831E1208A3121002608A5002D10200075
:1015A0006E1CD42A21002D142100AD102000EF1C48
:1015B000DB2A2100AD1421002D1124192D15AD11A8
:1015C000A519AD152D1220006E1DE82A21002D163B
:1015D0002100AD122000EF1DEF2A2100AD162100E1
:1015E0002D13241A2D17AD13A51AAD172E10200098
:1015F000EE1DFC2A21002E142100AE1020006F1ECB
:10160000032B2100AE1421002E11A41A2E15AE11A9
:10161000251BAE152E1220006E1E102B21002E163B
:101620002100AE122000EF1E172B2100AE16210064
:101630002E13AE132D08F5002E08F6002F08F70024
:101640003008F8000F30F9002730FA00FB01FC01E8
:101650002000993150218B31701CB22A2100AD0A33
:101660000319AE0A0319AF0A0319B00A412B20006F
:101670009831E1208B3121002608AD00AE01AF0189
:10168000B0012D082000BC0021002E082000BD0064
:1016900021002F082000BE00210030082000BF00DC
:1016A0008531BB258B310230E30008002100B101F8
:1016B000B10A3103031D602B22008E110E178E1705
:1016C000023021003102031D692B22008E150E13FA
:1016D0008E17033021003102031D722B22008E155C
:1016E0000E178E1322000E128E120230F000F00B35
:1016F000772B00008E160230F000F00B7D2B0000DF
:101700002000AE0122000E162000AA01AA0A220023
:101710008E162000AE130C1AAE1722008E12023065
:10172000F000F00B912B000020002E0DAE0D0830C4
:101730002A02031C862BFF302E020318C52B2E080D
:10174000FF3CAE0021003103031DAC2B20002E080E
:10175000AF00913175218B31023021003102031D20
:10176000B72B20002E08AF009131AD218B31033013
:1017700021003102031DC22B20002E08AF00913141
:10178000E6218B3120000800C72BFF30A900033071
:1017900021003102031C582B200008005623FF3083
:1017A00029020318E32C210035101B3020002902E8
:1017B000031DDD2B9031EF208B3117302902031DE3
:1017C000E42B91314B218B3110302902031DEB2B7F
:1017D0009031C5208B3115302902031DF22B903139
:1017E0009B208B3113302902031DF92B98310020E7
:1017F0008B311D306402031D082C0130E300E5012C
:10180000E601EB01EC012100AB01AC012000E40199
:1018100021002B08F9002C08FA00F501F601200040
:10182000993141218C31701C4D2C5E03031D272CF6
:10183000023029020318272C0130E300E501E601FC
:10184000EB01EC012100AB01AC012000E40102300E
:101850005E02031D3A2C0A30290203183A2C01308B
:10186000E300E501E601EB01EC012100AB01AC0175
:101870002000E40103305E02031D4D2C10302902CC
:1018800003184D2C0130E300E501E601EB01EC010A
:101890002100AB01AC012000E4012908C100C20114
:1018A000903100208C316303031D612C6508BA0060
:1018B0006608BB003026EB01EC012100AB01AC0156
:1018C000842C6B08F9006C08FA00F501F6019931D7
:1018D00041218C31701C722C6B08BA006C08BB0063
:1018E0003026842C21002B08F5002C08F600F90185
:1018F000FA01200099311C218C31701C842C650860
:10190000BA006608BB00302621002B08F9002C081D
:10191000FA00F501F6012000993141218C31701C4B
:10192000AB2C21002B082000BA0021002C0820003D
:10193000BB0030260130CC000630CB009831A4200B
:101940008C313B302100C7008730C8002000953122
:1019500067258C31D92C1D306402031DC92C210050
:101960002B082000BA0021002C082000BB003026E4
:101970000130CC000630CB009831A4208C313B30B4
:101980002100C7008730C8002000953167258C31C1
:10199000D92C0130CC000730CB009831A4208C31F9
:1019A0003F302100C7008730C800200095316725EF
:1019B0008C313230F200F30194312C248C315623D7
:1019C000290A031DD92C9831C2208C315A08AB004A
:1019D0005B08AC0056082B022100CC002000570801
:1019E0002C3B2100CD004C08F5004D08F6002030BE
:1019F000F9004E30FA002000993141218C31F00974
:101A0000701C062D2B08D6002C08D7000800562382
:101A100015302902031D1F2DCC010F30CB0098314A
:101A2000A4208D314B302100C7008730C800200032
:101A3000953167258D3101302100D500212D210000
:101A4000D5011B3020002902031D4A2D0130CC0096
:101A50000F30CB009831A4208D314D302100C700CC
:101A60008730C8002000953167258D312203031D82
:101A70003C2D0230A2003E2D0130A2000130230097
:101A80009100920120002208230093002000983149
:101A90004C208D310A302902031D712D0130CC00FC
:101AA0000F30CB009831A4208D314F302100C7007A
:101AB0008730C8002000953167258D312103031D33
:101AC000632DA101652D0130A1000230230091009A
:101AD00092012000210823009300200098314C201F
:101AE0008D31CC01CB019831A4208D312203031D0F
:101AF000832D51302100C7008730C8002000953168
:101B000067258D318C2D61302100C7008730C800DA
:101B10002000953167258D310130CC00CB01983103
:101B2000A4208D3171302100C7008730C80020000B
:101B3000953167258D31DC30F2000530F3009431AA
:101B40002C248D31CC01CB019831A4208D318130F2
:101B50002100C7008730C8002000953167258D31EE
:101B60000130CC00CB019831A4208D31923021007E
:101B7000C7008730C8002000953167258D31DC30E3
:101B8000F2000530F30094312C2498312E208D3151
:101B9000A3302100C7008730C80020009531672599
:101BA0008D312D302100C7008730C80020009531CD
:101BB00067258D310130CC00CB019831A4208D31C7
:101BC000F2302100C7008730C8002000953167251A
:101BD0008D31DC30F2000530F30094312C24983143
:101BE0002E208D31CC010130CB009831A4208D31D5
:101BF000F7302100C7008730C800200095316725E5
:101C00008E31A7302100C7008730C80020009531F1
:101C100067258E312030CF0095318E258E31A93049
:101C20002100C7008730C8002000953167258E311C
:101C30000130CC00CB019831A4208E31AD30210091
:101C4000C7008730C8002000953167258E31DC3011
:101C5000F2000530F30094312C248E3198312E2877
:101C60003A08B4003B08B500B0003408B200CC011B
:101C7000CB019831A4208E31CF01B01BCF0A953112
:101C80008E258E31CF01301BCF0A95318E258E31B6
:101C9000CF01B01ACF0A95318E258E31CF01301A7F
:101CA000CF0A95318E258E31CF01B019CF0A9531EB
:101CB0008E258E31CF013019CF0A95318E258E3188
:101CC000CF01B018CF0A95318E258E31CF01301853
:101CD000CF0A95318E258E31CF01B21BCF0A9531B7
:101CE0008E258E31CF01321BCF0A95318E258E3154
:101CF000CF01B21ACF0A95318E258E31CF01321A1B
:101D0000CF0A95318E258E31CF01B219CF0A953188
:101D10008E258E31CF013219CF0A95318E258E3125
:101D2000CF01B218CF0A95318E258E31CF013218EE
:101D3000CF0A95318E258E310130CC00CB01983100
:101D4000A4208E3145302100C7008730C800200014
:101D5000953167258E313008CF000230C9009431AB
:101D600070248E313208CF000230C90094317024C3
:101D70008E319631B026843114248E310130CC005E
:101D80000A30CB009831A4208E3147302100C700A3
:101D90008730C8002000953167258E313408F50062
:101DA0003508F6001030F9002730FA00993141214A
:101DB0008E31701CE42E49302100C7008730C800E6
:101DC0002000953167258E313408F5003508F6007E
:101DD000E830F9000330FA00993141218E31701C4E
:101DE000FA2E49302100C7008730C8002000953105
:101DF00067258E313408F5003508F6006430F900A7
:101E0000FA01993141218F31701C0F2F4930210087
:101E1000C7008730C8002000953167258F3134080E
:101E2000F5003508F6000A30F900FA019931412130
:101E30008F31701C242F49302100C7008730C80023
:101E40002000953167258F313408CF003508D00048
:101E50009531D2258F3121002B08F9002C08FA008A
:101E6000F501F6012000993141218F31701C3F2F7F
:101E7000F430F2000130F30094312C248F3108004B
:101E8000AD012100D2012000AA01AE012100B10163
:101E90002000A901AF01C101C201B401B501B00127
:101EA000B201E501E601EB01EC01A301A40121006F
:101EB000AB01AC012000E4010130E3002100B201DC
:101EC000A7012000C301C401C501C601B601B701C5
:101ED000B801B901B101B301B001B201E701E801F4
:101EE000E901EA012100A001A101A201A301200052
:101EF000A501A601A701A8012100AD01AE01AF0116
:101F0000B0012000D801D9012100D301D401200063
:101F1000A1012330A00023009101920120009931FA
:101F20007D218F31230013082000DE00033C0318BD
:101F30009B2F0230DE00013023009100920120002F
:101F400099317D218F31230013082000A200023C2B
:101F50000318AC2F0130A200013022020318B22F67
:101F60000130A2000230230091009201200099313B
:101F70007D218F31230013082000A100013C031CA8
:101F8000A101C70122008E12200095311B258F313F
:101F900007258F3102302202031DDE2F5E03031D51
:101FA000DE2F0230DE0023009101920120005E0846
:101FB00023009300200098314C208F312203031D11
:101FC000E52FBA01BB013026EF2F98312E208F313B
:101FD000BC01BD01BE01BF018531BB258F310800A9
:102000004108F5004208F6001A30F900FA0199314A
:102010001C219031701C1A28E501E601EB01EC014E
:10202000E4010130E3002100AB01AC012000A30179
:10203000A40108004108F5004208F6001030F9003C
:10204000FA0199311C219031701C292880314520DA
:1020500090314108F9004208FA001030F500F6010D
:10206000993141219031701C74284108F5004208D3
:10207000F6001B30F900FA01993141219031701CB2
:10208000742821002B08F9002C08FA00F501F6014C
:102090002000993141219031701C612821002B08CA
:1020A0002000E50021002C082000E600EB01EC01F7
:1020B0002100AB01AC0102302000E3004108E40044
:1020C000732802306302031D6A28EB01EC01210032
:1020D000AB01AC0120006303031D70280230E30054
:1020E0004108E400080008004108F5004208F60035
:1020F0001030F900FA019931412190317018F42221
:102100004108F5004208F6001930F900FA0199314A
:102110001C219031701C8E281F2290314108F5003F
:102120004208F6001A30F900FA0199311C21903169
:102130007018832308003230F200F3012C2415308C
:102140002902031DC2286430F200F3012C248B31D4
:102150005623903115302902031DBF286430F20048
:10216000F3012C248B315623903115302902031DA5
:10217000BC281A30A900BE281530A900C128153086
:10218000A900C4281530A90008003230F200F3017C
:102190002C2410302902031DEC286430F200F301D6
:1021A0002C248B315623903110302902031DE9284D
:1021B0006430F200F3012C248B315623903110301F
:1021C0002902031DE6281930A900E8281030A900CB
:1021D000EB281030A900EE281030A900080032309A
:1021E000F200F3012C248B31562390311B3029024D
:1021F000031D19296430F200F3012C248B3156237E
:1022000091311B302902031D16296430F200F301BD
:102210002C248B31562391311B302902031D1329A5
:102220001A30A90015291B30A90018291B30A90054
:102230001B291B30A9001B302902031D4929DE0A76
:102240005E08033C031826290130DE00023022021A
:10225000031D2D295E030319DE0A2300910192015B
:10226000200099317D219131230013082100D200F3
:1022700020005E0821005202031949292300910120
:10228000920120005E0823009300200098314C202A
:102290009131200008003230F200F3012C24173075
:1022A0002902031D72296430F200F3012C248B31C2
:1022B0005623913117302902031D6F296430F20033
:1022C000F3012C248B315623913117302902031D41
:1022D0006C291830A9006E291730A9007129173010
:1022E000A90074291730A9000800FF30A9002F03A6
:1022F000031D7C29A901AC2902302F02031D83296B
:102300000130A900AC2904302F02031D8A290230B4
:10231000A900AC2908302F02031D91290330A90020
:10232000AC2910302F02031D98290430A900AC29D4
:1023300020302F02031D9F290530A900AC29403011
:102340002F02031DA6290630A900AC2980302F02D8
:10235000031DAC290730A9000800FF30A9002F0396
:10236000031DB5290830A900E52902302F02031DFD
:10237000BC290930A900E52904302F02031DC32917
:102380000A30A900E52908302F02031DCA290B30A5
:10239000A900E52910302F02031DD1290C30A90016
:1023A000E52920302F02031DD8290D30A900E52989
:1023B00040302F02031DDF290E30A900E5298030AF
:1023C0002F02031DE5290F30A9000800FF30A900E6
:1023D0002F03031DEE291030A9001E2A02302F0200
:1023E000031DF5291130A9001E2A04302F02031DF8
:1023F000FC291230A9001E2A08302F02031D032ACF
:102400001330A9001E2A10302F02031D0A2A14308F
:10241000A9001E2A20302F02031D112A1530A90001
:102420001E2A40302F02031D182A1730A9001E2A29
:1024300080302F02031D1E2A1B30A9000800023025
:102440002202031D262A7622923108006303031D0F
:102450002C2AE509E609722A02306302031D5A2A72
:1024600021002B08F5002C08F600F901FA012000E4
:1024700099311C219231F009701C572A2100AB09B7
:10248000AC092B08F5002C08F600F901FA01200030
:1024900099311C219231701C562A0130E300E5016C
:1024A000E601EB01EC012100AB01AC01592AEB097B
:1024B000EC09722A2100AB09AC092B08F5002C08A5
:1024C000F600F901FA01200099311C219231701CAB
:1024D000722A0130E300E501E601EB01EC01210085
:1024E000AB01AC012000B0268431142C0230220252
:1024F00003187D2A1F22923108006303031D852AD9
:10250000E709E809E909EA09F02A02306302031D34
:10251000CA2A21002D08F5002E08F6002F08F70022
:102520003008F800F901FA01FB01FC0120009931A3
:1025300027219231F009701CC42A2100AD09AE098F
:10254000AF09B0092D08F5002E08F6002F08F70096
:102550003008F800F901FA01FB01FC012000993173
:1025600027219231701CC32A0130E300E701E80102
:10257000E901EA012100A001A101A201A301AD012D
:10258000AE01AF01B001C92A2100A009A109A20929
:10259000A309F02A2100AD09AE09AF09B0092D0841
:1025A000F5002E08F6002F08F7003008F800F901B2
:1025B000FA01FB01FC012000993127219231701CA6
:1025C000F02A0130E300E701E801E901EA01210016
:1025D000A001A101A201A301AD01AE01AF01B001B3
:1025E0002000B0268431142C02302202031DFC2A64
:1025F0008931D921923108005E03031D0B2B41085C
:10260000F9004208FA000130F500F6019931412144
:1026100093317018080002305E02031D1B2B410825
:10262000F9004208FA000930F500F601993141211C
:102630009331701808009831652093316303031DAE
:10264000522B4108F5004208F600F901FA019931D0
:102650001C219331701C3D2B6508F5006608F600BF
:1026600021005808F900FA0120009931992193318D
:102670007008E5007108E600512B6508F500660852
:10268000F60021005808F900FA012000993199213B
:1026900093317008E5007108E6004108E50742083B
:1026A000E63D822B4108F5004208F600F901FA01E7
:1026B00099311C219331701C6E2B6B08F5006C084E
:1026C000F60021005808F900FA01200099319921FB
:1026D00093317008EB007108EC00822B6B08F50059
:1026E0006C08F60021005808F900FA012000993121
:1026F000992193317008EB007108EC004108EB0759
:102700004208EC3D080002302202031D8B2B8A3167
:102710009522933108002100A708031D992B320848
:10272000A900AA012000993107219331013021002D
:10273000A7005503031D172C20009831E120933189
:10274000210026082000EE009831E120933121007D
:1027500026082000EF009831E1209331210026085F
:10276000A40020009831E120933121002608A50023
:102770002B1020006E1CBE2B21002B142100AB104F
:102780002000EF1CC52B2100AB1421002B112419B4
:102790002B15AB11A519AB152B1220006E1DD22BDA
:1027A00021002B162100AB122000EF1DD92B210098
:1027B000AB1621002B13241A2B17AB13A51AAB173A
:1027C0002C102000EE1DE62B21002C142100AC1053
:1027D00020006F1EED2B2100AC1421002C11A41A37
:1027E0002C15AC11251BAC152C1220006E1EFA2BDB
:1027F00021002C162100AC122000EF1E012C21001C
:10280000AC1621002C13AC132B08F5002C08F60095
:102810000F30F9002730FA0020009931412194311E
:10282000701C9C2B2100AB0A0319AC0A1F2C200042
:102830009831E120943121002608AB00AC012B082F
:102840002000BA0021002C082000BB008E31302669
:1028500094310230E3000800F30A0E30F100BD307D
:10286000F000F00B312CF10B2F2CF20B2D2CF30B75
:102870002D2C080022000C1020004A08F50008301A
:10288000F90099318D21943140307007C800AF2490
:102890000530F50098314420943122000C142000BA
:1028A000CE01CE0A4E082100380784000030393DA1
:1028B000850000082000C800AF240530F5009831DD
:1028C0004420943108304E02031C512C22000C107D
:1028D00080302000C800AF240530F500983144282E
:1028E0004F08F5001030F9009931692194317508CD
:1028F0002100D000303050072000C0000F304F05BD
:102900002100D000303050072000D5004008393C6D
:1029100003188C2C0730C0075508393C0318922C3B
:102920000730D50722000C10023020004902031D99
:10293000A22C10304F020318A22C3030C90098315D
:102940009B2094314F080F3C0318AB2C4008C90062
:1029500098319B2094315508C90098319B2821005B
:102960000C110E108E100E1122000C110E108E1074
:102970000E112000C81FBE2C22000E152000481F7B
:10298000C32C22008E142000C81EC82C22000E1456
:102990002000481ECD2C22000C150230F000F00B58
:1029A000CF2C000022008C140530F000F00BD62C48
:1029B0008C100530F000F00BDB2C0C110E108E107B
:1029C0000E112000C81DE62C22000E152000481D07
:1029D000EB2C22008E142000C81CF02C22000E14B8
:1029E0002000481CF52C22000C150230F000F00BE2
:1029F000F72C000022008C140530F000F00BFE2CA8
:102A00008C100530F000F00B032D0E118E100E10FF
:102A10000C115530F000F00B0B2D20000C181A2D66
:102A20001030480203181A2D4808073C03181A2DC5
:102A30004808D400080011302C00BC001130BD0043
:102A40001130BE000A30BF000430C000C101C20115
:102A5000C3012000CA01DB302100B8002330B900D7
:102A600020003A24953111302C00BC001130BD00FB
:102A70001130BE000A30BF000430C000C1011F3059
:102A8000C200C30101302000CA00DB302100B800C1
:102A90002330B90020003A2495311F302C00BC00AF
:102AA0001F30BD001130BE001F30BF001130C0000C
:102AB0001F30C1001F30C200C30102302000CA0015
:102AC000DB302100B8002330B90020003A2C21006F
:102AD000470884004808850000082000ED00ED0844
:102AE0000319080022000C142100C9010130200044
:102AF0006D02031C8C2D2100C90A49084707840078
:102B00000030483D850000082000C800AF246D0853
:102B100021004902031C7B2D20000800D301220064
:102B20000C14643020004F02031CA52D4F08F50043
:102B30006430F9009931692195317508D300700826
:102B4000CF0030305307C800AF245308F900F50117
:102B500099313A21953170082100D00020004F08AA
:102B6000F5000A30F90099313A219531F009210038
:102B700050087004CC004C1CCD2D20004F08F500EF
:102B80000A30F9009931692195317508D300700830
:102B9000CF0030305307C800AF24303020004F073B
:102BA000C800AF2C22000C142000D3014F08F50000
:102BB0005008F6001030F9002730FA009931412111
:102BC0009531F009701CF82D4F08F5005008F600FB
:102BD0001030F9002730FA0006277508D300700876
:102BE000CF007108D00030305307C800AF24062E44
:102BF0004F08F5005008F600E830F9000330FA00FD
:102C0000993141219631F009701C1A2E4F08F500B8
:102C10005008F600E830F9000330FA00062775087E
:102C2000D3007008CF007108D00030305307C800BF
:102C3000AF24272E4F08F5005008F6006430F90045
:102C4000FA01993141219631F009701C3A2E4F0852
:102C5000F5005008F6006430F900FA0106277508FF
:102C6000D3007008CF007108D00030305307C8007F
:102C7000AF24472E4F08F5005008F6000A30F9003F
:102C8000FA01993141219631F009701C592E4F08F3
:102C9000F5005008F6000A30F900FA010627750819
:102CA000D3007008CF007108D00030305307C8003F
:102CB000AF2430304F07C800AF2C2100C6012100DF
:102CC000C60AE43046078400D0012330503D850019
:102CD00020004F08F5005008F6005108F700520890
:102CE000F8000A30F900FA01FB01FC013C277008EA
:102CF00080007508CF007608D0007708D1007808EA
:102D0000D2004F08F5005008F6005108F7005208AD
:102D1000F800F901FA01FB01FC01993127219631F4
:102D2000F00970185F2E22000C142100460AC90019
:102D300001304602031CAE2EC903E430490784006B
:102D4000D0012330503D8500303000072000C800FE
:102D5000AF2421004908013C031C9C2E20000800E0
:102D6000023022020318BC2E0130CC000630CB000A
:102D70009831A4209631C32E0130CC000F30CB0007
:102D80009831A420963102305E02031DCF2E4730C9
:102D90002100C7008730C80020006725E52E5E03AC
:102DA000031DDA2EBE302100C7008730C800200086
:102DB0006725E52E03305E02031DE52E4530210018
:102DC000C7008730C80020006725023022020318A0
:102DD000F82E0130CC000730CB009831A42096317A
:102DE0003F302100C7008730C80020006725052F2D
:102DF000CC010B30CB009831A4209631413021001A
:102E0000C7008730C8002000672508007508F70054
:102E10007608F8007908FB007A08FC00F201F3015B
:102E20007B08F5007C08F600F901FA0199311C21B4
:102E30009731701C1E2FF501F60108001030F400C8
:102E40000310F70DF80DF20DF30D7B08F2027C086C
:102E5000F33B77140318312F77107B08F2077C08B7
:102E6000F33DF40B202F7708F5007808F600720880
:102E7000F0007308F100080075082100BA00760818
:102E8000BB007708BC007808BD007908BE007A084E
:102E9000BF007B08C0007C08C100C201C301C4019F
:102EA000C5013E08F5003F08F6004008F70041085C
:102EB000F800F901FA01FB01FC01200099312721FA
:102EC0009731701C682FF501F601F701F801080031
:102ED0002030F40003102100BA0DBB0DBC0DBD0D58
:102EE000C20DC30DC40DC50D3E08C2023F08C33B51
:102EF0004008C43B4108C53B3A140318882F3A10D8
:102F00003E08C2073F08C33D4008C43D4108C53DD7
:102F1000F40B6A2F3A08F5003B08F6003C08F7006E
:102F20003D08F8004208F0004308F1004408F200B0
:102F30004508F3002000080075082100BA00760853
:102F4000BB007708BC007808BD007908BE007A088D
:102F5000BF007B08C0007C08C100C201C301C401DE
:102F6000C50121003E1CBC2F3A08C2073B08C33DE7
:102F70003C08C43D3D08C53D0310C10CC00CBF0C4E
:102F8000BE0C0310BA0DBB0DBC0DBD0D3E08F90003
:102F90003F08FA004008FB004108FC00F501F6017B
:102FA000F701F80120009931502197317018B12FA5
:102FB00021004208F0004308F1004408F2004508EF
:062FC000F30020000800F0
:103000003230F200F30194312C249831133029022C
:10301000031D2B286430F200F30194312C248B31F2
:103020005623983113302902031D28286430F200FA
:10303000F30194312C248B3156239831133029021B
:10304000031D25281630A90027281330A9002A2897
:103050001330A9002D281330A900080022000C10FD
:1030600001302000C8009431AF2498310430F200C0
:10307000F30194312C2498318030C8009431AF246E
:1030800098310C30F50044281930F000F00B462838
:103090000000F50B442808002100B7108B1BB71463
:1030A0008B13230095131513151555309600AA3070
:1030B00096009514151195185B2815112100B71C61
:1030C0008B13B7188B172000080002305E02031D17
:1030D0006D280A302100D8007B285E03031D742868
:1030E00002302100D8007B2803305E02031D7B28BC
:1030F00010302100D8002000080021005608073CAD
:10310000031CD601C0301505CC00D604023057028E
:10311000031D8C28D6168D28D6125608950020003F
:1031200008000A30F200F30194312C249831FF306A
:10313000CD000800080022000C1420004908C80037
:103140009431AF249831080022000C1020004C0864
:10315000013C0318AF280230CC021430CB074C08D6
:10316000F5004030F9008D214B0870072100D00098
:10317000803050042000C8009431AF2498310530CD
:10318000F5004428210037108B1B37148B132000C7
:103190005F08DA006008DB006108DC006208DD001F
:1031A0002100371C8B1337188B17200008000630BE
:1031B0009500DF0A0319E00A0319E10A0319E20A7C
:1031C000080007302100CB002708A9002808AA0022
:1031D0002A0DA90DAA0D01302705CC00CD014C09FF
:1031E000D0004D09D100D00A0319D10ACC01B43066
:1031F0005105CD0029084C06A7002A084D06A80055
:1032000026082806A600CB0BE42820000800210091
:103210002908A7072A08A83D2708F5002808F6006E
:10322000F901FA0120001C21701C1A29013021002B
:10323000A700A80120000800F00175087902031D0D
:10324000080076087A02031D0800F0090800F00162
:1032500075087902031D080076087A02031D08002C
:1032600077087B02031D080078087C02031D080014
:10327000F0090800F001031479087502031CF00935
:103280000800F00176087A02031C08007A0876022A
:10329000031C4E297908750203180800F00908007C
:1032A000F00178087C02031C0800031D67297708D9
:1032B0007B02031C0800031D672976087A02031CA1
:1032C0000800031D67297908750203180800F00932
:1032D0000800F90803190800F0010830F400031091
:1032E000F50DF00D7908F002751403187A297510A0
:1032F0007908F007F40B6F290800210037118B1BA8
:1033000037158B1323009513151315142100371D42
:103310008B1337198B1720000800F00175087918F6
:10332000F0070310F90C0310F50DF908031D8E29A1
:1033300008007508F7007608F8007908FB007A089D
:10334000FC00F201F3017B1CA9297708F207780839
:10335000F33D0310FC0CFB0C0310F70DF80D7B087C
:10336000F9007C08FA00F501F60141217018A32943
:0A3370007208F0007308F100080075
:020000040001F9
:04000E00A43FFF1EEE
:00000001FF
