:020000040000FA
:020000000528D1
:1000080009009E314E268031EF20B3221110B10134
:100018002100D3138B1BD3178B1355303D008F0052
:10002800AA308F000F1010303E00A00011303D00A4
:10003800CB0014303E009B000B303D00C5000C3057
:10004800C60015303E009D0055303D008F00AA3097
:100058008F000F142100D31F8B13D31B8B17023073
:100068002000CF000130AF009C31EB248031C53037
:100078002100D9009630DA0001302000AF009B3112
:10008800CA2380310130CF000130AF009C31EB240E
:10009800803107302100C30001302000AF009D31BE
:1000A80006258031C6308400203085000430800069
:1000B800840AC0308000840AA8308000840A800145
:1000C800840A03308000CB3084002030850006305D
:1000D8008000840A8001840A1E308000840AC030AF
:1000E8008000840A8001840A8001840A0330800029
:1000F8005030E300C1308400203085000430800097
:10010800840AC0308000840AA8308000840A8001F4
:10011800840AFA308000BC30840020308500063024
:100128008000840A8001840A50308000840A7F306D
:100138008000840ADC308000840A64308000840AED
:1001480048308000B73084002030850004308000BB
:10015800840A81308000840A06308000840A0F30C7
:100168008000840A1C308000CB302100D70020306A
:10017800D80020008B3188238031E2302100D9005B
:100188009630DA0001302000AF009B31CA2380315D
:100198000130CF000130AF009C31EB248031911643
:1001A800A7013830A300B5019B315A2380312100C3
:1001B8005310F50120008C1AF50A27087502031D53
:1001C800E828A708031DE8289931BA218031DD28DD
:1001D800ED286300ED28CB30840020308500063000
:1001E8008000840A8001840A8001840A8001840ACC
:1001F8008001840A8001840A8001C630840020308E
:10020800850004308000840A8001840A8001840A01
:100218008001840A80015030E300EC01EE012100E6
:10022800AA010130EE00EF012000080023005E085B
:10023800E2005F08E3006008E4006108E5002200CE
:1002480047082300DE00220048082300DF002200C0
:1002580049082300E00022004A082300E1002000AA
:100268009A31822281319831BA282400A3012316B9
:100278002000520A031DA6292400A31523141330B5
:100288002000240784002130253D85000D308000A2
:10029800A40A0319A50A1330240784002130253D38
:1002A80085000A308000A40A0319A50A1330240720
:1002B80084002130253D85000D308000A40A0319F3
:1002C800A50A1330240784002130253D85000A3013
:1002D8008000A40A0319A50A0130A4020030A53B36
:1002E8002408F5002508F6000230F900FA019E31CD
:1002F800D126813170082100E9007108EA006908F7
:10030800F5006A08F600F901FA0120009E319C26E2
:100318008131701CA429CC302100D9009730DA0033
:1003280001302000AF009B31CA238131A40A031990
:10033800A50A1330240784002130253D850080015B
:10034800A201AD290130A4020030A53B2400A3116D
:10035800231001302000CF000130AF009C31EB2486
:100368008131D4302100D9009730DA0001302000E3
:10037800AF009B31CA23813123005E082100C400ED
:1003880001302000AF009B31EF2381310230210082
:10039800D9009730DA0001302000AF009B31CA2322
:1003A800813123005F082100C40001302000AF0024
:1003B8009B31EF23813102302100D9009730DA00D8
:1003C80001302000AF009B31CA238131230060082F
:1003D8002100C40001302000AF009B31EF238131A0
:1003E80002302100D9009730DA0001302000AF0038
:1003F8009B31CA238131230061082100C4000130E8
:100408002000AF009B31EF2382310130CF00013053
:10041800AF009C31EB2482315C082400A10020004D
:1004280061082400A000200062082300EF002000DB
:1004380060082300EE000E30200024022200A400F1
:1004480000302000253B2200A60009302100C3000F
:1004580001302000AF009D3106258231DA302100BD
:10046800D9009730DA0001302000AF009B31CA2351
:1004780082310E30220024072100C40000302200FF
:10048800263D2100C50001302000AF009C313D24ED
:100498008231E2302100D9009730DA0001302000A3
:1004A800AF009B31CA238231283022002402210068
:1004B800C40000302200263B2100C5000130200086
:1004C800AF009C313D248231ED302100D9009730B6
:1004D800DA0001302000AF009B31CA238231583046
:1004E800220024022100C40000302200263B210003
:1004F800C50001302000AF009C313D24823101301D
:10050800CF000130AF009C31EB2482312200260855
:100518002300D400220024082300D50020009831AD
:10052800BA209431232482310E302200240721007E
:10053800B90000302200263D2100BA0020009A317F
:10054800E02282310E30220024072100B900003059
:100558002200263D2100BA0020009831F128013000
:10056800AF00443022009B009C019F151E151E12EF
:100578009D171D169E16200008007708F5007808BC
:10058800F6002430F9000530FA009E31AE2682319B
:10059800701C00347708D83EF70002300318013E7B
:1005A80078078A007708820023343C3421344434A5
:1005B8004F34433454345934503445342034683437
:1005C80074346D346C3420345034553442344C34E3
:1005D80049344334203422342D342F342F345734C3
:1005E800333443342F342F34443454344434203493
:1005F800483454344D344C34203434342E3430346C
:10060800313420345434723461346E347334693480
:10061800743469346F346E3461346C342F342F344D
:1006280045344E3422343E343C34683474346D34AA
:100638006C343E343C3468346534613464343E345C
:100648003C347434693474346C3465343E343C342A
:100658002F347434693474346C3465343E343C3427
:100668007334743479346C346534203474347934A4
:10067800703465343D3422347434653478347434D9
:100688002F3463347334733422343E347334703407
:1006980061346E342E346334373420347B3466341A
:1006A8006F346E3474342D34663461346D34693487
:1006B8006C3479343A342034683465346C347634A4
:1006C800653474346934633461347D34733470341C
:1006D80061346E342E346334363420347B346634DB
:1006E8006F346E3474342D34733469347A34653429
:1006F8003A3420343734303425347D3469346D3419
:1007080067342E346334353420347B3466346C34A7
:100718006F34613474343A34203472346934673451
:10072800683474343B347D346434693476342E341C
:100738006334343420347B3474346534783474341A
:100748002D3461346C34693467346E343A3420346F
:10075800633465346E347434653472347D34703483
:100768002E346334333420347B3466346F346E343F
:1007780074342D34663461346D3469346C347934AE
:100788003A342034683465346C34763465347434DF
:100798006934633461347D347334743472346F343F
:1007A8006E3467342E346334323420347B347434FA
:1007B8006534783474342D346434653463346F3478
:1007C80072346134743469346F346E343A3420349A
:1007D80075346E346434653472346C3469346E3410
:1007E80065347D347334703461346E342E3463343C
:1007F800313420347B3463346F346C346F34723466
:100808003A342034233430343034303430344634BD
:1008180046343B34203466346F346E3474342D34AB
:10082800733469347A3465343A34203431343534A5
:10083800303425347D343C342F3473347434793473
:100848006C3465343E343C342F3468346534613458
:1008580064343E343C3462346F34643479343E3426
:100868003C34643469347634203463346C34613411
:10087800733473343D3422346334343422343E3494
:100888003C347034203463346C34613473347334DE
:100898003D3422346334333422343E343C346134BE
:1008A80020347434613472346734653474343D34BC
:1008B80022345F3462346C3461346E346B342234E5
:1008C800203468347234653466343D3422346834F4
:1008D8007434743470343A342F342F3473346F349E
:1008E800753472346334653466346F347234673403
:1008F80065342E346E34653474342F3470342F34A8
:100908006734633462346134733469346334223451
:100918003E343C347334743472346F346E34673418
:10092800203463346C346134733473343D3422348A
:100938006334323422343E343C347334703461349A
:100948006E34203463346C346134733473343D341E
:1009580022346334313422343E34473472346534BB
:1009680061347434203443346F347734203442345F
:1009780041345334493443342034543443345034A8
:100988002F3449345034203453347434613463344C
:100998006B343C342F347334703461346E343E34E9
:1009A8003C342F347334743472346F346E34673497
:1009B8003E343C342F3461343E343C342F3470346C
:1009C8003E343C342F346434693476343E343C3419
:1009D8007334703461346E3420346F346E3463345D
:1009E8006C34693463346B343D3422347434683481
:1009F800693473342E347334743479346C34653414
:100A08002E3463346F346C346F34723420343D3494
:100A18002034273462346C347534653427342234F6
:100A2800203463346C346134733473343D34223489
:100A38006334373422343E343C34623472343E34C6
:100A48003C34623472343E34543468346934733418
:100A58002034703461346734653420346934733435
:100A68002034733465347234763465346434203415
:100A78006234793420346134203447344334423486
:100A8800203448345434543450342034B534533436
:100A9800653472347634653472342E3430343334F9
:100AA80034342034663472346F346D342034613415
:100AB80020343134363446343134383438343534EB
:100AC800353420344D346934633472346F346334CC
:100AD80068346934703420346D3469346334723462
:100AE8006F3463346F346E34743472346F346C34EE
:100AF8006C346534723420347534733469346E342C
:100B08006734203461346E34203445344E344334F1
:100B1800323438344A34363430342034453474343A
:100B28006834653472346E34653474342034633414
:100B38006F346E34743472346F346C346C3465349E
:100B480072342E343C34623472343E343C34623471
:100B580072343E3454346834693473342034703415
:100B680061346734653420346F3466342034483453
:100B780054344D344C34203469347434203469345A
:100B8800733420346234653469346E346734203405
:100B9800703472346F346334653473347334653449
:100BA800643420346134733420346D3475346C34D7
:100BB8007434693470346C346534203454344334B8
:100BC80050342034483454344D344C342034703448
:100BD800613463346B346534743473342C342034A6
:100BE80061347334203474346834653420344834C0
:100BF80054344D344C34203465347834633465349B
:100C0800653464347334203474346834653420347F
:100C180020346D3465346D346F3472347934203453
:100C28006234753466346634653472342E34203454
:100C380054346834653420346D3465346D346F341D
:100C480072347934203462347534663466346534E9
:100C580072342034693473342034363430343034C8
:100C68002034623479347434653473342034613414
:100C78006E34643420347434683465342034483431
:100C880054344D344C3420346934733420346F3444
:100C9800763465347234203431343234303430347C
:100CA8002034623479347434653473342E34203407
:100CB80053346F342C3420347734653420346D3415
:100CC80075347334743420346234653420347034A9
:100CD80061347334733469346E34673420346D345A
:100CE8006F347234653420347434683461346E344B
:100CF80020346F346E3465342034543443345034E3
:100D080020347034613463346B3465347434203483
:100D180074346F34203463346F346E347334743401
:100D280072347534633474342034743468346534FC
:100D38002034483454344D344C34203474347234B0
:100D480061346E34733461346334743469346F34A9
:100D58006E342E343C34623472343E343C34623463
:100D680072343E3454346834693473342034703403
:100D7800613467346534203469347334203468341A
:100D880065346C3464342034613473342034613411
:100D980020347434613462346C34653420347734EC
:100DA80069347434683469346E3420347434683483
:100DB80065342034473472346534613474342034F3
:100DC80043346F3477342034423441345334493413
:100DD8004334203473346F34753472346334653477
:100DE8002034663469346C346534203461347334A7
:100DF8002034743468346934733420347734693473
:100E08006C346C342034623465342034743468347F
:100E180065342034643465346634613475346C3434
:100E28007434203477346534623420347034613457
:100E38006734653420346D346534743468346F3401
:100E480064342E343C34623472343E343C3462347C
:100E580072343E344F3470346534723461347434CF
:100E680069346E34673420346F346E34203464341B
:100E7800653476346934633465345F3431343934F5
:100E880032345F343134363438345F3430345F349C
:100E980034343C34623472343E343C346234723418
:100EA8003E343C3469346D346734203463346C34F4
:100EB8006134733473343D3422346334353422342A
:100EC80020347334723463343D34223468347434D7
:100ED800743470343A342F342F3467346F346F34A9
:100EE8002E3467346C342F34313456346834383403
:100EF80076344D342234203461346C3474343D34C7
:100F0800223441346E346F346234693475346D344C
:100F18002734733420344C346F3467346F342234BC
:100F28003E343C34623472343E343C34623472347D
:100F38003E343C347334703461346E3420346F344E
:100F48006E3463346C34693463346B343D34223426
:100F580074346834693473342E34733474347934A3
:100F68006C3465342E3463346F346C346F347234BB
:100F780020343D34203427347234653464342734C3
:100F88002234203463346C346134733473343D3424
:100F980022346334363422343E3440345234653497
:100FA8006C3420343034333434342E3430343134E7
:100FB8003C34623472343E343C342F3473347034ED
:100FC80061346E343E343C342F34733470346134BD
:100FD8006E343E343C342F3462346F3464347934A4
:100FE8003E343C342F34683474346D346C343E34BD
:10100000240023082200B0002100D3102200301C4D
:101010000B282100D314210053112200B01C1228E8
:10102000210053152100D3112200301D1928210061
:10103000D315210053122200B01D20282100531681
:101040002100D3122200301E27282100D3162100B0
:1010500053132200B01E2E28210053170230200007
:10106000CF000130AF009C31EB248831FB302100F0
:10107000D9009630DA0001302000AF009B31CA233E
:10108000883123005E082100C40001302000AF0039
:101090009B31EF23883102302100D9009730DA00EC
:1010A00001302000AF009B31CA23883123005F0844
:1010B0002100C40001302000AF009B31EF238831B4
:1010C00002302100D9009730DA0001302000AF0053
:1010D0009B31CA238831230060082100C4000130FD
:1010E0002000AF009B31EF23883102302100D9006E
:1010F0009730DA0001302000AF009B31CA238831DD
:10110000230061082100C40001302000AF009B31A2
:10111000EF2388310130CF000130AF009C31EB2448
:10112000883104302100D9009730DA0001302000E6
:10113000AF009B31CA23883109302100C300013040
:101140002000AF009D310625883109302100D900EB
:101150009730DA0001302000AF009B31CA2388317C
:1011600009302100C30001302000AF009D31062569
:1011700088310E302100D9009730DA00013020008C
:10118000AF009B31CA23883109302100C3000130F0
:101190002000AF009D310625883113302100D90091
:1011A0009730DA0001302000AF009B31CA2388312C
:1011B00009302100C30001302000AF009D31062519
:1011C000883118302100D9009730DA000130200032
:1011D000AF009B31CA23883109302100C3000130A0
:1011E0002000AF009D31062588311D302100D90037
:1011F0009730DA0001302000AF009B31CA238831DC
:101200000130CF000130AF009C31EB248931210047
:10121000C401D318C40A01302000AF009B31EF2372
:10122000893109302100C30001302000AF009D3119
:10123000062589312100C4015319C40A0130200058
:10124000AF009B31EF23893109302100C300013009
:101250002000AF009D31062589312100C401D3193A
:10126000C40A01302000AF009B31EF2389310930DF
:101270002100C30001302000AF009D3106258931D7
:101280002100C401531AC40A01302000AF009B3171
:10129000EF23893109302100C30001302000AF0065
:1012A0009D31062589312100C401D31AC40A0130B9
:1012B0002000AF009B31EF23893109302100C300AA
:1012C00001302000AF009D31062589312100C40185
:1012D000531BC40A01302000AF009B31EF2389313A
:1012E0000130CF000130AF009C31EB248931F00197
:1012F00021005319F0097008EB00F001D31CF0092C
:101300006B087005E500651C452A2630D90097302A
:10131000DA0001302000AF009B31CA23893101304F
:10132000CF000130AF009C31EB2481311A2189318B
:1013300023006708F5006908F90020009631B726F8
:10134000893175082300E7007908E9006608F5008F
:101350006808F90020009631B72689317508230006
:10136000E6007908E80001302200A000A101230076
:101370006A082000AC0023006B082000AE002300A8
:101380006C082000AD0023006D082000A80022009A
:1013900020082000A807220021082000AD3D0030D1
:1013A000AE3D0030AC3D28082400A10020002D08EF
:1013B0002400A00020002E082300EF0020002C08AD
:1013C0002300EE00FF30ED00FF30EC001030EB00AA
:1013D0001130EA00200046142400A301A3142316B0
:1013E0002030A400A501200020082400AF00200028
:1013F00020082400B0000F30230052052100A00077
:101400002000FF0121002008F50020007F08F600E1
:101410000430F900FA01D72770082100A0007108F4
:101420002000FF0023005408F500F601F901013007
:10143000FA002000D72770082100E5007108E600B7
:101440002300550821006507E9000030663DEA00E9
:101450000E3069072200A80020009831BA2094318C
:1014600023248A31220028082100B900BA01200073
:101470009A31E0228A31220028082100B900BA01FD
:1014800020009831F1208A31A2012100D31E7C2B4B
:10149000D318EA2A23005E08E2005F08E300600830
:1014A000E4006108E500220047082300DE00220076
:1014B00048082300DF00220049082300E000220042
:1014C0004A082300E1006708F5006908F9002000D8
:1014D0009631B7268A3175082300E7007908E900BC
:1014E0006608F5006808F90020009631B7268A31B1
:1014F00075082300E6007908E800200099314021B2
:101500008A3123006A082000E00023006B082000D5
:10151000E20023006C082000E10023006D08200099
:10152000DC0023005408F500F601F9010130FA004F
:101530002000D72770082100E5007108E60023008D
:10154000550821006507E9000030663DEA0069089A
:1015500020005C072100E5006A082000613D2100B1
:10156000E60000302000623D2100E700003020004E
:10157000603D2100E800283065022000DC000030DA
:101580002100663B2000E10000302100673B200085
:10159000E20000302100683B2000E0002400210828
:1015A0002300ED00240020082300EC006F08EB006E
:1015B0006E08EA0020005C082400A10020006108F9
:1015C0002400A000200062082300EF002000600833
:1015D0002300EE002100531E7C2B2F30D9009730C2
:1015E000DA0001302000AF009B31CA238A3101307C
:1015F000CF000130AF009C31EB248A3123005E081C
:101600002100C40001302000AF009B31EF238B315B
:1016100037302100D9009730DA0001302000AF00C8
:101620009B31CA238B3123005F082100C4000130A5
:101630002000AF009B31EF238B3137302100D900E0
:101640009730DA0001302000AF009B31CA238B3184
:10165000230060082100C40001302000AF009B314E
:10166000EF238B3137302100D9009730DA00013079
:101670002000AF009B31CA238B3123006108210079
:10168000C40001302000AF009B31EF238B312400D8
:10169000A30123162300D4012830D50050302400A4
:1016A000A2001030A3002030A400A501AA01AB01C4
:1016B000AC01AD01AE01AF0120009831BA209431E8
:1016C00023248B312300D4012830D5003C30210065
:1016D000B900BA0120009A31E0228B313C30210060
:1016E000B900BA0120009831F1208B310130A200FD
:1016F00001302100EE00EF01D318832B200095313B
:1017000073258B31872B20009D3114258B310800E8
:10171000121692129211121192109712971117111C
:10172000171505302100DC00200097141430F2005A
:10173000F301983100208B3197101430F200F3013F
:10174000983100208B3197141430F200F301983156
:1017500000208B312100DC0B942B200017110B3063
:101760002100C700C60120009E315D268B31FF306D
:101770002100C90020009B3190238B316330210070
:10178000AB001D302000A3009931E6218B310130E0
:1017900033052100E500F5000130F90020009E31FD
:1017A00096268B31F0097018C12B1F30A300C03072
:1017B000B5009B315A238B311E30A3008030B50019
:1017C0009B315A238B311C30A300B5019B315A2326
:1017D0008B311B30A300C130B5009B315A238B31B4
:1017E0003630A300B5019B315A238B313730A3002B
:1017F000B5019B315A238B310430A3007030B50002
:101800009B315A238C310530A3001630B5009B3133
:101810005A238C310630A300FF30B5009B315A2388
:101820008C310730A3001F30B5009B315A238C3117
:101830000830A300B5019B315A238C310930A30035
:10184000B5019B315A238C310A30A3006E30B500AC
:101850009B315A238C310B30A3001630B5009B31DD
:101860005A238C31A301B5019B315A238C310130AD
:10187000A300B5019B315A238C310C30A300B50174
:101880009B315A238C310D30A300B5019B315A2373
:101890008C312100B101B30138302000A300203089
:1018A000B5009B315A238C317730A300B5019B31B1
:1018B0005A238C317530A300B5019B315A238C31EA
:1018C0006730A300B5019B315A238C311D30A30032
:1018D0009931E6218C31013033052100E500F50016
:1018E0000130F90020009E3196268C31F0097018E5
:1018F000662CEA30A300B5019B315A238C31D230DB
:10190000A300B5019B315A238C31C030A3000D30A8
:10191000B5009B315A238C31C230A3003230B50060
:101920009B315A238C31C330A3000130B5009B3169
:101930005A238C31CA30A300EE30B5009B315A23B4
:101940008C31CB30A3000530B5009B315A238C314C
:10195000C430A3001230B5009B315A238C31C630FD
:10196000A3001230B5009B315A238C31C730A3003D
:101970000C30B5009B315A238C31E130A30002308A
:101980002100570784000030583D850000082000E2
:10199000B5009B315A238C31E030A3000130210087
:1019A000570784000030583D850000082000B5002E
:1019B0009B315A238C31E330A300043021005707B8
:1019C00084000030583D850000082000B5009B31A0
:1019D0005A238C31E230A3000330210057078400E2
:1019E0000030583D850000082000B5009B315A2387
:1019F0008C31E530A3000630210057078400003009
:101A0000583D850000082000B5009B315A238D31D8
:101A1000E430A30005302100570784000030583D12
:101A2000850000082000B5009B315A238D3121002C
:101A3000BB012000B601B7019B3137238D31103037
:101A40002100BB002000B601B7019B3137238D3147
:101A500014302100BB0004302000B6007630B700FF
:101A60009B3137238D3112302100BB002000B6019D
:101A7000B7019B3137238D311F30A3001430B500DF
:101A80009B315A238D3114302100BB007630200069
:101A9000B6000430B7009B31372B7708F500780883
:101AA000F6007330F9000230FA009E31AE268D3117
:101AB000701C00347708643EF7000D300318013EB7
:101AC00078078A0077088200053400340034003437
:101AD0000034003400340034003400340034003466
:101AE0000034003400340034003400340034003456
:101AF0000034003400340034003400340034003446
:101B00000034003400340034003400340034003435
:101FA000003400340034003400340034FF34750849
:101FB000F7007608F8007908FB007A08FC00F201C7
:101FC000F3017B1CE72F7708F2077808F33D031035
:101FD000FC0CFB0C0310F70DF80D7B08F9007C08D6
:101FE000FA00F501F6019E31AE268F317018E12F0F
:0A1FF0007208F0007308F100080009
:102000002100CD01CE01CF01D001AC01AE014A08C3
:10201000200038022100E5004B082000393B210058
:10202000E6006508F5006608F6000230F900FA01DE
:1020300020009E31D126903170082100A70027038F
:10204000031D2C28F930D9009630DA000130200029
:10205000AF009B31CA239031023021004A02200098
:10206000DA00003021004B3B2000DB0021004A0851
:10207000F9004B08FA0020003808F5003908F6008E
:102080009E31AE269031701880280230DA07003079
:10209000DB3D13305A072100E500213020005B3D75
:1020A0002100E6000130650784000030663D8500B0
:1020B0000008CD070030CE3D0030CF3D0030D03D90
:1020C000133020005A07840021305B3D8500000852
:1020D0002100AE002C08CD072E08CE3D0030CF3DAC
:1020E0000030D03D20005A08F5005B08F6003808A3
:1020F000F9003908FA009E31AE2690317018452853
:1021000021004D08F9004E08FA004F08FB00500866
:10211000FC001030B40020009B31B42390314B08F8
:10212000DA004C08DB0021004D08AC004E08AE0080
:1021300020005A082100AC0720005B082100AE3DBA
:10214000AC09AE0913303F0784002130403D8500C3
:102150002E08800013303F07E5002130403DE600A7
:102160000130650784000030663D85002C08800042
:102170002000080022002B082C022100E90000307A
:1021800022002D3B2100EA006908F5006A08F600EC
:102190000230F900FA0120009E31D12690317008FA
:1021A0002200B1002100A201A301A601A501023075
:1021B00022002B022100A800A901031CA903220070
:1021C0002B08F900FA012C08F5002D08F600200074
:1021D0009E31AE2690317018352902302100A807B3
:1021E0000030A93D1330280784002130293D8500A7
:1021F0000008F900FA01FB01FC010830B4002000DE
:102200009B319E23913147082100A00020004808FF
:10221000FF002100280A2000D9001330590784004C
:1022200000302100EB0021306B3D85000008A00745
:1022300000302000FF3D21002008A20720007F0879
:102240002100A33D0030A63D0030A53D2808F50043
:102250002908F60022002C08F9002D08FA002000B9
:102260009E31AE2691317018ED2821002703031D01
:10227000612903302200AC070030AD3D13302C073C
:10228000840021302D3D85000008F900FA01FB0192
:10229000FC0108302100B40020009B319E239131C5
:1022A00047082100A00020004808FF002100200866
:1022B000A20720007F082100A33D0030A63D00308A
:1022C000A53D2208F9002308FA002608FB0025088E
:1022D000FC001030B40020009B31B42391314B0836
:1022E0002100A00020004C08FF0021002208A007C8
:1022F00023082000FF3D2100A0092000FF097F08DE
:102300002200AE00210020082200AF0020000800BB
:102310001C30A3009931E621913140303305B400DF
:102320004030340203199629562808007230A30061
:102330009931E62191313308B2000130BC00BE0171
:102340002000A301210031082000B5009B315A2351
:1023500091310130A300210033082000B5009B31EA
:102360005A239131BC0A0319BE0A3C08F5003E0805
:10237000F600F901FA019E319C2691317018ED2981
:10238000A3019931E621913133082100D4000130B5
:102390002000A3009931E621913121005408F50075
:1023A0003108F90020009E3196269131F00970081D
:1023B0002100E50020003308F50021003308F90072
:1023C00020009E3196269131F00970082100E90025
:1023D00065086904EB006B18A02906302000BA00DC
:1023E000BB01A623230044082100B100B301230050
:1023F00045082100B300230046082000BF00C101AA
:10240000230047082000C100230048082100C10024
:10241000230049082100C20020003F08BA004108FB
:10242000BB00A6230130BC00BE012000A301210097
:1024300031082000B5009B315A2392310130A300AE
:10244000210033082000B5009B315A239231BC0A89
:102450000319BE0A3C08F5003E08F600F901FA012E
:102460009E319C269231701C482A39302100D900B7
:102470009730DA0001302000AF009B31CA2392313F
:102480000130CF000130AF009C31EB249231752A2E
:10249000A3019931E621923133082100D4000130A3
:1024A0002000A3009931E621923121005408F50063
:1024B0003108F90020009E3196269231F00970080B
:1024C0002100E50020003308F50021003308F90061
:1024D00020009E3196269231F00970082100E90013
:1024E00065086904EB006B18152A013021003105DD
:1024F000E500E6016508F5006608F600F901FA0155
:1025000020009E319C269231701C902A01302100BF
:1025100031022000BC0000302100333B2000BE000F
:102520000C30A3003C08B5009B315A2392310D308A
:10253000A3003E08B5009B315A2392311E30A30000
:102540004030B50098318420923108302300500289
:10255000031DA42B06305102031DD02AD808031DE9
:10256000D02A5903031DD02A2200470823006A02FB
:10257000031DD02A2200480823006B02031DD02A25
:102580002200490823006C02031DD02A22004A08B9
:1025900023006D02031DD02A200098310E209231B5
:1025A0002300D108031DA42B45305202031DA42B88
:1025B0005808F500F90120009E31962692317008E6
:1025C0002100E90023005808F5004030F900200000
:1025D0009E3196269231210069087004EB006B1C35
:1025E000A42B2200470823006202031DA42B220013
:1025F000480823006302031DA42B2200490823007E
:102600006402031DA42B22004A0823006502031D57
:10261000A42B5B03031D162B08306602031D162B2B
:1026200020001614993167219331161011302300C0
:102630005B02031D942B6808F500F601F9010130D7
:10264000FA0020008F31D727933170082100E50070
:102650007108E60023006908210065072200A9002F
:1026600000302100663D2200AA0020009A31C422D9
:10267000933122002908F5002A08F6000730F900F6
:10268000FA0120009E319C269331701C942B9A31C4
:102690006622933123006608F5006808F9002000DF
:1026A000B72675082300E6007908E8006708F500FA
:1026B0006908F9002000B72675082300E7007908AB
:1026C000E90020009A31BF22933123006A08F50007
:1026D000F601F9010130FA0020008F31D72793313C
:1026E0007008D6007108D80023006B082000D607B8
:1026F0000030D83D2230D6070030D83D56082100A2
:10270000B900200058082100BA0020009A31E022C8
:10271000933156082100B900200058082100BA0062
:1027200020009831F1209331063023005B02031D15
:10273000A42BE808031DA42B50306902031DA42B11
:102740002000883100209331200008001711230059
:1027500090133A308C000F1CAB2B0C082200A70002
:102760002000BC01BE010130F900FA013A08F50071
:102770003B08F6009E31AE2693317018EB2BBC0A55
:102780000319BE0A3C08F9003E08FA00DA30F500E9
:102790000230F6009E31AE2693317018EB2B2300E9
:1027A0008C010F1CD12B133020003C0784002130FA
:1027B0003E3D850023000C08800020003C08F50009
:1027C0003E08F6003A08F9003B08FA009E31AE26B2
:1027D00093317018BF2B3A08F9003B08FA00DA3041
:1027E000F5000230F6009E31AE269331701C212C8C
:1027F000DA30BC000230BE00DB30F9000230FA00F3
:102800003A08F5003B08F6009E31AE269431701868
:10281000212CBC0A0319BE0A23008C010F1C0E2CAC
:102820000C082200A70020003C08F5003E08F60036
:102830003A08F9003B08FA009E31AE269431701830
:10284000092C171508002400A601A7012100A201E8
:10285000A301A601A50123005E082000FF002300BC
:102860005F082100A00022082007A2002308200002
:102870007F3D2100A300EB0126086B3DA600E5018A
:102880002508653DA500230060082000FF00230007
:1028900061082100A00022082007A20023082000D0
:1028A0007F3D2100A300EB0126086B3DA600E5015A
:1028B0002508653DA500230062082000FF002300D5
:1028C00063082100A00022082007A200230820009E
:1028D0007F3D2100A300EB0126086B3DA600E5012A
:1028E0002508653DA500230064082000FF002300A3
:1028F00065082100A00022082007A200230820006C
:102900007F3D2100A300EB0126086B3DA600E501F9
:102910002508653DA50023005B082100A2070030C3
:10292000A33D0030A63D0030A53D0F3023005205E9
:102930002100A0002000FF0121002008F500200058
:102940007F08F6000430F900FA018F31D72794315F
:1029500070082100A00071082000FF00210020085D
:10296000A20220007F082100A33B0030A63B0030DC
:10297000A53B230054082000FF0023005508210038
:10298000A00022082007A200230820007F3D21008C
:10299000A300EB0126086B3DA600E5012508653D77
:1029A000A5002008F50020007F08F6000230F9009D
:1029B000FA019E31D126943170082100A7002330FE
:1029C0002007E900003020007F3D2100EA0016309A
:1029D00069022000D600003021006A3B2000D800A8
:1029E0002100A70123006B1CF72C2100A70A21005E
:1029F0002703031D0F2D2000D60A0319D80A133010
:102A000056072100E90021302000583D2100EA004E
:102A100001306907840000306A3D85008001213063
:102A2000A800A9012330F900FA0120005608F5009A
:102A30005808F6009E31AE26953170185A2D023096
:102A40002100A8070030A93D133028078400213059
:102A5000293D850000082000FF00133021002807D1
:102A6000E9002130293DEA00013069078400003087
:102A70006A3D85000008A00022082007A200230864
:102A800020007F3D2100A300EB0126086B3DA6003E
:102A9000E5012508653DA5002808F5002908F60090
:102AA00020005608F9005808FA009E31AE269531EC
:102AB00070181F2D21002208A00023082000FF000D
:102AC00021002608A00700302000FF3D2100A009BA
:102AD0002000FF097F082400A60021002008240010
:102AE000A700200008002100D31EB52E2300D40823
:102AF000031DB52E28305502031DB52E20002203DC
:102B0000031DB52E61302100D9009730DA00013065
:102B10002000AF009B31CA2395310130CF00013036
:102B2000AF009C31EB2495313730A400A5016F3004
:102B30002100D9009730DA0001302000AF009B312E
:102B4000CA23953121006E08C4006F08C50001300A
:102B50002000AF009C313D2495310130CF00013081
:102B6000AF009C31EB24953121006E08F5006F0811
:102B7000F6000130F900FA0120009E319C269531C3
:102B8000701CDC2DD4019E313B269531EA30860045
:102B900020308700F830F7001630F8009F31052705
:102BA0009531EA302100D5002030D60001302000D8
:102BB000D3009D31B3259531BC01DD308600203036
:102BC0008700F830F7001630F8009F31052795315F
:102BD000013021006E02EC0000306F3BED006E080A
:102BE000F9006F08FA002330F5000530F6002000E8
:102BF0009E31AE2695317018612E2100EC0A031922
:102C0000ED0A2000BC0ADD303C07840000302100C2
:102C1000EB0020306B3D85006C08F7006D08F80074
:102C200020008231C122963180003C082200DD0064
:102C300020003C08F5000C30F9009E31BD2696318D
:102C40007008BC00BC08031D522EDD302100D500E9
:102C50002030D6002000D3019D31B3259631540396
:102C6000031D472E82302100D9009730DA00013051
:102C70002000AF009B31CA2396310B3021006C023B
:102C8000EE0000306D3BEF002000D4010800DD3085
:102C9000860020308700F830F7001630F8009F31AA
:102CA0000527963121006C08F5006D08F6002330E9
:102CB000F9000530FA0020009E31AE2696317018DA
:102CC000FD2DBC0803199A2EDD303C07840000302E
:102CD0002100EB0020306B3D85006C08F7006D088B
:102CE000F80020008231C122963180003C08220089
:102CF000DD00DD302100D5002030D6002000D301DA
:102D00009D31B32596315403031D9A2E8D30210039
:102D1000D9009730DA0001302000AF009B31CA2380
:102D20009631210821006C02EE0000306D3BEF006F
:102D30002000080098302100D9009730DA000130D7
:102D40002000AF009B31CA239631FF30D200813181
:102D500039219631DD30860020308700EE30F700D3
:102D60001630F8009F3105279631200008007508BD
:102D7000F0007908F5007008F900080078088A006A
:102D80007708F70A0319F80A82001C3445344E34D8
:102D90004334323438346A343634303420344534B1
:102DA00074346834653472346E3465347434203469
:102DB00044347234693476346534723420343034B7
:102DC000333431340B3449346E34693474346934F7
:102DD00061346C346934733465346434093469346F
:102DE0006E346434653478342E34683474346D341D
:102DF000003401342134063446346C346134673491
:102E000073343A3401342C340434463449344E3467
:102E100020340434533459344E342034043452347E
:102E2000533454342034043450345334483420342C
:102E30000434413443344B34203408345434433460
:102E400050345F34553452344734203408347334AA
:102E500079346E3426342134663469346E34073460
:102E6000613463346B342634703473346834013421
:102E70002E341934233432344534523444345034EB
:102E800054344C34203461346E346434203445344A
:102E90005234443450345434483420346534723419
:102EA00072346F3472340D3442347534663466349F
:102EB0006534723420344F3476346534723475346A
:102EC0006E340D34613463346B34263461346334CE
:102ED0006B3470347534733468343D3431341234A7
:102EE0005434613462346C34653453347434613432
:102EF0007234743450346F3469346E347434203422
:102F00003D3420340A346534783469347434693497
:102F10006E3467344034313420340A3465347834C4
:102F20006934743469346E34673440343234203454
:102F30000A344834543454345034533465346E3481
:102F40006434403433340734613463346B342634AE
:102F5000663469346E340F34483454345434503445
:102F60002F3431342E343034203432343034303451
:102F700020344F344B34103465346D347034743431
:102F800079342034743468346534203462347534D0
:102F90006634663465347234073420342034503457
:102FA00041344434213420340534533465346E3490
:102FB00064343A34073442342F3457346934723429
:102FC00065343A340A342C34203454344334503485
:102FD000203450346B3474343A3407342C34203475
:0A2FE000483454344D344C343A3474
:10300000F30A0E30F100BD30F000F00B0528F10B93
:103010000328F20B0128F30B012808008222230069
:103020004408E4004508E5004608E6004708E700D4
:103030004808E8004908E9006008EA006108EB0078
:103040006208EC006308ED004A08DA004B08DB0078
:103050004C08DC004D08DD004E08DE004F08DF00A4
:10306000220047082300E000220048082300E10076
:10307000220049082300E20022004A082300E3005E
:103080000230D9002A302100B900BA012000E02224
:103090002A302100B900BA012000F1286030230550
:1030A000A60005302100E00003102000A60C21003E
:1030B000E00B54282000260821002B0203196E285B
:1030C0001F30200023052100E500F9001B30F5002A
:1030D0002000A726F0097018322272282000260846
:1030E0002100AB00200017111F3023052100E5004F
:1030F000A0306504C9002000902335082100C900D4
:10310000200090231715080060302305A600053025
:103110002100E10003102000A60C2100E10B8A2809
:103120002000260821002B020319A4281F302000AC
:1031300023052100E900F9001B30F5002000A72637
:10314000F00970183222A828200026082100AB00C0
:10315000200017111F3023052100E9008030690489
:10316000C9002000902335082100C90020009023C9
:10317000171508002100A2010F302300520520007E
:10318000EA0002302100E20003102000EA0D2100D5
:10319000E20BC428A201A7010F302200AB000E30C1
:1031A00020006A072100E900EA010318EA0A013059
:1031B00069022200AC00003021006A3B2200AD0011
:1031C0002300DC01DD0120009031BA20983122007B
:1031D0002E082300DC0022002F082300DD00200041
:1031E00008001F30A3008030B50084201F30A300EA
:1031F0008030B5004E201C30A3000230B5004E20B8
:103200001F30A300E621083033052100E900F50056
:103210000830F9002000962670180029703021002F
:1032200039072000D600163021003A3D2000D80092
:103230000630A3005608B5005A230730A3005808EB
:10324000B5005A231C30A3000830B50084201B3081
:10325000A3000830B5004E201F30A3000830B50091
:1032600084201F30A300E621083033052100E90047
:10327000F5000830F9002000962670183129080062
:1032800023004A08C4004B08C5004C08C6004D087E
:10329000C7004E08C8004F08C90022004C08230090
:1032A000CA0022004D082300CB0022004E08230054
:1032B000CC0022004F082300CD002200500823003C
:1032C000CE00220051082300CF00200008006E0825
:1032D0002300D60020006C082300D7002000EC0A51
:1032E0000319EE0A81311A2199312300DC01DD0135
:1032F0000F302100CA00CB0121302000B800B901F5
:1033000019302100BF00C001200090310020993108
:103310002300E601E801E90154082100B800230078
:1033200055082100B6000D30B6070030B83D2330F7
:10333000CA00CB0136082000B80021003808200060
:10334000B90025302100BF00C001200090310020CD
:1033500099312100B60A0319B80A3608B9003808AD
:10336000BA002000E02221003608B9003808BA006F
:103370002000F1283930A300E6213308003C03186F
:10338000CA29DA302100AF000230B00020009131AC
:10339000882199311C30A300E62133082100E50083
:1033A000651CE4295330D9009730DA000130200041
:1033B000AF00CA230130CF000130AF00EB241C3036
:1033C000A3000130B5004E20200008006030230526
:1033D000A60005302100DD0003102000A60C21000E
:1033E000DD0BEC292000260821002B0203190A2AF4
:1033F0001F30200023052100E500F9001B30F500F7
:103400002000A726F009701C072A32220A2A260863
:103410002100AB0020001711230090131F30200063
:1034200023052100E50023008C000F1C152A0C0841
:103430002200A700230090132200270823008C00FD
:103440000F1C202A0C082200A70023009013220042
:10345000270823008C000F1C2B2A0C082000B30027
:10346000171508001711BF302100C9002000902354
:1034700003302100C90020009023171517119F3039
:103480002100C900200090232603031D4D2A01308E
:103490002100C90020009023602A02302602031D6B
:1034A000572A02302100C90020009023602A0330EF
:1034B0002602031D602A03302100C900200090234A
:1034C000171526082100AB002000080023005E0825
:1034D000E2005F08E3006008E4006108E500220004
:1034E00047082300DE00220048082300DF002200F6
:1034F00049082300E00022004A082300E1002000E0
:103500008222BA28DA01DA0A19302100E5002130D6
:10351000E60020005A082100650784000030663D5F
:1035200085000008D200D100133020005A07840023
:1035300000302100E9002130693D850051088000FC
:10354000063020005A02031C832A22004C08230064
:10355000CA0022004D082300CB0022004E082300A1
:10356000CC0022004F082300CD0022005008230089
:10357000CE00220051082300CF00200008002300C5
:10358000EC01ED012000080022002908F5002A08BE
:10359000F6007030F9001730FA0020009C26701CED
:1035A000D22ADF2A22002908F5002A08F6008830EE
:1035B000F9001330FA0020009C26701CDF2A080056
:1035C0000230A3007030B5005A230330A300163038
:1035D000B5005A231711230090137A308C000F1C6A
:1035E000EF2A0C082200A7000E3023008C000F1CCD
:1035F000F72A0C082200A7002000BC01BE01013000
:10360000F900FA0121003908F5003A08F600200017
:10361000AE267018352BBC0A0319BE0A3C08F90007
:103620003E08FA00DA30F5000230F600AE267018D7
:10363000352B13303C07840021303E3D85000008C7
:1036400023008C000F1C222B0C082200A700200056
:103650003C08F5003E08F60021003908F9003A0858
:10366000FA002000AE2670180B2B17150800EA3060
:10367000A300E621D430A30021003B082000B500C0
:103680005A23D630A3003608B5005A23D730A300FA
:103690003708B5005A23EA30A300E621013033058C
:1036A0002100E500F5000130F90020009626701891
:1036B0004B2B080060302305A60005302100DE00FA
:1036C00003102000A60C2100DE0B602B2000260832
:1036D00021002B0203197A2B1F3020002305210023
:1036E000E500F9001B30F5002000A726F00970184E
:1036F00032227E2B200026082100AB00200017116B
:103700001F3023052100E50040306504C90020007A
:10371000902335082100C9002000902317150800C8
:10372000230090132100490823008C000F1C962BC6
:103730000F100C082100C8002000080021003408E8
:10374000E4000319AA2B0310F90DFA0DFB0DFC0D73
:10375000E40BA32B79082000C7007A08C8007B0877
:10376000C9007C08CA00080021003408E3000319DE
:10377000C02B0310FC0CFB0CFA0CF90CE30BB92B5F
:1037800079082000CB007A08CC007B08CD007C08AB
:10379000CE0008002100590884005A08850000085E
:1037A000BE00BE080319ED2BDB0101303E02031CF5
:1037B000ED2BDB0A5B085907840000305A3D850079
:1037C0000008C300200006250130F200F3010020AC
:1037D00021003E085B02031CD92B200008002100B9
:1037E000B50164304402031C092C4408F500643020
:1037F000F9002000BD2675082100B5007008C4003E
:1038000030303507C300200006250130F200F301F7
:10381000002021003508F900F5012000A7267008D6
:103820002100EB004408F5000A30F9002000A7262B
:10383000F00921006B087004E500651C332C440876
:10384000F5000A30F9002000BD2675082100B500FA
:103850007008C40030303507C30020000625013051
:10386000F200F3010020303021004407C3002000A3
:1038700006250130F200F30100282100B5014408BB
:10388000F5004508F6001030F9002730FA00200056
:10389000AE26F009701C682C21004408F50045088C
:1038A000F6001030F9002730FA002000D126750804
:1038B0002100B5007008C4007108C500303035071C
:1038C000C300200006250130F200F3010020762C11
:1038D00021004408F5004508F600E830F9000330FF
:1038E000FA002000AE26F009701C922C210044083A
:1038F000F5004508F600E830F9000330FA00200032
:10390000D12675082100B5007008C4007108C500F3
:1039100030303507C300200006250130F200F301E6
:1039200000209F2C21004408F5004508F600643073
:10393000F900FA012000AE26F009701CBA2C210013
:103940004408F5004508F6006430F900FA0120004B
:10395000D12675082100B5007008C4007108C500A3
:1039600030303507C300200006250130F200F30196
:103970000020C72C21004408F5004508F6000A3055
:10398000F900FA012000AE26F009701CE12C21009C
:103990004408F5004508F6000A30F900FA01200055
:1039A000D12675082100B5007008C4007108C50053
:1039B00030303507C300200006250130F200F30146
:1039C0000020303021004407C300200006250130CC
:1039D000F200F30100284F082100DF000319042D35
:1039E0000D30C300200006250130F200F301002055
:1039F0000A302100C300200006250130F200F30147
:103A000000202100DF0BF02C200008002F03031DF5
:103A1000122D2E000F1E092D0F1E0C2D2100430804
:103A200022009A00200008002100D31EB12DD31CD3
:103A3000B12DA330D9009730DA0001302000AF005B
:103A4000CA230130CF000130AF00EB242400A301D2
:103A5000231623005E08E2005F08E3006008E4002C
:103A60006108E500220047082300DE002200480824
:103A70002300DF00220049082300E00022004A085A
:103A80002300E1006708F5006908F900200096317D
:103A9000B7269D3175082300E7007908E90066081C
:103AA000F5006808F90020009631B7269D317508A9
:103AB0002300E6007908E8002000402123006A087E
:103AC0002000AC0023006B082000AE0023006C082F
:103AD0002000AD0023006D082000A800240021086C
:103AE0002300ED00240020082300EC006F08EB0009
:103AF0006E08EA002000A80A28082400A10020007F
:103B00002D082400A00020002E082300EF00200034
:103B10002C082300EE00D4012830D50050302400BA
:103B2000A2001030A300A4017230A500AA01AB01CD
:103B3000AC01AD01AE01AF012000BA2094312324C5
:103B40009D312300D4012830D5003C302100B9003C
:103B5000BA012000E0223C302100B900BA01200067
:103B6000F120200008002100550884005608850037
:103B70000008200024072100E90000302000253D36
:103B80002100EA00063069072000D600003021003D
:103B90006A3D2000D8005608F9005808FA00DA30CB
:103BA000F5000230F600AE26701CF22D0130CF0079
:103BB0000130AF00EB24BB302100D9009730DA0090
:103BC00001302000AF00CA230130CF000130AF0028
:103BD000EB24D201813139219D313730A400A50178
:103BE0000130D400B001210055088400560885003A
:103BF00001300002031C202E2000B00A30082100F2
:103C0000550784000030563D85000008D100D200E1
:103C100013302000240784002130253D8500210039
:103C2000520880002000A40A0319A50A21005508A3
:103C3000840056088500000820003002031CFC2D7B
:103C400020005303031D3A2E133024078400213033
:103C5000253D85000D308000A40A0319A50A133004
:103C6000240784002130253D85000A308000A40A05
:103C70000319A50A0800EA30860020308700AB301F
:103C8000F7001730F8000527EA302100D500203072
:103C9000D60001302000D300B32508002100931383
:103CA0003E00B801C301CE013300941390132000ED
:103CB0008C018D018E0190010800230090128F135A
:103CC0000F1321004618662E23000F172300101231
:103CD0002100C61C6D2E2300101623009011101118
:103CE000901010100D3021004702031D782E922EE7
:103CF0000C304702031D7F2E23001014922E0B3030
:103D00004702031D862E23009014922EC708031D20
:103D10008D2E230010151014922E4703031D922E92
:103D2000230010152300901620000800F0017508EC
:103D300079020319F0090800F00175087902031DE2
:103D4000080076087A02031D0800F0090800F00157
:103D5000031479087502031CF0090800F0017608C5
:103D60007A02031C08007A087602031CBB2E79082D
:103D7000750203180800F0090800F9080319080083
:103D8000F0010830F4000310F50DF00D7908F00291
:103D900075140318CE2E75107908F007F40BC32E96
:103DA00008007508F7007608F8007908FB007A0823
:103DB000FC00F201F3017B08F5007C08F600F90134
:103DC000FA019C26701CE72EF501F6010800103060
:103DD000F4000310F70DF80DF20DF30D7B08F2025D
:103DE0007C08F33B77140318FA2E77107B08F20750
:103DF0007C08F33DF40BE92E7708F5007808F6000F
:103E00007208F0007308F10008009631BE269F3159
:103E1000F5008100102F9631BE269F31F500F60780
:103E2000F508031908009631BE269F314131810003
:063E3000F50B132F080042
:020000040001F9
:0A000E008C3FFF3F9F3FFF1FFD3FA7
:00000001FF
