:020000040000FA
:0400000006EF00F017
:020008009AD18B
:10000C004CD95BD966D9F28EF28C939A700ED36E62
:10001C00100ED26E800E9B6EB56AD2AEFED7949C3B
:10002C0093908A8017EEBCF0B80EF66E060EF76E43
:10003C0021DBBC0E306F070E316F010E0B6FA7D892
:10004C00010E0C6F010E0B6F04D9356B81B0352B83
:10005C00351F8A9035B18A803CD90A6BC4D913C03C
:10006C0024F014C025F0010E026E036A3FD8010E75
:10007C000A6FB9D913C026F014C027F0010E026E16
:10008C00036A34D8020E0A6FAED913C028F014C01C
:10009C0029F0010E026E036A29D8030E0A6FA3D948
:1000AC0013C02AF014C02BF0D8D70300FED717EEDC
:1000BC00B4F0C80EF66E060EF76EDCDAB40E306FC6
:1000CC00070E316F010E0B6F62D841C02DF0010E7F
:1000DC000B6F7ED8010E0C6F010E0B6FBAD0270E72
:1000EC00006E002EFED7052EFAD71200032AB30E8F
:1000FC00016E150E006E002EFED7012EFAD7022EC1
:10010C00F6D7032EF4D7120017EEB4F0C00EF66E2D
:10011C00060EF76EAFDAB40E306F070E316F010EAC
:10012C000B6F35D867CF38F00CD8B00E306F070E88
:10013C00316F010E0B6F2BD8010E0C6F010E0B6F74
:10014C0088D0020E0701B06F0F0E00013815346F06
:10015C000908D8B002D0070E3427300E3425070119
:10016C00B26F0001346B342B3833040E345DD8A0DD
:10017C00FAD70F0E3815346F0908D8B002D0070E15
:10018C003427300E34250701B16F0001120030C046
:10019C00E9FF31C0EAFFEFCF12F01253D8B417D0F9
:1001AC00326B010E125DD8A012D0322B3251302599
:1001BC00E96E000E3121EA6EEFCF2CF060D8010E03
:1001CC00026E036A93DF1251325DD8A0EED7120093
:1001DC00106B640E2D5DD8A011D02DC005F0640EEF
:1001EC00096E34DA05C010F000C02DF0300E102569
:1001FC002C6F45D8010E026E036A78DF10C009F02F
:10020C00056A1FDA00C037F02DC005F00A0E096E22
:10021C0018DA001E37510010356F35A111D02DC0E2
:10022C0005F00A0E096E12DA05C010F000C02DF0B0
:10023C00300E10252C6F23D8010E026E036A56DF88
:10024C00300E2D252C6F1BD8010E026E036A4EDF6B
:10025C0012000CC033F03353D8B410D00D0E2C6FE9
:10026C000ED8010E026E036A41DF0A0E2C6F07D8FE
:10027C00010E026E036A3ADF332FF0D712000B0522
:10028C00D8A40AD09EA8FED79EA8FED72CC0ADFF3E
:10029C0012002CC0ADFF12001200E06AF86AC09E7A
:1002AC00C2900F015B6B5C6B5D6B999E989E806A34
:1002BC00816A826A846A00011200010E0B6F670E5C
:1002CC00AF6EB06AB886AC84AC98AB8EAB88AC8A97
:1002DC001200020E026E036A09DF7F0E646E9F0E1F
:1002EC00666EA384628462966288080E0401006FB5
:1002FC00080E046F65A602D06596FCD76A6A400E9C
:10030C00066F040E076FC00E026F040E036F056BB1
:10031C00800E016F080E046F880E006F6098160E29
:10032C006A6E656A676A636A0001476B3C6B60863C
:10033C001200E8CF0EF0D8CF0FF0E0CF2FF035C081
:10034C0020F005C01AF009C01BF0E9CF17F0EACF76
:10035C0016F000C01CF004C01DF0E1CF19F0E2CF84
:10036C0018F006C01FF002C022F003C023F001C039
:10037C0015F037C021F007C01EF0A3A405D0A4A42B
:10038C0003D0E4D9A49400D020C035F01AC005F0F5
:10039C001BC009F017C0E9FF16C0EAFF1CC000F033
:1003AC001DC004F019C0E1FF18C0E2FF1FC006F029
:1003BC0022C002F023C003F015C001F021C037F0B9
:1003CC001EC007F00EC0E8FF0FC0D8FF2FC0E0FF23
:1003DC001000EACFEAFFE9CFE9FFEFCF11F01200EE
:1003EC000DC0EFFF1200C08E0A53D8A403D00F012A
:1003FC005B816ED00A05D8A403D00F015B8368D053
:10040C00020E0A5DD8A403D00F015B8561D0030EE8
:10041C000A5DD8A403D00F015B875AD0040E0A5D85
:10042C00D8A403D00F015B8B53D00C0E0A5DD8A45B
:10043C0003D00F015C814CD00A0E0A5DD8A403D006
:10044C000F015C8345D0080E0A5DD8A403D00F01C0
:10045C005C853ED0090E0A5DD8A403D00F015C87E1
:10046C0037D00B0E0A5DD8A403D00F015C8930D0B5
:10047C000D0E0A5DD8A403D00F015C8B29D00E0E93
:10048C000A5DD8A403D00F015D8522D00F0E0A5D42
:10049C00D8A403D00F015D871BD0100E0A5DD8A421
:1004AC0003D00F015D8914D0110E0A5DD8A403D0BE
:1004BC000F015D8B0DD0120E0A5DD8A403D00F0175
:1004CC005D8D06D0130E0A5DD8A402D00F015D8F8E
:1004DC00C094C082C090C294C296C298C29AC29C68
:1004EC0000010AB1C2840AB3C2860AB5C2880AB72F
:1004FC00C28A0AB9C28CC280020E056EF0DDC282BD
:10050C000000C2B2FED7C2900F015B6B5C6B5D6BDF
:10051C00C3CF13F00001146BC4CF14F0C09E1200B3
:10052C00830E0701C55DD8A404D08A8A0001E7D9DF
:10053C0086D0840EC55DD8A404D08A9A0001DFD978
:10054C007ED0850EC55DD8A461D0080E0401056F60
:10055C0006C4E9FF07C4EAFF24C00DF0000140DF28
:10056C00010E04010625E96E000E0721EA6E25C076
:10057C000DF0000135DF020E04010625E96E000EB8
:10058C000721EA6E26C00DF000012ADF030E0401DC
:10059C000625E96E000E0721EA6E27C00DF000015A
:1005AC001FDF040E04010625E96E000E0721EA6E1A
:1005BC0028C00DF0000114DF050E04010625E96EBC
:1005CC00000E0721EA6E29C00DF0000109DF060EAE
:1005DC0004010625E96E000E0721EA6E2AC00DF013
:1005EC000001FEDE070E04010625E96E000E072150
:1005FC00EA6E2BC00DF00001F3DE040104AD03D054
:10060C00880E046F02D0C80E046F19D017EEB4F028
:10061C00C20EF66E060EF76E00012CD8B40E306FBB
:10062C00070E316F010E0B6FB2DDC5C72DF0010E39
:10063C000B6FCEDD010E0C6F010E0B6F0ADE00018D
:10064C001200006809500560006A12000952D8B403
:10065C001200006A080E046ED89005360036095058
:10066C00005E0580D8B003D0059009500026042EFA
:10067C00F3D712000900F5CF05F0F5CFE7FF04D052
:10068C000900F550056E06260552D8B41200090073
:10069C00F5CFE4FF052EFBD7120010474342415320
:1006AC0049432055534220546573740007555342F7
:1006BC00204347420145045265712000054465738F
:1006CC00632009477265617420436F770000120E36
:1006DC000760000C0750F40FF66E060ED8B0010F31
:1006EC00F76E0800F5501200120902120001010009
:1006FC0080190904000000FF00FF130E0760000CB6
:10070C000750200FF66E070ED8B0010FF76E0800D9
:10071C00F550120012120100020000004055F000CA
:10072C0010010101020001000A0E0760000C0750C5
:10073C004E0FF66E070ED8B0010FF76E0800F5508D
:10074C0012000A0A060002000000400165A027D032
:10075C00080E0401006F080E046F65A602D06596A2
:10076C00FCD76A6A400E066F040E076FC00E026F4C
:10077C00040E036F056B800E016F080E046F880E5C
:10078C00006F6098160E6A6E636A676A656A60929B
:10079C0060BAFED700014369010E476F3C6B65A23E
:1007AC0003D0B2DC676A659265A402D0609265944E
:1007BC0065A662D0780E6114356F35C005F0080E51
:1007CC00096E44DF05C03DF061A403D004C43AF0C7
:1007DC0004D000C43AF00401009F3C0E00013A150D
:1007EC00456F040E455DD8A405D0800E0401016F41
:1007FC00008F3FD0240E455DD8A416D0050E435D66
:10080C00D8A406D044C063FF020E476F43690BD0D7
:10081C00060E435DD8A402D078D805D0800E040112
:10082C00016F880E006F25D0340E455DD8A421D001
:10083C003B693B2B3B5104010225E96E000E032161
:10084C00EA6E0001C6DD07EEC4F03B51E926000E4E
:10085C00EA2211C0EFFF070E3B5DD8A0EAD7080EC5
:10086C000401046F800E016F880E006F00010BD81D
:10087C0000D000014269659665B8659865BA659ABD
:10088C0065BC659C12007F0E0701C4150001396F11
:10089C0060983953D8A431D04369050E0701C55D62
:1008AC00D8A407D0050E0001436FC6C744F027D863
:1008BC0023D0060EC55DD8A40CD0060E0001436FE4
:1008CC00C7C741F0C6C73EF0CAC73FF0406B1DD842
:1008DC0013D0090EC55DD8A40DD0C6C73CF00001DD
:1008EC003C53D8A403D0020E476F02D0030E476FBF
:1008FC0006D802D0000114DE01D012DE1200040171
:10090C00056BC80E046F000112000401049F000166
:10091C004105D8A42FD0120E466F3F5DD8A03FC022
:10092C0046F04651405DD8A003D0466B436902D0D7
:10093C004051465F3B6B010E465DD8A016D03B2B59
:10094C0040513B25076ED9DE486F3B05356F0401DE
:10095C000625E96E000E0721EA6E48C00DF0000175
:10096C003FDD46513B5DD8A0EAD746C005F4465161
:10097C00402726D1020E415DD8A42FD0120E466F0F
:10098C003F5DD8A03FC046F04651405DD8A003D093
:10099C00466B436902D04051465F3B6B010E465D8E
:1009AC00D8A016D03B2B40513B25076E90DE486FEC
:1009BC003B05356F04010625E96E000E0721EA6E32
:1009CC0048C00DF000010CDD46513B5DD8A0EAD7C4
:1009DC0046C005F446514027F3D0060E415DD8A41D
:1009EC002FD00A0E466F3F5DD8A03FC046F046514F
:1009FC00405DD8A003D0466B436902D04051465F9E
:100A0C003B6B010E465DD8A016D03B2B40513B25CD
:100A1C00076E8ADE486F3B05356F04010625E96ECB
:100A2C00000E0721EA6E48C00DF00001D9DC4651DA
:100A3C003B5DD8A0EAD746C005F446514027C0D04C
:100A4C00030E415DD8A4B9D03E53D8A42DD0436930
:100A5C0006C4E9FF07C4EAFF040E0D6FC1DC010EEA
:100A6C0004010625E96E000E0721EA6E030E000153
:100A7C000D6FB6DC020E04010625E96E000E07218F
:100A8C00EA6E090E00010D6FABDC030E04010625A6
:100A9C00E96E000E0721EA6E040E00010D6FA0DC5A
:100AAC00040E0401056F88D03E05D8A408D017EEBB
:100ABC00D5F0CE0EF66E060EF76EDCDD13D0020E00
:100ACC003E5DD8A408D017EED5F0A60EF66E060E35
:100ADC00F76ED0DD07D017EED5F0D80EF66E060EF9
:100AEC00F76EC8DD0701D551020DF3CF35F0020EBC
:100AFC00000135250401056F000140510401055D1D
:100B0C00D8B004D0056B0001436904D000014051FA
:100B1C000401055F06C4E9FF07C4EAFF05C40DF034
:100B2C0000015EDC010E04010625E96E000E0721B2
:100B3C00EA6E030E00010D6F53DC3B6B010E0701D7
:100B4C00D55DD8A02ED000013B2B07EED5F03B5144
:100B5C00E926000EEA22EFCF48F03B51020DF3CF0D
:100B6C0035F0355104010625E96E000E0721EA6EB9
:100B7C0048C00DF0000134DC3B51020DF3CF35F0D1
:100B8C003529376F04010625E96E000E0721EA6E40
:100B9C0000010D6B25DC0701D55100013B5DD8A090
:100BAC00D2D70401055100013F5DD8A03FC005F428
:100BBC00040105510001402703D05DEC00F0120048
:100BCC00040104AD03D0880E046F02D0C80E046F6C
:040BDC000001120002
:020000040030CA
:0E00000020285F3CFF5381FF0FC00FE00F4030
:00000001FF
