:020000040000FA
:0400000006EF00F017
:020008001000E6
:10000C004AD91A693F0E1B6F1C6B1D6B010E196FC1
:10001C001AC013F01BC014F01CC015F01DC016F054
:10002C007D0E246F030E256F19C011F0F4D813C088
:10003C001AF014C01BF015C01CF016C01DF011C036
:10004C0019F01A693F0E1B6F1C6B1D6B1AC02FF039
:10005C001BC030F01CC031F01DC032F055D817C099
:10006C0019F0FD0E1A6F3F0E1B6F1C6B1D6B1AC027
:10007C0013F01BC014F01CC015F01DC016F07D0E43
:10008C00246F030E256F1905116FC5D813C01AF014
:10009C0014C01BF015C01CF016C01DF0206B216B9A
:1000AC0019C004F016D9640E026E036A03D800D08E
:1000BC000300FED7032A0E0E016EBD0E006E002E3D
:1000CC00FED7012EFAD7022EF6D7032EF4D7120044
:1000DC00600057F0F8FF600053F0F7FF60004FF03E
:1000EC00F6FF3901E58FE59DE585550EE66FAA0E05
:1000FC00E66FE58300000000000000000000E5B39F
:10010C00FED7E595000112003901E58FE59DE581EB
:10011C006000C7F0F8FF6000C3F0F7FF6000BFF0AD
:10012C00F6FF0800000000000000000000000000C6
:10013C000000000000006F00D4FF17F00001120057
:10014C00800E2A150D6F3F0E2B150E6F0F6B106B5B
:10015C001F91D2BE1F812AC005F02BC006F02CC007
:10016C0007F02DC008F00DC009F00EC00AF00FC04A
:10017C000BF010C00CF0DAD8001E00A002D0186BE7
:10018C0012002AC013F02BC014F02CC015F02DC097
:10019C0016F09EDF13C02AF014C02BF015C02CF003
:1001AC0016C02DF06000B3F0F8FF6000AFF0F7FF61
:1001BC006000ABF0F6FF2E692E2B2E512625E96E32
:1001CC00000E2721EA6E6F00BFFFF5FF2EC005F071
:1001DC007F0E096EA6D800A002D00C0001D00D0035
:1001EC002EC005F07F0E096EB0D800B0E5D73901EE
:1001FC00E58FE59DE585550EE66FAA0EE66FE58366
:10020C0000000000000000000000E5B3FED7E595FB
:10021C00000118691200800E13150D6F3F0E141596
:10022C000E6F0F6B106B7F0E1315126F2E692E2B2A
:10023C002E510D252F6F000E0E21306F000E0F2149
:10024C00316F000E1021326F5FDF2E512425E96EC5
:10025C00000E2521EA6E60005FF0EFFF2EC005F066
:10026C007F0E096E72D800B0E2D712512425E96EC8
:10027C00000E2521EA6E600047F0EFFF0DC02AF05A
:10028C000EC02BF00FC02CF010C02DF024C026F0A7
:10029C0025C027F055D7600E3901D96FDB6BDD6BAC
:1002AC00DE6BD997D995D993D991060EDF6FE06A99
:1002BC00F86A3E01F895F89F3A01406B506B606B01
:1002CC003E01B89FBC9FCA6ACB6ACC6ACE6A000159
:1002DC0012001F95D2BE1F8520C022F021C023F032
:1002EC0023C01EF060008BF0E0F93901E59DE59F1D
:1002FC00600013F0E3F9E599E585D29E550EE66FA3
:10030C00AA0EE66FE583000000000000000000006C
:10031C00E5B3FED7E59500011FA5D29E1FB5D28E81
:10032C001200006809500562006A1200006A095048
:10033C00056212000A50066212000B50076212008E
:10034C000C50086212000068120000680950056029
:04035C00006A120021
:020000040030CA
:0A000000EFFFF6FF9FFFFFDFFF0098
:00000001FF
