:020000040000FA
:0400000006EF00F017
:020008001000E6
:10000C001DD9F00E186F3F0E196F1A6B1B6B550E26
:10001C00176F18C00FF019C010F01AC011F01BC0E8
:10002C0012F07D0E1F6F030E206F17C00DF0C6D897
:10003C000FC018F010C019F011C01AF012C01BF04C
:10004C000DC017F018C00FF019C010F01AC011F045
:10005C001BC012F02ED813C017F018C00FF019C027
:10006C0010F01AC011F01BC012F034D814C01CF0E0
:10007C0015C01DF000D00300FED71E91D2BE1E810C
:10008C00600047F0F8FF600043F0F7FF60003FF0BE
:10009C00F6FF3901E58FE59DE585E589D29E3901AD
:1000AC00E584550EE66EAA0EE66EE582D28E000150
:1000BC0012003901E58FE59D600047F0F8FF600004
:1000CC0043F0F7FF60003FF0F6FF6F00D4FF13F032
:1000DC0000011200EEDF13C014F0156B0F2BD8B417
:1000EC00102BD8B4112BD8B4122BE3DF13C015F09E
:1000FC00120027C001F028C002F0010E2915036F71
:10010C00046B1E91D2BE1E8127C005F028C006F0DC
:10011C0029C007F02AC008F001C009F002C00AF09B
:10012C0003C00BF004C00CF0ACD8001E00A002D031
:10013C00166B120027C00FF028C010F029C011F068
:10014C002AC012F09ADF0FC027F010C028F011C09F
:10015C0029F012C02AF06000A7F0F8FF6000A3F0AD
:10016C00F7FF60009FF0F6FF2B692B2B2B512125FD
:10017C00E96E000E2221EA6E6F00BFFFF5FF2BC067
:10018C0005F07F0E096E78D800A000D02BC005F0CA
:10019C007F0E096E85D800B0E8D73901E58FE59D53
:1001AC00E585D29E3901E584550EE66EAA0EE66E03
:1001BC00E582D28EE5940001166912000FC001F0A1
:1001CC0010C002F0010E1115036F046B7F0E0F159A
:1001DC000E6F2B692B2B2B5101250F6F000E02215B
:1001EC00106F000E0321116F000E0421126F61DFDE
:1001FC002B511F25E96E000E2021EA6E60004FF096
:10020C00EFFF2BC005F07F0E096E4AD800B0E2D785
:10021C000E511F25E96E000E2021EA6E600037F0AA
:10022C00EFFF01C027F002C028F003C029F004C082
:10023C002AF01FC021F020C022F05BD7600E3901DC
:10024C00D96FDB6BDD6BDE6BD997D995D993D991CF
:10025C00080EDF6FE06AF86A3E01F895F89F3A01E4
:10026C00406B506B606B3E01B89FBC9FCA6ACB6AF7
:10027C00CC6ACE6A00011200006809500562006A5F
:10028C001200006A0950056212000A500662120040
:10029C000B50076212000C5008621200006812002A
:0A02AC00006809500560006A1200A6
:020000040030CA
:0A000000EFFFF6FF9FFFFFDFFF0098
:00000001FF
