:020000040000FA
:0400000006EF00F017
:020008001000E6
:10000C00F7D806D9939094948A90949E948C010E70
:10001C00046E84D8020E0C6F010E0A6FB6D815EE62
:10002C00D5F0B20EF66E020EF76E28D9D50E166FFD
:10003C00050E176F010E0A6F87D8010E0C6F010E9B
:10004C000A6FA3D815EED5F0DE0EF66E020EF76E23
:10005C0015D9D50E166F050E176F010E0A6F74D8D1
:10006C00010E0C6F010E0A6F90D88B840F0E026E6E
:10007C00036A46D88B949488949A9496929A959401
:10008C008B9A8B96899A898A0D0E106F0F6BCDD82F
:10009C008C840A0E026E036A33D88C940A0E026E9C
:1000AC00036A2ED88C840A0E026E036A29D8899AA8
:1000BC00BF0E126F8AD811C018F0010E126F85D8BE
:1000CC0011C018F0898A899A9F0E126F7ED811C0C0
:1000DC0018F0020E126F79D811C018F0898A140E1C
:1000EC00096F140E0B6F22D8160E096FA20E0B6F30
:1000FC001DD8170E096F040E0B6F18D80300FED70E
:10010C00032AE30E016E060E006E002EFED7012EA2
:10011C00FAD7022EF6D7032EF4D71200E80E026E91
:10012C00030E036EEDDF042EF9D71200899A400EF0
:10013C000911126F4AD811C018F00BC012F045D833
:10014C0011C018F0898A120016C0E9FF17C0EAFF27
:10015C00EFCF0DF00D53D8B417D0136B010E0D5D0E
:10016C00D8A012D0132B13511625E96E000E1721AF
:10017C00EA6EEFCF0EF01FD8010E026E036AC0DFDD
:10018C000D51135DD8A0EED712000CC014F014530F
:10019C00D8B410D00D0E0E6F0ED8010E026E036A7D
:1001AC00AFDF0A0E0E6F07D8010E026E036AA8DFCE
:1001BC00142FF0D712000A05D8A406D09EA8FED79B
:1001CC009EA8FED70EC0ADFF120010510A08D8B081
:1001DC0004D0C69E12C0C9FF05D0C69E12C0C9FF6E
:1001EC00C6BEFBD7C7A0FED7C9CF11F0C79012006F
:1001FC00E06AF86AC09EC290C186C184C182C18087
:10020C00070EB46E806A816A826A836A846A1200FD
:10021C00010E0A6F070EAF6E020EB06EB886AC847C
:10022C00AC98AB8EAB88AC8A1200C69AC79EC79CA2
:10023C000FA1C78CC6980FB3C688C696C694C69233
:10024C00C6900D0E105DD8A401D016D00C0E105D0A
:10025C00D8A402D0C68010D00B0E105DD8A402D04A
:10026C00C6820AD01053D8A403D0C684C68004D04A
:10027C001005D8A401D0C684C68A12000900F5CF97
:10028C0005F0F5CFE7FF090005D00900F550056E24
:10029C00062609000552D8B412000900F5CFE4FF78
:1002AC00052EFBD712002929454E4332384A3630E9
:1002BC002045746865726E65742044726976657247
:1002CC00202D20466C617368204C45442054657386
:0E02DC0074000909496E69742054657374003A
:020000040030CA
:0600010002121EFF8180C7
:060008000FC00FE00F40E5
:00000001FF
