:020000040000fa
:080000000002040000000000f2
:020000040000fa
:100400004f222100007f2200000188000000000030
:100410000a00070011000700000020000000e000b3
:1004200002003200000002000000000062b602007c
:10043000000000000040da000000fe004440a90077
:10044000e06e21000000e000030032000000200008
:10045000a00188004440a8000000060060b72b00ff
:10046000010020001500370062004000e0804800d5
:10047000910188009001ba0062004000e0804800cd
:10048000910188009002ba0062004000e0804800bc
:100490000002eb006028e10004003a000059eb0084
:1004a0008301e900fdff3e00040037006128e10000
:1004b000010032000082eb00050007009101880076
:1004c0001001ba000200e000e7ff3a00000005005a
:1004d000910188008002780062004000e0804800be
:1004e0003559ba008301e900080032002559ba00e5
:1004f0008301e900050032000400e000f4ff32004f
:1005000015d9ba008301e900f1ff3a0000000600a6
:100510008001eb000200370061f079008301e80000
:10052000828f5100fcff3a00000006008000780036
:10053000010037000000e8001004e000fdff3a0071
:1005400001005000000006008001eb0002003700af
:10055000817178008301e800828f5100fcff3a002e
:10056000000006008001eb0008003700e34278003d
:1005700063c278008301e80084cf52000300320098
:100580000080eb000400390010000500828f51004c
:10059000f6ff3a000000eb00000006000400370000
:1005a0000204e0000a0032000000e8008100e800d8
:1005b00010417800914f5100f9ff32000081eb00ab
:1005c00010407800914f50000400390002003700bd
:1005d0000001eb000100370012002000020078004b
:1005e00000000600ec874700889fbe008a9fbe007f
:1005f0008c9fbe008e1f7800f0b79f0081bf9f00c8
:100600008204780000047800010037000804e80044
:10061000184778000e00fb00320107000000e000e0
:10062000faff3a00d0c2b300804f570005003200f5
:1006300000c0e900804f57000200320000477800f8
:10064000010037000804e8000900e000450035001b
:10065000e18f54004300320040022000808f54009c
:1006600040003c000900e0000e003400f08f540010
:100670001a003a0000c3b300984f100016003a0069
:100680009840900080c7b30080cf50000300320034
:1006900080c5b30080cf50000f003a000884e80006
:1006a0000e003700a900200000c3b300984f1000cf
:1006b0000a003a009840900080c7b30080cf5000f5
:1006c000040032008900200080c5b30080cf5000b4
:1006d00002003a000884e8000901200008057800bb
:1006e000010037000a05e80000c3b3009a4f10006c
:1006f000fcff32008a0578006066b8000e00370003
:10070000101f210000425200c4ef9f006149b90050
:100710000c00be00220107004fea97000401fb0015
:10072000cf91de008b05e800ccb79f00ddb79f00be
:1007300000064100818649001b00fb00f100070014
:100740008000780009017800101f2100f4000700e4
:10075000000278000000e000e9ff3a008b0f54002f
:1007600006003a000fb897000000e00029003200b0
:10077000ffb0970001087800260037008a805500f6
:10078000c01c210060c07c000000fb000080500005
:10079000160033004240a9000f003c004fe99700cb
:1007a0000200fb00cf80de000000560081805e006a
:1007b000800f5600818f5e00070039006149b90043
:1007c000e70007004fb19700dfb19700820f50009c
:1007d000838f58000500320020022000109188000d
:1007e0000086eb008086eb0005003700d0c2b30026
:1007f000804f570002003a0060061600e0861e0097
:100800008fb997000300e000030032008b097800e5
:10081000010037006066b8000c00be004f0778008a
:100820004f06be004f05be004f04be00cf00b10012
:100830000000060080017800000178003140780057
:10084000005978000004e000fcff3a000300780043
:1008500000000600000278000000eb000b003700eb
:100860009441780091cf5100030032000080eb00ea
:1008700009003900100005000000e8000304e00052
:10088000040032000402e8008100e800820f5000fa
:10089000f3ff3a000000eb0000000600881f78001c
:1008a000e09080000000e000010032000000010044
:1008b000b09080000000e000010032000000010064
:1008c000508a80000000e0000100320000000100ba
:1008d000208a80000000e0000100320000000100da
:1008e000e02121001004e00026003a00c0908000c2
:1008f000d19080000004eb00d2602600930120001c
:10090000a7000700f2352f00e3c6230000004100d6
:10091000818049000804e800e80f5400f6ff3a001f
:10092000c0908800d1908800c8142100d2602600b1
:1009300093012000c0908000d190800098000700b3
:10094000f2352f00e3c623000000410081804900fa
:10095000c0908800d1908800009cbe00c01c21007f
:10096000800f5400f1ff3a00408e8000518e8000cd
:10097000308a8800418a880011c0b300e02121003c
:1009800001487800d260260093012000c0908000ca
:10099000d190800082000700f2352f00e3c62300cb
:1009a0000000410081804900c0908800d1908800fb
:1009b00062142100120178007f0161004211dd0004
:1009c000c3142100030141001202be00348a8800d2
:1009d000458a88000089be00308a8000418a8000f4
:1009e0004008de0000f0a1004f047800000006007f
:1009f000881f780000047800e09080000000e0008c
:100a00000100320000000100e02121000048eb005d
:100a1000b09080000000e000010032000000010002
:100a20006140b800c0908800d19088004f047800e1
:100a30000000060080017800000178000100370006
:100a40000201e8001204e000fdff3a000200370056
:100a50000201e8008100e8001140780000497800b8
:100a60000004e000faff3a000300780000000600ee
:100a7000040037000204e00001003a000000050015
:100a80000000e80010417800814f5100f9ff3a0062
:100a900000000600889fbe008104780011447800a1
:100aa0000804e00009003a000c00370080017800db
:100ab00009017800d24078000104e000070032000c
:100ac000d3cf1000fbff32000000e8008800fb00dd
:100ad000e7ff07000000e000f4ff3a004f04be000b
:100ae000000006006900e100040035006d00e1002f
:100af000030034000002b1000100320000000500d4
:100b000010000500800078001104b10003003500da
:100b10009101b10001003c000050a000000006005f
:100b20008001eb00040037008301e80090cf100043
:100b3000040032000000e800828f5100faff3a0002
:100b40000000eb0000000600009180000000e000c3
:100b500001003200000001002022210000000600f8
:100b60006022b800060220000000d0008180d20080
:100b70000482d2008582d2000000a000020252004e
:100b800083825a00030031000202420083824a003d
:100b90000000a1000603e900f3ff3a000000060090
:100ba000020ab900001bb9000200b800810042002f
:100bb0008100430000000600889fbe008a9fbe009f
:100bc0008c1f78000205be000004be000006eb008a
:100bd000e00f5000e08f5800e00f5900e08f5900ff
:100be00007003d006000b8006011b8000804500024
:100bf000898458000a0559008b8559001c00200083
:100c0000e00f5200e08f5a00e00f5b00e08f5b00c6
:100c100002003d000f0007000c00a2000800be000b
:100c20000a01be001d0107000203be000002be0053
:100c30000c00e00001003200060007000400be00c6
:100c40000601be004f0678004f05be004f04be00ef
:100c5000000006006000b8006011b80004025000f7
:100c6000858258000603590087835900000006005a
:100c7000881f7800000478005001be004000be00cc
:100c80000400400085804800060149008781490032
:100c9000009cbe000294be000400e1000588e10053
:100ca0000690e1000798e10002003100680044006e
:100cb0001008e8004f04780000000600f4874700a1
:100cc000889fbe008a9fbe008c9fbe008e1f78004a
:100cd0000205be000004be00d4b79f00e5b79f0028
:100ce000f6b79f0087bf9f000000eb00c0b79f00d2
:100cf000b0b79f00a0b79f0090b79f0080b79f003c
:100d00000d042000bfb097004fb0970000014000d5
:100d10000000e0000f003d004f08de000000710001
:100d2000c0b79f009e00070001003d001200200098
:100d3000a100070001003d0012002000a6000700ee
:100d4000b1000700b60007000f004000c8ff070011
:100d5000220037004f08de0000067100ccb79f006c
:100d60008f00070001003d001200200092000700e4
:100d700001003d001200200097000700a2000700bc
:100d80000fb297009fb297002fb39700bfb39700a1
:100d9000a90007000000520081805a0002015b0098
:100da00083815b0080b79f0091b79f00a2b79f002f
:100db000b3b79f000007eb009f0007000020e10091
:100dc00001a8e10002b0e10003b8e1000100310038
:100dd0001e0020000e005600c0b79f004fb29700c3
:100de0000400e00007003500100020000100200092
:100df0006011b80008047000898470000a05710051
:100e00008b8571008d06e900beff3a000400e0000a
:100e100003003d00820007000f00400094ff070020
:100e20004fa897000000e00004003a000fb49700bc
:100e30009fb497002fb59700bfb5970094000700a7
:100e40004f0778004f06be004f05be004f04be009e
:100e50004f01b10000000600881f78001800200034
:100e6000881f780095ff07008f87e9004f047800fe
:100e700000000600801feb0090ff07008f87e9004d
:100e800000000600889fbe008a9fbe008c1f78006d
:100e90006e00070007003d0073000700e00f5b00d5
:100ea000e08f5b0007003d00320007000006eb000a
:100eb000040037003400070002003d002a0007004c
:100ec0001c00200072000700e3ff07000203be00c1
:100ed0000002be000c00e00001003200220007000a
:100ee0000400be000601be004f0678004f05be009c
:100ef0004f04be0000000600889fbe008a9fbe000f
:100f00008c1f78005100070005003d0056000700c7
:100f1000e00f5b00e08f5b0006003d00040037003f
:100f20001900070003003d006000b8006011b80020
:100f30001000070056000700ceff07000203be00a6
:100f40000002be000c00e0000100320006000700b5
:100f50000400be000601be004f0678004f05be002b
:100f60004f04be00000006006000b8006011b80029
:100f70000000370004025000858258000603590023
:100f800087835900000006000006eb00e00f5200c6
:100f9000e08f5a00e00f5b00e08f5b00000006006e
:100fa0000180400090b79f000001eb008fb09700d8
:100fb0000100e000000006000200700090b79f00f2
:100fc0000180400080b79f000001eb00ffa8970060
:100fd0000100e000000006000200700080b79f00e2
:100fe000018040006faa9700cf20de000100700052
:100ff000f0af9f0004024200250007004f18de00fa
:101000000002720000000600e4af9f0008044400e4
:1010100089844c000a054d008b854d0000000600b8
:101020003fb29700cfb297005fb39700efb397003e
:1010300000fe2f00000006003fb09700cfb09700e1
:101040005fb19700efb19700000006000205be00f7
:101050000004be00e00f5000e08f5800e00f590080
:10106000e08f5900000006006000b8006011b80071
:1010700008045000898458000a0559008b855900de
:101080001c002000e00f5200e08f5a000000060014
:101090000800be000a01be0000000600889fbe00d6
:1010a0008a9fbe008c9fbe000404b8000506b800ed
:1010b0008904460060854e000606b8000a05460011
:1010c000e0854e000706b8008b054600040eb80008
:1010d000890446000a854e00e0854d00050eb800e3
:1010e0000a0546008b854e00060eb8008b054600ab
:1010f0000416b8000a0546008b854e000516b80098
:101100008b054600041eb8008b0546000800be0093
:101110000a01be004f06be004f05be004f04be00d0
:0411200000000600c5
:020000040000fa
:020000040002f8
:04aff800fdfb00005d
:020000040000fa
:020000040002f8
:04affc007f3f000093
:020000040000fa
:1000080024de000024de0000c2b50000c8b50000f0
:1000180024de000024de000024de000024de0000d0
:1000280024de000024de000024de00002eda0000ba
:1000380024de000024de000024de000024de0000b0
:1000480024de000024de000024de000024de0000a0
:1000580024de000024de000024de000024de000090
:1000680024de000024de000024de000024de000080
:1000780024de000024de000024de000024de000070
:1000880024de000024de000024de000024de000060
:1000980024de000024de000068d200009cd20000ac
:1000a80024de000024de000024de000024de000040
:1000b80024de000024de000024de000024de000030
:1000c80024de000024de000024de000024de000020
:1000d80024de000024de000024de000024de000010
:1000e80024de000024de000024de000024de000000
:1000f80024de000024de000024de000024de0000f0
:1001080024de000024de000024de000024de0000df
:1001180024de000024de000024de000024de0000cf
:1001280024de000024de000024de000024de0000bf
:1001380024de000024de000024de000024de0000af
:1001480024de000024de000024de000024de00009f
:1001580024de000024de000024de000024de00008f
:1001680024de000024de000024de000024de00007f
:1001780024de000024de000024de000024de00006f
:1001880024de000024de000024de000024de00005f
:1001980024de000024de000024de000024de00004f
:1001a80024de000024de000024de000024de00003f
:1001b80024de000024de000024de000024de00002f
:1001c80024de000024de000024de000024de00001f
:1001d80024de000024de000024de000024de00000f
:1001e80024de000024de000024de000024de0000ff
:0801f80024de000024de0000fb
:020000040000fa
:1002080024de000024de0000c2b50000c8b50000ee
:1002180024de000024de000024de000024de0000ce
:1002280024de000024de000024de00002eda0000b8
:1002380024de000024de000024de000024de0000ae
:1002480024de000024de000024de000024de00009e
:1002580024de000024de000024de000024de00008e
:1002680024de000024de000024de000024de00007e
:1002780024de000024de000024de000024de00006e
:1002880024de000024de000024de000024de00005e
:1002980024de000024de000068d200009cd20000aa
:1002a80024de000024de000024de000024de00003e
:1002b80024de000024de000024de000024de00002e
:1002c80024de000024de000024de000024de00001e
:1002d80024de000024de000024de000024de00000e
:1002e80024de000024de000024de000024de0000fe
:1002f80024de000024de000024de000024de0000ee
:1003080024de000024de000024de000024de0000dd
:1003180024de000024de000024de000024de0000cd
:1003280024de000024de000024de000024de0000bd
:1003380024de000024de000024de000024de0000ad
:1003480024de000024de000024de000024de00009d
:1003580024de000024de000024de000024de00008d
:1003680024de000024de000024de000024de00007d
:1003780024de000024de000024de000024de00006d
:1003880024de000024de000024de000024de00005d
:1003980024de000024de000024de000024de00004d
:1003a80024de000024de000024de000024de00003d
:1003b80024de000024de000024de000024de00002d
:1003c80024de000024de000024de000024de00001d
:1003d80024de000024de000024de000024de00000d
:1003e80024de000024de000024de000024de0000fd
:0803f80024de000024de0000f9
:020000040000fa
:1011240074650000787400002f7000006c6100008a
:10113400696e00000074000065780000742f0000e0
:10114400687400006d6c0000007400006578000095
:10115400742f0000786d00006c00000074650000be
:10116400787400002f6300007373000000690000ae
:101174006d610000676500002f670000696600006c
:10118400006900006d610000676500002f700000b9
:101194006e670000006900006d6100006765000073
:1011a4002f6a000070650000670000006170000095
:1011b400706c00006963000061740000696f0000d6
:1011c4006e2f00006a610000766100002d76000039
:1011d4006d00000061750000646900006f2f00005d
:1011e400782d0000776100007665000000000000a3
:1011f4000d0a00000048000054540000502f000065
:10120400312e000031200000323000003020000078
:101214004f4b00000d0a0000436f00006e6e00008b
:1012240065630000746900006f6e00003a200000de
:10123400636c00006f730000650d00000a0000007d
:1012440048540000545000002f3100002e3100009b
:101254002034000030310000205500006e61000091
:1012640075740000686f0000726900007a65000000
:10127400640d00000a570000575700002d4100007c
:1012840075740000686500006e74000069630000f6
:1012940061740000653a00002042000061730000a0
:1012a4006963000020720000656100006c6d00003d
:1012b4003d220000507200006f740000656300005e
:1012c40074650000642200000d0a0000436f0000f2
:1012d4006e6e000065630000746900006f6e0000ac
:1012e4003a200000636c00006f730000650d00007d
:1012f4000a0d00000a3400003031000020550000bf
:101304006e61000075740000686f0000726900006f
:101314007a650000643a0000205000006173000008
:10132400737700006f720000642000007265000093
:101334007175000069720000656400000d0a000008
:101344000048000054540000502f0000312e0000cb
:101354003120000034300000342000004e6f0000c3
:1013640074200000666f0000756e0000640d0000bc
:101374000a4300006f6e00006e6500006374000095
:10138400696f00006e3a0000206300006c6f00007b
:10139400736500000d0a0000436f00006e740000c6
:1013a400656e0000742d0000547900007065000023
:1013b4003a20000074650000787400002f68000073
:1013c400746d00006c0d00000a0d00000a3400006a
:1013d400303400003a200000466900006c650000cb
:1013e400206e00006f740000206600006f7500001e
:1013f4006e6400003c620000723e00005573000001
:10140400652000003c610000206800007265000057
:10141400663d0000222f00006d700000667300001e
:10142400757000006c6f000061640000223e0000d3
:101434004d5000004653000020550000706c000021
:101444006f610000643c00002f6100003e2000003a
:10145400746f000020700000726f0000677200005b
:10146400616d0000207700006562000020700000bc
:1014740061670000657300000d0a00000048000069
:1014840054540000502f0000312e00003120000081
:1014940034310000342000005265000071750000f2
:1014a40065730000742d00005552000049200000af
:1014b400546f00006f2000004c6f00006e67000046
:1014c4000d0a0000436f00006e6e000065630000ab
:1014d400746900006f6e00003a200000636c000025
:1014e4006f730000650d00000a0d00000a3400004f
:1014f4003134000020520000657100007565000061
:10150400737400002d55000052490000205400005f
:101514006f6f0000204c00006f6e0000673a0000ff
:10152400204200007566000066650000722000001d
:101534006f76000065720000666c00006f77000033
:101544002064000065740000656300007465000099
:10155400640d00000a0000004854000054500000cc
:101564002f3100002e310000203500003030000003
:10157400204900006e740000657200006e61000076
:101584006c20000053650000727600006572000054
:1015940020450000727200006f7200000d0a000006
:1015a400436f00006e6e0000656300007469000004
:1015b4006f6e00003a200000636c00006f7300003f
:1015c400650d00000a0d00000a35000030300000ef
:1015d400204900006e740000657200006e61000016
:1015e4006c200000536500007276000065720000f4
:1015f40020450000727200006f7200003a20000063
:1016040045780000706500006374000065640000a4
:101614002064000061740000612000006e6f00000f
:10162400742000007072000065730000656e000095
:10163400740d00000a0000004854000054500000db
:101644002f3100002e310000203500003031000021
:10165400204e00006f740000204900006d700000ef
:101664006c6500006d6500006e7400006564000028
:101674000d0a0000436f00006e6e000065630000f9
:10168400746900006f6e00003a200000636c000073
:101694006f730000650d00000a0d00000a3500009c
:1016a40030310000204e00006f740000204900001b
:1016b4006d7000006c6500006d6500006e740000c4
:1016c400656400003a2000004f6e00006c79000051
:1016d4002047000045540000206100006e640000b3
:1016e400205000004f530000542000007375000088
:1016f400707000006f72000074650000640d0000db
:101704000a00000048540000545000002f3100002b
:101714002e3100002032000030300000204f000045
:101724004b0d00000a4300006f6e00006e65000060
:1017340063740000696f00006e3a000020630000cb
:101744006c6f0000736500000d0a0000436f000019
:101754006e740000656e0000742d00005479000062
:10176400706500003a200000746500007874000081
:101774002f680000746d00006c0d00000a0d00005d
:101784000a3c0000687400006d6c00003e3c0000e0
:10179400626f000064790000207300007479000017
:1017a4006c6500003d2200006d610000726700005e
:1017b400696e00003a31000030300000707800009b
:1017c400223e00003c6600006f7200006d200000a5
:1017d4006d650000746800006f6400003d700000d7
:1017e4006f730000742000006163000074690000de
:1017f4006f6e00003d2200002f6d00007066000037
:1018040073750000706c00006f61000064220000ba
:10181400206500006e6300007479000070650000ac
:101824003d2200006d7500006c74000069700000ba
:1018340061720000742f0000666f0000726d00007a
:101844002d64000061740000612200003e3c000031
:10185400623e00004d500000465300002049000045
:101864006d6100006765000020550000706c000089
:101874006f610000643c00002f6200003e3c0000e9
:10188400703e00003c6900006e700000757400003a
:101894002074000079700000653d00006669000056
:1018a4006c650000206e0000616d0000653d000065
:1018b40069200000736900007a6500003d3400006f
:1018c400303e0000202600006e62000073700000ad
:1018d4003b2000003c6900006e700000757400003d
:1018e4002074000079700000653d000073750000ed
:1018f400626d00006974000020760000616c0000d5
:10190400756500003d220000557000006c6f0000fa
:1019140061640000223e00003c2f0000666f00005e
:10192400726d00003e3c00002f6200006f640000f6
:10193400793e00003c2f0000687400006d6c0000cc
:101944003e00000048540000545000002f310000b5
:101954002e3100002032000030300000204f000003
:101964004b0d00000a4300006f6e00006e6500001e
:1019740063740000696f00006e3a00002063000089
:101984006c6f0000736500000d0a0000436f0000d7
:101994006e740000656e0000742d00005479000020
:1019a400706500003a20000074650000787400003f
:1019b4002f680000746d00006c0d00000a0d00001b
:1019c4000a3c0000687400006d6c00003e3c00009e
:1019d400626f0000647900002073000074790000d5
:1019e4006c6500003d2200006d610000726700001c
:1019f400696e00003a310000303000007078000059
:101a0400223e00003c6200003e4d000050460000b3
:101a140053200000557000006461000074650000ec
:101a240020530000756300006365000073730000b9
:101a3400667500006c3c00002f6200003e3c000014
:101a4400703e00003c6100002068000072650000e8
:101a5400663d0000222f0000223e00005369000072
:101a640074650000206d0000616900006e200000b4
:101a740070610000676500003c2f0000613e0000bb
:101a84003c2f0000626f0000647900003e3c0000bf
:101a94002f680000746d00006c3e000000480000d8
:101aa40054540000502f0000312e0000312000005b
:101ab4003530000030200000496e000074650000dd
:101ac400726e0000616c000020530000657200001b
:101ad400766500007220000045720000726f0000fd
:101ae400720d00000a4300006f6e00006e65000076
:101af40063740000696f00006e3a00002063000008
:101b04006c6f0000736500000d0a0000436f000055
:101b14006e740000656e0000742d0000547900009e
:101b2400706500003a2000007465000078740000bd
:101b34002f680000746d00006c0d00000a0d000099
:101b44000a3c0000687400006d6c00003e3c00001c
:101b5400626f000064790000207300007479000053
:101b64006c6500003d2200006d610000726700009a
:101b7400696e00003a3100003030000070780000d7
:101b8400223e00003c6200003e4d00005046000032
:101b940053200000496d00006167000065200000cb
:101ba400436f000072720000757000007420000022
:101bb4006f72000020570000726f00006e67000013
:101bc4002056000065720000736900006f6e00000b
:101bd4003c2f0000623e00003c7000003e3c0000d0
:101be4006120000068720000656600003d2200006c
:101bf4002f6d00007066000073750000706c0000ab
:101c04006f610000642200003e54000072790000fd
:101c14002061000067610000696e00003f3c000025
:101c24002f6100003e3c00002f6200006f64000042
:101c3400793e00003c2f0000687400006d6c0000c9
:101c44003e00000048540000545000002f310000b2
:101c54002e31000020330000303200002046000006
:101c64006f7500006e6400000d0a0000436f0000f1
:101c74006e6e000065630000746900006f6e000002
:101c84003a200000636c00006f730000650d0000d3
:101c94000a4c00006f63000061740000696f00006b
:101ca4006e3a000020000000485400005450000028
:101cb4002f3100002e3100002034000030330000aa
:101cc400204600006f720000626900006464000036
:101cd400656e00000d0a0000436f00006e6e000088
:101ce40065630000746900006f6e00003a20000014
:101cf400636c00006f730000650d00000a0d0000a6
:101d04000a34000030330000204600006f720000e7
:101d14006269000064640000656e00003a200000ff
:101d2400535300004c200000526500007175000000
:101d34006972000065640000202d00002075000019
:101d44007365000020480000545400005053000004
:101d54000d0a0000004300006f6f00006b69000073
:101d6400653a00000041000075740000686f0000cf
:101d7400726900007a610000746900006f6e0000ef
:101d84003a000000436f00006e740000656e0000ae
:101d9400742d00004c6500006e670000746800003c
:101da4003a000000747800007400000068740000b9
:101db4006d000000687400006d6c0000006300009a
:101dc40067690000007800006d6c0000006300008b
:101dd4007373000000670000696600000070000073
:101de4006e670000006a0000706700000063000076
:101df4006c610000007700006176000000000000c4
:101e040000000000006600006f6f000074650000b1
:101e1400722e0000696e0000630000006865000017
:101e240061640000657200002e6900006e630000aa
:101e34000021000044450000460000004745000022
:101e440054000000504f000053540000006d000087
:101e54007066000073750000706c00006f61000014
:101e640064000000696e000064650000782e0000c4
:101e7400687400006d0000000d0a00000d0a0000e7
:101e8400000d00000a0d00000a4d0000504600003d
:101e940053020000010000000d0a00000d0a0000ba
:101ea40033300000342000005265000064690000f3
:101eb40072650000637400003a20000000430000d3
:101ec4006f6e0000746500006e7400002d540000f5
:101ed40079700000653a000020000000436f0000a4
:101ee4006e740000656e0000742d0000456e0000e5
:101ef400636f0000646900006e6700003a20000010
:101f0400677a0000697000000d0a000000430000b9
:101f140061630000686500002d4300006f6e0000df
:101f2400747200006f6c00003a200000006e000024
:101f34006f2d00006361000063680000650000000d
:101f44006d610000782d000061670000653d0000b0
:101f540000360000303000000053000065740000bb
:101f64002d4300006f6f00006b690000653a0000ac
:101f740020000000646e0000007500007000000086
:101f8400707200006f74000065630000740000004c
:101f9400736e00006d70000000610000646d00004d
:101fa400696e0000006d000069630000726f00003c
:101fb4006368000069700000006600006f72000032
:101fc4006d7300002e680000746d0000006c00004a
:101fd40065640000340000006c6500006433000098
:101fe400006c000065640000320000006c650000b5
:101ff40064310000006300006f6f00006b69000033
:10200400657300002e680000746d0000006c000011
:1020140065640000732e000063670000690000001f
:102024006c650000640000007365000072760000b7
:1020340069630000650000007573000065720000ac
:10204400007000006173000073000000686f0000fe
:1020540073740000002f0000647900006e640000b7
:102064006e7300002f6900006e6400006578000044
:102074002e680000746d0000006c000063640000b2
:10208400002f0000666f0000726d0000732e0000c8
:10209400687400006d000000757000006c6f000033
:1020a400616400002e680000746d0000000d0000e3
:1020b4000a0000000d0a00000d0a00000070000074
:1020c400726f000074650000637400002f630000e9
:1020d4006f6e000066690000672e000068740000df
:1020e4006d000000697000000067000077000000c8
:1020f4007375000062000000646e0000733100001c
:10210400006400006e730000320000006d61000086
:10211400630000006468000063700000002f00008a
:10212400707200006f74000065630000742f00007b
:1021340072650000626f00006f7400002e6800007a
:10214400746d00003f0000002f700000726f0000eb
:1021540074650000637400002f6300006f6e00005c
:1021640066690000672e0000687400006d000000be
:10217400736e00006d7000002f7300006e6d000020
:10218400706300006f6e000066690000672e000037
:10219400687400006d000000726300006d000000b0
:1021a400776300006d000000656d00006169000048
:1021b4006c2f0000696e000064650000782e00003a
:1021c400687400006d0000004d6900006372000037
:1021d4006f63000068690000702000005443000031
:1021e400502f00004950000020530000746100008b
:1021f400636b0000205300007461000074750000dc
:1022040073200000557000006461000074650000d4
:1022140000220000534d00005450000020530000e1
:1022240065720000766900006365000022200000ea
:102234003c6d000063680000706200006f61000084
:102244007264000040700000696300007361000064
:1022540072650000676f00006f6400002e63000069
:102264006f6d00003e0000004d4900004d45000028
:102274002d76000065720000736900006f6e000027
:102284003a200000312e0000300d00000a43000007
:102294006f6e0000746500006e7400002d74000001
:1022a40079700000653a0000206d0000756c000034
:1022b4007469000070610000727400002f6d0000ea
:1022c40069780000656400003b200000626f000034
:1022d400756e000064610000727900003d22000008
:1022e400667200006f6e0000746900006572000081
:1022f400220d00000a0000007365000072760000e1
:1023040065720000007000006f720000740000002d
:10231400746f0000006d000073670000005400003b
:1023240068690000732000006973000020610000e8
:10233400206d0000756c0000746900002d700000b1
:1023440061720000742000006d650000737300006a
:102354006167000065200000696e0000204d0000e8
:10236400494d000045200000666f0000726d0000ba
:10237400617400002e0d00000a0000002d2d0000e5
:10238400667200006f6e00007469000065720000e0
:102394000d0a0000436f00006e740000656e0000bb
:1023a400742d000074790000706500003a2000006c
:1023b40074650000787400002f7000006c610000e8
:1023c400696e00000d0a00000d0a0000000d0000f7
:1023d4000a2d00002d660000726f00006e7400006c
:1023e40069650000720d00000a4300006f6e000072
:1023f400746500006e7400002d7400007970000094
:10240400653a00002074000065780000742f000015
:1024140063730000760d00000a4300006f6e000035
:10242400746500006e7400002d44000069730000a0
:10243400706f000073690000746900006f6e000023
:102444003a200000617400007461000063680000b9
:102454006d6500006e7400003b200000666900009a
:102464006c6500006e6100006d6500003d22000097
:102474007374000061740000757300002e63000023
:1024840073760000220d00000a0d00000a0000000f
:102494005359000053540000454d000020530000e0
:1024a4005441000054550000530d00000a00000080
:1024b40042750000747400006f6e0000733a0000ef
:1024c4002c0000004c450000447300003a2c00002e
:1024d400005000006f7400003a2c0000002d000032
:1024e4002d660000726f00006e74000069650000c4
:1024f400722d00002d0d00000a0000002f65000061
:102504006d610000696c00002f6900006e640000ba
:10251400657800002e680000746d000000640000ff
:10252400796e0000646e0000732f0000696e000075
:1025340064650000782e0000687400006d000000df
:102544004170000072200000323700002032000089
:102554003030000039200000313600003a320000eb
:10256400323a00003033000000760000352e0000bf
:102574003030000000530000454c0000454300008b
:1025840054450000440000003c620000722000003a
:102594002f3e0000002600006e62000073700000f1
:1025a4003b0000006e6100006d6500000048000003
:1025b400656c00006c6f00002c200000006e0000b1
:1025c4006f7400002073000065740000003c00007c
:1025d400623e0000557000006c6f000061640000f2
:1025e4002061000020460000696c0000653c00008a
:1025f4002f6200003e0000003c6200003e550000d7
:10260400706c00006f6100006465000064200000cd
:10261400466900006c65000027730000204d00002f
:102624004435000020770000617300003a3c00004c
:102634002f6200003e3c000062720000202f000068
:102644003e00000063680000656300006b650000e5
:1026540064000000736500006c6500006374000092
:1026640065640000006f00006b000000756e0000e0
:102674006b00000066610000696c000000540000fb
:1026840068650000206c0000617300007420000085
:10269400757000006461000074650000207700001c
:1026a400617300002073000075630000636500001f
:1026b40073730000667500006c2e00000054000067
:1026c4006865000020490000502000006861000097
:1026d400732000006e6f0000742000006368000027
:1026e400616e0000676500006420000073690000eb
:1026f4006e6300006520000074680000652000001f
:102704006c610000737400002075000070640000a8
:1027140061740000652e0000004300006f75000026
:102724006c640000206e00006f74000020630000e1
:102734006f6d00006d7500006e690000636100003c
:1027440074650000207700006974000068200000b0
:10275400444400004e5300002073000065720000e2
:1027640076650000722e00000054000068650000c9
:102774002063000075720000726500006e74000032
:10278400206300006f6e000066690000677500003a
:1027940072610000746900006f6e0000206900001f
:1027a400732000006e6f000074200000766100004a
:1027b4006c690000642e000000540000686500008d
:1027c40020440000796e0000616d00006963000020
:1027d400204400004e530000206300006c69000098
:1027e400656e000074200000697300002070000012
:1027f400656e0000646900006e67000020610000df
:102804006e200000757000006461000074650000b3
:102814002e000000416e000020650000727200006e
:102824006f720000206f0000636300007572000087
:102834007265000064200000647500007269000085
:102844006e670000207400006865000020750000b9
:102854007064000061740000652e00003c6200009a
:10286400722000002f3e0000546800006520000024
:10287400444400004e530000204300006c690000f3
:10288400656e00007420000069730000207300006e
:1028940075730000706500006e64000065640000dc
:1028a4002e0000006e6f00006e65000000620000e4
:1028b4006c6f0000636b0000000000000d0a000054
:1028c4000d0a00000d4d000069630000726f0000e6
:1028d4006368000069700000205400004350000049
:1028e4002f49000050200000436f00006e66000076
:1028f4006967000020410000707000006c690000ee
:1029040063610000746900006f6e000020280000fd
:10291400763500002e300000302c000020410000ed
:1029240070720000203200003720000032300000b6
:1029340030390000290d00000a0d00000a000000d3
:10294400093100003a20000043680000616e000075
:102954006765000020730000657200006961000073
:102964006c2000006e7500006d620000657200004e
:102974003a090000090000000d0a000009320000b5
:102984003a20000043680000616e000067650000a3
:10299400206800006f730000742000006e61000066
:1029a4006d6500003a09000009090000000d0000ef
:1029b4000a090000333a0000204300006861000067
:1029c4006e670000652000007374000061740000ed
:1029d4006963000020490000502000006164000089
:1029e4006472000065730000733a00000909000076
:1029f400000d00000a090000343a000020430000e2
:102a0400686100006e6700006520000073740000b8
:102a140061740000696300002067000061740000b5
:102a240065770000617900002061000064640000a3
:102a340072650000737300003a090000000d000085
:102a44000a090000353a00002043000068610000d4
:102a54006e6700006520000073740000617400005c
:102a64006963000020730000756200006e65000059
:102a7400742000006d610000736b00003a090000cf
:102a8400090000000d0a0000093600003a20000089
:102a940043680000616e0000676500002073000059
:102aa400746100007469000063200000707200000b
:102ab400696d00006172000079200000444e00003e
:102ac40053200000736500007276000065720000f8
:102ad4003a090000000d00000a090000373a00001e
:102ae40020430000686100006e670000652000005c
:102af40073740000617400006963000020730000b7
:102b0400656300006f6e000064610000727900006c
:102b1400204400004e530000207300006572000042
:102b240076650000723a0000090000000d0a0000fa
:102b3400093800003a2000000044000069730000d6
:102b4400004500006e000000616200006c6500003a
:102b540020440000484300005020000026200000cc
:102b640049500000204700006c650000616e0000c1
:102b7400696e0000673a000009090000444800003b
:102b840043500000206900007320000063750000ba
:102b940072720000656e0000746c00007920000001
:102ba400006500006e610000626c00006564000056
:102bb4000064000069730000616200006c6500003d
:102bc400640000000d0a0000093900003a200000ea
:102bd400446f0000776e00006c6f000061640000b9
:102be400204d00005046000053200000696d000095
:102bf40061670000652e0000000d00000a09000056
:102c0400303a000020530000617600006520000087
:102c14002620000051750000697400002e00000099
:102c24000d0a0000456e000074650000722000006b
:102c3400612000006d6500006e75000020630000d7
:102c4400686f000069630000653a0000200000001e
:102c54000d0a0000004e000065770000207300009c
:102c640065740000746900006e6700003a2000007b
:102c7400004900006e760000616c00006964000089
:102c8400206900006e700000757400002e0d0000b5
:102c94000a0000005365000074740000696e0000af
:102ca4006773000020730000617600006564000013
:102cb4002e0d00000a0000000d0a00000d0a00009d
:102cc400476f00006f640000627900006521000016
:102cd4000d0a000000200000202000002020000039
:102ce4002020000020200000200000000d0a000029
:102cf400534e00005450000020540000696d000041
:102d0400653a000020200000202000002864000014
:102d140069730000616200006c65000064290000b2
:102d24000d0a0000416e0000616c00006f67000036
:102d34003a20000020200000202000002020000075
:102d4400202000002020000020200000313000005e
:102d5400323300000d0a0000427500007474000054
:102d64006f6e0000733a0000202000002020000055
:102d7400202000002020000020330000203200002a
:102d840020310000203000000d0a00004c450000f6
:102d9400447300003a200000202000002037000087
:102da40020360000203500002034000020330000cd
:102db400203200002031000020300000000d00000f
:102dc4000a4c00006f670000676500006420000083
:102dd400696e0000207300007563000063650000e5
:102de40073730000667500006c6c0000790d0000c0
:102df4000a0d00000a0d00000a5000007265000070
:102e04007373000020270000712700002074000065
:102e14006f20000071750000697400000d0a000045
:102e2400000d00000a4100006363000065730000a8
:102e340073200000646500006e6900006564000092
:102e44000d0a00000d0a000000500000617300002c
:102e5400737700006f720000643a000020ff0000e6
:102e6400fd2d0000001b00005b3200004a1b000027
:102e74005b330000316d00001b5b0000316d00000e
:102e84004d690000637200006f6300006869000010
:102e940070200000546500006c6e00006574000032
:102ea4002053000065720000766500007220000067
:102eb400312e0000311b00005b3000006d0d00005e
:102ec4000a280000666f0000722000007468000089
:102ed4006973000020640000656d00006f2c000021
:102ee4002074000079700000652000002761000054
:102ef400646d0000696e000027200000666f00000a
:102f04007220000074680000652000006c6f0000ef
:102f1400676900006e200000616e000064200000fc
:102f2400276d000069630000726f00006368000091
:102f34006970000027200000666f00007220000006
:102f44007468000065200000706100007373000065
:102f5400776f0000726400002e2900000d0a000043
:102f64004c6f0000676900006e3a0000200000000a
:102f74000d0a0000546f00006f2000006d75000002
:102f8400636800002064000061740000612e00008a
:102f94000d0a000000610000646d0000696e00000d
:102fa400005400006f6f0000206d00007563000086
:102fb4006820000064610000746100002e0d0000b0
:102fc4000a0000006d690000637200006f63000076
:102fd40068690000700000001b5b0000316d000098
:102fe400001b00005b310000303b00003135000065
:102ff400660000001b5b0000313100003b32000022
:1030040031660000001b00005b310000323b000011
:1030140031380000660000001b5b00003133000003
:103024003b31000030660000001b00005b310000f3
:10303400343b000031660000000000006d650000b4
:103044006d62000065720000732e00006479000058
:103054006e6400006e7300002e6f00007267000043
:1030640000640000796e0000757000006461000067
:10307400746500002e6e00006f2d00006970000062
:103084002e6300006f6d0000007500007064000086
:1030940061740000657300002e6400006e7300000c
:1030a4006f6d000061740000696300002e6300000e
:1030b4006f6d000000000000500000005000000090
:1030c40050000000676f00006f640000006e000095
:1030d4006f63000068670000006100006275000013
:1030e40073650000006200006164000073790000f1
:1030f4007300000062610000646100006765000005
:103104006e740000006200006164000061750000dc
:103114007468000000210000646f00006e6100000c
:10312400746f0000720000006e6f0000746600008f
:10313400716400006e0000006e6f0000686f000094
:103144007374000000210000796f000075720000a4
:10315400730000006e7500006d6800006f7300005e
:1031640074000000646e0000736500007272000059
:103174000039000031310000006300006865000080
:10318400636b0000697000002e640000796e00001b
:10319400646e0000732e0000636f00006d00000079
:1031a40047450000542000002f2000004854000030
:1031b400545000002f3100002e3000000d0a000092
:1031c400486f0000737400003a200000000d0000f6
:1031d4000a4300006f6e00006e6500006374000017
:1031e400696f00006e3a0000206300006c6f0000fd
:1031f400736500000d0a00000d0a00000041000084
:103204006464000072650000737300003a200000db
:10321400003c00002f6200006f640000793e000053
:103224000047000045540000202f00006e69000094
:10323400632f000075700000646100007465000075
:103244003f6800006f730000746e0000616d000041
:10325400653d0000002600006d79000069700000e3
:103264003d00000026770000696c000064630000e4
:1032740061720000643d00004e4f000043480000ae
:10328400472600006d7800003d4e00004f430000cb
:103294004847000026620000616300006b6d000077
:1032a400783d00004e4f00004348000047200000d6
:1032b40048540000545000002f3100002e3000000c
:1032c400000d00000a4800006f730000743a00000b
:1032d400200000000d0a0000417500007468000021
:1032e4006f720000697a000061740000696f000069
:1032f4006e3a000020420000617300006963000020
:10330400200000000d0a00005573000065720000e3
:103314002d410000676500006e7400003a20000033
:103324004d690000637200006f630000686900006b
:10333400702000002d20000054430000504900007c
:103344005053000054410000434b0000202d000066
:1033540020760000352e0000303000000d0a0000f9
:103364000d0a0000000d00000a0d00000a00000014
:10337400070c000011160000070c000011160000d5
:10338400070c000011160000070c000011160000c5
:10339400050900000e140000050900000e140000c9
:1033a400050900000e140000050900000e140000b9
:1033b400040b000010170000040b0000101700009d
:1033c400040b000010170000040b0000101700008d
:1033d400060a00000f150000060a00000f15000081
:1033e400060a00000f150000060a00000f15000071
:1033f40078a400006ad7000056b70000c7e80000b0
:10340400db70000020240000eece0000bdc10000ef
:10341400af0f00007cf500002ac6000087470000bb
:103424001346000030a800000195000046fd00008e
:10343400d898000080690000aff70000448b0000ba
:10344400b15b0000ffff0000bed700005c890000f4
:1034540022110000906b00009371000098fd0000a1
:103464008e43000079a6000021080000b449000042
:10347400622500001ef6000040b3000040c00000ba
:10348400515a00005e260000aac70000b6e90000f9
:103494005d1000002fd60000531400004402000009
:1034a40081e60000a1d80000c8fb0000d3e70000bb
:1034b400e6cd0000e1210000d607000037c300007c
:1034c400870d0000d5f40000ed1400005a450000fb
:1034d40005e90000e3a90000f8a30000effc0000e8
:1034e400d90200006f6700008a4c00002a8d00009a
:1034f40042390000faff000081f6000071870000e5
:10350400226100009d6d00000c380000e5fd000004
:1035140044ea0000bea40000a9cf0000de4b000076
:10352400604b0000bbf6000070bc0000bfbe000092
:10353400c67e00009b280000fa270000a1ea0000d4
:1035440085300000efd40000051d00008804000051
:1035540039d00000d4d90000e5990000dbe6000072
:10356400f87c0000a21f000065560000acc40000f7
:103574004422000029f4000097ff00002a430000c1
:10358400a723000094ab000039a0000093fc0000c6
:10359400c35900005b65000092cc00000c8f000052
:1035a4007df40000efff0000d15d00008485000081
:1035b4004f7e0000a86f0000e0e600002cfe000033
:1035c4001443000001a30000a1110000084e0000f4
:1035d400827e000053f7000035f200003abd00007f
:1035e400bbd20000d72a000091d3000086eb000074
:1035f40077770000772e0000676f00006f67000088
:103604006c6500002e6300006f6d00000043000035
:103614006f7500006c640000206e00006f74000081
:1036240020720000657300006f6c00007665000076
:10363400205300006572000076650000724e0000a1
:10364400616d0000655b00005d200000746f000088
:1036540020490000502000006164000064720000f2
:1036640065730000732e00000d0a0000000d0000b9
:103674000a0d00000a4300006f6e00006e65000032
:1036840063740000696e0000672000007573000019
:10369400696e00006720000042650000726b000044
:1036a400656c000065790000205300006f63000022
:1036b4006b65000074730000205400004350000048
:1036c40020410000504900002e2e00002e0d000065
:1036d4000a00000020200000204e00006f7400004b
:1036e400653a00002074000068690000732000003f
:1036f400646500006d6f000020770000696c0000b5
:103704006c200000646f0000206e00006f740000e5
:10371400686900006e6700002069000066200000f0
:10372400616e0000207500006e6400006572000088
:103734006c790000696e00006720000054430000ab
:10374400505f000050550000525000004f530000dd
:10375400455f000042450000524b0000454c00000c
:10376400455900005f4300004c490000454e0000ed
:10377400542000007479000070650000200d0000e2
:103784000a20000020200000736f0000636b00001b
:10379400657400002069000073200000756e00004d
:1037a40061760000616900006c610000626c0000d9
:1037b400652c000020610000732000006465000097
:1037c400636c000061720000656400002062000008
:1037d4007920000074680000652000005443000054
:1037e400505300006f6300006b65000074490000d3
:1037f4006e69000074690000616c0000697a000061
:10380400657200005b5d00002061000072720000c0
:1038140061790000206900006e2000000d0a00009c
:1038240020200000205400004350000049500000b4
:10383400436f00006e660000696700002e68000098
:103844002e0d00000a0d00000a0000000004000014
:10385400a300000000000000707200006976000000
:103864006174000065000000777200006974000054
:103874006500000070750000626c00006963000060
:10388400000000002e9c0000369c00003c9c0000c0
:103894007265000061640000000000003c9c0000b0
:1038a4004a9c00004f9c0000544300005053000009
:1038b40074610000636b000020760000352e000068
:1038c40030300000202000002020000020200000d4
:1038d40020200000202000002020000020200000e4
:1038e4002020000020200000004d0000434800007c
:1038f400504200004f41000052440000000d0000ff
:103904000a0d00000a42000055540000544f000004
:103914004e30000020680000656c00006420000048
:10392400666f0000722000006d6f00007265000079
:1039340020740000686100006e2000003420000044
:1039440073650000636f00006e640000732e000056
:10395400202000004465000066610000756c0000d2
:10396400742000007365000074740000696e000028
:10397400677300002072000065730000746f00001c
:1039840072650000642e00000d0a00000d0a00009c
:10399400000d00000a4e0000657700002049000079
:1039a4005020000041640000647200006573000050
:1039b400733a0000200000000d0a0000000000001f
:1039c4002f7300006561000072630000683f00000f
:1039d400617300005f7100003d4d000069630000e9
:1039e400726f0000636800006970000026610000c7
:1039f400735f000073690000746500007365000064
:103a040061720000636800003d6d0000696300009e
:103a1400726f000063680000697000002e6300008c
:103a24006f6d0000000d00000a0d00000a43000045
:103a34006f6e00006e65000063740000696e000024
:103a44006720000075730000696e000067200000a5
:103a54004d690000637200006f6300006869000034
:103a6400702000005443000050200000415000002a
:103a7400492e00002e2e00000d0a00000047000011
:103a84004554000020000000204800005454000069
:103a9400502f0000312e0000300d00000a480000b5
:103aa4006f730000743a0000200000000d0a00004b
:103ab400436f00006e6e00006563000074690000cf
:103ac4006f6e00003a200000636c00006f7300000a
:103ad400650d00000a0d00000a00000048450000c2
:103ae4004c4f0000204d00004348000050420000ad
:103af4004f410000524400000d0a00000045000040
:103b0400484c00004f2000004d4300004850000086
:103b1400424f000041520000440d00000a00000022
:103b24004155000054480000204c00004f4700005d
:103b3400494e00000d0a0000000d00000a000000bc
:103b44004d410000494c000020460000524f000047
:103b54004d3a00003c0000003e0d00000a00000049
:103b64005243000050540000205400004f3a00001b
:103b74003c00000044410000544100000d0a0000d4
:103b840000460000726f00006d3a00002000000043
:103b94000d0a0000546f00003a200000000d0000e0
:103ba4000a430000433a0000200000000d0a000010
:103bb40053750000626a000065630000743a0000f7
:103bc400200000000d0a00002e0d00000a00000075
:103bd4000d0a00002e000000515500004954000059
:103be4000d0a0000000000003a20000057650000a4
:103bf40020610000726500002063000075720000ff
:103c0400726500006e7400006c7900002061000091
:103c14006368000069650000766900006e67000053
:103c240020000000202000002020000020200000b0
:103c34002000000030300000206200007974000091
:103c4400657300002f730000656300006f6e000051
:103c540064200000545800002074000068720000c2
:103c64006f7500006768000070750000742e000016
:103c74000d0a000000200000627900007465000055
:103c8400732f000073650000636f00006e64000012
:103c94000d0a0000000000006d610000696c000066
:103ca40000220000534d0000545000002053000037
:103cb4006572000076690000636500002220000040
:103cc4003c6d000063680000706200006f610000da
:103cd40072640000407000006963000073610000ba
:103ce40072650000676f00006f6400002e630000bf
:103cf4006f6d00003e000000486500006c6c000021
:103d04006f200000776f0000726c000064210000d7
:103d140020200000534d00005450000020540000a7
:103d240065730000742e0000000000007777000027
:103d3400312e00006d690000637200006f630000a3
:103d440068690000702e0000636f00006d000000c1
:103d5400506900006e67000020740000696d000067
:103d640065640000206f00007574000000430000cb
:103d7400616e00002774000020720000657300006b
:103d84006f6c0000766500002049000050000000c0
:103d940052650000706c0000793a000020000000b9
:103da4006d73000000000000000000007d000000b2
:103db4006400000001000000140000001400000072
:103dc400020000009600000014000000050000003e
:103dd400c80000000100000007000000000100000e
:103de4000001000008000000c8000000c800000036
:103df40008000000c8000000c8000000090000001e
:103e0400c8000000c80000000a00000019000000fb
:103e1400140000000201000002020000020400007d
:103e240004ff000004ff00004004000041040000ff
:103e3400430400004204000006ff0000736e00000b
:103e44006d7000002e62000069620000002b00000b
:103e540006010000040000000d0a000044480000b0
:103e6400435000002f5000006f770000657200007f
:103e740020650000766500006e740000206f00006d
:103e84006363000075720000726500006400000046
:103e9400426f00006f7400006c6f000061640000ea
:103ea4006572000020520000657300006574000014
:103eb40000000000706f00006f6c00002e6e0000a8
:103ec400747000002e6f0000726700000000000094
:103ed400706f00006f6c00002e6e000074700000a4
:103ee4002e6f000072670000000000004d500000bb
:0c3ef40046530000020100000000000026
:020000040000fa
:103f0000804078003ad1bf00814f50001700320046
:103f1000e24f400008003200e2c1b3000440bc00a0
:103f2000c088200000014100c08020000e00090070
:103f300030197800e201b100010078003af1b700d1
:103f4000e2cf40000900320001407800e2c1b30036
:103f50000440bc00c088200000014100c080200057
:103f60000e00090032187800e201b10000000600de
:103f7000e3ff070021418000000021000080600075
:103f8000020032002588a900100020000000060071
:103f9000dbff07008000eb0010418000e70f5000be
:103fa00001003a0011002000010078000000060026
:103fb000d3ff07002182200091407800e7cf500016
:103fc000030032000000eb00ebcf50000b003a0082
:103fd00091408000a040800001015000808f50007f
:103fe00005003900604080000e08b5000200400066
:103ff0000000e900000006000200e90000000600e1
:10400000889fbe0000447800bdff0700604080002c
:104010000e08b5008004e90008407800e4ff0700be
:10402000008054004f04be0000000600b4ff0700eb
:10403000b2408000c1408000810f51000200390071
:104040000100510000000600804080008100500007
:104050007040800000005100808040000100e800b6
:1040600000000600889fbe0000447800a4ff0700ff
:10407000714080008040800081045000084078003a
:10408000eaff0700008054004f04be000000060055
:10409000881f7800000478001000780010a4020047
:1040a00000000000000c78001800900010a402002e
:1040b000000000001004980028009000b800900054
:1040c00022a402000000000020049800310498009f
:1040d00048009000d800900022a4020000000000d8
:1040e00040049800510498007800900010a4020049
:1040f00000000000700498000808900010a402005e
:1041000000000000000c98001808900010a40200a5
:1041100000000000100c98004f047800000006001a
:104120000400fa00881f7800d0bf9f00e2bf9f0004
:10413000040478000304e00016003200e1cf5100cf
:104140002c003a000104e00008003200e1cf5000ea
:1041500028003a005fb897008200780004017800d8
:104160008802020000000000220037005fb89700bc
:104170000000e000020035000875020000000000a9
:104180006fb8970088007800ce6e02000000000033
:10419000180037000104e0000d003200e1cf5000ac
:1041a00014003a00648057001000e000030035005e
:1041b0006fb89700ce7402000000000088007800fd
:1041c0005fb897000e6e0200000000000900370083
:1041d000efb89700040178005fb89700647202009e
:1041e000000000004e720200000000000000e0002d
:1041f000fcff32004f0478000080fa000000060047
:104200003bd1bf00a1132100914078000104e100df
:1042100018003200e24f40000b003200e2c1b30050
:104220000440bc007c034100c588200062807a0005
:104230006002b1006402200013c0b3006286200057
:10424000e6c07a00b6ff07003ad1bf003bf1b700e5
:10425000a2fd2f00604080000001410064022000a8
:10426000838220009341780011c0b3006086200053
:10427000abff070000000600e1ff0700b04380002d
:10428000304188006040800090408800a040880055
:1042900070408000b0408800c0408800400020008e
:1042a0002468ab0001003a00d000200010418800d3
:1042b0002408a9002428a9002448a9002488a900ca
:1042c00024a8a90024c8a90024e8a9002508a90059
:1042d0002528a9002548a9002568a9002588a80047
:1042e0008808a9008828a9008868a9008888a900ea
:1042f00060408000904388004e04020000000000ef
:10430000504388004e040200000000006043880013
:1043100086a8ef0010002000c043880000000600bf
:10432000f7fe0700b6ff070000802000c1872000cd
:104330000900090031587800a043800050408800ef
:104340000080200000000600889fbe008a9fbe00fb
:104350003c11e20007003a00b09f0200000000009c
:10436000f27f2000020060000240200002004000b6
:10437000e0898800c20320008000eb00a0822000ba
:10438000a402020000000000c9fb20000005eb00b1
:1043900078ed29000a407800d9fe07000800e800ff
:1043a0009000780063004400100178001804e000d9
:1043b00008003a0002804000008044008b02200088
:1043c0008085450080ef2100808f55000200360077
:1043d000fcff3700ffff37002868ef006002200075
:1043e0000900400060408800010040000000e80033
:1043f000704088000200400080408800d00020000b
:10440000104188002468a9007dff070078f8970014
:104410008ae8b70098ff07000a05e8006604440030
:10442000e90f5500020032008b047800d9ff3700f5
:104430004f05be004f04be00000006002600fa0033
:10444000889fbe008a9fbe008c1f780000447800c1
:10445000014578006aff07000808a3000200320047
:104460002568a8000804a10024a8a90024c8a90060
:1044700024e8a9002528a9002548a9002508a900a5
:1044800076770200000000000000e000fcff320030
:10449000e600640071003a00904080009243800082
:1044a000820f500007003a002568ab006b00320015
:1044b0007808e200690032000804a0008104780056
:1044c00067003700c4438000a1408000820f500085
:1044d0002200360082045000810f51000200390092
:1044e0000100510004003700604080000e08b50054
:1044f000828050000100500000005200808f540064
:10450000010036008004780081212000818f540052
:10451000020036002548a800810478002568ab0019
:1045200005003200808f540003003200818f540058
:10453000010032000804a0000902780083822000f4
:10454000934178008040eb0010a02000f4fe0700ab
:10455000090078007228b4003d00370075408000e3
:104560000283520086b79f00634080000000430032
:1045700083045000810f51000200390001005100f6
:104580000300370003805200828050000100500079
:1045900000005200808f5400010036008004780033
:1045a00081212000818f5400020036002548a80098
:1045b000810478002568ab0005003200808f54002c
:1045c00003003200818f5400010032000804a00073
:1045d000890f53000100360089b79f000fb2970082
:1045e00083822000934178008040eb0010a02000df
:1045f000cbfe07000fb097000082540084b79f00e5
:104600000900320062408000904380000e08b5002f
:1046100011a0200001004000838220009341780017
:104620008040eb00befe0700904380008080440085
:104630009143880072408000828f5000040039004e
:1046400060408000000051000080500090438800ce
:104650000900e00005003a00010037008004eb008b
:104660006300640002003a00110037000834a00023
:104670000a08a300040032008968ef0041422f00bd
:10468000314388006828ef00b2d902000000000022
:104690003243800043438000000141008181490092
:1046a000d2408800e34088002488a8002b0037000f
:1046b000224180008a80fb000118a3000e00320016
:1046c0008240e800e780600080ff2f00000061006a
:1046d0000100700020418800504380006143800049
:1046e00061005000e080580050438800614388001a
:1046f00019002000190037007000610002003a0024
:1047000080047800150037000108a3000a003a0071
:1047100089c8bf00080032000040e90089e8b700fe
:1047200030438000414380008100d1000080d300ed
:104730003043880041438800b2d9020000000000e5
:1047400032438000434380000001410081814900e1
:10475000d2408800e34088008004eb00b143800031
:1047600091b79f00a2438000a2b79f0052438000f0
:1047700063438000b2b79f00c3b79f0070438000bf
:1047800081438000d0b79f00e1b79f0000ff230066
:10479000ffb0970000806000f0b79f00f8ef9f0027
:1047a0000000eb00a0bf9f0009014100e08149002b
:1047b00052438800634388008880fb000100d100d9
:1047c00061006000804578000004e00013003200c2
:1047d0000148a30003003a006000b800d0b79f0072
:1047e000e1b79f008828ab00070032003fb0970078
:1047f000cfb0970061005000e0805800b0b79f0034
:10480000c1b79f000500370061014100e081490008
:1048100052438800634388008828a8000808a30042
:10482000100032008808ab00070032003fb097004c
:10483000cfb0970061005000e0805800b0b79f00f3
:10484000c1b79f00070037005043800061438000dc
:1048500061004000e08048005043880061438800c8
:104860008808a800b2408000c1408000810f51003c
:1048700005003900704080001008b500810051002b
:104880000100500002003700028050000000e900e3
:1048900080bf9f00f4760200000000000004b10019
:1048a00080af9f0002003b008000eb0081af9f00c3
:1048b0008fa897007e8657000fb89700810f500091
:1048c0000100360081bf9f000c007800f0fd07005a
:1048d00074854400ffb097000140a0000150a10082
:1048e0000160a0000170a100f1b79f000b04e0007f
:1048f0000b0032007885440020c0b300a0d79f0091
:1049000040c0b300b0d79f0020402100a0af9f005f
:10491000010078000040a1000006b300f0b79f003e
:1049200021b92000914078008180fb0093cbbf002b
:104930004800dd000101700041b92000914078007d
:104940008180fb0095cbbf004800dd008101700035
:1049500060fd2f000f044000028cbe00e043800089
:10496000f1438000d0af9f00e1af9f000040eb001b
:10497000e0df9f0069c0b300f9df9f008ab79f00a6
:104980000a00780010a402000000000080b79f0019
:10499000c10020000800780050a4020000000000c0
:1049a0000080ea0090bf9f00909d200008750200e3
:1049b000000000000a01780089407800c0872000cc
:1049c0002cd4020000000000410120000c007800ff
:1049d000ce6e0200000000000b04e0000500320073
:1049e0004100200022fd2f000f004100ce6e02008a
:1049f00000000000d09e2000ce74020000000000e5
:104a00000a007800e47302000000000080af9f00fd
:104a1000d09f200008750200000000002100200047
:104a200000fd2f000f004000ce6e020000000000cd
:104a300042750200000000004f0678004f05be00de
:104a40004f04be000080fa0000000600889fbe00f0
:104a50008a9fbe0001047800020578008344780034
:104a600027fd07000800e00001003a0018002000c0
:104a7000604080001008b5008005e9000a04440089
:104a80008b0f54004a003e00ddfd07006380640088
:104a900001003a003940b300088055008981fb00cd
:104aa0000318a30002003a000a017800040037004e
:104ab0000308a300010032000000d10000014500fe
:104ac00060408000000041000004e800b140800028
:104ad00032448000e10f410009003200d0438000e1
:104ae000000041008080400080408000808f5000a6
:104af000030036000e08b500008040008000e90089
:104b0000c0408000810f50000200390005003600cf
:104b100070408000800f5400040036000328a3007a
:104b200023003a00c8408800b8408800c040800098
:104b3000808f5000110031000328a3000f003200c5
:104b400072408000028250008382200093417800ee
:104b5000834078000800780071fd0700b1408000b4
:104b6000c0408000808f50000400310008007800b1
:104b70000e08b50000805000b040880078408800e2
:104b80006040800090438800a040880090408800ea
:104b90001100200010418000e70f500005003a008e
:104ba00000c1b30025fe07001100200001003700fe
:104bb0008000eb00010078004f05be004f04be00ee
:104bc00000000600881f78000044780017fd0700e9
:104bd0000000e0000700320008407800c8fc070031
:104be000b0408000c040880011c0b30000c1b300d5
:104bf00012fe07004f04780000000600c0fc07000a
:104c00007ffd07009140800090438000808f50001e
:104c10000300320011c0b30000c1b30007fe07005b
:104c200000000600b6fc0700b0408000c0408800cd
:104c300010418000e50f50002300320006003e00c6
:104c4000e10f50000d0032001f003900e30f50004b
:104c50001a003e001c003700eb0f50000f0032001e
:104c600003003e00e70f500014003e00060037002e
:104c7000ee0f500011003a000d003700e2a40200d0
:104c8000000000001000370011c0b30010c1b300d5
:104c9000eafd0700800020000600370011c0b300c5
:104ca00010c1b300e5fd0700c0002000010037007f
:104cb000d000200010418800000006008040eb007a
:104cc00040c1b300ddfd07006bfd37000400fa00b2
:104cd000889fbe008a9fbe008c1f780090bf9f00f7
:104ce000a1bf9f0002447800030578008445780046
:104cf0008004eb00094678000940780080fc07003a
:104d000010418000ed0f500061003a003cfd0700ab
:104d10000b4078008a48e3005d003a000804e00098
:104d200006003a00ba4388002468a800400020002a
:104d3000104188003a4188005300370000c02f001e
:104d40003c11b40081f82000810f500002003600b1
:104d500000402000e0898800e0898000b04388009e
:104d60000000e800e0898800aa438800b2d9020068
:104d700000000000d0408800e14088002488a8009e
:104d8000e34f54001600320003003e00e14f540090
:104d90003d00390003003700e44f54003a003a0068
:104da000210037001fb89700afb89700e043880094
:104db000f14388000814a2000880fb000000e9000d
:104dc0004f00de004200dd00414480000120a100d0
:104dd00080807000414488002228ef002a003700bc
:104de0002fb897009fb89700010040000a004000cc
:104df000b143800001006800304188001fb897006f
:104e0000afb89700e0438800f14388008968ef005d
:104e1000d1032000314388006828ef0020002000e3
:104e200010418800180037001fb9970022409000f9
:104e30000080fb00b2409000c808dd008080700058
:104e40009281fb00124090004800dd0003007000da
:104e5000808040008a804000b043800080806800ed
:104e600031418800c08720000900090032587800cd
:104e7000a200b100500020001041880011c0b30012
:104e800020c0b3006dfd07000c80fb00040037005c
:104e90008904e800e98f540096ff3a00e00f2000f3
:104ea0004f0678004f05be004f04be000080fa0098
:104eb000000006000f03b000889fbe008a9fbe005e
:104ec0008c9fbe008e1f7800000578008204780059
:104ed0001082fb00104090004800dd0004017000cb
:104ee0002a4290000482fb003a4090004800dd0016
:104ef00084017000a2a79f00b3a79f001101be000c
:104f0000c2a79f00d3a79f000040eb00c0cf9f0027
:104f100060c0b300d0cf9f00f9a79f0009007800c0
:104f200010a4020000000000f0a79f00c1002000b4
:104f300040fc2f000f00400050a4020000000000c1
:104f40000004780009007800e4730200000000000b
:104f50008880ea00808f500010033a000000eb00c8
:104f600000d402000000000003fd2f000f84410068
:104f700041012000080078000e6e020000000000d1
:104f80000800780042fc07006fa897004400de008c
:104f90006f4060004200dd00744050000080fb0064
:104fa0008084540089bf9f00748754009fa9970094
:104fb0000300e000f90232002a4090000080fb006c
:104fc000ba409000c808dd00808070001a81fb00a4
:104fd0001a4090004800dd00020070008080400010
:104fe0009880400083856800e9cfb3000004eb009f
:104ff00008407800c2fb070010418000ed0f500010
:105000002200320031418000e40f500005003a00d8
:105010001fa89700808f50001c003a008844780039
:105020001a0037008b8f500018003a0074fc0700fc
:105030009fa89700b0438000808f500013003a0073
:1050400004fd2f008f004200a0438000910f10004c
:105050000e003a009a80fb001a4090004800dd00e4
:1050600001017000aa4090008180fb003a4090004e
:105070004800dd0081017000e0438000f1438000c2
:10508000800f5100818f5900b70232000804e800f8
:10509000e90f5400d6ff3a0005fd2f000f844200af
:1050a000e2cf44000f0032000940780094fb070073
:1050b00053fc07003b418800c68720000900090017
:1050c0003a5b7800aa00b10018047800a843880071
:1050d0001fac9700b843880069408000994388005e
:1050e000a10237006fa897000098a300ab0232001e
:1050f0006208e200a9023a001fab9700980278000c
:105100008004eb00a4832000140078000000e0007d
:1051100017003200860f500011003a0054b8970073
:10512000850f50000e003a009a80fb001a40900054
:105130004800dd0001017000aa4090008180fb0062
:105140003a4090004800dd008101700004b89700eb
:1051500094b89700820f5000838f5800620232008b
:105160008904e80074024200e38f5400e6ff3a002d
:105170000004eb000840780061fb07002468ab00e6
:10518000050032001efc0700b14380001fa89700f5
:10519000808f50005a0232000804e800e90f5400e2
:1051a0007e023200f3ff3700b2d902000000000097
:1051b000829628009300200000014100818149006f
:1051c000d2408800e340880014418000e40f520080
:1051d00003003200e50f52003b003a001400370094
:1051e0000880fb00e400600006003a000048a300cd
:1051f000060032005c4388006d438800044078005c
:105200008efc07001cfc0700640237000018a30096
:10521000fcff32003fb09700cfb097006100400024
:10522000e0804800704388008143880020003700f8
:105230008880fb000128a30058023a004408de00e1
:1052400061006000004178000004e00005003200c9
:105250005843800069438000880f5600898f5e00a4
:1052600083003a000118a3004c0232003fb29700bd
:10527000cfb2970061024200e0824a007443880086
:1052800085438800ffaa9700c54388000204e00018
:105290000700320011c0b30000c1b30067fc070073
:1052a00070002000104188002488a9003b023700cc
:1052b00011c0b30020c1b30060fc070060002000f3
:1052c00010418800350237000883fb00e1046300c9
:1052d000e9b79f00a9ef9f00cfe897000104e00025
:1052e00002003a00aeb79f00030037008fb9970065
:1052f000f3815100a3b79f000884fb00f8b79f001b
:105300000818a30003003200afb297008502e8003e
:10531000a5b79f00b2408000c1408000810f5100be
:1053200005003900704080001008b5008100510070
:105330000105500002003700028050000005e9001e
:1053400070438000814380003fb49700cfb4970042
:105350000001540081815c0082057800afb49700a1
:105360000900e0001f0032000a00e00028003200bf
:10537000e00f5100e08f5900040035006150b80083
:10538000820f5000838f58000a003c00afb2970094
:1053900005004100e08049004240a90007003400b8
:1053a00005005500cf80de00800f5100818f59002d
:1053b00002003c0015002000010037008002eb00d5
:1053c0006150b800800f5100818f59000e003d00e0
:1053d0002fb49700088045004240a90010003c000f
:1053e00009003700e00f5100e08f59000c00320037
:1053f000070035006150b800820f5000838f5800bd
:1054000007003c00020037000500e00004003a00fd
:10541000ffb497000928a300e0013a00ce0137004d
:105420006600630077ff3a007fb097000048a30052
:10543000da013200eb0f520005003e00e70f520088
:1054400015003100e60f5200b8003a0003003700a3
:10545000ec0f5200b5003a00ae0037005843800010
:1054600069438000880f5600898f5e000800320073
:105470005c4388006d43880011c0b30040c0b30096
:10548000eefb07005843880069438800c3013700da
:1054900070002000104188009743800092408000f7
:1054a0008700510003003b00604080000e08b500fb
:1054b000808040005243800063438000010041002f
:1054c000e08049000c0050008d80580002003b0035
:1054d0008040eb00a1013700a64080000680530009
:1054e000cf80de000002510081825900868f530078
:1054f000020039000400be00040037006040800054
:105500000e08b50000005200e0805a00000156006d
:1055100081815e004240a9002f003400614080007c
:1055200079408000018454006140b800800f510030
:10553000818f590028003e008868a9008888a9004a
:105540002508a900a040800002024000a440880075
:1055500091438000808f500004003900848f5000f8
:105560000d003100010052000400370008804000a7
:10557000840f5000080031000000520052438000a8
:105580006343800000004100e080490050438800f0
:10559000614388009443880071408000810f52006d
:1055a000040039006040800000805000000052007c
:1055b000a04088009243800071408000810f51001c
:1055c0001c00390060408000008050000000510045
:1055d0009043880017003700870f530015003200f2
:1055e000404480000038a300110032000048a300ae
:1055f0000e003200544388006543880090438000c9
:10560000860f500007003100604080000e08b50092
:10561000cf80de000000520081805a005043880095
:1056200061438800964388002548a8008888a80020
:105630008868a800a140800090408000808f5000c2
:105640000c003a002568ab0002003a002488a9004b
:105650000800370050438000614380008c0f5000e9
:105660008d8f580003003a002488a9002568a900fe
:105670008808a9007808e20004003a007fa8970093
:105680000000e000010032002528a8007fa8970054
:10569000c043880010418000e80f500011003a001c
:1056a00050438000614380008c0f50008d8f580064
:1056b0001e003a00b2d9020000000000424b2c004c
:1056c000430020000001410081814900d240880050
:1056d000e34088002488a800900020001041880042
:1056e00012003700e90f500008003a00efb09700b1
:1056f0000100e0000d003a005c4388006d43880023
:10570000cfe8970040c1b300bdfe3700ea0f50005c
:1057100006003a0050438000614380008c0f500027
:105720008d8f58001d013a00b6fe3700ffb4970078
:105730000902b20019013a0010418000eb0f50003d
:1057400016013200ea0f500014013200ec0f500035
:10575000120132000e00e000980032000b044700f6
:105760000b00e0004c003c006fa897004200de00f8
:10577000c003b2000b00500000d402000000000083
:105780008a0f540001003e00080578007043800035
:10579000814380000a004000e08048007043880098
:1057a00081438800b5408000824080000a8042002a
:1057b0008182200091407800820f50001300360053
:1057c000050451000804e8000802780089417800c7
:1057d0000081eb000500780051fa0700080455002d
:1057e000818220009140780070408000080278009b
:1057f000894178000081eb0049fa07007040800081
:1058000000044400b8408800070037000a0278000e
:10581000894178000081eb000500780040fa07001c
:105820000a0078001628b40030448000e10f4000e0
:10583000620032008a00500031448800d04380006a
:1058400000814000120033000100e0005b003c00da
:10585000704380008143800002004000e0804800e7
:105860007043880081438800b04080008000410080
:10587000b140880080408000808f500004003600d6
:105880000e08b500008040000000e900b04088002c
:1058900086a8ef00490037008a0f54000100360047
:1058a0000b0755006fa897004200de00c003b2004e
:1058b00000d4020000000000b34080008b82410051
:1058c000824080000e804200820f50001800360097
:1058d0008182200091407800030051000b005000ad
:1058e0000004e8000a0033000802780089417800cb
:1058f0000081eb000500780009fa07008182200092
:105900009140780070408000080257000500370081
:10591000020078000e08b500008042000000e90097
:105920000e027800894178000081eb000600370004
:1059300081822000914078000e0278008941780031
:105940000081eb0005007800f5f907003044800085
:10595000e10f400003003a003b448800de4388002a
:10596000160037000b044700d1438000808f55009c
:105970000b00310081004000810f540002003e0006
:10598000800f540002003100de438800020037001f
:105990000b805000d04388003b448800070037004c
:1059a00081004000810f540004003600818f5500b3
:1059b00002003e0000005400d0438800afb09700c2
:1059c0000100e0001400320010418000e70f500099
:1059d00002003200b2408000c240880024e8ab00e0
:1059e0000500320011c0b30000c1b30093fa0700f4
:1059f00003fa07000800370024e8a80024c8ab0019
:105a000005003a0024c8a800bad90200000000002e
:105a10007800400000418800afe997000304e000ef
:105a20005e003200744380008543800061014200c3
:105a3000e0814a002fb297003fb49700cfb497009f
:105a400004004400e0804c00800f5100818f590019
:105a500052003a007243880083438800104180005e
:105a6000e70f50000e00320003003e00e60f50002a
:105a700039003a0005003700e80f50000f003200ef
:105a8000e90f500034003a0014003700c000200035
