:020000040000FA
:020000000528D1
:100008000900953118258031ED24F02711102100C1
:10001800C30151138B1B51178B1355303D008F00B3
:10002800AA308F000F1010303E00A00011303D00A4
:10003800CB0014303E009B000B303D00C5000C3057
:10004800C60015303E009D0055303D008F00AA3097
:100058008F000F142100511F8B13511B8B17DD309C
:10006800D5009530D60001302000B0009331C6236A
:1000780080310130D1000130B0009431EF2480315B
:10008800AC3084002130850004308000840AC03000
:100098008000840AA8308000840A8001840A013024
:1000A8008000B13084002130850006308000840A49
:1000B8008001840A1E308000840AC0308000840ACF
:1000C8008001840A8001840A023080005030E100F7
:1000D800A23084002130850004308000840AC030BA
:1000E8008000840AA8308000840A8001840A6A306B
:1000F8008000A73084002130850004308000840A05
:10010800C0308000840AA8308000840A8001840AF4
:10011800FA3080009D308400213085000630800050
:10012800840A8001840A50308000840A7F3080006D
:10013800840ADC308000840A64308000840A4830F5
:100148008000983084002130850004308000840AC3
:1001580081308000840A06308000840A0F308000D5
:10016800840A1C308000B1302100D3002130D40033
:10017800200089317E2180319116A8011F30A2000C
:100188008030B7009031842080311F30A200803049
:10019800B70090314E2080313830A200B70193313A
:1001A8006C238031F5018C1AF50A28087502031DA5
:1001B800E028A808031DE0289131CF218031D628F6
:1001C800E5286300E528260069082200AF00210021
:1001D800511022002F1CF228210051142100D110A7
:1001E8002200AF1CF9282100D1142100511122004E
:1001F8002F1D0029210051152100D1112200AF1D0A
:1002080007292100D1152100511222002F1E0E2985
:10021800210051162100D1122200AF1E15292100FC
:10022800D1162100D11CD32920009231942281318A
:1002380026005D08F5005F08F9002000953160256B
:10024800813175082600DD007908DF005C08F500BB
:100258005E08F90020009531602581317508260077
:10026800DC007908DE0001302100EA00EB012600FD
:1002780060082000AD00260061082000AF002600BD
:1002880062082000AE00260063082000A9002100B3
:100298006A082000A90721006B082000AE3D003045
:1002A800AF3D0030AD3D29082600E70020002E08AC
:1002B8002600E60020002F082600E50020002D0873
:1002C8002600E400FF30E300FF30E2001030E100D8
:1002D8001130E000200048142600E901E9146916ED
:1002E8000230EA00EB01200020082700A5002000CA
:1002F80020082700A6000F30260048052000FD0032
:10030800FF017D08F5007F08F6000430F900FA01C6
:100318009531A22581317008FD007108FF00260083
:100328004A08F500F601F9010130FA00200095317C
:10033800A225813170082100E1007108E200260041
:100348004B0821006107E5000030623DE6000E30F1
:1003580065072200A60000302100663D2200A700A4
:1003680020009031D6208D316A258131220026085F
:100378002100B600220027082100B7002000923192
:10038800F2228131220026082100B6002200270827
:100398002100B7002000913108218131A1012100FD
:1003A800511EC62AD11DC62A2600E901691654081D
:1003B800D8005508D9005608DA005708DB00250090
:1003C8003D082600D40025003E082600D50025005B
:1003D8003F082600D600250040082600D7005D0803
:1003E800F5005F08F9002000953160258131750816
:1003F8002600DD007908DF005C08F5005E08F900DA
:10040800200095316025823175082600DC007908C6
:10041800DE0020009131572182312600600820003B
:10042800DE00260061082000E000260062082000A7
:10043800DF00260063082000DA0026004A08F500DD
:10044800F601F9010130FA0020009531A225823128
:1004580070082100E1007108E20026004B08210025
:100468006107E5000030623DE600650820005A0794
:100478002100E100660820005F3D2100E200003015
:100488002000603D2100E300003020005E3D210097
:10049800E400283061022000DA0000302100623BCD
:1004A8002000DF0000302100633B2000E000003026
:1004B8002100643B2000DE0026006708E300660890
:1004C800E2006508E1006408E00020005A08260000
:1004D800E70020005F082600E600200060082600EC
:1004E800E50020005E082600E400CA012830CB00A1
:1004F8005030E8001030E900EA017230EB002700C4
:10050800A001A101A201A301A401A501200090312D
:10051800D6208D316A25823126004A08F500F60179
:10052800F9010130FA0020009531A22582317008C6
:100538002100E5007108E60026004B082100650748
:10054800E1000030663DE2000E3061072200A6009F
:1005580000302100623D2200A70028302600CB0091
:100568003C302100B600B70120009231F2228231DE
:100578003C302100B600B7012000913108218231BA
:100588000130A1002100511EEB2C2600CA08031DD2
:10059800E92C28304B02031DE92C20002103031D00
:1005A800E92C2600E9016916E915691420005A08A2
:1005B8002600E70020005F082600E600200060080B
:1005C8002600E50020005E082600E40037302200FF
:1005D800A200A3013730A400A50126005808210075
:1005E800C10001302000B0009331EB238231FC3090
:1005F8002100D5009530D60001302000B00093319D
:10060800C6238331260059082100C100013020008B
:10061800B0009331EB238331FC302100D5009530B5
:10062800D60001302000B0009331C6238331260064
:100638005A082100C10001302000B0009331EB239B
:100648008331FC302100D5009530D60001302000E0
:10065800B0009331C623833126005B082100C10016
:1006680001302000B0009331EB238331FE302100AC
:10067800D5009530D60001302000B0009331C62354
:10068800833126005E08F500F601F9010130FA0011
:1006980020009531A225833170082100E5007108FA
:1006A800E600650826005F072200A600003021004A
:1006B800E7006608673D2200A70026082100C10060
:1006C800220027082100C20001302000B000943128
:1006D800392483310130D1000130B0009431EF2446
:1006E80083313730A300A401A501A601B8308600E4
:1006F800213087000030F7001630F8009531C62504
:1007080083312100E801E9012100E80A0319E90A17
:10071800B830680784002130693D85000008CF00A3
:10072800D000F9302000230784002130243D8500C3
:100738002100500880002000A30A0319A40A031905
:10074800A50A0319A60A21006808F5006908F60039
:100758000F30F900FA01200095317F258331701898
:10076800882BF930230784002130243D85000D3083
:100778008000A30A0319A40A0319A50A0319A60AE3
:10078800F930230784002130243D85000A30800099
:10079800A30A0319A40A0319A50A0319A60AB8305B
:1007A8008600213087001030F7001630F8009531A8
:1007B800C62583312100E801E9012100E80A03196F
:1007C800E90AB830680784002130693D85000008CF
:1007D800CF00D000F9302000230784002130243DC9
:1007E80085002100500880002000A30A0319A40AEC
:1007F8000319A50A0319A60A21006808F500690863
:10080800F6001730F900FA01200095317F25843170
:100818007018E12BF930230784002130243D85002E
:100828000D308000A30A0319A40A0319A50A0319A5
:10083800A60AF930230784002130243D85000A30B8
:100848008000A30A0319A40A0319A50A0319A60A12
:10085800F930230784002130243D85000D308000C5
:10086800A30A0319A40A0319A50A0319A60AF93049
:10087800230784002130243D85000A308000A30A24
:100888000319A40A0319A50A0319A60A2100E801F5
:10089800E9012100E80A0319E90AF93020002307D1
:1008A80084002130243D850021006808F70069088C
:1008B800F80020009D258000F930230784002130AE
:1008C800243D850000082100C00001302000B00050
:1008D80095310A258431A30A0319A40A0319A50A24
:1008E8000319A60A21006808F5006908F6002530F2
:1008F800F9000230FA00200095317F258431701804
:100908004D2CF930230784002130243D85000D301B
:100918008000A30A0319A40A0319A50A0319A60A41
:10092800F930230784002130243D85000A308000F7
:10093800A30A0319A40A0319A50A0319A60AF93078
:10094800230784002130243D85000D308000A30A50
:100958000319A40A0319A50A0319A60AF9302307DB
:1009680084002130243D85000A3080002830230788
:100978002100EE0000302000243D2200A0002600C7
:10098800CA0021006E082600CB0020009031D62036
:100998008D316A2584310E3021006E07B600003093
:1009A8002200203D2100B70020009231F22284313C
:1009B8000E3021006E07B60000302200203D2100D5
:1009C800B70020009131082184312000A1012000C6
:1009D8000800B13084002130850006308000840A88
:1009E8008001840A8001840A8001840A8001840AC3
:1009F8008001840A8001AC308400213085000430F5
:100A08008000840A8001840A8001840A8001840AA3
:100A18008001A23084002130850004308000840ADF
:100A28008001840A8001840A8001840A8001503090
:100A3800E100EA01EC0108001711230090133A3095
:100A48008C000F1C252D0C082200A1002000BE01DF
:100A5800C0010130F900FA013C08F5003D08F60034
:100A680095317F2585317018652DBE0A0319C00A96
:100A78003E08F9004008FA00F430F5000130F600AD
:100A880095317F2585317018652D23008C010F1C49
:100A98004B2DF93020003E0784002130403D850071
:100AA80023000C08800020003E08F5004008F600EE
:100AB8003C08F9003D08FA0095317F25853170180A
:100AC800392D3C08F9003D08FA00F430F5000130F2
:100AD800F60095317F258531701C9B2DF430BE00C2
:100AE8000130C000F530F9000130FA003C08F5008B
:100AF8003D08F60095317F25853170189B2DBE0A7B
:100B08000319C00A23008C010F1C882D0C08220031
:100B1800A10020003E08F5004008F6003C08F90056
:100B28003D08FA0095317F2585317018832D1715FA
:100B380008007708F5007808F6002630F90002303A
:100B4800FA0095317F258531701C00347708B43E52
:100B5800F70005300318013E78078A0077088200FD
:100B680025343C34683474346D346C343E343C344D
:100B780068346534613464343E343C3474346934E4
:100B880074346C3465343E3447344334423420344E
:100B9800543443345034493450343C342F3474344E
:100BA800693474346C3465343E340D340A343C345E
:100BB8002F3468346534613464343E340D340A3477
:100BC8003C3462346F34643479343E340D340A343E
:100BD8003C3466346F346E34743420346634613493
:100BE800633465343D34683465346C347634653444
:100BF80074346934633461343E340D340A343C341B
:100C0800633465346E347434653472343E343C3441
:100C180042343E343C3455343E343C3446344F340C
:100C28004E3454342034533449345A3445343D34E2
:100C38003534203443344F344C344F3452343D34FB
:100C4800223423343034303430343034663466342B
:100C580022343E343C3450343E34473472346534A4
:100C680061347434203443346F347734203442345C
:100C780041345334493443342034543443345034A5
:100C88002F34493450342034533474346134633449
:100C98006B343C342F3450343E343C342F3442349B
:100CA8003E343C342F3455343E343C342F344634AF
:100CB8004F344E3454343E343C342F34633465342A
:100CC8006E347434653472343E340D340A343C3432
:100CD800623472343E343C34623472343E340D34FF
:100CE8000A345434683469347334203470346134C9
:100CF800673465342034693473342034733465348C
:100D0800723476346534643420346234793420346F
:100D18006134203447344334423420344834543422
:100D2800543450342034B534533465347234763402
:100D38006534723420347534733469346E346734EE
:100D4800203474346834653420344734723465345C
:100D580061347434203443346F347734203442346B
:100D680041345334493443342034543443345034B4
:100D78002F34493450342034733474346134633438
:100D88006B342E340D340A343C34623472343E34BD
:100D98003C34623472343E340D340A3443346F3494
:100DA8006E34743472346F346C3420342634203406
:100DB80069346E347434653472346634613463343F
:100DC8006534203479346F347534723420344734C0
:100DD80043344234203473346F346C34753474348F
:100DE80069346F346E347334203476346934613442
:100DF800203474346834653420347734653462348C
:100E08002E340D340A343C34623472343E343C346B
:100E1800623472343E340D340A343C346134203444
:100E280068347234653466343D342234683474343A
:100E38007434703473343A342F342F3467346F3445
:100E48006F342E3467346C342F3432344A344A3495
:100E58004D344634543422343E344A346F34693481
:100E68006E34203474346834653420344734433461
:100E7800423420344234653474346134203470345C
:100E880072346F346734723461346D343C342F34C7
:100E980061343E342E340D340A343C3462347234B6
:100EA8003E343C34623472343E340D340A343C34BB
:100EB80069346D34673420347334743479346C3461
:100EC80065343D34223466346C346F3461347434A0
:100ED8003A342034723469346734683474343B34B7
:100EE800223420347334723463343D342234683409
:100EF8007434743470343A342F342F3467346F3484
:100F08006F342E3467346C342F34313456346834AB
:100F1800383476344D3422343E340D340A343C347B
:100F2800623472343E340D340A343C3462347234E0
:100F38003E340D340A343C3466346F346E347434C1
:100F48002034733469347A3465343D34223431348E
:100F580022343E344034723465346C346534613440
:100F68007334653420343034323436342E343034EB
:100F780063343C34623472343E343C342F34663447
:100F88006F346E3474343E340D340A343C342F34A8
:100F980062346F34643479343E343C342F346834EA
:100FA80074346D346C343E340D340A342100310805
:100FB800DF000319E62F0310FC0CFB0CFA0CF90CEC
:100FC800DF0BDF2F79082000CD007A08CE007B08E0
:100FD800CF007C08D00008000130B000403022006B
:100FE8009B0003309C009F151E151E129D171D1691
:060FF8009E162000080017
:101000002100CB01CC01CD01CE01A901AB014808E3
:1010100020003A022100E100490820003B3B21006A
:10102000E2006108F5006208F6000230F900FA01FA
:101030002000C22770082100A5002503031D2A28CF
:10104000FA30D5009530D60001302000B000933141
:10105000C62388310230210048022000D800003029
:101060002100493B2000D90021004808F900490827
:10107000FA0020003A08F5003B08F60095317F257C
:10108000883170187E280230D8070030D93DF930F9
:1010900058072100E10021302000593D2100E200E5
:1010A0000130610784000030623D85000008CB07F5
:1010B0000030CC3D0030CD3D0030CE3DF930200039
:1010C000580784002130593D850000082100AB00FD
:1010D0002908CB072B08CC3D0030CD3D0030CE3D5C
:1010E00020005808F5005908F6003A08F9003B08B6
:1010F000FA0095317F2588317018432821004B086C
:10110000F9004C08FA004D08FB004E08FC001030B6
:10111000B10020008731DA2788314D08D8004E0809
:10112000D90021004B08A9004C08AB00200058084A
:101130002100A907200059082100AB3DA909AB09EE
:10114000F9303C07840021303D3D85002B088000AC
:10115000F9303C07E10021303D3DE20001306107FC
:1011600084000030623D85002908800020000800CE
:1011700022002A082B022100E500003022002C3B2F
:101180002100E6006508F5006608F6000230F90067
:10119000FA012000C22770082200B0002100A0013F
:1011A000A101A401A301023022002A022100A6000D
:1011B000A701031CA70322002A08F900FA012B0843
:1011C000F5002C08F600200095317F258831701835
:1011D0002F2902302100A6070030A73DF93026074D
:1011E00084002130273D85000008F900FA01FB0149
:1011F000FC010830B10020009331B0238831490848
:10120000FD004A08FF002100260A2000D700F9301F
:101210005707840000302100E7002130673D85003A
:1012200000082000FD070030FF3D7D082100A007D9
:1012300020007F082100A13D0030A43D0030A33DE7
:101240002608F5002708F60022002B08F9002C08D4
:10125000FA00200095317F2589317018E928210096
:101260002503031D592903302200AB070030AC3D94
:10127000F9302B07840021302C3D85000008F9004F
:10128000FA01FB01FC0108302100B100200093317C
:10129000B02389314908FD004A08FF007D0821007C
:1012A000A00720007F082100A13D0030A43D0030B0
:1012B000A33D2008F9002108FA002408FB002308B8
:1012C000FC001030B10020008731DA2789314D0849
:1012D000FD004E08FF00210020082000FD0721002E
:1012E00021082000FF3DFD09FF097F082200AD0015
:1012F00020007D082200AE00200008001216921285
:10130000921112119210971297111711171505309B
:101310002100D800200097141430F200F30190311E
:101320000020893197101430F200F3019031002031
:10133000893197141430F200F30190310020893183
:101340002100D80B8A29200017110B302100C5007D
:10135000C4012000953127258931FF302100C700C5
:1013600020009331A223893163302100A8001D3071
:101370002000A2009131F82189310130350521008A
:10138000E100F5000130F900200095316725893131
:10139000F0097018B7291F30A200C030B700933190
:1013A0006C2389311E30A2008030B70093316C234A
:1013B00089311C30A200B70193316C2389311B3075
:1013C000A200C130B70093316C2389313630A200BE
:1013D000B70193316C2389313730A200B7019331C3
:1013E0006C2389310430A2007030B70093316C2334
:1013F00089310530A2001630B70093316C23893152
:101400000630A200FF30B70093316C238A310730D9
:10141000A2001F30B70093316C238A310830A2003C
:10142000B70193316C238A310930A200B70193319F
:101430006C238A310A30A2006E30B70093316C23DE
:101440008A310B30A2001630B70093316C238A31F9
:10145000A201B70193316C238A310130A200B70198
:1014600093316C238A310C30A200B70193316C2385
:101470008A310D30A200B70193316C238A312100EB
:10148000AE01B00138302000A200A130B700933186
:101490006C238A317730A200B70193316C238A31F3
:1014A0007530A200B70193316C238A316730A200F6
:1014B000B70193316C238A311D30A2009131F8219C
:1014C0008A31013035052100E100F5000130F900D5
:1014D0002000953167258A31F00970185C2AEA30BE
:1014E000A200B70193316C238A31D230A200B70138
:1014F00093316C238A31C030A2000D30B700933194
:101500006C238A31C230A2003230B70093316C2391
:101510008A31C330A2000130B70093316C238A3185
:10152000CA30A200EE30B70093316C238A31CB3041
:10153000A2000530B70093316C238A31C430A20079
:101540001230B70093316C238A31C630A2001230BA
:10155000B70093316C238A31C730A2000C30B7003A
:1015600093316C238A31E130A2000230210053070D
:1015700084000030543D850000082000B7009331FE
:101580006C238A31E030A20001302100530784002F
:101590000030543D850000082000B70093316C23D3
:1015A0008A31E330A2000430210053078400003068
:1015B000543D850000082000B70093316C238A3128
:1015C000E230A20003302100530784000030543D74
:1015D000850000082000B70093316C238A31E53084
:1015E000A20006302100530784000030543D8500DE
:1015F00000082000B70093316C238A31E430A20048
:1016000005302100530784000030543D8500000858
:101610002000B70093316C238B312100B8012000EA
:10162000B801B901933149238B3110302100B80042
:101630002000B801B901933149238B3114302100C6
:10164000B80004302000B8007630B9009331492347
:101650008B3112302100B8002000B801B90193315C
:1016600049238B311F30A2001430B70093316C2313
:101670008B3114302100B80076302000B8000430DF
:10168000B9009331492B1C30A2009131F8218B31E4
:1016900040303505B600403036020319522B0100A8
:1016A000332808007230A2009131F8218B313508BF
:1016B000B4000130BE00C0012000A20121002E08AC
:1016C0002000B70093316C238B310130A200210040
:1016D00030082000B70093316C238B31BE0A031908
:1016E000C00A3E08F5004008F600F901FA019531FC
:1016F0006D258B317018A92BA2019131F8218B3106
:1017000035082100D20001302000A2009131F821DB
:101710008B3121005208F5002E08F9002000953188
:1017200067258B31F00970082100E10020003508A1
:10173000F50021003008F9002000953167258B3134
:10174000F00970082100E50061086504E7006718EA
:101750005C2B06302000BC00BD01853120258B317B
:1017600026003A082100AE00B00126003B08210007
:10177000B00026003C082000C100C30126003D083F
:101780002000C30026003E082100BE0026003F08BE
:101790002100BF0020004108BC004308BD00853186
:1017A00020258B310130BE00C0012000A2012100A4
:1017B0002E082000B70093316C238B310130A2003A
:1017C000210030082000B70093316C238B31BE0A12
:1017D0000319C00A3E08F5004008F600F901FA01B5
:1017E00095316D258B31701C082C28302100D500D7
:1017F0009630D60001302000B0009331C6238B31E3
:101800000130D1000130B0009431EF248C31352CFF
:10181000A2019131F8218C3135082100D20001302C
:101820002000A2009131F8218C3121005208F500EE
:101830002E08F9002000953167258C31F0097008D9
:101840002100E10020003508F50021003008F900F2
:101850002000953167258C31F00970082100E500E2
:1018600061086504E7006718D52B013021002E05BB
:10187000E100E2016108F5006208F600F901FA01F1
:10188000200095316D258C31701C502C01302100C9
:101890002E022000BE0000302100303B2000C0009E
:1018A0000C30A2003E08B70093316C238C310D3010
:1018B000A2004008B70093316C238C311E30A20087
:1018C0004030B700903184208C3108302600460229
:1018D000031D682D06304702031D902CCE08031D02
:1018E000902C4F03031D902C25003D08260060021C
:1018F000031D902C25003E0826006102031D902C3C
:1019000025003F0826006202031D902C2500400898
:1019100026006302031D902C200090310E208C3194
:101920002600C708031D682D45304802031D682D99
:101930004E08F500F9012000953167258C317008BB
:101940002100E50026004E08F5004030F900200097
:10195000953167258C31210065087004E700671C0C
:10196000682D25003D0826005802031D682D25001E
:101970003E0826005902031D682D25003F08260059
:101980005A02031D682D2500400826005B02031D36
:10199000682D5103031DD62C08305C02031DD62C84
:1019A0002000161491317E218C3116101130260042
:1019B0005102031D582D5E08F500F601F9010130B2
:1019C000FA0020009531A2258C3170082100E10039
:1019D0007108E20026005F08210061072200A800CC
:1019E00000302100623D2200A90020009031BA2081
:1019F0008C3122002808F5002908F6000730F9008C
:101A0000FA01200095316D258D31701C582D9231D1
:101A100078228D3126005C08F5005E08F900200070
:101A2000953160258D3175082600DC007908DE00CF
:101A30005D08F5005F08F9002000953160258D31C3
:101A400075082600DD007908DF0020009231ED22C4
:101A50008D3126006008F500F601F9010130FA0029
:101A600020009531A2258D317008D4007108D60070
:101A7000260061082000D4070030D63D2230D4076C
:101A80000030D63D54082100B60020005608210041
:101A9000B70020009231F2228D3154082100B600A7
:101AA000200056082100B7002000913108218D3117
:101AB000063026005102031D682DDE08031D682D27
:101AC00050305F02031D682D20008031E7208D31EA
:101AD000200008002600EC01ED012100A001A10179
:101AE000A401A301260054082000FF002600550889
:101AF0002000FD002100200820007D072100A0001B
:101B0000210820007F3D2100A100E7012408673D56
:101B1000A400E1012308613DA3002600560820002F
:101B2000FF00260057082000FD00210020082000AB
:101B30007D072100A000210820007F3D2100A10099
:101B4000E7012408673DA400E1012308613DA300EB
:101B5000260058082000FF00260059082000FD003C
:101B60002100200820007D072100A000210820007E
:101B70007F3D2100A100E7012408673DA400E101A9
:101B80002308613DA30026005A082000FF0026001C
:101B90005B082000FD002100200820007D072100B7
:101BA000A000210820007F3D2100A100E7012408BA
:101BB000673DA400E1012308613DA3002600510810
:101BC0002100A0070030A13D0030A43D0030A33D1E
:101BD0000F30260048052000FD00FF017D08F500BC
:101BE0007F08F6000430F900FA019531A2258D3105
:101BF0007008FD007108FF007D082100A002200090
:101C00007F082100A13B0030A43B0030A33B26000D
:101C10004A082000FF0026004B082000FD0021009C
:101C2000200820007D072100A000210820007F3D22
:101C30002100A100E7012408673DA400E101230879
:101C4000613DA30020007D08F5007F08F60002300A
:101C5000F900FA01C22770082100A50023302000F6
:101C60007D072100E500003020007F3D2100E600D7
:101C7000163065022000D40000302100663B2000B1
:101C8000D6002100A5012600611C482E2100A50ACE
:101C900021002503031D602E2000D40A0319D60A53
:101CA000F93054072100E50021302000563D210085
:101CB000E6000130650784000030663D8500800144
:101CC0002130A600A7012330F900FA0120005408B2
:101CD000F5005608F60095317F258E317018AF2E2D
:101CE00002302100A6070030A73DF9302607840006
:101CF0002130273D850000082000FF00F930210039
:101D00002607E5002130273DE60001306507840005
:101D10000030663D850000082000FD0021002008FD
:101D200020007D072100A000210820007F3D210028
:101D3000A100E7012408673DA400E1012308613DFB
:101D4000A3002608F5002708F60020005408F90033
:101D50005608FA0095317F258E317018702E2100BB
:101D600020082000FD00210021082000FF002100A4
:101D700024082000FD070030FF3DFD09FF097F0812
:101D80002600EC0020007D082600ED002000080061
:101D90007708F5007808F600E430F900FA0195318B
:101DA0007F258E31701C00347708DE3EF7000E3040
:101DB0000318013E78078A00770882000234003455
:101DC0000034003400340034003400340034003473
:101DD0000034003400340034003400340034003463
:101DE0000034003400340034003400340034003453
:101DF0000034003400340034003400340034003443
:101E00000034003400340034003400340034003432
:101E10000034003400340034003400340034003422
:101E20000034003400340034003400340034003412
:101E30000034003400340034003400340034003402
:101E400000340034003400340034003400340034F2
:101E500000340034003400340034003400340034E2
:101E600000340034003400340034003400340034D2
:101E700000340034003400340034003400340034C2
:101E800000340034003400340034003400340034B2
:101E900000340034003400340034003400340034A2
:101EA0000034003400340034003400340034003492
:101EB0000034003400340034003400340034003482
:101EC0000034003400340034003400340034003472
:101ED0000034003400340034003400340034003462
:101EE0000034003400340034003400340034003452
:101EF0000034003400340034003400340034003442
:101F00000034003400340034003400340034003431
:101F10000034003400340034003400340034003421
:101F20000034003400340034003400340034003411
:101F30000034003400340034003400340034003401
:101F400000340034003400340034003400340034F1
:101F500000340034003400340034003400340034E1
:101F600000340034003400340034003400340034D1
:101F700000340034003400340034003400340034C1
:101F80000034FF347508F7007608F8007908FB0084
:101F90007A08FC00F201F3017B08F5007C08F600EA
:101FA000F901FA0195316D258F31701CDA2FF50199
:101FB000F60108001030F4000310F70DF80DF20DD3
:101FC000F30D7B08F2027C08F33B77140318ED2F26
:101FD00077107B08F2077C08F33DF40BDC2F7708C1
:101FE000F5007808F6007208F0007308F1000800A8
:10200000F30A0E30F100BD30F000F00B0528F10BA3
:102010000328F20B0128F30B01280800B022260048
:102020003A08DA003B08DB003C08DC003D08DD0034
:102030003E08DE003F08DF005608E0005708E100D8
:102040005808E2005908E3004008D0004108D100D8
:102050004208D2004308D3004408D4004508D50004
:1020600025003D082600D60025003E082600D700A2
:1020700025003F082600D800250040082600D9008A
:102080000230CF002A302100B600B7012000F22232
:102090002A302100B600B70120000829603022054F
:1020A000A70005302100DA0003102000A70C210052
:1020B000DA0B5428200027082100280203196E2873
:1020C0001F30200022052100E100F9001B30F5003F
:1020D00020007825F0097018442272282000270873
:1020E0002100A800200017111F3022052100E10067
:1020F000A0306104C7002000A22337082100C700D8
:102100002000A2231715080060302205A700053023
:102110002100D90003102000A70C2100D90B8A2828
:1021200020002708210028020319A4281F302000BE
:1021300022052100E100F9001B30F5002000782580
:10214000F00970184422A828200027082100A800C0
:10215000200017111F3022052100E10080306104AA
:10216000C7002000A22337082100C7002000A223B7
:102170001715080022002808F5002908F60070301D
:10218000F9001730FA0020006D25701CC828D528EA
:1021900022002808F5002908F6008830F9001330DD
:1021A000FA0020006D25701CD52808002100A00130
:1021B0000F30260048052000E80002302100DE0034
:1021C00003102000E80D2100DE0BE028A001A5018E
:1021D0000F302200AA000E30200068072100E7001F
:1021E000013067022200AB00AC01031CAC032600E7
:1021F000D201D30120008831B820903122002D086F
:102200002600D20022002E082600D300200008005D
:102210001F30A2008030B70084201F30A200803021
:10222000B7004E201C30A2000230B7004E201F30F5
:10223000A200F821083035052100E500F50008303E
:10224000F900200067257018172970302100360723
:102250002000D40016302100373D2000D600063083
:10226000A2005408B7006C230730A2005608B7003C
:102270006C231C30A2000830B70084201B30A20061
:102280000830B7004E201F30A2000830B70084206D
:102290001F30A200F821083035052100E500F500C7
:1022A0000830F9002000672570184829080026002A
:1022B0004008BA004108BB004208BC004308BD000A
:1022C0004408BE004508BF00250042082600C000A3
:1022D000250043082600C100250044082600C2004E
:1022E000250045082600C300250046082600C40036
:1022F000250047082600C500200008006C082600BD
:10230000CC0020006A082600CD002000EA0A03194C
:10231000EC0A94222600D201D3010F302100C8001C
:10232000C90121302000BA00BB0119302100BC00D6
:10233000BD0120008831002091312600DC01DE0142
:10234000DF014A082100B50026004B082100B30038
:102350000D30B3070030B53D2330C800C901330844
:102360002000BA00210035082000BB0025302100E4
:10237000BC00BD0120008831002091312100B30A4A
:102380000319B50A3308B6003508B7002000F22259
:1023900021003308B6003508B700200008293303B0
:1023A0000319B30163302100A80039302000A200D6
:1023B000F8213508003C0318E8292C302100AC0036
:1023C0000130AD0020008B31432391310130B30047
:1023D0001C30A200F82135082100E100611CF6291B
:1023E0001C302000A2000130B7004E202000080061
:1023F00060302205A70005302100DB00031020001B
:10240000A70C2100DB0BFE29200027082100280251
:1024100003191C2A1F30200022052100E100F900C9
:102420001B30F50020007825F009701C192A442281
:102430001C2A27082100A800200017112300901350
:102440001F30200022052100E10023008C000F1C1A
:10245000272A0C082200A100230090132200210843
:1024600023008C000F1C322A0C082200A10023003C
:1024700090132200210823008C000F1C3D2A0C0819
:102480002000B500171508001711BF302100C70044
:102490002000A22303302100C7002000A22317152B
:1024A00017119F302100C7002000A2232703031D1E
:1024B0005F2A01302100C7002000A223722A0230C7
:1024C0002702031D692A02302100C7002000A22331
:1024D000722A03302702031D722A03302100C7002D
:1024E0002000A223171527082100A80020000800BB
:1024F00026005408D8005508D9005608DA005708B5
:10250000DB0025003D082600D40025003E082600FB
:10251000D50025003F082600D600250040082600EB
:10252000D7002000B022D62826005408D80055082D
:10253000D9005608DA005708DB0025003D082600C0
:10254000D40025003E082600D50025003F082600BF
:10255000D600250040082600D7002000B022D6284B
:10256000D801D80AFF302100E1002130E20020002C
:1025700058082100610784000030623D8500000892
:10258000D000CF00F930200058078400003021002F
:10259000E5002130653D85004F08800006302000B1
:1025A0005802031CB12A250042082600C00025005D
:1025B00043082600C100250044082600C20025006B
:1025C00045082600C300250046082600C400250053
:1025D00047082600C500200008002600E201E301AC
:1025E000200008000230A2007030B7006C230330D6
:1025F000A2001630B7006C231711230090137A3015
:102600008C000F1C012B0C082200A1000E302300AF
:102610008C000F1C092B0C082200A1002000BE0119
:10262000C0010130F900FA0121003608F500370831
:10263000F60020007F257018472BBE0A0319C00A38
:102640003E08F9004008FA00F430F5000130F600C9
:102650007F257018472BF9303E0784002130403D1C
:102660008500000823008C000F1C342B0C0822006E
:10267000A10020003E08F5004008F60021003608C1
:10268000F9003708FA0020007F2570181D2B171558
:102690000800EA30A200F821D430A2002100380856
:1026A0002000B7006C23D630A2003808B7006C2396
:1026B000D730A2003908B7006C23EA30A200F82115
:1026C000013035052100E100F5000130F90020005E
:1026D000672570185D2B080060302205A7000530C3
:1026E0002100DC0003102000A70C2100DC0B722B62
:1026F000200027082100280203198C2B1F302000FE
:1027000022052100E100F9001B30F50020007825AA
:10271000F00970184422902B200027082100A800FF
:10272000200017111F3022052100E1004030610414
:10273000C7002000A22337082100C7002000A223E1
:1027400017150800230090132100470823008C0070
:102750000F1CA82B0F100C082100C6002000080039
:1027600021003108E0000319BC2B0310F90DFA0D0C
:10277000FB0DFC0DE00BB52B79082000C9007A0891
:10278000CA007B08CB007C08CC000800210055085B
:102790008400560885000008BB00BB080319E92B1C
:1027A000D70101303B02031CE92BD70A5708550714
:1027B00084000030563D85000008C00020000A2536
:1027C0000130F200F301002021003B085702031CF6
:1027D000D52B200008002100B20164304102031C07
:1027E000052C4108F5006430F90020008E2575089D
:1027F0002100B2007008C10030303207C000200054
:102800000A250130F200F301002021003208F9000E
:10281000F5012000782570082100E7004108F50047
:102820000A30F90020007825F009210067087004BB
:10283000E100611C2F2C4108F5000A30F90020004E
:102840008E2575082100B2007008C10030303207B3
:10285000C00020000A250130F200F30100203030D2
:1028600021004107C00020000A250130F200F301D9
:1028700000282100B2014108F5004208F60010309E
:10288000F9002730FA0020007F25F009701C662C23
:1028900021004108F5004208F6001030F900273009
:1028A000FA0020008F31C227943175082100B20050
:1028B0007008C1007108C20030303207C00020002B
:1028C0000A250130F200F3010020742C2100410898
:1028D000F5004208F600E830F9000330FA00200065
:1028E0007F25F009701C922C21004108F500420858
:1028F000F600E830F9000330FA0020008F31C227DB
:10290000943175082100B2007008C1007108C2003E
:1029100030303207C00020000A250130F200F301F8
:1029200000209F2C21004108F5004208F600643089
:10293000F900FA0120007F25F009701CBC2C210051
:102940004108F5004208F6006430F900FA01200061
:102950008F31C227943175082100B2007008C10080
:102960007108C20030303207C00020000A25013053
:10297000F200F3010020C92C21004108F5004208B3
:10298000F6000A30F900FA0120007F25F009701CDA
:10299000E52C21004108F5004208F6000A30F90054
:1029A000FA0120008F31C227943175082100B2004E
:1029B0007008C1007108C20030303207C00020002A
:1029C0000A250130F200F3010020303021004107D8
:1029D000C00020000A250130F200F3010028510850
:1029E0002100DD000319082D0D30C00020000A254C
:1029F0000130F200F30100200A302100C000200065
:102A00000A250130F200F30100202100DD0BF42C37
:102A1000200008003003031D162D2E000F1E0D2D63
:102A20000F1E102D2100400822009A0020000800EF
:102A3000210093133E00B801C301CE01330094136B
:102A4000901320008C018D018E019001080023005D
:102A500090128F130F1321004418302D23000F17ED
:102A6000230010122100C41C372D23001016230050
:102A700090111011901010100D3021004502031D0F
:102A8000422D5C2D0C304502031D492D23001014EE
:102A90005C2D0B304502031D502D230090145C2D3E
:102AA000C508031D572D2300101510145C2D450378
:102AB000031D5C2D23001015230090162000080034
:102AC0007508F0007908F5007008F9000800F001B9
:102AD000750879020319F0090800F00175087902F8
:102AE000031D080076087A02031D0800F00908009B
:102AF000F001031479087502031CF0090800F001C5
:102B000076087A02031C08007A087602031C8C2DD2
:102B10007908750203180800F0090800F90803197C
:102B20000800F0010830F4000310F50DF00D7908ED
:102B3000F002751403189F2D75107908F007F40B37
:102B4000942D08007508F7007608F8007908FB0056
:102B50007A08FC00F201F3017B1CB22D7708F20722
:102B60007808F33D0310FC0CFB0C0310F70DF80D77
:102B70007B08F9007C08FA00F501F6017F25701842
:102B8000AC2D7208F0007308F1000800D625F5009E
:102B90008100CD2DD625F500F607F50803190800AC
:102BA000D62541318100F50BD02D080078088A0028
:102BB0007708F70A0319F80A82001C3445344E34AA
:102BC0004334323438346A34363430342034453483
:102BD00074346834653472346E346534743420343B
:102BE0004434723469347634653472342034303489
:102BF000323435340134213401342E3401343A3442
:102C00000F3448345434543450342F3430342E3448
:102C10003934203432343034303420344F344B346F
:102C2000173443346F346E34743465346E34743412
:102C30002D3454347934703465343A342034743457
:102C40006534783474342F34683474346D346C34AF
:102C500019342334323445345234443450345434E7
:102C60004C34203461346E3464342034453452346E
:102C7000443450345434483420346534723472341B
:042C80006F34723407
:020000040001F9
:0A000E008C3FFD3F9F3FFF1FFF3FA7
:00000001FF
