:020000040000FA
:020000000528D1
:100008000900E626532364108B1B64148B135530A8
:100018003D008F00AA308F000F1010303E00A00066
:1000280011303D00CB0014303E009B000B303D00EA
:10003800C5000C30C60015303E009D0055303D000F
:100048008F00AA308F000F148B13200064188B17B1
:10005800613084002330850004308000840AC03079
:100068008000840AA8308000840A8001840A013054
:100078008000663084002330850006308000840AC2
:100088008001840A1E308000840AC0308000840AFF
:100098008001840A8001840A023080005030BB004D
:1000A800573084002330850004308000840AC03033
:1000B8008000840AA8308000840A8001840A6A309B
:1000C80080005C3084002330850004308000840A7E
:1000D800C0308000840AA8308000840A8001840A25
:1000E800FA308000523084002330850006308000CA
:1000F800840A8001840A50308000840A7F3080009E
:10010800840ADC308000840A64308000840A483025
:1001180080004D3084002330850004308000840A3C
:1001280081308000840A06308000840A0F30800005
:10013800840A1C3080006630E6002330E7001D2268
:1001480091161F30A0008030A70076211F30A00034
:100158008030A70050213830A000A7019826A301BD
:10016800F5018C1AF50A23087502031DC728A30890
:10017800031DBE282308A200DF26381CC62801302C
:10018800A300C728A3013225B428CA286300CA28B7
:10019800F30A0E30F100BD30F000F00BD128F10B5E
:1001A800CF28F20BCD28F30BCD280800F325B90191
:1001B800B90A6D3039078400EC0123306C3D8500A5
:1001C8000008E300E2008D30EA002330EB00390834
:1001D8006A07840000306B3D8500620880000630A5
:1001E8003902031CDC28B901B90A8930EA00233036
:1001F800EB0039086A07840000306B3D8500000871
:10020800E300E2009330EA002330EB0039086A0784
:10021800840000306B3D850062088000043039029C
:10022800031CF828B901B90A7330EA002330EB003F
:1002380039086A07840000306B3D85000008E30038
:10024800E2008330EA002330EB0039086A078400B3
:1002580000306B3D85006208800006303902031CBF
:1002680017292A0062082B00BA002A0063082B000D
:10027800BB002A0064082B00BC002A0065082B007C
:10028800BD000230B3002A302000CE00D00129265C
:100298002A30CE00D001862C60302005EA00F50017
:1002A8002030F90055277508A10042020319672973
:1002B8001F302005EA00F9001B30F5003F27F00940
:1002C8007018CD2569292108C20017111F30200593
:1002D800EA00A0306A04DB00BE262708DB00BE2641
:1002E8001715080060302005EA00F5002030F900F5
:1002F80055277508A100420203198D291F302005D2
:10030800EA00F9001B30F5003F27F0097018CD25E9
:100318008F292108C20017111F302005EA008030FC
:100328006A04DB00BE262708DB00BE261715080076
:10033800DE01DF01E001E10102305C02B9000030BA
:100348005D3BBA005C08F9005D08FA002A08F50070
:100358002B08F60046277018ED290230B90700303F
:10036800BA3D6D303907EA0023303A3DEB000130E1
:100378006A07840000306B3D85000008DE07003006
:10038800DF3D0030E03D0030E13D6D30390784004D
:1003980023303A3D85000008F500F601F9010130E7
:1003A800FA0069277008C3007108C5004308DE0712
:1003B8004508DF3D0030E03D0030E13D3908F500FB
:1003C8003A08F6002A08F9002B08FA0046277018A0
:1003D800B1295E08F9005F08FA006008FB006108AF
:1003E800FC001030CB00CB263408B9003508BA0021
:1003F8005E08C3005F08C5003908C3073A08C53D51
:10040800C309C5096D30540784002330553D850064
:10041800450880006D305407EA002330553DEB0055
:1004280001306A07840000306B3D85004308800076
:100438000800121692129211121192109712971127
:10044800171117150530E80097140A30F200F30168
:10045800CC2097100A30F200F301CC2097140A3010
:10046800F200F301CC20E80B282A17110C30D90030
:10047800D801F526FF30DB00BE266330C2001D30F0
:10048800A0008D2501302505EA00F5000130F900AE
:100498002E27F0097018432A1F30A000C030A7008B
:1004A80098261E30A0008030A70098261C30A00097
:1004B800A70198261B30A000C030A7009826363028
:1004C800A000A70198263730A000A701982604307D
:1004D800A0007030A70098260530A0001630A700AD
:1004E80098260630A000FF30A70098260730A00005
:1004F8001F30A70098260830A000A70198260930C9
:10050800A000A70198260A30A0006E30A700982600
:100518000B30A0001630A7009826A001A701982646
:100528000130A000A70198260C30A000A70198264A
:100538000D30A000A7019826C801CA013830A000D4
:10054800A130A70098267730A000A701982675301B
:10055800A000A70198266730A000A70198261D30A3
:10056800A0008D2501302505EA00F5000130F900CD
:100578002E27F0097018B32AEA30A000A7019826A0
:10058800D230A000A7019826C030A0000D30A700E7
:100598009826C230A0003230A7009826C330A000A9
:1005A8000130A7009826CA30A000EE30A700982690
:1005B800CB30A0000530A7009826C430A000123028
:1005C800A7009826C630A0001230A7009826C7308A
:1005D800A0000C30A7009826E130A0000230660782
:1005E80084000030673D85000008A7009826E030A9
:1005F800A0000130660784000030673D85000008D0
:10060800A7009826E330A000043066078400003075
:10061800673D85000008A7009826E230A000033057
:10062800660784000030673D85000008A70098260B
:10063800E530A0000630660784000030673D85007D
:100648000008A7009826E430A0000530660784005B
:100658000030673D85000008A7009826D101A80151
:10066800A90179261030D100A801A90179261430F2
:10067800D1000430A8007630A90079261230D100C4
:10068800A801A90179261F30A0001430A7009826D8
:100698001430D1007630A8000430A900792E6630D5
:1006A80084002330850006308000840A8001840A93
:1006B8008001840A8001840A8001840A8001840AF6
:1006C8008001613084002330850004308000840A72
:1006D8008001840A8001840A8001840A80015730DD
:1006E80084002330850004308000840A8001840A55
:1006F8008001840A8001840A80015030BB00BC015B
:10070800BE0108001C30A0008D2540302505A6003C
:10071800403026020319972B1E30A0004030A70056
:1007280076212C2808007230A0008D252508A40009
:10073800A0014808A70098260130A0004A08A70091
:1007480098260630AC00AD0143252A006E0820002B
:10075800C800CA012A006F082000CA002B00200820
:100768002000B100B3012B0021082000B3002B00AA
:1007780022082000D6002B0023082000D700803054
:100788002B0022052000EA00F5008030F9002E2712
:10079800701CD32B3108AC003308AD004325A001F1
:1007A8004808A70098260130A0004A08A700982604
:1007B800A0018D252508E5000130A0008D256508DC
:1007C800F5004808F9002E27F0097008EA00250806
:1007D800F5004A08F9002E27F0097008EC006A08AD
:1007E8006C04ED006D18D32B01304805EA00EB01CD
:1007F8006A08F5006B08F600F901FA013427701C45
:100808000B2C01304802AE0000304A3BB0000C30DF
:10081800A0002E08A70098260D30A0003008A700D9
:1008280098261E30A0004030A700762108302B0003
:100838002A02031D842C06302B02031D432CB20808
:10084800031D432C3303031D432C2A0062082B008D
:100858004402031D432C2A0063082B004502031D94
:10086800432C2A0064082B004602031D432C2A004F
:1008780065082B004702031D432C2000DA202B00BB
:10088800AB08031D842C45302C02031D842C320830
:10089800F500F90120002E277008EC002B00320823
:1008A800F5004030F90020002E276C087004ED0098
:1008B8006D1C842C2A0062082B003C02031D842C2A
:1008C8002A0063082B003D02031D842C2A006408BB
:1008D8002B003E02031D842C2A0065082B003F02D2
:1008E800031D842C3503031D7F2C08304002031D93
:1008F8007F2C2000CE2406302B003502031D842CCB
:10090800200008001F30A0008030A70076211F308B
:10091800A0008030A70050211C30A0000230A700A2
:1009280050211F30A0008D2508302505EC00F5006A
:100938000830F9002E277018952C0630A00070306A
:100948004E07EA000030503DEB006A08A7009826E1
:100958000730A00016305007A70098261C30A000CA
:100968000830A70076211B30A0000830A7005021CE
:100978001F30A0000830A70076211F30A0008D2569
:1009880008302505EC00F5000830F9002E2770180E
:10099800C12C0800F3253E082B00B00020003C08BD
:1009A8002B00B1002000BC0A0319BE0A2B0038082E
:1009B800BC003908BD003A08BE003B08BF002A0049
:1009C80062082B00B8002A0063082B00B9002A002F
:1009D80064082B00BA002A0065082B00BB00B6018A
:1009E800B7010F302000DC00DD012130AA00AB0187
:1009F8001930D400D5019C212B00C001C201C301CC
:100A08002E08F500F601F9010130FA0020006927E7
:100A18007008CC007108CD002B002F082000CC07EF
:100A28000030CD3D0D30CC070030CD3D2330DC000B
:100A3800DD014C08AA004D08AB002530D400D501D3
:100A48009C21CC0A0319CD0A4C08CE004D08D000D1
:100A580029264C08CE004D08D000862C7230A00004
:100A68008D252508A4003930A0008D252508003CD7
:100A78000318422D8030C600C701862308002C08C1
:100A8800F9002D08FA00EE30F5000530F60046278B
:100A9800701808001711230090133A308C000F1CAF
:100AA800532D0C082000EE002C08F5002D08F60048
:100AB8008130F900FA014627701C8B2DAE01B00178
:100AC8000130F900FA012C08F5002D08F600462738
:100AD80070188B2DAE0A0319B00A23008C010F1C65
:100AE800732D6D3020002E0784002330303D8500A3
:100AF80023000C08800020002E08F5003008F600BE
:100B08002C08F9002D08FA00462770186E2D1715C5
:100B1800080060302005EA00F5002030F90055276C
:100B28007508A10042020319A72D1F302005EA000D
:100B3800F9001B30F5003F27F009701CA52DCD25C5
:100B4800A72D2108C2001711230090131F30200081
:100B58002005EA0023008C000F1CB02D0C08200093
:100B6800EE002300901320006E0823008C000F1C59
:100B7800BB2D0C082000EE002300901320006E0807
:100B880023008C000F1CC62D0C082000A50017158B
:100B980008001711BF30DB00BE260330DB00BE267D
:100BA800171517119F30DB00BE262103031DE02D0A
:100BB8000130DB00BE26EF2D02302102031DE82D97
:100BC8000230DB00BE26EF2D03302102031DEF2D7E
:100BD8000330DB00BE2617152108C2000800B90142
:100BE800B90A7330EA002330EB0039086A07840039
:100BF80000306B3D85000008E300E2006D303907E6
:100C08008400EC0123306C3D8500620880000630CA
:100C18003902031CF42D2A0067082B00A4002A00BF
:100C280068082B00A5002A0069082B00A6002A00E6
:100C38006A082B00A7002A006B082B00A8002A00CE
:100C48006C082B00A900200008000230A0007030BA
:100C5800A70098260330A0001630A7009826171181
:100C6800230090137A308C000F1C382E0C082000BB
:100C7800EE000E3023008C000F1C402E0C082000C4
:100C8800EE00AE01B0010130F900FA014E08F5009E
:100C98005008F60046277018772EAE0A0319B00AD6
:100CA8002E08F9003008FA008030F500F6014627D2
:100CB8007018772E6D302E0784002330303D850064
:100CC800000823008C000F1C672E0C082000EE0083
:100CD8002E08F5003008F6004E08F9005008FA0012
:100CE80046277018512E17150800EA30A0008D25E8
:100CF800D430A0005108A7009826D630A0002808B4
:100D0800A7009826D730A0002908A7009826EA301F
:100D1800A0008D2501302505EA00F5000130F90015
:100D28002E2770188B2E080060302005EA00F50089
:100D38002030F90055277508A10042020319AF2E8B
:100D48001F302005EA00F9001B30F5003F27F009A5
:100D58007018CD25B12E2108C20017111F302005AB
:100D6800EA0040306A04DB00BE262708DB00BE2606
:100D7800171508002300901320005B0823008C003F
:100D88000F1CC42E0F100C082000DA0008004B08B6
:100D9800E9000319D62E0310FC0CFB0CFA0CF90C15
:100DA800E90BCF2E7908B4007A08B5007B08B600A5
:100DB8007C08B7000800A2080319E42E3810E52EB5
:100DC80038140800210093133E00B801C301CE0176
:100DD80033009413901320008C018D018E01900133
:100DE8000800230090128F130F1320005818FE2EAE
:100DF80023000F17230010122000D81C052F2300F2
:100E08001016230090111011901010100D302000B2
:100E18005902031D102F2A2F0C305902031D172FBA
:100E2800230010142A2F0B305902031D1E2F2300F4
:100E380090142A2FD908031D252F230010151014EC
:100E48002A2F5903031D2A2F23001015230090165B
:100E580020000800F001750879020319F00908005C
:100E6800F00175087902031D080076087A02031D4F
:100E78000800F0090800F001031479087502031C42
:100E8800F0090800F00176087A02031C08007A08C5
:100E98007602031C532F7908750203180800F0091D
:100EA8000800F90803190800F0010830F4000310DD
:100EB800F50DF00D7908F00275140318662F7510FA
:100EC8007908F007F40B5B2F08007508F70076081F
:100ED800F8007908FB007A08FC00F201F3017B1C9A
:100EE800792F7708F2077808F33D0310FC0CFB0C08
:100EF8000310F70DF80D7B08F9007C08FA00F501DE
:100F0800F60146277018732F7208F0007308F10075
:020F18000800CF
:020000040001F9
:0A000E008C3FFD3F9F3FFF1FFF3FA7
:00000001FF
